{
  "contractName": "AuctionityProxyUpdate_V1",
  "abi": [
    {
      "constant": true,
      "inputs": [],
      "name": "ethereumChainId",
      "outputs": [
        {
          "name": "",
          "type": "uint8"
        }
      ],
      "payable": false,
      "stateMutability": "view",
      "type": "function"
    },
    {
      "constant": false,
      "inputs": [],
      "name": "delegatedSendGetOracle_V1",
      "outputs": [
        {
          "name": "_oracle",
          "type": "address"
        }
      ],
      "payable": false,
      "stateMutability": "nonpayable",
      "type": "function"
    },
    {
      "constant": false,
      "inputs": [
        {
          "name": "_tokenContractAddress",
          "type": "address"
        },
        {
          "name": "_tokenId",
          "type": "uint256"
        },
        {
          "name": "_amount",
          "type": "uint256"
        },
        {
          "name": "_auctionId",
          "type": "uint256"
        },
        {
          "name": "_refundUser",
          "type": "address"
        }
      ],
      "name": "delegatedLockDeposit_V1",
      "outputs": [
        {
          "name": "_success",
          "type": "bool"
        }
      ],
      "payable": false,
      "stateMutability": "nonpayable",
      "type": "function"
    },
    {
      "constant": true,
      "inputs": [],
      "name": "paused",
      "outputs": [
        {
          "name": "",
          "type": "bool"
        }
      ],
      "payable": false,
      "stateMutability": "view",
      "type": "function"
    },
    {
      "constant": true,
      "inputs": [],
      "name": "oracle",
      "outputs": [
        {
          "name": "",
          "type": "address"
        }
      ],
      "payable": false,
      "stateMutability": "view",
      "type": "function"
    },
    {
      "constant": true,
      "inputs": [],
      "name": "auctionityChainId",
      "outputs": [
        {
          "name": "",
          "type": "uint8"
        }
      ],
      "payable": false,
      "stateMutability": "view",
      "type": "function"
    },
    {
      "constant": true,
      "inputs": [],
      "name": "proxyFallbackContract",
      "outputs": [
        {
          "name": "",
          "type": "address"
        }
      ],
      "payable": false,
      "stateMutability": "view",
      "type": "function"
    },
    {
      "constant": true,
      "inputs": [],
      "name": "contractOwner",
      "outputs": [
        {
          "name": "",
          "type": "address"
        }
      ],
      "payable": false,
      "stateMutability": "view",
      "type": "function"
    },
    {
      "constant": true,
      "inputs": [
        {
          "name": "_selector",
          "type": "bytes4"
        }
      ],
      "name": "getDelegate_V1",
      "outputs": [
        {
          "name": "_contractDelegate",
          "type": "address"
        }
      ],
      "payable": false,
      "stateMutability": "view",
      "type": "function"
    },
    {
      "constant": false,
      "inputs": [],
      "name": "delegatedSendGetPaused_V1",
      "outputs": [
        {
          "name": "_isPaused",
          "type": "bool"
        }
      ],
      "payable": false,
      "stateMutability": "nonpayable",
      "type": "function"
    },
    {
      "constant": false,
      "inputs": [],
      "name": "delegatedSendIsContractOwner_V1",
      "outputs": [
        {
          "name": "_isContractOwner",
          "type": "bool"
        }
      ],
      "payable": false,
      "stateMutability": "nonpayable",
      "type": "function"
    },
    {
      "anonymous": false,
      "inputs": [
        {
          "indexed": false,
          "name": "selector",
          "type": "bytes4"
        },
        {
          "indexed": false,
          "name": "delegate",
          "type": "address"
        }
      ],
      "name": "LogSelectorAdded_V1",
      "type": "event"
    },
    {
      "anonymous": false,
      "inputs": [
        {
          "indexed": false,
          "name": "selector",
          "type": "bytes4"
        },
        {
          "indexed": false,
          "name": "delegate",
          "type": "address"
        },
        {
          "indexed": false,
          "name": "previousDelegate",
          "type": "address"
        }
      ],
      "name": "LogSelectorUpdated_V1",
      "type": "event"
    },
    {
      "anonymous": false,
      "inputs": [
        {
          "indexed": false,
          "name": "selector",
          "type": "bytes4"
        },
        {
          "indexed": false,
          "name": "delegate",
          "type": "address"
        }
      ],
      "name": "LogSelectorRemoved_V1",
      "type": "event"
    },
    {
      "anonymous": false,
      "inputs": [
        {
          "indexed": false,
          "name": "proxyFallbackContract",
          "type": "address"
        }
      ],
      "name": "LogProxyFallbackContractUpdated_V1",
      "type": "event"
    },
    {
      "constant": false,
      "inputs": [
        {
          "name": "_proxyUpdates",
          "type": "address"
        },
        {
          "name": "_ownable",
          "type": "address"
        }
      ],
      "name": "initProxyContract_V1",
      "outputs": [],
      "payable": false,
      "stateMutability": "nonpayable",
      "type": "function"
    },
    {
      "constant": false,
      "inputs": [
        {
          "name": "_delegate",
          "type": "address"
        },
        {
          "name": "_selectors",
          "type": "bytes4[]"
        }
      ],
      "name": "addSelectors_V1",
      "outputs": [],
      "payable": false,
      "stateMutability": "nonpayable",
      "type": "function"
    },
    {
      "constant": false,
      "inputs": [
        {
          "name": "_delegate",
          "type": "address"
        },
        {
          "name": "_selectors",
          "type": "bytes4[]"
        }
      ],
      "name": "updateSelectors_V1",
      "outputs": [],
      "payable": false,
      "stateMutability": "nonpayable",
      "type": "function"
    },
    {
      "constant": false,
      "inputs": [
        {
          "name": "_selectors",
          "type": "bytes4[]"
        }
      ],
      "name": "removeSelectors_V1",
      "outputs": [],
      "payable": false,
      "stateMutability": "nonpayable",
      "type": "function"
    },
    {
      "constant": false,
      "inputs": [
        {
          "name": "_proxyFallbackContract",
          "type": "address"
        }
      ],
      "name": "updateProxyFallbackContract_V1",
      "outputs": [],
      "payable": false,
      "stateMutability": "nonpayable",
      "type": "function"
    }
  ],
  "bytecode": "0x608060405234801561001057600080fd5b506113c2806100206000396000f3fe608060405234801561001057600080fd5b506004361061011d576000357c010000000000000000000000000000000000000000000000000000000090048063a0709812116100b4578063e0237f9111610083578063e0237f911461038e578063f0791d06146103b5578063fbe190df146103bd578063fde2ab80146104705761011d565b8063a070981214610348578063c428d87f14610350578063c6afc7361461037e578063ce606ee0146103865761011d565b80635c975abb116100f05780635c975abb1461025f5780636ac71f72146102675780637dc0d1d01461031a578063979f4d00146103225761011d565b806301890df61461012257806337dfbd73146101405780635470fb47146101e557806356eed26e14610209575b600080fd5b61012a610478565b6040805160ff9092168252519081900360200190f35b6101e36004803603602081101561015657600080fd5b81019060208101813564010000000081111561017157600080fd5b82018360208201111561018357600080fd5b803590602001918460208302840111640100000000831117156101a557600080fd5b91908080602002602001604051908101604052809392919081815260200183836020028082843760009201919091525092955061049a945050505050565b005b6101ed610697565b60408051600160a060020a039092168252519081900360200190f35b61024b600480360360a081101561021f57600080fd5b50600160a060020a03813581169160208101359160408201359160608101359160809091013516610710565b604080519115158252519081900360200190f35b61024b6107ab565b6101e36004803603604081101561027d57600080fd5b600160a060020a0382351691908101906040810160208201356401000000008111156102a857600080fd5b8201836020820111156102ba57600080fd5b803590602001918460208302840111640100000000831117156102dc57600080fd5b9190808060200260200160405190810160405280939291908181526020018383602002808284376000920191909152509295506107cc945050505050565b6101ed610a0b565b6101e36004803603602081101561033857600080fd5b5035600160a060020a0316610a1a565b61012a610ac3565b6101e36004803603604081101561036657600080fd5b50600160a060020a0381358116916020013516610ae6565b6101ed610d20565b6101ed610d2f565b6101ed600480360360208110156103a457600080fd5b5035600160e060020a031916610d3e565b61024b610d63565b6101e3600480360360408110156103d357600080fd5b600160a060020a0382351691908101906040810160208201356401000000008111156103fe57600080fd5b82018360208201111561041057600080fd5b8035906020019184602083028401116401000000008311171561043257600080fd5b919080806020026020016040519081016040528093929190818152602001838360200280828437600092019190915250929550610dd3945050505050565b61024b611048565b6003547501000000000000000000000000000000000000000000900460ff1681565b6104a2611048565b15156104e25760405160e560020a62461bcd02815260040180806020018281038252602181526020018061121c6021913960400191505060405180910390fd5b60005b8151811015610693576000600160a060020a0316600080848481518110151561050a57fe5b6020908102909101810151600160e060020a031916825281019190915260400160002054600160a060020a0316141561058d576040805160e560020a62461bcd02815260206004820152601860248201527f53656c6563746f7220646f6573206e6f742065786973742e0000000000000000604482015290519081900360640190fd5b600080600084848151811015156105a057fe5b6020908102909101810151600160e060020a03191682528101919091526040016000908120548451600160a060020a03909116925081908590859081106105e357fe5b6020908102909101810151600160e060020a0319168252810191909152604001600020805473ffffffffffffffffffffffffffffffffffffffff1916905582517f7ccba4eeb4cdfa970d1f057d0875ea5b768a84c69f0682274140b006c73543319084908490811061065157fe5b602090810290910181015160408051600160e060020a03199092168252600160a060020a0385169282019290925281519081900390910190a1506001016104e5565b5050565b604080517f64656c656761746564526563656976654765744f7261636c655f5631282900008152815190819003601e0181206004825260248201909252602081018051600160e060020a0316600160e060020a03199093169290921790915260009081908190610707908261109b565b50519250505090565b600080600061079d60405180806112f36037913960408051918290036037018220600160a060020a03808e166024850152604484018d9052606484018c9052608484018b9052891660a4808501919091528251808503909101815260c4909301909152602082018051600160e060020a0316600160e060020a03199092169190911790529050600061109b565b505198975050505050505050565b60035474010000000000000000000000000000000000000000900460ff1681565b6107d4611048565b151561082a576040805160e560020a62461bcd02815260206004820152601e60248201527f61646453656c6563746f72735f563120436f6e7472616374206f776e65720000604482015290519081900360640190fd5b600160a060020a038216151561088a576040805160e560020a62461bcd02815260206004820152601f60248201527f64656c65676174652063616e2774206265207a65726f20616464726573732e00604482015290519081900360640190fd5b60005b8151811015610a06576000600160a060020a031660008084848151811015156108b257fe5b6020908102909101810151600160e060020a031916825281019190915260400160002054600160a060020a031614610934576040805160e560020a62461bcd02815260206004820152600d60248201527f46756e63496420636c6173682e00000000000000000000000000000000000000604482015290519081900360640190fd5b82600080848481518110151561094657fe5b602090810291909101810151600160e060020a0319168252810191909152604001600020805473ffffffffffffffffffffffffffffffffffffffff1916600160a060020a039290921691909117905581517fb447987e550c36b2dee396caf87cc4cec6deac48eb03bdae69c58af8c971d165908390839081106109c557fe5b602090810290910181015160408051600160e060020a03199092168252600160a060020a0387169282019290925281519081900390910190a160010161088d565b505050565b600354600160a060020a031681565b610a22611048565b1515610a625760405160e560020a62461bcd02815260040180806020018281038252602d815260200180611260602d913960400191505060405180910390fd5b60018054600160a060020a03831673ffffffffffffffffffffffffffffffffffffffff19909116811790915560408051918252517f0710cc28c4066d7840f48e03d6252f40a6e9a15d762c7c736dd40667df62905c9181900360200190a150565b600354760100000000000000000000000000000000000000000000900460ff1681565b600254600160a060020a031615610b47576040805160e560020a62461bcd02815260206004820152601c60248201527f436f6e7472616374206f776e657220686173206265656e207365742e00000000604482015290519081900360640190fd5b6002805473ffffffffffffffffffffffffffffffffffffffff191633179055604051610b8990839080602161128d82396021019050604051809103902061113c565b610bab826040518080611373602491396024019050604051809103902061113c565b604080517f72656d6f766553656c6563746f72735f5631286279746573345b5d29000000008152905190819003601c019020610be890839061113c565b610c0a82604051808061132a602791396027019050604051809103902061113c565b604080517f676574436f6e74726163744f776e65725f56312829000000000000000000000081529051908190036015019020610c4790829061113c565b610c698160405180806112cf602491396024019050604051809103902061113c565b604080517f6973436f6e74726163744f776e65725f5631282900000000000000000000000081529051908190036014019020610ca690829061113c565b604080517f72656e6f756e63654f776e6572736869705f563128290000000000000000000081529051908190036016019020610ce390829061113c565b604080517f7472616e736665724f776e6572736869705f56312861646472657373290000008152905190819003601d01902061069390829061113c565b600154600160a060020a031681565b600254600160a060020a031681565b600160e060020a031916600090815260208190526040902054600160a060020a031690565b604080517f64656c656761746564526563656976654765745061757365645f5631282900008152815190819003601e0181206004825260248201909252602081018051600160e060020a0316600160e060020a03199093169290921790915260009081908190610707908261109b565b610ddb611048565b1515610e1b5760405160e560020a62461bcd0281526004018080602001828103825260218152602001806112ae6021913960400191505060405180910390fd5b600160a060020a0382161515610e7b576040805160e560020a62461bcd02815260206004820152601f60248201527f64656c65676174652063616e2774206265207a65726f20616464726573732e00604482015290519081900360640190fd5b60005b8151811015610a06576000600160a060020a03166000808484815181101515610ea357fe5b6020908102909101810151600160e060020a031916825281019190915260400160002054600160a060020a03161415610f26576040805160e560020a62461bcd02815260206004820152601860248201527f53656c6563746f7220646f6573206e6f742065786973742e0000000000000000604482015290519081900360640190fd5b60008060008484815181101515610f3957fe5b6020908102909101810151600160e060020a03191682528101919091526040016000908120548451600160a060020a0390911692508591908190869086908110610f7f57fe5b602090810291909101810151600160e060020a0319168252810191909152604001600020805473ffffffffffffffffffffffffffffffffffffffff1916600160a060020a039290921691909117905582517f99b2772be8eb0ae9a4743a599c43bb8d5b417518eacbf4379fa9e6c4bfbf92b290849084908110610ffe57fe5b602090810290910181015160408051600160e060020a03199092168252600160a060020a03808916938301939093529184168183015290519081900360600190a150600101610e7e565b600080600061070760405180806112cf6024913960408051918290036024908101832060048452908301909152602082018051600160e060020a0316600160e060020a0319909216919091179052905060005b60208201516000908190816110af82610d3e565b9050600160a060020a03811615156110c45750835b600160a060020a038116151561110e5760405160e560020a62461bcd02815260040180806020018281038252602381526020018061123d6023913960400191505060405180910390fd5b600080875160208901845af43d93506040519450836000863e801515611132578385fd5b5050509250929050565b600160e060020a03198116600090815260208190526040902054600160a060020a03161561119e5760405160e560020a62461bcd0281526004018080602001828103825260228152602001806113516022913960400191505060405180910390fd5b600160e060020a0319811660008181526020818152604091829020805473ffffffffffffffffffffffffffffffffffffffff1916600160a060020a03871690811790915582519384529083015280517fb447987e550c36b2dee396caf87cc4cec6deac48eb03bdae69c58af8c971d1659281900390910190a1505056fe72656d6f766553656c6563746f72735f563120436f6e7472616374206f776e657241756374696f6e6974792066756e6374696f6e20646f6573206e6f742065786973742e75706461746550726f787946616c6c6261636b436f6e74726163745f563120436f6e7472616374206f776e657261646453656c6563746f72735f563128616464726573732c6279746573345b5d2975706461746553656c6563746f72735f563120436f6e7472616374206f776e657264656c656761746564526563656976654973436f6e74726163744f776e65725f563128296c6f636b4465706f7369745f563128616464726573732c75696e743235362c75696e743235362c75696e743235362c616464726573732975706461746550726f787946616c6c6261636b436f6e74726163745f56312861646472657373295f696e697450726f7879436f6e74726163745f56312046756e63496420636c61736875706461746553656c6563746f72735f563128616464726573732c6279746573345b5d29a165627a7a723058202b96216113ccd553fcd4932bd22051a891d724fe144ce44d5882faf6f2c461a70029",
  "source": "pragma solidity ^0.5.4;\n\nimport \"./AuctionityStorage0.sol\";\nimport \"./AuctionityOwnable_V1.sol\";\nimport \"./AuctionityLibrary_V1.sol\";\n\n/**\n * @title ProxyUpdate\n */\ncontract AuctionityProxyUpdate_V1 is AuctionityLibrary_V1 {\n    event LogSelectorAdded_V1(bytes4 selector, address delegate);\n    event LogSelectorUpdated_V1(\n        bytes4 selector,\n        address delegate,\n        address previousDelegate\n    );\n    event LogSelectorRemoved_V1(bytes4 selector, address delegate);\n    event LogProxyFallbackContractUpdated_V1(address proxyFallbackContract);\n\n    /// @notice Implement all selector for initial proxy update and ownable\n    /// @dev this is call only by proxy contract\n    /// @param _proxyUpdates address : contract proxyUpdate (this contract deployed)\n    /// @param _ownable address : contract ownable\n    function initProxyContract_V1(address _proxyUpdates, address _ownable)\n        public\n    {\n        require(contractOwner == address(0), \"Contract owner has been set.\");\n        contractOwner = msg.sender;\n\n        _initProxyContract_V1(\n            _proxyUpdates,\n            bytes4(keccak256(\"addSelectors_V1(address,bytes4[])\"))\n        );\n        _initProxyContract_V1(\n            _proxyUpdates,\n            bytes4(keccak256(\"updateSelectors_V1(address,bytes4[])\"))\n        );\n        _initProxyContract_V1(\n            _proxyUpdates,\n            bytes4(keccak256(\"removeSelectors_V1(bytes4[])\"))\n        );\n        _initProxyContract_V1(\n            _proxyUpdates,\n            bytes4(keccak256(\"updateProxyFallbackContract_V1(address)\"))\n        );\n        _initProxyContract_V1(\n            _ownable,\n            bytes4(keccak256(\"getContractOwner_V1()\"))\n        );\n        _initProxyContract_V1(\n            _ownable,\n            bytes4(keccak256(\"delegatedReceiveIsContractOwner_V1()\"))\n        );\n        _initProxyContract_V1(\n            _ownable,\n            bytes4(keccak256(\"isContractOwner_V1()\"))\n        );\n        _initProxyContract_V1(\n            _ownable,\n            bytes4(keccak256(\"renounceOwnership_V1()\"))\n        );\n        _initProxyContract_V1(\n            _ownable,\n            bytes4(keccak256(\"transferOwnership_V1(address)\"))\n        );\n\n    }\n\n    /// @notice Add selector only in intitate contract\n    /// @param _delegate address : contract delegated\n    /// @param _selector bytes4 : selector implemented for delegated contract\n    function _initProxyContract_V1(address _delegate, bytes4 _selector)\n        internal\n    {\n        require(\n            delegates[_selector] == address(0),\n            \"_initProxyContract_V1 FuncId clash\"\n        );\n        delegates[_selector] = _delegate;\n        emit LogSelectorAdded_V1(_selector, _delegate);\n    }\n\n    /// @notice Add selector from proxy\n    /// @param _delegate address : contract delegated\n    /// @param _selectors bytes4[] : list of selector implemented for delegated contract\n    function addSelectors_V1(address _delegate, bytes4[] memory _selectors)\n        public\n    {\n        require(\n            delegatedSendIsContractOwner_V1(),\n            \"addSelectors_V1 Contract owner\"\n        );\n\n        require(_delegate != address(0), \"delegate can't be zero address.\");\n\n        for (uint selectorIndex; selectorIndex < _selectors.length; selectorIndex++) {\n            require(\n                delegates[_selectors[selectorIndex]] == address(0),\n                \"FuncId clash.\"\n            );\n            delegates[_selectors[selectorIndex]] = _delegate;\n            emit LogSelectorAdded_V1(_selectors[selectorIndex], _delegate);\n        }\n    }\n\n    /// @notice Update selector from proxy\n    /// @param _delegate address : contract delegated\n    /// @param _selectors bytes4[] : list of selector implemented for delegated contract\n    function updateSelectors_V1(address _delegate, bytes4[] memory _selectors)\n        public\n    {\n        require(\n            delegatedSendIsContractOwner_V1(),\n            \"updateSelectors_V1 Contract owner\"\n        );\n\n        require(_delegate != address(0), \"delegate can't be zero address.\");\n\n        for (uint selectorIndex; selectorIndex < _selectors.length; selectorIndex++) {\n            require(\n                delegates[_selectors[selectorIndex]] != address(0),\n                \"Selector does not exist.\"\n            );\n            address previousDelegate = delegates[_selectors[selectorIndex]];\n            delegates[_selectors[selectorIndex]] = _delegate;\n            emit LogSelectorUpdated_V1(\n                _selectors[selectorIndex],\n                _delegate,\n                previousDelegate\n            );\n\n        }\n    }\n\n    /// @notice remove selector from proxy\n    /// @param _selectors bytes4[] : list of selector implemented for delegated contract\n    function removeSelectors_V1(bytes4[] memory _selectors) public {\n        require(\n            delegatedSendIsContractOwner_V1(),\n            \"removeSelectors_V1 Contract owner\"\n        );\n\n        for (uint selectorIndex; selectorIndex < _selectors.length; selectorIndex++) {\n            require(\n                delegates[_selectors[selectorIndex]] != address(0),\n                \"Selector does not exist.\"\n            );\n            address previousDelegate = delegates[_selectors[selectorIndex]];\n            delete delegates[_selectors[selectorIndex]];\n            emit LogSelectorRemoved_V1(\n                _selectors[selectorIndex],\n                previousDelegate\n            );\n\n        }\n    }\n\n    /// @notice add a fallback contract for another selector unimplemented\n    /// @param _proxyFallbackContract address : contract fallback delegated\n    function updateProxyFallbackContract_V1(address _proxyFallbackContract)\n        public\n    {\n        require(\n            delegatedSendIsContractOwner_V1(),\n            \"updateProxyFallbackContract_V1 Contract owner\"\n        );\n\n        proxyFallbackContract = _proxyFallbackContract;\n\n        emit LogProxyFallbackContractUpdated_V1(_proxyFallbackContract);\n\n    }\n}\n",
  "sourcePath": "/home/mike/domraider/4x-sas/bc-auction-sc/contracts/CommonContract/AuctionityProxyUpdate_V1.sol",
  "compiler": {
    "name": "solc",
    "version": "0.5.4+commit.9549d8ff.Emscripten.clang"
  },
  "schemaVersion": "3.0.2",
  "updatedAt": "2019-09-20T07:24:53.342Z",
  "devdoc": {
    "methods": {
      "addSelectors_V1(address,bytes4[])": {
        "params": {
          "_delegate": "address : contract delegated",
          "_selectors": "bytes4[] : list of selector implemented for delegated contract"
        }
      },
      "delegatedLockDeposit_V1(address,uint256,uint256,uint256,address)": {
        "params": {
          "_amount": "uint256",
          "_auctionId": "uint256",
          "_refundUser": "address",
          "_tokenContractAddress": "address",
          "_tokenId": "uint256"
        },
        "return": "bool _isPaused"
      },
      "delegatedSendGetOracle_V1()": {
        "return": "address _oracle"
      },
      "delegatedSendGetPaused_V1()": {
        "return": "bool _isPaused"
      },
      "delegatedSendIsContractOwner_V1()": {
        "return": "_isContractOwner"
      },
      "getDelegate_V1(bytes4)": {
        "params": {
          "_selector": "byte4"
        },
        "return": "_contractDelegate address"
      },
      "initProxyContract_V1(address,address)": {
        "details": "this is call only by proxy contract",
        "params": {
          "_ownable": "address : contract ownable",
          "_proxyUpdates": "address : contract proxyUpdate (this contract deployed)"
        }
      },
      "removeSelectors_V1(bytes4[])": {
        "params": {
          "_selectors": "bytes4[] : list of selector implemented for delegated contract"
        }
      },
      "updateProxyFallbackContract_V1(address)": {
        "params": {
          "_proxyFallbackContract": "address : contract fallback delegated"
        }
      },
      "updateSelectors_V1(address,bytes4[])": {
        "params": {
          "_delegate": "address : contract delegated",
          "_selectors": "bytes4[] : list of selector implemented for delegated contract"
        }
      }
    },
    "title": "ProxyUpdate"
  },
  "userdoc": {
    "methods": {
      "addSelectors_V1(address,bytes4[])": {
        "notice": "Add selector from proxy"
      },
      "delegatedLockDeposit_V1(address,uint256,uint256,uint256,address)": {
        "notice": "delegate lockDeposit_V1"
      },
      "delegatedSendGetOracle_V1()": {
        "notice": "delegate getOracle_V1"
      },
      "delegatedSendGetPaused_V1()": {
        "notice": "delegate getPaused_V1"
      },
      "delegatedSendIsContractOwner_V1()": {
        "notice": "delegate IsContractOwner_V1"
      },
      "getDelegate_V1(bytes4)": {
        "notice": "get delegated addrss from a selector"
      },
      "initProxyContract_V1(address,address)": {
        "notice": "Implement all selector for initial proxy update and ownable"
      },
      "removeSelectors_V1(bytes4[])": {
        "notice": "remove selector from proxy"
      },
      "updateProxyFallbackContract_V1(address)": {
        "notice": "add a fallback contract for another selector unimplemented"
      },
      "updateSelectors_V1(address,bytes4[])": {
        "notice": "Update selector from proxy"
      }
    }
  }
}