{
  "contractName": "AuctionityLibrary_V1",
  "abi": [
    {
      "constant": true,
      "inputs": [],
      "name": "ethereumChainId",
      "outputs": [
        {
          "name": "",
          "type": "uint8"
        }
      ],
      "payable": false,
      "stateMutability": "view",
      "type": "function"
    },
    {
      "constant": true,
      "inputs": [],
      "name": "paused",
      "outputs": [
        {
          "name": "",
          "type": "bool"
        }
      ],
      "payable": false,
      "stateMutability": "view",
      "type": "function"
    },
    {
      "constant": true,
      "inputs": [],
      "name": "oracle",
      "outputs": [
        {
          "name": "",
          "type": "address"
        }
      ],
      "payable": false,
      "stateMutability": "view",
      "type": "function"
    },
    {
      "constant": true,
      "inputs": [],
      "name": "auctionityChainId",
      "outputs": [
        {
          "name": "",
          "type": "uint8"
        }
      ],
      "payable": false,
      "stateMutability": "view",
      "type": "function"
    },
    {
      "constant": true,
      "inputs": [],
      "name": "proxyFallbackContract",
      "outputs": [
        {
          "name": "",
          "type": "address"
        }
      ],
      "payable": false,
      "stateMutability": "view",
      "type": "function"
    },
    {
      "constant": true,
      "inputs": [],
      "name": "contractOwner",
      "outputs": [
        {
          "name": "",
          "type": "address"
        }
      ],
      "payable": false,
      "stateMutability": "view",
      "type": "function"
    },
    {
      "constant": true,
      "inputs": [
        {
          "name": "_selector",
          "type": "bytes4"
        }
      ],
      "name": "getDelegate_V1",
      "outputs": [
        {
          "name": "_contractDelegate",
          "type": "address"
        }
      ],
      "payable": false,
      "stateMutability": "view",
      "type": "function"
    },
    {
      "constant": false,
      "inputs": [],
      "name": "delegatedSendIsContractOwner_V1",
      "outputs": [
        {
          "name": "_isContractOwner",
          "type": "bool"
        }
      ],
      "payable": false,
      "stateMutability": "nonpayable",
      "type": "function"
    },
    {
      "constant": false,
      "inputs": [],
      "name": "delegatedSendGetOracle_V1",
      "outputs": [
        {
          "name": "_oracle",
          "type": "address"
        }
      ],
      "payable": false,
      "stateMutability": "nonpayable",
      "type": "function"
    },
    {
      "constant": false,
      "inputs": [],
      "name": "delegatedSendGetPaused_V1",
      "outputs": [
        {
          "name": "_isPaused",
          "type": "bool"
        }
      ],
      "payable": false,
      "stateMutability": "nonpayable",
      "type": "function"
    },
    {
      "constant": false,
      "inputs": [
        {
          "name": "_tokenContractAddress",
          "type": "address"
        },
        {
          "name": "_tokenId",
          "type": "uint256"
        },
        {
          "name": "_amount",
          "type": "uint256"
        },
        {
          "name": "_auctionId",
          "type": "uint256"
        },
        {
          "name": "_refundUser",
          "type": "address"
        }
      ],
      "name": "delegatedLockDeposit_V1",
      "outputs": [
        {
          "name": "_success",
          "type": "bool"
        }
      ],
      "payable": false,
      "stateMutability": "nonpayable",
      "type": "function"
    }
  ],
  "bytecode": "0x608060405234801561001057600080fd5b506105b3806100206000396000f3fe608060405234801561001057600080fd5b50600436106100c6576000357c010000000000000000000000000000000000000000000000000000000090048063a07098121161008e578063a070981214610173578063c6afc7361461017b578063ce606ee014610183578063e0237f911461018b578063f0791d06146101b2578063fde2ab80146101ba576100c6565b806301890df6146100cb5780635470fb47146100e957806356eed26e1461010d5780635c975abb146101635780637dc0d1d01461016b575b600080fd5b6100d36101c2565b6040805160ff9092168252519081900360200190f35b6100f16101e4565b60408051600160a060020a039092168252519081900360200190f35b61014f600480360360a081101561012357600080fd5b50600160a060020a0381358116916020810135916040820135916060810135916080909101351661025d565b604080519115158252519081900360200190f35b61014f6102f8565b6100f1610319565b6100d3610328565b6100f161034b565b6100f161035a565b6100f1600480360360208110156101a157600080fd5b5035600160e060020a031916610369565b61014f61038e565b61014f6103fe565b6003547501000000000000000000000000000000000000000000900460ff1681565b604080517f64656c656761746564526563656976654765744f7261636c655f5631282900008152815190819003601e0181206004825260248201909252602081018051600160e060020a0316600160e060020a031990931692909217909152600090819081906102549082610451565b50519250505090565b60008060006102ea60405180806105516037913960408051918290036037018220600160a060020a03808e166024850152604484018d9052606484018c9052608484018b9052891660a4808501919091528251808503909101815260c4909301909152602082018051600160e060020a0316600160e060020a031990921691909117905290506000610451565b505198975050505050505050565b60035474010000000000000000000000000000000000000000900460ff1681565b600354600160a060020a031681565b600354760100000000000000000000000000000000000000000000900460ff1681565b600154600160a060020a031681565b600254600160a060020a031681565b600160e060020a031916600090815260208190526040902054600160a060020a031690565b604080517f64656c656761746564526563656976654765745061757365645f5631282900008152815190819003601e0181206004825260248201909252602081018051600160e060020a0316600160e060020a031990931692909217909152600090819081906102549082610451565b6000806000610254604051808061052d6024913960408051918290036024908101832060048452908301909152602082018051600160e060020a0316600160e060020a0319909216919091179052905060005b602082015160009081908161046582610369565b9050600160a060020a038116151561047a5750835b600160a060020a03811615156104db576040517f08c379a000000000000000000000000000000000000000000000000000000000815260040180806020018281038252602381526020018061050a6023913960400191505060405180910390fd5b600080875160208901845af43d93506040519450836000863e8015156104ff578385fd5b505050925092905056fe41756374696f6e6974792066756e6374696f6e20646f6573206e6f742065786973742e64656c656761746564526563656976654973436f6e74726163744f776e65725f563128296c6f636b4465706f7369745f563128616464726573732c75696e743235362c75696e743235362c75696e743235362c6164647265737329a165627a7a72305820fa9ac26113c24d878d7e721e829d0d013f2ca517be945fe314b26fb279a0db600029",
  "source": "pragma solidity ^0.5.4;\n\nimport \"./AuctionityStorage0.sol\";\n\n/// @title Auction library for delegate for some delegated function\ncontract AuctionityLibrary_V1 is AuctionityStorage0 {\n    /// @notice get delegated addrss from a selector\n    /// @param _selector byte4\n    /// @return _contractDelegate address\n    function getDelegate_V1(bytes4 _selector)\n        public\n        view\n        returns (address _contractDelegate)\n    {\n        return delegates[_selector];\n    }\n\n    /// @notice call delegated function\n    /// @param _calldata bytes : data sended to delegated contract\n    /// @param _contractFallback address: address of fallback if selector is not exist, address(0) if no fallback\n    /// @return uint return pointer and uint return size of callData return\n    function _callDelegated_V1(\n        bytes memory _calldata,\n        address _contractFallback\n    ) internal returns (uint returnPtr, uint returnSize) {\n        /// @dev get selector from _calldata\n        bytes4 _selector;\n        assembly {\n            _selector := mload(add(_calldata, 0x20))\n        }\n\n        /// @dev get address of delegated from selector\n        address _contractDelegate = getDelegate_V1(_selector);\n\n        /// @dev if _contractDelegate not found set _contractFallback into _contractFallback\n        if (_contractDelegate == address(0)) {\n            _contractDelegate = _contractFallback;\n        }\n\n        require(\n            _contractDelegate != address(0),\n            \"Auctionity function does not exist.\"\n        );\n\n        /// @dev delegate call and return result, or the eventual revert\n        assembly {\n            let result := delegatecall(\n                gas,\n                _contractDelegate,\n                add(_calldata, 0x20),\n                mload(_calldata),\n                0,\n                0\n            )\n            returnSize := returndatasize\n            returnPtr := mload(0x40)\n            returndatacopy(returnPtr, 0, returnSize)\n            if eq(result, 0) {\n                revert(returnPtr, returnSize)\n            }\n        }\n\n        /// @dev return returndatacopy\n        return (returnPtr, returnSize);\n\n    }\n\n    /// @notice delegate IsContractOwner_V1\n    /// @return  _isContractOwner\n    function delegatedSendIsContractOwner_V1()\n        public\n        returns (bool _isContractOwner)\n    {\n        uint returnPtr;\n        uint returnSize;\n\n        (returnPtr, returnSize) = _callDelegated_V1(\n            abi.encodeWithSelector(\n                bytes4(keccak256(\"delegatedReceiveIsContractOwner_V1()\"))\n            ),\n            address(0)\n        );\n\n        assembly {\n            _isContractOwner := mload(returnPtr)\n        }\n\n        return _isContractOwner;\n    }\n\n    modifier delegatedSendIsOracle_V1() {\n        require(\n            msg.sender == delegatedSendGetOracle_V1(),\n            \"Sender must be oracle\"\n        );\n        _;\n    }\n\n    /// @notice delegate getOracle_V1\n    /// @return address _oracle\n    function delegatedSendGetOracle_V1() public returns (address _oracle) {\n        uint returnPtr;\n        uint returnSize;\n\n        (returnPtr, returnSize) = _callDelegated_V1(\n            abi.encodeWithSelector(\n                bytes4(keccak256(\"delegatedReceiveGetOracle_V1()\"))\n            ),\n            address(0)\n        );\n\n        assembly {\n            _oracle := mload(returnPtr)\n        }\n        return _oracle;\n\n    }\n\n    /// @notice delegate getPaused_V1\n    /// @return bool _isPaused\n    function delegatedSendGetPaused_V1() public returns (bool _isPaused) {\n        uint returnPtr;\n        uint returnSize;\n\n        (returnPtr, returnSize) = _callDelegated_V1(\n            abi.encodeWithSelector(\n                bytes4(keccak256(\"delegatedReceiveGetPaused_V1()\"))\n            ),\n            address(0)\n        );\n        assembly {\n            _isPaused := mload(returnPtr)\n        }\n        return _isPaused;\n\n    }\n\n    /// @notice delegate lockDeposit_V1\n    /// @param _tokenContractAddress address\n    /// @param _tokenId uint256\n    /// @param _amount uint256\n    /// @param _auctionId uint256\n    /// @param _refundUser address\n    /// @return bool _isPaused\n    function delegatedLockDeposit_V1(\n        address _tokenContractAddress,\n        uint256 _tokenId,\n        uint256 _amount,\n        uint256 _auctionId,\n        address _refundUser\n    ) public returns (bool _success) {\n        uint returnPtr;\n        uint returnSize;\n\n        (returnPtr, returnSize) = _callDelegated_V1(\n            abi.encodeWithSelector(\n                bytes4(\n                    keccak256(\n                        \"lockDeposit_V1(address,uint256,uint256,uint256,address)\"\n                    )\n                ),\n                _tokenContractAddress,\n                _tokenId,\n                _amount,\n                _auctionId,\n                _refundUser\n            ),\n            address(0)\n        );\n\n        assembly {\n            _success := mload(returnPtr)\n        }\n        return _success;\n\n    }\n\n    /// @notice verify if _contractAddress is a contract\n    /// @param _contractAddress address\n    /// @return _isContract\n    function isContract_V1(address _contractAddress)\n        internal\n        view\n        returns (bool _isContract)\n    {\n        uint _size;\n        assembly {\n            _size := extcodesize(_contractAddress)\n        }\n        return _size > 0;\n    }\n\n    /// @notice cast a bytesmemory into a uint256\n    /// @param b bytes\n    /// @return uint256\n    function bytesToUint_V1(bytes memory b) internal pure returns (uint256) {\n        uint256 _number;\n        for (uint i = 0; i < b.length; i++) {\n            _number = _number + uint8(b[i]) * (2 ** (8 * (b.length - (i + 1))));\n        }\n        return _number;\n    }\n}\n",
  "sourcePath": "/home/mike/domraider/4x-sas/bc-auction-sc/contracts/CommonContract/AuctionityLibrary_V1.sol",
  "compiler": {
    "name": "solc",
    "version": "0.5.4+commit.9549d8ff.Emscripten.clang"
  },
  "schemaVersion": "3.0.2",
  "updatedAt": "2019-09-20T07:24:53.340Z",
  "devdoc": {
    "methods": {
      "delegatedLockDeposit_V1(address,uint256,uint256,uint256,address)": {
        "params": {
          "_amount": "uint256",
          "_auctionId": "uint256",
          "_refundUser": "address",
          "_tokenContractAddress": "address",
          "_tokenId": "uint256"
        },
        "return": "bool _isPaused"
      },
      "delegatedSendGetOracle_V1()": {
        "return": "address _oracle"
      },
      "delegatedSendGetPaused_V1()": {
        "return": "bool _isPaused"
      },
      "delegatedSendIsContractOwner_V1()": {
        "return": "_isContractOwner"
      },
      "getDelegate_V1(bytes4)": {
        "params": {
          "_selector": "byte4"
        },
        "return": "_contractDelegate address"
      }
    },
    "title": "Auction library for delegate for some delegated function"
  },
  "userdoc": {
    "methods": {
      "delegatedLockDeposit_V1(address,uint256,uint256,uint256,address)": {
        "notice": "delegate lockDeposit_V1"
      },
      "delegatedSendGetOracle_V1()": {
        "notice": "delegate getOracle_V1"
      },
      "delegatedSendGetPaused_V1()": {
        "notice": "delegate getPaused_V1"
      },
      "delegatedSendIsContractOwner_V1()": {
        "notice": "delegate IsContractOwner_V1"
      },
      "getDelegate_V1(bytes4)": {
        "notice": "get delegated addrss from a selector"
      }
    }
  }
}