{
  "contractName": "AuctionityTreasurer_V1",
  "abi": [
    {
      "constant": true,
      "inputs": [],
      "name": "ethereumChainId",
      "outputs": [
        {
          "name": "",
          "type": "uint8"
        }
      ],
      "payable": false,
      "stateMutability": "view",
      "type": "function"
    },
    {
      "constant": false,
      "inputs": [
        {
          "name": "_auctionityChainId",
          "type": "uint8"
        }
      ],
      "name": "setAuctionityChainId_V1",
      "outputs": [],
      "payable": false,
      "stateMutability": "nonpayable",
      "type": "function"
    },
    {
      "constant": false,
      "inputs": [
        {
          "name": "_ethereumChainId",
          "type": "uint8"
        }
      ],
      "name": "setEthereumChainId_V1",
      "outputs": [],
      "payable": false,
      "stateMutability": "nonpayable",
      "type": "function"
    },
    {
      "constant": false,
      "inputs": [],
      "name": "delegatedSendGetOracle_V1",
      "outputs": [
        {
          "name": "_oracle",
          "type": "address"
        }
      ],
      "payable": false,
      "stateMutability": "nonpayable",
      "type": "function"
    },
    {
      "constant": false,
      "inputs": [
        {
          "name": "_tokenContractAddress",
          "type": "address"
        },
        {
          "name": "_tokenId",
          "type": "uint256"
        },
        {
          "name": "_amount",
          "type": "uint256"
        },
        {
          "name": "_auctionId",
          "type": "uint256"
        },
        {
          "name": "_refundUser",
          "type": "address"
        }
      ],
      "name": "delegatedLockDeposit_V1",
      "outputs": [
        {
          "name": "_success",
          "type": "bool"
        }
      ],
      "payable": false,
      "stateMutability": "nonpayable",
      "type": "function"
    },
    {
      "constant": true,
      "inputs": [],
      "name": "paused",
      "outputs": [
        {
          "name": "",
          "type": "bool"
        }
      ],
      "payable": false,
      "stateMutability": "view",
      "type": "function"
    },
    {
      "constant": true,
      "inputs": [],
      "name": "oracle",
      "outputs": [
        {
          "name": "",
          "type": "address"
        }
      ],
      "payable": false,
      "stateMutability": "view",
      "type": "function"
    },
    {
      "constant": true,
      "inputs": [],
      "name": "auctionityChainId",
      "outputs": [
        {
          "name": "",
          "type": "uint8"
        }
      ],
      "payable": false,
      "stateMutability": "view",
      "type": "function"
    },
    {
      "constant": true,
      "inputs": [],
      "name": "proxyFallbackContract",
      "outputs": [
        {
          "name": "",
          "type": "address"
        }
      ],
      "payable": false,
      "stateMutability": "view",
      "type": "function"
    },
    {
      "constant": true,
      "inputs": [],
      "name": "contractOwner",
      "outputs": [
        {
          "name": "",
          "type": "address"
        }
      ],
      "payable": false,
      "stateMutability": "view",
      "type": "function"
    },
    {
      "constant": true,
      "inputs": [],
      "name": "getEthereumChainId_V1",
      "outputs": [
        {
          "name": "",
          "type": "uint8"
        }
      ],
      "payable": false,
      "stateMutability": "view",
      "type": "function"
    },
    {
      "constant": true,
      "inputs": [
        {
          "name": "_selector",
          "type": "bytes4"
        }
      ],
      "name": "getDelegate_V1",
      "outputs": [
        {
          "name": "_contractDelegate",
          "type": "address"
        }
      ],
      "payable": false,
      "stateMutability": "view",
      "type": "function"
    },
    {
      "constant": true,
      "inputs": [],
      "name": "getAuctionityChainId_V1",
      "outputs": [
        {
          "name": "",
          "type": "uint8"
        }
      ],
      "payable": false,
      "stateMutability": "view",
      "type": "function"
    },
    {
      "constant": false,
      "inputs": [],
      "name": "delegatedSendGetPaused_V1",
      "outputs": [
        {
          "name": "_isPaused",
          "type": "bool"
        }
      ],
      "payable": false,
      "stateMutability": "nonpayable",
      "type": "function"
    },
    {
      "constant": false,
      "inputs": [],
      "name": "delegatedSendIsContractOwner_V1",
      "outputs": [
        {
          "name": "_isContractOwner",
          "type": "bool"
        }
      ],
      "payable": false,
      "stateMutability": "nonpayable",
      "type": "function"
    },
    {
      "anonymous": false,
      "inputs": [
        {
          "indexed": false,
          "name": "user",
          "type": "address"
        },
        {
          "indexed": false,
          "name": "amount",
          "type": "uint256"
        },
        {
          "indexed": false,
          "name": "totalAmount",
          "type": "uint256"
        },
        {
          "indexed": false,
          "name": "hashTransactionDeposit",
          "type": "bytes32"
        }
      ],
      "name": "LogAddDepotEth",
      "type": "event"
    },
    {
      "anonymous": false,
      "inputs": [
        {
          "indexed": false,
          "name": "user",
          "type": "address"
        },
        {
          "indexed": false,
          "name": "amount",
          "type": "uint256"
        },
        {
          "indexed": false,
          "name": "totalAmount",
          "type": "uint256"
        },
        {
          "indexed": false,
          "name": "hashTransactionDeposit",
          "type": "bytes32"
        }
      ],
      "name": "LogAddRewardDepotEth",
      "type": "event"
    },
    {
      "anonymous": false,
      "inputs": [
        {
          "indexed": false,
          "name": "user",
          "type": "address"
        },
        {
          "indexed": false,
          "name": "amount",
          "type": "uint256"
        }
      ],
      "name": "LogWithdrawal",
      "type": "event"
    },
    {
      "anonymous": false,
      "inputs": [
        {
          "indexed": false,
          "name": "user",
          "type": "address"
        },
        {
          "indexed": false,
          "name": "amount",
          "type": "uint256"
        },
        {
          "indexed": false,
          "name": "voucher",
          "type": "bytes"
        }
      ],
      "name": "LogSetWithdrawalVoucher",
      "type": "event"
    },
    {
      "anonymous": false,
      "inputs": [
        {
          "indexed": false,
          "name": "user",
          "type": "address"
        },
        {
          "indexed": false,
          "name": "voucherHash",
          "type": "bytes32"
        }
      ],
      "name": "LogWithdrawalVoucherHaveBeenRemoved",
      "type": "event"
    },
    {
      "anonymous": false,
      "inputs": [
        {
          "indexed": false,
          "name": "user",
          "type": "address"
        },
        {
          "indexed": false,
          "name": "amount",
          "type": "uint256"
        }
      ],
      "name": "LogNewDepotLock",
      "type": "event"
    },
    {
      "anonymous": false,
      "inputs": [
        {
          "indexed": false,
          "name": "user",
          "type": "address"
        },
        {
          "indexed": false,
          "name": "amount",
          "type": "uint256"
        }
      ],
      "name": "LogLockDepositRefund",
      "type": "event"
    },
    {
      "anonymous": false,
      "inputs": [
        {
          "indexed": false,
          "name": "auctionAddress",
          "type": "address"
        },
        {
          "indexed": false,
          "name": "user",
          "type": "address"
        },
        {
          "indexed": false,
          "name": "amount",
          "type": "uint256"
        }
      ],
      "name": "LogEndorse",
      "type": "event"
    },
    {
      "anonymous": false,
      "inputs": [
        {
          "indexed": false,
          "name": "user",
          "type": "address"
        },
        {
          "indexed": false,
          "name": "tokenContractAddress",
          "type": "address"
        },
        {
          "indexed": false,
          "name": "tokenId",
          "type": "uint256"
        },
        {
          "indexed": false,
          "name": "amount",
          "type": "uint256"
        },
        {
          "indexed": false,
          "name": "totalAmount",
          "type": "uint256"
        },
        {
          "indexed": false,
          "name": "transactionHashDeposit",
          "type": "bytes32"
        }
      ],
      "name": "LogAddDepot_V1",
      "type": "event"
    },
    {
      "anonymous": false,
      "inputs": [
        {
          "indexed": false,
          "name": "user",
          "type": "address"
        },
        {
          "indexed": false,
          "name": "tokenContractAddress",
          "type": "address"
        },
        {
          "indexed": false,
          "name": "tokenId",
          "type": "uint256"
        },
        {
          "indexed": false,
          "name": "amount",
          "type": "uint256"
        },
        {
          "indexed": false,
          "name": "totalAmount",
          "type": "uint256"
        },
        {
          "indexed": false,
          "name": "hashTransactionDeposit",
          "type": "bytes32"
        }
      ],
      "name": "LogAddRewardDepot_V1",
      "type": "event"
    },
    {
      "anonymous": false,
      "inputs": [
        {
          "indexed": false,
          "name": "user",
          "type": "address"
        },
        {
          "indexed": false,
          "name": "tokenContractAddress",
          "type": "address"
        },
        {
          "indexed": false,
          "name": "tokenId",
          "type": "uint256"
        },
        {
          "indexed": false,
          "name": "amount",
          "type": "uint256"
        }
      ],
      "name": "LogWithdrawal_V1",
      "type": "event"
    },
    {
      "anonymous": false,
      "inputs": [
        {
          "indexed": false,
          "name": "user",
          "type": "address"
        },
        {
          "indexed": false,
          "name": "amount",
          "type": "uint256"
        },
        {
          "indexed": false,
          "name": "voucher",
          "type": "bytes"
        }
      ],
      "name": "LogSetWithdrawalVoucher_V1",
      "type": "event"
    },
    {
      "anonymous": false,
      "inputs": [
        {
          "indexed": false,
          "name": "user",
          "type": "address"
        },
        {
          "indexed": false,
          "name": "voucherHash",
          "type": "bytes32"
        }
      ],
      "name": "LogWithdrawalVoucherHaveBeenRemoved_V1",
      "type": "event"
    },
    {
      "anonymous": false,
      "inputs": [
        {
          "indexed": false,
          "name": "user",
          "type": "address"
        },
        {
          "indexed": false,
          "name": "tokenContractAddress",
          "type": "address"
        },
        {
          "indexed": false,
          "name": "tokenId",
          "type": "uint256"
        },
        {
          "indexed": false,
          "name": "amount",
          "type": "uint256"
        },
        {
          "indexed": false,
          "name": "auctionId",
          "type": "uint256"
        }
      ],
      "name": "LogNewDepotLock_V1",
      "type": "event"
    },
    {
      "anonymous": false,
      "inputs": [
        {
          "indexed": false,
          "name": "user",
          "type": "address"
        },
        {
          "indexed": false,
          "name": "tokenContractAddress",
          "type": "address"
        },
        {
          "indexed": false,
          "name": "tokenId",
          "type": "uint256"
        },
        {
          "indexed": false,
          "name": "amount",
          "type": "uint256"
        },
        {
          "indexed": false,
          "name": "auctionId",
          "type": "uint256"
        }
      ],
      "name": "LogRefundDepotLock_V1",
      "type": "event"
    },
    {
      "anonymous": false,
      "inputs": [
        {
          "indexed": false,
          "name": "user",
          "type": "address"
        },
        {
          "indexed": false,
          "name": "tokenContractAddress",
          "type": "address"
        },
        {
          "indexed": false,
          "name": "tokenId",
          "type": "uint256"
        },
        {
          "indexed": false,
          "name": "amount",
          "type": "uint256"
        },
        {
          "indexed": false,
          "name": "auctionId",
          "type": "uint256"
        }
      ],
      "name": "LogEndorse_V1",
      "type": "event"
    },
    {
      "constant": false,
      "inputs": [
        {
          "name": "_user",
          "type": "address"
        },
        {
          "name": "_amount",
          "type": "uint256"
        },
        {
          "name": "_transactionHashDeposit",
          "type": "bytes32"
        }
      ],
      "name": "receiveDepotEth_V1",
      "outputs": [
        {
          "name": "",
          "type": "bool"
        }
      ],
      "payable": false,
      "stateMutability": "nonpayable",
      "type": "function"
    },
    {
      "constant": false,
      "inputs": [
        {
          "name": "_user",
          "type": "address"
        },
        {
          "name": "_amount",
          "type": "uint256"
        },
        {
          "name": "_transactionHashDeposit",
          "type": "bytes32"
        }
      ],
      "name": "receiveRewardDepotEth_V1",
      "outputs": [
        {
          "name": "",
          "type": "bool"
        }
      ],
      "payable": false,
      "stateMutability": "nonpayable",
      "type": "function"
    },
    {
      "constant": false,
      "inputs": [
        {
          "name": "_user",
          "type": "address"
        },
        {
          "name": "_tokenContractAddress",
          "type": "address"
        },
        {
          "name": "_amount",
          "type": "uint256"
        },
        {
          "name": "_transactionHashDeposit",
          "type": "bytes32"
        }
      ],
      "name": "receiveDepotERC20_V1",
      "outputs": [
        {
          "name": "",
          "type": "bool"
        }
      ],
      "payable": false,
      "stateMutability": "nonpayable",
      "type": "function"
    },
    {
      "constant": false,
      "inputs": [
        {
          "name": "_user",
          "type": "address"
        },
        {
          "name": "_tokenContractAddress",
          "type": "address"
        },
        {
          "name": "_amount",
          "type": "uint256"
        },
        {
          "name": "_transactionHashDeposit",
          "type": "bytes32"
        }
      ],
      "name": "receiveRewardDepotERC20_V1",
      "outputs": [
        {
          "name": "",
          "type": "bool"
        }
      ],
      "payable": false,
      "stateMutability": "nonpayable",
      "type": "function"
    },
    {
      "constant": false,
      "inputs": [
        {
          "name": "_user",
          "type": "address"
        },
        {
          "name": "_tokenContractAddress",
          "type": "address"
        },
        {
          "name": "_tokenId",
          "type": "uint256"
        },
        {
          "name": "_transactionHashDeposit",
          "type": "bytes32"
        }
      ],
      "name": "receiveDepotERC721_V1",
      "outputs": [
        {
          "name": "",
          "type": "bool"
        }
      ],
      "payable": false,
      "stateMutability": "nonpayable",
      "type": "function"
    },
    {
      "constant": false,
      "inputs": [
        {
          "name": "_user",
          "type": "address"
        },
        {
          "name": "_tokenContractAddress",
          "type": "address"
        },
        {
          "name": "_tokenId",
          "type": "uint256"
        },
        {
          "name": "_amount",
          "type": "uint256"
        },
        {
          "name": "_transactionHashDeposit",
          "type": "bytes32"
        }
      ],
      "name": "receiveDepotERC1155_V1",
      "outputs": [
        {
          "name": "",
          "type": "bool"
        }
      ],
      "payable": false,
      "stateMutability": "nonpayable",
      "type": "function"
    },
    {
      "constant": false,
      "inputs": [
        {
          "name": "_user",
          "type": "address"
        },
        {
          "name": "_tokenContractAddress",
          "type": "address"
        },
        {
          "name": "_tokenId",
          "type": "uint256"
        },
        {
          "name": "_amount",
          "type": "uint256"
        },
        {
          "name": "_transactionHashDeposit",
          "type": "bytes32"
        }
      ],
      "name": "receiveRewardDepotERC1155_V1",
      "outputs": [
        {
          "name": "",
          "type": "bool"
        }
      ],
      "payable": false,
      "stateMutability": "nonpayable",
      "type": "function"
    },
    {
      "constant": true,
      "inputs": [
        {
          "name": "_user",
          "type": "address"
        }
      ],
      "name": "getBalanceEth_V1",
      "outputs": [
        {
          "name": "_balanceOf",
          "type": "uint256"
        }
      ],
      "payable": false,
      "stateMutability": "view",
      "type": "function"
    },
    {
      "constant": true,
      "inputs": [
        {
          "name": "_user",
          "type": "address"
        },
        {
          "name": "_tokenContractAddress",
          "type": "address"
        }
      ],
      "name": "getBalanceERC20_V1",
      "outputs": [
        {
          "name": "_balanceOf",
          "type": "uint256"
        }
      ],
      "payable": false,
      "stateMutability": "view",
      "type": "function"
    },
    {
      "constant": true,
      "inputs": [
        {
          "name": "_user",
          "type": "address"
        },
        {
          "name": "_tokenContractAddress",
          "type": "address"
        },
        {
          "name": "_tokenId",
          "type": "uint256"
        }
      ],
      "name": "getBalanceERC721_V1",
      "outputs": [
        {
          "name": "_balanceOf",
          "type": "uint256"
        }
      ],
      "payable": false,
      "stateMutability": "view",
      "type": "function"
    },
    {
      "constant": true,
      "inputs": [
        {
          "name": "_user",
          "type": "address"
        },
        {
          "name": "_tokenContractAddress",
          "type": "address"
        },
        {
          "name": "_tokenId",
          "type": "uint256"
        }
      ],
      "name": "getBalanceERC1155_V1",
      "outputs": [
        {
          "name": "_balanceOf",
          "type": "uint256"
        }
      ],
      "payable": false,
      "stateMutability": "view",
      "type": "function"
    },
    {
      "constant": true,
      "inputs": [
        {
          "name": "_user",
          "type": "address"
        },
        {
          "name": "_lockedFor",
          "type": "uint256"
        }
      ],
      "name": "getBalanceLockedEth_V1",
      "outputs": [
        {
          "name": "_balanceOf",
          "type": "uint256"
        }
      ],
      "payable": false,
      "stateMutability": "view",
      "type": "function"
    },
    {
      "constant": true,
      "inputs": [
        {
          "name": "_user",
          "type": "address"
        },
        {
          "name": "_tokenContractAddress",
          "type": "address"
        },
        {
          "name": "_lockedFor",
          "type": "uint256"
        }
      ],
      "name": "getBalanceLockedERC20_V1",
      "outputs": [
        {
          "name": "_balanceOf",
          "type": "uint256"
        }
      ],
      "payable": false,
      "stateMutability": "view",
      "type": "function"
    },
    {
      "constant": true,
      "inputs": [
        {
          "name": "_user",
          "type": "address"
        },
        {
          "name": "_tokenContractAddress",
          "type": "address"
        },
        {
          "name": "_tokenId",
          "type": "uint256"
        },
        {
          "name": "_lockedFor",
          "type": "uint256"
        }
      ],
      "name": "getBalanceLockedERC721_V1",
      "outputs": [
        {
          "name": "_balanceOf",
          "type": "uint256"
        }
      ],
      "payable": false,
      "stateMutability": "view",
      "type": "function"
    },
    {
      "constant": true,
      "inputs": [
        {
          "name": "_user",
          "type": "address"
        },
        {
          "name": "_tokenContractAddress",
          "type": "address"
        },
        {
          "name": "_tokenId",
          "type": "uint256"
        },
        {
          "name": "_lockedFor",
          "type": "uint256"
        }
      ],
      "name": "getBalanceLockedERC1155_V1",
      "outputs": [
        {
          "name": "_balanceOf",
          "type": "uint256"
        }
      ],
      "payable": false,
      "stateMutability": "view",
      "type": "function"
    },
    {
      "constant": false,
      "inputs": [
        {
          "name": "_amount",
          "type": "uint256"
        },
        {
          "name": "_refundUser",
          "type": "address"
        }
      ],
      "name": "lockDeposit",
      "outputs": [
        {
          "name": "_success",
          "type": "bool"
        }
      ],
      "payable": false,
      "stateMutability": "nonpayable",
      "type": "function"
    },
    {
      "constant": false,
      "inputs": [
        {
          "name": "_amount",
          "type": "uint256"
        },
        {
          "name": "_lockedFor",
          "type": "uint256"
        }
      ],
      "name": "lockDepositEth_V1",
      "outputs": [
        {
          "name": "_success",
          "type": "bool"
        }
      ],
      "payable": false,
      "stateMutability": "nonpayable",
      "type": "function"
    },
    {
      "constant": false,
      "inputs": [
        {
          "name": "_tokenContractAddress",
          "type": "address"
        },
        {
          "name": "_amount",
          "type": "uint256"
        },
        {
          "name": "_lockedFor",
          "type": "uint256"
        }
      ],
      "name": "lockDepositERC20_V1",
      "outputs": [
        {
          "name": "_success",
          "type": "bool"
        }
      ],
      "payable": false,
      "stateMutability": "nonpayable",
      "type": "function"
    },
    {
      "constant": false,
      "inputs": [
        {
          "name": "_tokenContractAddress",
          "type": "address"
        },
        {
          "name": "_tokenId",
          "type": "uint256"
        },
        {
          "name": "_lockedFor",
          "type": "uint256"
        }
      ],
      "name": "lockDepositERC721_V1",
      "outputs": [
        {
          "name": "_success",
          "type": "bool"
        }
      ],
      "payable": false,
      "stateMutability": "nonpayable",
      "type": "function"
    },
    {
      "constant": false,
      "inputs": [
        {
          "name": "_tokenContractAddress",
          "type": "address"
        },
        {
          "name": "_tokenId",
          "type": "uint256"
        },
        {
          "name": "_amount",
          "type": "uint256"
        },
        {
          "name": "_lockedFor",
          "type": "uint256"
        }
      ],
      "name": "lockDepositERC1155_V1",
      "outputs": [
        {
          "name": "_success",
          "type": "bool"
        }
      ],
      "payable": false,
      "stateMutability": "nonpayable",
      "type": "function"
    },
    {
      "constant": false,
      "inputs": [
        {
          "name": "_amount",
          "type": "uint256"
        },
        {
          "name": "_user",
          "type": "address"
        }
      ],
      "name": "endorse",
      "outputs": [
        {
          "name": "_success",
          "type": "bool"
        }
      ],
      "payable": false,
      "stateMutability": "nonpayable",
      "type": "function"
    },
    {
      "constant": true,
      "inputs": [
        {
          "name": "_user",
          "type": "address"
        }
      ],
      "name": "getDepotEthLockedCountForUser_V1",
      "outputs": [
        {
          "name": "_depotEthLockCount",
          "type": "uint16"
        }
      ],
      "payable": false,
      "stateMutability": "view",
      "type": "function"
    },
    {
      "constant": true,
      "inputs": [
        {
          "name": "_user",
          "type": "address"
        },
        {
          "name": "_index",
          "type": "uint256"
        }
      ],
      "name": "getDepotEthLockedDataForUserByIndex_V1",
      "outputs": [
        {
          "name": "_lockedFor",
          "type": "uint256"
        },
        {
          "name": "_amountLocked",
          "type": "uint256"
        }
      ],
      "payable": false,
      "stateMutability": "view",
      "type": "function"
    },
    {
      "constant": true,
      "inputs": [
        {
          "name": "_user",
          "type": "address"
        }
      ],
      "name": "getDepotEthLockedAmountForUser_V1",
      "outputs": [
        {
          "name": "_totalAmountLocked",
          "type": "uint256"
        }
      ],
      "payable": false,
      "stateMutability": "view",
      "type": "function"
    },
    {
      "constant": false,
      "inputs": [
        {
          "name": "_amount",
          "type": "uint256"
        }
      ],
      "name": "withdrawalEth_V1",
      "outputs": [],
      "payable": false,
      "stateMutability": "nonpayable",
      "type": "function"
    },
    {
      "constant": false,
      "inputs": [
        {
          "name": "_tokenContractAddress",
          "type": "address"
        },
        {
          "name": "_amount",
          "type": "uint256"
        }
      ],
      "name": "withdrawalERC20_V1",
      "outputs": [],
      "payable": false,
      "stateMutability": "nonpayable",
      "type": "function"
    },
    {
      "constant": false,
      "inputs": [
        {
          "name": "_user",
          "type": "address"
        },
        {
          "name": "_tokenContractAddress",
          "type": "address"
        },
        {
          "name": "_tokenId",
          "type": "uint256"
        }
      ],
      "name": "withdrawalERC721_V1",
      "outputs": [],
      "payable": false,
      "stateMutability": "nonpayable",
      "type": "function"
    },
    {
      "constant": false,
      "inputs": [
        {
          "name": "_user",
          "type": "address"
        },
        {
          "name": "_tokenContractAddress",
          "type": "address"
        },
        {
          "name": "_tokenId",
          "type": "uint256"
        },
        {
          "name": "_amount",
          "type": "uint256"
        }
      ],
      "name": "withdrawalERC1155_V1",
      "outputs": [],
      "payable": false,
      "stateMutability": "nonpayable",
      "type": "function"
    },
    {
      "constant": false,
      "inputs": [
        {
          "name": "_user",
          "type": "address"
        },
        {
          "name": "_tokenContractAddress",
          "type": "address"
        },
        {
          "name": "_tokenId",
          "type": "uint256"
        },
        {
          "name": "_amount",
          "type": "uint256"
        }
      ],
      "name": "_withdrawal_V1",
      "outputs": [],
      "payable": false,
      "stateMutability": "nonpayable",
      "type": "function"
    },
    {
      "constant": false,
      "inputs": [
        {
          "name": "_depositContractAddress",
          "type": "address"
        },
        {
          "name": "_oracleRSV",
          "type": "bytes"
        },
        {
          "name": "_signedRawTxWithdrawal",
          "type": "bytes"
        }
      ],
      "name": "setWithdrawalVoucher_V1",
      "outputs": [],
      "payable": false,
      "stateMutability": "nonpayable",
      "type": "function"
    },
    {
      "constant": true,
      "inputs": [
        {
          "name": "_user",
          "type": "address"
        }
      ],
      "name": "getUserWithdrawalVoucherLength_V1",
      "outputs": [
        {
          "name": "_numberOfWithdrawalVoucher",
          "type": "uint16"
        }
      ],
      "payable": false,
      "stateMutability": "view",
      "type": "function"
    },
    {
      "constant": true,
      "inputs": [
        {
          "name": "_user",
          "type": "address"
        },
        {
          "name": "_index",
          "type": "uint16"
        }
      ],
      "name": "getWithdrawalVoucherAtIndex_V1",
      "outputs": [
        {
          "name": "_voucher",
          "type": "bytes"
        }
      ],
      "payable": false,
      "stateMutability": "view",
      "type": "function"
    },
    {
      "constant": true,
      "inputs": [
        {
          "name": "_user",
          "type": "address"
        },
        {
          "name": "_voucherHash",
          "type": "bytes32"
        }
      ],
      "name": "getWithdrawalVoucherIndex_V1",
      "outputs": [
        {
          "name": "",
          "type": "uint16"
        }
      ],
      "payable": false,
      "stateMutability": "view",
      "type": "function"
    },
    {
      "constant": false,
      "inputs": [
        {
          "name": "_user",
          "type": "address"
        },
        {
          "name": "_voucherHash",
          "type": "bytes32"
        }
      ],
      "name": "removeWithdrawalVoucher_V1",
      "outputs": [],
      "payable": false,
      "stateMutability": "nonpayable",
      "type": "function"
    }
  ],
  "bytecode": "0x608060405234801561001057600080fd5b5061429f806100206000396000f3fe608060405234801561001057600080fd5b50600436106102d8576000357c0100000000000000000000000000000000000000000000000000000000900480637f001f551161019f578063c67d475b11610106578063dd4e5362116100bf578063ecc799b711610099578063ecc799b714610bbe578063f0791d0614610bc6578063fc31e8f014610bce578063fde2ab8014610c0a576102d8565b8063dd4e536214610b39578063e0237f9114610b65578063ea7aad0214610b8c576102d8565b8063c67d475b14610a96578063c6afc73614610ad2578063ce606ee014610ada578063ce78255214610ae2578063d65b14cf14610aea578063d6cb30b214610b16576102d8565b80639ed78ec3116101585780639ed78ec314610996578063a0709812146109c8578063a0bc0f70146109d0578063a1ae093514610a02578063c555961314610a3e578063c5e71fa314610a70576102d8565b80637f001f55146107dc578063827b91461461081e5780638912244014610854578063920b1f79146108f9578063947cf8df1461092557806394e9ce8e14610951576102d8565b80634323fb121161024357806356eed26e116101fc57806356eed26e146106e95780635badf4c91461072b5780635c975abb146107685780636f67acce146107705780636fb996c31461079e5780637dc0d1d0146107d4576102d8565b80634323fb121461061457806347960938146106345780634e56e9d9146102dd5780635470fb471461065157806354fab93a14610675578063553fe6fd146106ad576102d8565b806314c88da61161029557806314c88da6146103ff57806328a8081c1461045557806329b5886e1461047b5780632aaca14a146103435780632cf19b6e146104b75780633f7c725a146104d7576102d8565b806301399278146102dd57806301890df614610325578063042f4bbe14610343578063061fb71d1461037f57806307b30b01146103ad5780630c8ad6aa146103d3575b600080fd5b610313600480360360608110156102f357600080fd5b50600160a060020a03813581169160208101359091169060400135610c12565b60408051918252519081900360200190f35b61032d610c29565b6040805160ff9092168252519081900360200190f35b6103136004803603608081101561035957600080fd5b50600160a060020a03813581169160208101359091169060408101359060600135610c4b565b6103ab6004803603604081101561039557600080fd5b50600160a060020a038135169060200135610c62565b005b610313600480360360208110156103c357600080fd5b5035600160a060020a0316610cb0565b610313600480360360408110156103e957600080fd5b50600160a060020a038135169060200135610cc6565b610441600480360360a081101561041557600080fd5b50600160a060020a03813581169160208101359091169060408101359060608101359060800135610cde565b604080519115158252519081900360200190f35b6103136004803603602081101561046b57600080fd5b5035600160a060020a0316610e16565b6103ab6004803603608081101561049157600080fd5b50600160a060020a03813581169160208101359091169060408101359060600135610e24565b6103ab600480360360208110156104cd57600080fd5b503560ff16610e73565b6103ab600480360360608110156104ed57600080fd5b600160a060020a03823516919081019060408101602082013564010000000081111561051857600080fd5b82018360208201111561052a57600080fd5b8035906020019184600183028401116401000000008311171561054c57600080fd5b91908080601f016020809104026020016040519081016040528093929190818152602001838380828437600092019190915250929594936020810193503591505064010000000081111561059f57600080fd5b8201836020820111156105b157600080fd5b803590602001918460018302840111640100000000831117156105d357600080fd5b91908080601f016020809104026020016040519081016040528093929190818152602001838380828437600092019190915250929550610f01945050505050565b6103ab6004803603602081101561062a57600080fd5b503560ff1661135f565b6103ab6004803603602081101561064a57600080fd5b50356113eb565b61065961146b565b60408051600160a060020a039092168252519081900360200190f35b6104416004803603608081101561068b57600080fd5b50600160a060020a0381351690602081013590604081013590606001356114e5565b6103ab600480360360808110156106c357600080fd5b50600160a060020a038135811691602081013590911690604081013590606001356114f4565b610441600480360360a08110156106ff57600080fd5b50600160a060020a038135811691602081013591604082013591606081013591608090910135166115c1565b6107516004803603602081101561074157600080fd5b5035600160a060020a031661165c565b6040805161ffff9092168252519081900360200190f35b61044161166a565b6103136004803603604081101561078657600080fd5b50600160a060020a038135811691602001351661168b565b6103ab600480360360608110156107b457600080fd5b50600160a060020a03813581169160208101359091169060400135611699565b6106596116e8565b610441600480360360a08110156107f257600080fd5b50600160a060020a038135811691602081013590911690604081013590606081013590608001356116f7565b6103136004803603606081101561083457600080fd5b50600160a060020a038135811691602081013590911690604001356117d4565b6108846004803603604081101561086a57600080fd5b508035600160a060020a0316906020013561ffff166117e3565b6040805160208082528351818301528351919283929083019185019080838360005b838110156108be5781810151838201526020016108a6565b50505050905090810190601f1680156108eb5780820380516001836020036101000a031916815260200191505b509250505060405180910390f35b6103ab6004803603604081101561090f57600080fd5b50600160a060020a0381351690602001356118ad565b6107516004803603604081101561093b57600080fd5b50600160a060020a038135169060200135611b4f565b61097d6004803603604081101561096757600080fd5b50600160a060020a038135169060200135611b7b565b6040805192835260208301919091528051918290030190f35b610441600480360360608110156109ac57600080fd5b50600160a060020a038135169060208101359060400135611b96565b61032d611ba6565b610441600480360360608110156109e657600080fd5b50600160a060020a038135169060208101359060400135611bc9565b61044160048036036080811015610a1857600080fd5b50600160a060020a03813581169160208101359091169060408101359060600135611bd9565b61044160048036036060811015610a5457600080fd5b50600160a060020a038135169060208101359060400135611d0f565b61075160048036036020811015610a8657600080fd5b5035600160a060020a0316611e9c565b61044160048036036080811015610aac57600080fd5b50600160a060020a03813581169160208101359091169060408101359060600135611eba565b610659611fa8565b610659611fb7565b61032d611fc6565b61044160048036036040811015610b0057600080fd5b5080359060200135600160a060020a0316611fe8565b61044160048036036040811015610b2c57600080fd5b50803590602001356120ce565b61044160048036036040811015610b4f57600080fd5b5080359060200135600160a060020a03166120de565b61065960048036036020811015610b7b57600080fd5b5035600160e060020a031916612150565b61044160048036036060811015610ba257600080fd5b50600160a060020a038135169060208101359060400135612175565b61032d6122a7565b6104416122ca565b61044160048036036080811015610be457600080fd5b50600160a060020a0381358116916020810135909116906040810135906060013561233a565b610441612415565b6000610c1f84848461246c565b90505b9392505050565b6003547501000000000000000000000000000000000000000000900460ff1681565b6000610c59858585856124a1565b95945050505050565b610c6f33836000846114f4565b60408051338152600160a060020a03841660208201526000818301526060810183905290516000805160206141ab8339815191529181900360800190a15050565b6000610cbe826000806124e1565b90505b919050565b6000610cd583600080856124a1565b90505b92915050565b6000610ce861146b565b600160a060020a03163314610d35576040805160e560020a62461bcd0281526020600482015260156024820152600080516020614226833981519152604482015290519081900360640190fd5b600082815260066020526040902054829060ff1615610d885760405160e560020a62461bcd0281526004018080602001828103825260218152602001806141246021913960400191505060405180910390fd5b6000818152600660205260409020805460ff19166001179055610dad87878787612576565b5060008051602061418b83398151915287878787610dcc8c8c8c610c12565b60408051600160a060020a039687168152949095166020850152838501929092526060830152608082015260a0810186905290519081900360c00190a15060019695505050505050565b6000610cbe8260008061246c565b610e30338484846114f4565b60408051338152600160a060020a03851660208201528082018490526060810183905290516000805160206141ab8339815191529181900360800190a150505050565b610e7b612415565b1515610ebb5760405160e560020a62461bcd0281526004018080602001828103825260238152602001806141456023913960400191505060405180910390fd5b6003805460ff9092167601000000000000000000000000000000000000000000000276ff0000000000000000000000000000000000000000000019909216919091179055565b610f0961146b565b600160a060020a03163314610f56576040805160e560020a62461bcd0281526020600482015260156024820152600080516020614226833981519152604482015290519081900360640190fd5b805160208201206000908190610f7384610f6e6122a7565b612646565b9093509150610f8586848484896126db565b1515610fc55760405160e560020a62461bcd02815260040180806020018281038252602e815260200180614246602e913960400191505060405180910390fd5b600160a060020a038316600090815260056020908152604080832060019081018054808301808355918652848620845180860190955260038086527f307830000000000000000000000000000000000000000000000000000000000095909601948552929491936110399390910191613fc0565b50039050600061104b858388516127a5565b611055858361282a565b611060858389612922565b905061106e81868489612baf565b600160a060020a0386166000908152600560205260409020600101805491925060609161ffff851690811061109f57fe5b600091825260209182902001805460408051601f600260001961010060018716150201909416939093049283018590048502810185019091528181529283018282801561112d5780601f106111025761010080835404028352916020019161112d565b820191906000526020600020905b81548152906001019060200180831161111057829003601f168201915b505050600160a060020a03891660009081526005602090815260408083208651838801208452909152902054929350505061ffff16156111b7576040805160e560020a62461bcd02815260206004820181905260248201527f5769746864726177616c20766f756368657220616c7265616479206578697374604482015290519081900360640190fd5b600160a060020a038616600081815260056020908152604080832085518684019081208552908352818420805461ffff191661ffff8a161790558151948552918401899052606090840181815285519185019190915284517f5916f06e7edceeabfc287fe4337682d90bc4aeb2084ebe6753489cbf05e8f83f948b948b948894929360808501928190849084905b8381101561125d578181015183820152602001611245565b50505050905090810190601f16801561128a5780820380516001836020036101000a031916815260200191505b5094505050505060405180910390a17fd568c8bd1faf364a0cd74b82ee3bbe571b68f7df17ee5291e1ec0e6312c4be378686836040518084600160a060020a0316600160a060020a0316815260200183815260200180602001828103825283818151815260200191508051906020019080838360005b83811015611318578181015183820152602001611300565b50505050905090810190601f1680156113455780820380516001836020036101000a031916815260200191505b5094505050505060405180910390a1505050505050505050565b611367612415565b15156113a75760405160e560020a62461bcd0281526004018080602001828103825260218152602001806141036021913960400191505060405180910390fd5b6003805460ff90921675010000000000000000000000000000000000000000000275ff00000000000000000000000000000000000000000019909216919091179055565b6113f833600080846114f4565b604080513381526020810183905281517fb4214c8c54fc7442f36d3682f59aebaf09358a4431835b30efb29d52cf9e1e91929181900390910190a160408051338152600060208201819052818301526060810183905290516000805160206141ab8339815191529181900360800190a150565b604080517f64656c656761746564526563656976654765744f7261636c655f5631282900008152815190819003601e0181206004825260248201909252602081018051600160e060020a0316600160e060020a031990931692909217909152600090819081906114db9082612e4b565b5051925050505b90565b6000610c593286868686612ee2565b6000811161154c576040805160e560020a62461bcd02815260206004820152601d60248201527f416d6f756e74206d7573742062652067726561746572207468616e2030000000604482015290519081900360640190fd5b8061155885858561246c565b10156115ae576040805160e560020a62461bcd02815260206004820152600e60248201527f416d6f756e7420746f6f206c6f77000000000000000000000000000000000000604482015290519081900360640190fd5b6115ba84848484612fc5565b5050505050565b600080600061164e60405180806141ef6037913960408051918290036037018220600160a060020a03808e166024850152604484018d9052606484018c9052608484018b9052891660a4808501919091528251808503909101815260c4909301909152602082018051600160e060020a0316600160e060020a031990921691909117905290506000612e4b565b505198975050505050505050565b6000610cbe8260008061308a565b60035474010000000000000000000000000000000000000000900460ff1681565b6000610cd58383600061246c565b6116a633838360016114f4565b60408051338152600160a060020a03841660208201528082018390526001606082015290516000805160206141ab8339815191529181900360800190a1505050565b600354600160a060020a031681565b600061170161146b565b600160a060020a0316331461174e576040805160e560020a62461bcd0281526020600482015260156024820152600080516020614226833981519152604482015290519081900360640190fd5b61175a86868686612576565b507fe0cb0735aa7f3ca57da7ad356122e80712802c5e46cf5a03df36e5a69b3962ab8686868661178b8b8b8b610c12565b60408051600160a060020a039687168152949095166020850152838501929092526060830152608082015260a0810185905290519081900360c00190a150600195945050505050565b6000610c1f84846000856124a1565b600160a060020a038216600090815260056020526040902060010180546060919061ffff841690811061181257fe5b600091825260209182902001805460408051601f60026000196101006001871615020190941693909304928301859004850281018501909152818152928301828280156118a05780601f10611875576101008083540402835291602001916118a0565b820191906000526020600020905b81548152906001019060200180831161188357829003601f168201915b5050505050905092915050565b6118b561146b565b600160a060020a03163314611902576040805160e560020a62461bcd0281526020600482015260156024820152600080516020614226833981519152604482015290519081900360640190fd5b600160a060020a038216600081815260056020818152604080842086855280835290842054949093525260019081015461ffff9283169290919082161115611a9457600160a060020a038416600090815260056020526040902060010180546060919061ffff60001985011690811061197757fe5b600091825260209182902001805460408051601f6002600019610100600187161502019094169390930492830185900485028101850190915281815292830182828015611a055780601f106119da57610100808354040283529160200191611a05565b820191906000526020600020905b8154815290600101906020018083116119e857829003601f168201915b505050600160a060020a03881660009081526005602052604090206001018054939450849390925061ffff871691508110611a3c57fe5b906000526020600020019080519060200190611a59929190613fc0565b50600160a060020a0385166000908152600560209081526040808320845194830194909420835292905220805461ffff191661ffff84161790555b600160a060020a0384166000908152600560205260409020600101805490611ac090600019830161403e565b5060408051600160a060020a03861681526020810185905281517fbb2229c120f07c1d5e21d7480f8954df427ae577672f72ee613ec83119fc6cc7929181900390910190a160408051600160a060020a03861681526020810185905281517f84d7c9d12a5c86bc164cddefea17c7ef80f84ede161bc3298240f5c3673463c2929181900390910190a150505050565b600160a060020a03919091166000908152600560209081526040808320938352929052205461ffff1690565b600080611b8b84600080866130c2565b915091509250929050565b6000610c1f328585600186612ee2565b600354760100000000000000000000000000000000000000000000900460ff1681565b6000610c1f328560008686612ee2565b6000611be361146b565b600160a060020a03163314611c30576040805160e560020a62461bcd0281526020600482015260156024820152600080516020614226833981519152604482015290519081900360640190fd5b600082815260066020526040902054829060ff1615611c835760405160e560020a62461bcd0281526004018080602001828103825260218152602001806141246021913960400191505060405180910390fd5b6000818152600660205260409020805460ff19166001179055611ca7868686613127565b5060008051602061418b8339815191528686600087611cc68b8b61168b565b60408051600160a060020a039687168152949095166020850152838501929092526060830152608082015260a0810186905290519081900360c00190a150600195945050505050565b6000611d1961146b565b600160a060020a03163314611d66576040805160e560020a62461bcd0281526020600482015260156024820152600080516020614226833981519152604482015290519081900360640190fd5b600082815260066020526040902054829060ff1615611db95760405160e560020a62461bcd0281526004018080602001828103825260218152602001806141246021913960400191505060405180910390fd5b6000818152600660205260409020805460ff19166001179055611ddc8585613136565b507f32a495751ee98bf8f770c4b2aa158a3237182da65239e6dd21f438eeb5697e6b8585611e0988610e16565b60408051600160a060020a03909416845260208401929092528282015260608201869052519081900360800190a160008051602061418b8339815191528560008087611e548a610e16565b60408051600160a060020a039687168152949095166020850152838501929092526060830152608082015260a0810186905290519081900360c00190a1506001949350505050565b600160a060020a031660009081526005602052604090206001015490565b6000611ec461146b565b600160a060020a03163314611f11576040805160e560020a62461bcd0281526020600482015260156024820152600080516020614226833981519152604482015290519081900360640190fd5b600082815260066020526040902054829060ff1615611f645760405160e560020a62461bcd0281526004018080602001828103825260218152602001806141246021913960400191505060405180910390fd5b6000818152600660205260409020805460ff19166001179055611f88868686613145565b5060008051602061418b8339815191528686866001611cc68b8b8b610c12565b600154600160a060020a031681565b600254600160a060020a031681565b6003547501000000000000000000000000000000000000000000900460ff1690565b600082611ff73260008061246c565b1161200457506000610cd8565b600160a060020a03821615612065577fce3ea6573e50aa99519e173830624d1737b22bad74aed84d32094f307a448ef68261204281600080336124a1565b60408051600160a060020a03909316835260208301919091528051918290030190a15b604080513281526020810185905281517fe61d5789b825d8ba2927cdaa3a0896a30f5728c19e1d074be112f023cc9571f8929181900390910190a16120b9826000806120b3838280336124a1565b336131b4565b8015610cd55750610cd5326000808633612ee2565b6000610cd5326000808686612ee2565b6000826120ed838380336124a1565b146120fa57506000610cd8565b60408051338152600160a060020a038416602082015280820185905290517ff13deb3fec4383bd42e0b7de6c178b82a2cb900f3d5c06dc1596620242860b579181900360600190a1610cd58260008086336132a7565b600160e060020a031916600090815260208190526040902054600160a060020a031690565b600061217f61146b565b600160a060020a031633146121cc576040805160e560020a62461bcd0281526020600482015260156024820152600080516020614226833981519152604482015290519081900360640190fd5b6121d68484613136565b507f9f5e04e6bc757548934c37072b23e635e253c8470bc522423ebad3137e1edb74848461220387610e16565b60408051600160a060020a03909416845260208401929092528282015260608201859052519081900360800190a17fe0cb0735aa7f3ca57da7ad356122e80712802c5e46cf5a03df36e5a69b3962ab846000808661226089610e16565b60408051600160a060020a039687168152949095166020850152838501929092526060830152608082015260a0810185905290519081900360c00190a15060019392505050565b600354760100000000000000000000000000000000000000000000900460ff1690565b604080517f64656c656761746564526563656976654765745061757365645f5631282900008152815190819003601e0181206004825260248201909252602081018051600160e060020a0316600160e060020a031990931692909217909152600090819081906114db9082612e4b565b600061234461146b565b600160a060020a03163314612391576040805160e560020a62461bcd0281526020600482015260156024820152600080516020614226833981519152604482015290519081900360640190fd5b61239c858585613127565b507fe0cb0735aa7f3ca57da7ad356122e80712802c5e46cf5a03df36e5a69b3962ab85856000866123cd8a8a61168b565b60408051600160a060020a039687168152949095166020850152838501929092526060830152608082015260a0810185905290519081900360c00190a1506001949350505050565b60008060006114db60405180806141cb6024913960408051918290036024908101832060048452908301909152602082018051600160e060020a0316600160e060020a031990921691909117905290506000612e4b565b600160a060020a0380831660009081526004602090815260408083208584528252808320938716835292905220549392505050565b600160a060020a03928316600090815260046020908152604080832094835293815283822095909416815293835281842090845260010190915290205490565b600160a060020a038083166000908152600460209081526040808320858452825280832093871683529290529081206002015461ffff81161515612529576000915050610c22565b60005b8161ffff168161ffff16101561256d57600061254e8787878561ffff166130c2565b91506125629050848263ffffffff61337e16565b93505060010161252c565b50509392505050565b60008082116125cf576040805160e560020a62461bcd02815260206004820152601d60248201527f416d6f756e74206d7573742062652067726561746572207468616e2030000000604482015290519081900360640190fd5b600160a060020a03808516600090815260046020908152604080832087845282528083209389168352929052205461260d908363ffffffff61337e16565b600160a060020a0380861660009081526004602090815260408083208884528252808320938a1683529290522055506001949350505050565b600080600060608061265f61265a8861338b565b6133d2565b905061268281600581518110151561267357fe5b906020019060200201516134a2565b915060208201519250612695818761350f565b94507f4796093800000000000000000000000000000000000000000000000000000000600160e060020a0319841614156126d157602482015193505b5050509250929050565b60408051600160a060020a038781166c01000000000000000000000000908102602080850191909152918816026034830152604882018690526068808301869052835180840390910181526088830184528051908201207f19457468657265756d205369676e6564204d6573736167653a0a33320000000060a884015260c48084018290528451808503909101815260e49093019093528151910120600091908290612788908583613532565b600354600160a060020a0390811691161498975050505050505050565b60006020820460010160200260c5019050806040519080825280601f01601f1916602001820160405280156127e1576020820181803883390190505b50600160a060020a0385166000908152600560205260409020600101805461ffff861690811061280d57fe5b9060005260206000200190805190602001906115ba929190613fc0565b7f6fc60a5e0000000000000000000000000000000000000000000000000000000060005b60048160ff16101561291c578160ff82166004811061286957fe5b1a60f860020a026005600086600160a060020a0316600160a060020a031681526020019081526020016000206001018461ffff168154811015156128a957fe5b906000526020600020018260ff1681546001816001161561010002031660029004811015156128d457fe5b8154600116156128f35790600052602060002090602091828204019190065b601f036101000a81548160ff0219169060f860020a84040217905550808060010191505061284e565b50505050565b60008060405b60208210156129f05780826020811061293d57fe5b1a60f860020a026005600088600160a060020a0316600160a060020a031681526020019081526020016000206001018661ffff1681548110151561297d57fe5b906000526020600020018360040181546001816001161561010002031660029004811015156129a857fe5b8154600116156129c75790600052602060002090602091828204019190065b601f036101000a81548160ff0219169060f860020a840402179055508180600101925050612928565b6000915060415b6020831015612ac357808360208110612a0c57fe5b1a60f860020a026005600089600160a060020a0316600160a060020a031681526020019081526020016000206001018761ffff16815481101515612a4c57fe5b6000918252602090912001805484860160040190600260001961010060018416150201909116048110612a7b57fe5b815460011615612a9a5790600052602060002090602091828204019190065b601f036101000a81548160ff0219169060f860020a8404021790555082806001019350506129f7565b600092505b6041831015612ba2578483815181101515612adf57fe5b90602001015160f860020a900460f860020a026005600089600160a060020a0316600160a060020a031681526020019081526020016000206001018761ffff16815481101515612b2b57fe5b6000918252602090912001805484860160240190600260001961010060018416150201909116048110612b5a57fe5b815460011615612b795790600052602060002090602091828204019190065b601f036101000a81548160ff0219169060f860020a840402179055508280600101935050612ac8565b5060610195945050505050565b600080855b6020821015612c7c57808260208110612bc957fe5b1a60f860020a026005600088600160a060020a0316600160a060020a031681526020019081526020016000206001018661ffff16815481101515612c0957fe5b90600052602060002001836024018154600181600116156101000203166002900481101515612c3457fe5b815460011615612c535790600052602060002090602091828204019190065b601f036101000a81548160ff0219169060f860020a840402179055508180600101925050612bb4565b8351600092505b6020831015612d4f57808360208110612c9857fe5b1a60f860020a026005600089600160a060020a0316600160a060020a031681526020019081526020016000206001018761ffff16815481101515612cd857fe5b6000918252602090912001805484860160040190600260001961010060018416150201909116048110612d0757fe5b815460011615612d265790600052602060002090602091828204019190065b601f036101000a81548160ff0219169060f860020a840402179055508280600101935050612c83565b600092505b8451831015612e2e578483815181101515612d6b57fe5b90602001015160f860020a900460f860020a026005600089600160a060020a0316600160a060020a031681526020019081526020016000206001018761ffff16815481101515612db757fe5b6000918252602090912001805484860160240190600260001961010060018416150201909116048110612de657fe5b815460011615612e055790600052602060002090602091828204019190065b601f036101000a81548160ff0219169060f860020a840402179055508280600101935050612d54565b509251602090819004600101810290930190920195945050505050565b6020820151600090819081612e5f82612150565b9050600160a060020a0381161515612e745750835b600160a060020a0381161515612ebe5760405160e560020a62461bcd0281526004018080602001828103825260238152602001806141686023913960400191505060405180910390fd5b600080875160208901845af43d93506040519450836000863e8015156126d1578385fd5b600082612ef087878761246c565b1015612f46576040805160e560020a62461bcd02815260206004820152601b60248201527f4e6f7420656e6f75746820616d6f756e7420746f206c6f636b65640000000000604482015290519081900360640190fd5b612f5386868686866135bd565b50612f6086868686612fc5565b5060408051600160a060020a03808916825287166020820152808201869052606081018590526080810184905290517ffd5fe280bcce5c67ec4267bf10198999d1bd9706ef8f3b616a90ae166daa19af9181900360a00190a150600195945050505050565b600160a060020a038084166000908152600460209081526040808320868452825280832093881683529290529081205482111561304c576040805160e560020a62461bcd02815260206004820152600e60248201527f416d6f756e7420746f6f206c6f77000000000000000000000000000000000000604482015290519081900360640190fd5b600160a060020a03808516600090815260046020908152604080832087845282528083209389168352929052205461260d908363ffffffff61375816565b600160a060020a0380831660009081526004602090815260408083208584528252808320938716835292905220600201549392505050565b600160a060020a0380841660009081526004602090815260408083208684528252808320938816835292905290812060020180548291908490811061310357fe5b9060005260206000200154915061311c868686856124a1565b905094509492505050565b6000610c1f8484600085612576565b6000610cd58360008085612576565b6000613152848484610c12565b156131a7576040805160e560020a62461bcd02815260206004820152601560248201527f45524337323120697320616c7265616479206f776e0000000000000000000000604482015290519081900360640190fd5b610c1f8484846001612576565b60008215156131c557506001610c59565b826131d2878787866124a1565b1015613228576040805160e560020a62461bcd02815260206004820152601860248201527f4e6f7420656e6f75746820616d6f756e74206c6f636b65640000000000000000604482015290519081900360640190fd5b613235868686868661376a565b5061324286868686612576565b5060408051600160a060020a03808916825287166020820152808201869052606081018590526080810184905290517f0b0454883e02998fa2020c1e8f466c571e022722418136587baa7fff890108eb9181900360a00190a150600195945050505050565b6000826132b6878787866124a1565b101561330c576040805160e560020a62461bcd02815260206004820152601860248201527f4e6f7420656e6f75746820616d6f756e74206c6f636b65640000000000000000604482015290519081900360640190fd5b613319868686868661376a565b5060408051600160a060020a03808916825287166020820152808201869052606081018590526080810184905290517f26a9e14ec37a5bacb1cecf3a2104fe9fb592f7381d156872d37139f1bed333b79181900360a00190a150600195945050505050565b81810182811015610cd857fe5b613393614067565b815115156133b557506040805180820190915260008082526020820152610cc1565b506040805180820190915281518152602082810190820152919050565b60606133dd82613845565b15156133e857600080fd5b60006133f383613874565b90508060405190808252806020026020018201604052801561342f57816020015b61341c614067565b8152602001906001900390816134145790505b509150600061344184602001516138c1565b60208501510190506000805b838110156134995761345e8361392a565b9150604080519081016040528083815260200184815250858281518110151561348357fe5b602090810290910101529181019160010161344d565b50505050919050565b606060006134b383602001516138c1565b83516040805191839003808352601f19601f82011683016020019091529192506060908280156134ea576020820181803883390190505b50905060008160200190506135068487602001510182856139ba565b50949350505050565b600060608061351e85856139fb565b815160208301209193509150610c59908260005b818101602081810151604080840151606094850151825160008082528187018086528b905260ff60f860020a8404168286015296810185905260808101839052925193949193909260019260a0808301939192601f198301929081900390910190855afa1580156135a7573d6000803e3d6000fd5b5050604051601f19015198975050505050505050565b6000808311613616576040805160e560020a62461bcd02815260206004820152601d60248201527f416d6f756e74206d7573742062652067726561746572207468616e2030000000604482015290519081900360640190fd5b600160a060020a0380861660009081526004602090815260408083208884528252808320938a1683529281528282208583526001908101909152919020015460ff1615156136c55750600160a060020a0384811660009081526004602090815260408083208784528252808320938916835292815282822060028101805460018082018355918552838520018690558584529081019091529190208381558101805460ff191682179055610c59565b600160a060020a0380861660009081526004602090815260408083208884528252808320938a1683529281528282208583526001019052205461370e908463ffffffff61337e16565b600160a060020a0395861660009081526004602090815260408083209783529681528682209890971681529686528487209287526001928301909552509190932091909155919050565b60008282111561376457fe5b50900390565b600160a060020a038085166000908152600460209081526040808320878452825280832093891683529281528282208483526001019052908120548311156137fc576040805160e560020a62461bcd02815260206004820152601560248201527f4c6f636b656420616d6f756e7420746f6f206c6f770000000000000000000000604482015290519081900360640190fd5b600160a060020a0380861660009081526004602090815260408083208884528252808320938a1683529281528282208583526001019052205461370e908463ffffffff61375816565b6020810151805160009190821a9060c060ff8316101561386a57600092505050610cc1565b5060019392505050565b60008060009050600061388a84602001516138c1565b602085015185519181019250015b808210156138b8576138a98261392a565b60019093019290910190613898565b50909392505050565b8051600090811a60808110156138db576000915050610cc1565b60b88110806138f6575060c081108015906138f6575060f881105b15613905576001915050610cc1565b60c08110156139195760b519019050610cc1565b60f519019050610cc1565b50919050565b8051600090811a6080811015613944576001915050610cc1565b60b881101561395857607e19019050610cc1565b60c08110156139855760b78103600184019350806020036101000a84510460018201810193505050613924565b60f88110156139995760be19019050610cc1565b60019290920151602083900360f7016101000a900490910160f51901919050565b5b602081106139da578251825260209283019290910190601f19016139bb565b915181516020939093036101000a6000190180199091169216919091179052565b604080516009808252610140820190925260609182918291816020015b6060815260200190600190039081613a18579050509050613a49613a4486600081518110151561267357fe5b613d37565b816000815181101515613a5857fe5b90602001906020020181905250613a7a613a4486600181518110151561267357fe5b816001815181101515613a8957fe5b90602001906020020181905250613aab613a4486600281518110151561267357fe5b816002815181101515613aba57fe5b90602001906020020181905250613adc613a4486600381518110151561267357fe5b816003815181101515613aeb57fe5b90602001906020020181905250613b0d613a4486600481518110151561267357fe5b816004815181101515613b1c57fe5b90602001906020020181905250613b3e613a4486600581518110151561267357fe5b816005815181101515613b4d57fe5b60209081029091010152613b6360ff8516613e34565b816006815181101515613b7257fe5b60209081029091010152613b866000613e34565b816007815181101515613b9557fe5b60209081029091010152613ba96000613e34565b816008815181101515613bb857fe5b60209081029091010152613bcb81613e93565b60408051604180825260808201909252919450600091906020820181803883390190505092506000613c14876007815181101515613c0557fe5b90602001906020020151613f7a565b6000925090505b60208260ff161015613c71578060ff831660208110613c3657fe5b1a60f860020a02848360ff16815181101515613c4e57fe5b906020010190600160f860020a031916908160001a905350600190910190613c1b565b613c83876008815181101515613c0557fe5b6000925090505b60208260ff161015613ce3578060ff831660208110613ca557fe5b1a60f860020a02848360200160ff16815181101515613cc057fe5b906020010190600160f860020a031916908160001a905350600190910190613c8a565b60088660020260ff16613cfe896006815181101515613c0557fe5b030360f860020a02846040815181101515613d1557fe5b906020010190600160f860020a031916908160001a9053505050509250929050565b80516040519060208084019190830190600181148015613da3575084517f7f000000000000000000000000000000000000000000000000000000000000009086906000908110613d8357fe5b90602001015160f860020a900460f860020a02600160f860020a03191611155b15613dbb575060018084529151815201604052610cc1565b60378111613def57806001018452806080018253806001830101604052613de68383600101836139ba565b50610cc1915050565b6000613dfa82613fa8565b905081816001010185528060b7018353806020036101000a82026001840152818160018501010160405261349984828560010101846139ba565b60606000613e4183613fa8565b90506060816040519080825280601f01601f191660200182016040528015613e70576020820181803883390190505b509050816020036101000a84026020820152613e8b81613d37565b949350505050565b606060008060005b8451811015613eca578481815181101515613eb257fe5b60209081029091010151519190910190600101613e9b565b604051935060208401925060378211613eee578160c0018353600183019250613f1a565b6000613ef983613fa8565b90508060f7018453600184019350806020036101000a830284528084019350505b5060005b8451811015613f665760608582815181101515613f3757fe5b9060200190602002015190506000602082019050613f57818684516139ba565b50519290920191600101613f1e565b826040526020848403038452505050919050565b600080613f8a83602001516138c1565b83516020948501518201519190039093036101000a90920492915050565b60005b8115610cc15761010082049150600101613fab565b828054600181600116156101000203166002900490600052602060002090601f016020900481019282601f1061400157805160ff191683800117855561402e565b8280016001018555821561402e579182015b8281111561402e578251825591602001919060010190614013565b5061403a92915061407e565b5090565b81548183558181111561406257600083815260209020614062918101908301614098565b505050565b604080518082019091526000808252602082015290565b6114e291905b8082111561403a5760008155600101614084565b6114e291905b8082111561403a5760006140b282826140bb565b5060010161409e565b50805460018160011615610100020316600290046000825580601f106140e157506140ff565b601f0160209004906000526020600020908101906140ff919061407e565b5056fe736574457468657265756d436861696e496420436f6e7472616374206f776e65725472616e73616374696f6e204861736820697320616c726561647920657869737473657441756374696f6e697479436861696e496420436f6e7472616374206f776e657241756374696f6e6974792066756e6374696f6e20646f6573206e6f742065786973742e4f872b7a038479418c3dc9590698dd8f15886a054f10479c78db7b82573be0ee811070cecc998823d0e93c893120f19b7f639220a4cad58fde3386ce247258a964656c656761746564526563656976654973436f6e74726163744f776e65725f563128296c6f636b4465706f7369745f563128616464726573732c75696e743235362c75696e743235362c75696e743235362c616464726573732953656e646572206d757374206265206f7261636c6500000000000000000000005769746864726177616c20766f756368657220696e76616c6964207369676e6174757265206f66206f7261636c65a165627a7a72305820d7b40e290f8ab719d2739c4d761219cc1f4059acf222ca5491fcd9225548503d0029",
  "source": "pragma solidity ^0.5.4;\n\nimport \"./AuctionityStorage1.sol\";\nimport \"../CommonContract/AuctionityLibrary_V1.sol\";\nimport \"../CommonContract/AuctionityChainId_V1.sol\";\nimport \"../CommonContract/AuctionityLibraryDecodeRawTx_V1.sol\";\nimport \"../CommonContract/SafeMath.sol\";\n\n/// @title Auctionity Treasurer\ncontract AuctionityTreasurer_V1 is AuctionityStorage1, AuctionityLibrary_V1, AuctionityChainId_V1 {\n    using SafeMath for uint256;\n\n\n    // For previous compatibility\n    event LogAddDepotEth(address user, uint256 amount, uint256 totalAmount, bytes32 hashTransactionDeposit);\n    event LogAddRewardDepotEth(address user, uint256 amount, uint256 totalAmount, bytes32 hashTransactionDeposit);\n    event LogWithdrawal(address user, uint256 amount);\n    event LogSetWithdrawalVoucher(address user, uint256 amount, bytes voucher);\n    event LogWithdrawalVoucherHaveBeenRemoved(address user, bytes32 voucherHash);\n    event LogNewDepotLock(address user, uint256 amount);\n    event LogLockDepositRefund(address user, uint256 amount);\n    event LogEndorse(address auctionAddress, address user, uint256 amount);\n\n\n\n    event LogAddDepot_V1(\n        address user,\n        address tokenContractAddress,\n        uint256 tokenId,\n        uint256 amount,\n        uint256 totalAmount,\n        bytes32 transactionHashDeposit\n    );\n    event LogAddRewardDepot_V1(\n        address user,\n        address tokenContractAddress,\n        uint256 tokenId,\n        uint256 amount,\n        uint256 totalAmount,\n        bytes32 hashTransactionDeposit\n    );\n    event LogWithdrawal_V1(\n        address user,\n        address tokenContractAddress,\n        uint256 tokenId,\n        uint256 amount\n    );\n    event LogSetWithdrawalVoucher_V1(\n        address user,\n        uint256 amount,\n        bytes voucher\n    );\n    event LogWithdrawalVoucherHaveBeenRemoved_V1(\n        address user,\n        bytes32 voucherHash\n    );\n    event LogNewDepotLock_V1(\n        address user,\n        address tokenContractAddress,\n        uint256 tokenId,\n        uint256 amount,\n        uint256 auctionId\n    );\n    event LogRefundDepotLock_V1(\n        address user,\n        address tokenContractAddress,\n        uint256 tokenId,\n        uint256 amount,\n        uint256 auctionId\n    );\n    event LogEndorse_V1(\n        address user,\n        address tokenContractAddress,\n        uint256 tokenId,\n        uint256 amount,\n        uint256 auctionId\n    );\n\n\n    modifier isUniqueTransactionHashDeposit_V1(\n        bytes32 _transactionHashDeposit\n    ) {\n        require(\n            !depositTransactionHash[_transactionHashDeposit],\n            \"Transaction Hash is already exist\"\n        );\n\n        depositTransactionHash[_transactionHashDeposit] = true;\n\n        _;\n    }\n\n    /// @notice receive DepotEth\n    /// @dev Receive deposit of eth from livenet through oracle\n    /// @param _user address\n    /// @param _amount uint256\n    /// @param _transactionHashDeposit bytes32 : hash of transaction from livenet, for anti replay\n    /// @return bool\n    function receiveDepotEth_V1(\n        address _user,\n        uint256 _amount,\n        bytes32 _transactionHashDeposit\n    )\n        public\n        delegatedSendIsOracle_V1\n        isUniqueTransactionHashDeposit_V1(_transactionHashDeposit)\n        returns (bool)\n    {\n        _addDepotEth_V1(_user, _amount);\n\n        // For previous compatibility\n        emit LogAddDepotEth(\n            _user,\n            _amount,\n            getBalanceEth_V1(_user),\n            _transactionHashDeposit);\n\n        emit LogAddDepot_V1(\n            _user,\n            address(0),\n            uint256(0),\n            _amount,\n            getBalanceEth_V1(_user),\n            _transactionHashDeposit\n        );\n\n        return true;\n    }\n\n    /// @notice receive reward DepotEth\n    /// @dev Receive reward deposit of eth from livenet through oracle\n    /// @param _user address\n    /// @param _amount uint256\n    /// @param _transactionHashDeposit bytes32 : hash of transaction from livenet, for history only\n    /// @return bool\n    function receiveRewardDepotEth_V1(\n        address _user,\n        uint256 _amount,\n        bytes32 _transactionHashDeposit\n    ) public delegatedSendIsOracle_V1 returns (bool) {\n        _addDepotEth_V1(_user, _amount);\n\n        // For previous compatibility\n        emit LogAddRewardDepotEth(\n            _user,\n            _amount,\n            getBalanceEth_V1(_user),\n                _transactionHashDeposit);\n\n        emit LogAddRewardDepot_V1(\n            _user,\n            address(0),\n            uint256(0),\n            _amount,\n            getBalanceEth_V1(_user),\n            _transactionHashDeposit\n        );\n\n        return true;\n    }\n\n    /// @notice receive DepotErc20\n    /// @dev Receive deposit of ERC20 from livenet through oracle\n    /// @param _user address\n    /// @param _tokenContractAddress address : ERC20 smart contract\n    /// @param _amount uint256\n    /// @param _transactionHashDeposit bytes32 : hash of transaction from livenet, for anti replay\n    /// @return bool\n    function receiveDepotERC20_V1(\n        address _user,\n        address _tokenContractAddress,\n        uint256 _amount,\n        bytes32 _transactionHashDeposit\n    )\n        public\n        delegatedSendIsOracle_V1\n        isUniqueTransactionHashDeposit_V1(_transactionHashDeposit)\n        returns (bool)\n    {\n        _addDepotERC20_V1(_user, _tokenContractAddress, _amount);\n\n        emit LogAddDepot_V1(\n            _user,\n            _tokenContractAddress,\n            uint256(0),\n            _amount,\n            getBalanceERC20_V1(_user, _tokenContractAddress),\n            _transactionHashDeposit\n        );\n\n        return true;\n    }\n\n    /// @notice receive reward DepotErc20\n    /// @dev Receive reward deposit of ERC20 from livenet through oracle\n    /// @param _user address\n    /// @param _tokenContractAddress address : ERC20 smart contract\n    /// @param _amount uint256\n    /// @param _transactionHashDeposit bytes32 : hash of transaction from livenet, history only\n    /// @return bool\n    function receiveRewardDepotERC20_V1(\n        address _user,\n        address _tokenContractAddress,\n        uint256 _amount,\n        bytes32 _transactionHashDeposit\n    ) public delegatedSendIsOracle_V1 returns (bool) {\n        _addDepotERC20_V1(_user, _tokenContractAddress, _amount);\n\n        emit LogAddRewardDepot_V1(\n            _user,\n            _tokenContractAddress,\n            uint256(0),\n            _amount,\n            getBalanceERC20_V1(_user, _tokenContractAddress),\n            _transactionHashDeposit\n        );\n\n        return true;\n    }\n\n    /// @notice receive DepotErc721\n    /// @dev Receive deposit of ERC721 from livenet through oracle\n    /// @param _user address\n    /// @param _tokenContractAddress address : ERC721 smart contract\n    /// @param _tokenId uint256 : tokenId of ERC721\n    /// @param _transactionHashDeposit bytes32 : hash of transaction from livenet, for anti replay\n    /// @return bool\n    function receiveDepotERC721_V1(\n        address _user,\n        address _tokenContractAddress,\n        uint256 _tokenId,\n        bytes32 _transactionHashDeposit\n    )\n        public\n        delegatedSendIsOracle_V1\n        isUniqueTransactionHashDeposit_V1(_transactionHashDeposit)\n        returns (bool)\n    {\n        _addDepotERC721_V1(_user, _tokenContractAddress, _tokenId);\n\n        emit LogAddDepot_V1(\n            _user,\n            _tokenContractAddress,\n            _tokenId,\n            1,\n            getBalanceERC721_V1(_user, _tokenContractAddress, _tokenId),\n            _transactionHashDeposit\n        );\n\n        return true;\n    }\n\n    /// @notice receive DepotErc1155\n    /// @dev Receive deposit of ERC1155 from livenet through oracle\n    /// @param _user address\n    /// @param _tokenContractAddress address : ERC1155 smart contract\n    /// @param _tokenId uint256 : tokenId of ERC1155\n    /// @param _amount uint256\n    /// @param _transactionHashDeposit bytes32 : hash of transaction from livenet, for anti replay\n    /// @return bool\n    function receiveDepotERC1155_V1(\n        address _user,\n        address _tokenContractAddress,\n        uint256 _tokenId,\n        uint256 _amount,\n        bytes32 _transactionHashDeposit\n    )\n    public\n    delegatedSendIsOracle_V1\n    isUniqueTransactionHashDeposit_V1(_transactionHashDeposit)\n    returns (bool)\n    {\n        _addDepot_V1(_user, _tokenContractAddress, _tokenId, _amount);\n\n        emit LogAddDepot_V1(\n            _user,\n            _tokenContractAddress,\n            _tokenId,\n            _amount,\n            getBalanceERC1155_V1(_user, _tokenContractAddress, _tokenId),\n            _transactionHashDeposit\n        );\n\n        return true;\n    }\n\n    /// @notice receive reward DepotErc1155\n    /// @dev Receive reward deposit of ERC1155 from livenet through oracle\n    /// @param _user address\n    /// @param _tokenContractAddress address : ERC1155 smart contract\n    /// @param _tokenId uint256 : tokenId of ERC1155\n    /// @param _amount uint256\n    /// @param _transactionHashDeposit bytes32 : hash of transaction from livenet, history only\n    /// @return bool\n    function receiveRewardDepotERC1155_V1(\n        address _user,\n        address _tokenContractAddress,\n        uint256 _tokenId,\n        uint256 _amount,\n        bytes32 _transactionHashDeposit\n    ) public delegatedSendIsOracle_V1 returns (bool) {\n        _addDepot_V1(_user, _tokenContractAddress, _tokenId, _amount);\n\n        emit LogAddRewardDepot_V1(\n            _user,\n            _tokenContractAddress,\n            _tokenId,\n            _amount,\n            getBalanceERC1155_V1(_user, _tokenContractAddress, _tokenId),\n            _transactionHashDeposit\n        );\n\n        return true;\n    }\n\n    /// @notice internal transaction for add depot ETH\n    function _addDepotEth_V1(address _user, uint256 _amount)\n        internal\n        returns (bool)\n    {\n        return _addDepot_V1(_user, address(0), uint256(0), _amount);\n    }\n\n    /// @notice internal transaction for add depot ERC20\n    function _addDepotERC20_V1(\n        address _user,\n        address _tokenContractAddress,\n        uint256 _amount\n    ) internal returns (bool) {\n        return _addDepot_V1(_user, _tokenContractAddress, uint256(0), _amount);\n    }\n\n    /// @notice internal transaction for add depot ERC721\n    function _addDepotERC721_V1(\n        address _user,\n        address _tokenContractAddress,\n        uint256 _tokenId\n    ) internal returns (bool) {\n        require(\n            getBalanceERC721_V1(_user, _tokenContractAddress, _tokenId) == 0,\n            \"ERC721 is already own\"\n        );\n\n        return _addDepot_V1(_user, _tokenContractAddress, _tokenId, 1);\n    }\n\n    /// @notice internal transaction for add depot ERC1155\n    function _addDepot_V1(\n        address _user,\n        address _tokenContractAddress,\n        uint256 _tokenId,\n        uint256 _amount\n    ) internal returns (bool) {\n        require(_amount > 0, \"Amount must be greater than 0\");\n\n        tokens[_tokenContractAddress][_tokenId][_user].amount = tokens[_tokenContractAddress][_tokenId][_user].amount.add(\n            _amount\n        );\n\n        return true;\n    }\n\n    /// @notice internal transaction for sub depot ETH\n    function _subDepotEth_V1(address _user, uint256 _amount)\n        internal\n        returns (bool)\n    {\n        return _subDepot_V1(_user, address(0), uint256(0), _amount);\n    }\n\n    /// @notice internal transaction for sub depot ERC20\n    function _subDepotERC20(\n        address _user,\n        address _tokenContractAddress,\n        uint256 _amount\n    ) internal returns (bool) {\n        return _subDepot_V1(_user, _tokenContractAddress, uint256(0), _amount);\n    }\n\n    /// @notice internal transaction for sub depot ERC721\n    function _subDepotERC721(\n        address _user,\n        address _tokenContractAddress,\n        uint256 _tokenId\n    ) internal returns (bool) {\n        return _subDepot_V1(_user, _tokenContractAddress, _tokenId, 1);\n    }\n\n    /// @notice internal transaction for sub depot ERC1155\n    function _subDepot_V1(\n        address _user,\n        address _tokenContractAddress,\n        uint256 _tokenId,\n        uint256 _amount\n    ) internal returns (bool) {\n        require(\n            tokens[_tokenContractAddress][_tokenId][_user].amount >= _amount,\n            \"Amount too low\"\n        );\n\n        tokens[_tokenContractAddress][_tokenId][_user].amount = tokens[_tokenContractAddress][_tokenId][_user].amount.sub(\n            _amount\n        );\n\n        return true;\n    }\n\n    /// @notice get balance Eth for a user\n    /// @param _user address\n    /// @return _balanceOf uint256 balance of user\n    function getBalanceEth_V1(address _user) public view returns (uint256 _balanceOf) {\n        return _getBalance_V1(_user, address(0), uint256(0));\n    }\n\n    /// @notice get balance ERC20 for a user\n    /// @param _user address\n    /// @param _tokenContractAddress address : ERC20 smart contract\n    /// @return _balanceOf uint256 balance of user\n    function getBalanceERC20_V1(address _user, address _tokenContractAddress)\n        public\n        view\n        returns (uint256 _balanceOf)\n    {\n        return _getBalance_V1(_user, _tokenContractAddress, uint256(0));\n    }\n\n    /// @notice get balance ERC721 for a user\n    /// @param _user address\n    /// @param _tokenContractAddress address : ERC721 smart contract\n    /// @param _tokenId uint256 : tokenId of ERC721\n    /// @return _balanceOf uint256 balance of user (unique ERC721 amount)\n    function getBalanceERC721_V1(\n        address _user,\n        address _tokenContractAddress,\n        uint256 _tokenId\n    ) public view returns (uint256 _balanceOf) {\n        return _getBalance_V1(_user, _tokenContractAddress, _tokenId);\n    }\n\n    /// @notice internal get balance ERC1155 for a user\n    /// @param _user address\n    /// @param _tokenContractAddress address : ERC1155 smart contract\n    /// @param _tokenId uint256 : tokenId of ERC1155\n    /// @return _balanceOf uint256 balance of user\n    function getBalanceERC1155_V1(\n        address _user,\n        address _tokenContractAddress,\n        uint256 _tokenId\n    ) public view returns (uint256 _balanceOf) {\n        return _getBalance_V1(_user, _tokenContractAddress, _tokenId);\n    }\n\n    /// @notice internal get balance ERC1155 for a user\n    /// @param _user address\n    /// @param _tokenContractAddress address : ERC1155 smart contract\n    /// @param _tokenId uint256 : tokenId of ERC1155\n    /// @return _balanceOf uint256 balance of user\n    function _getBalance_V1(\n        address _user,\n        address _tokenContractAddress,\n        uint256 _tokenId\n    ) internal view returns (uint256 _balanceOf) {\n        return tokens[_tokenContractAddress][_tokenId][_user].amount;\n    }\n\n    /// @notice internal lock of depot Eth\n    /// @param _user address\n    /// @param _amount uint256 : amount to lock\n    /// @param _lockedFor uin256 : id to lock for\n    /// @return _success bool\n    function _addDepotLockedEth_V1(\n        address _user,\n        uint256 _amount,\n        uint256 _lockedFor\n    ) internal returns (bool _success) {\n        return _addDepotLocked_V1(\n            _user,\n            address(0),\n            uint256(0),\n            _amount,\n            _lockedFor\n        );\n    }\n\n    /// @notice internal lock of depot ERC20\n    /// @param _user address\n    /// @param _tokenContractAddress address : ERC20 smart contract\n    /// @param _amount uint256 : amount to lock\n    /// @param _lockedFor uin256 : id to lock for\n    /// @return _success bool\n    function _addDepotLockedERC20_V1(\n        address _user,\n        address _tokenContractAddress,\n        uint256 _amount,\n        uint256 _lockedFor\n    ) internal returns (bool _success) {\n        return _addDepotLocked_V1(\n            _user,\n            _tokenContractAddress,\n            uint256(0),\n            _amount,\n            _lockedFor\n        );\n    }\n\n    /// @notice internal lock of depot ERC721\n    /// @param _user address\n    /// @param _tokenContractAddress address : ERC721 smart contract\n    /// @param _tokenId uint256 : tokenId of ERC721\n    /// @param _lockedFor uin256 : id to lock for\n    /// @return _success bool\n    function _addDepotLockedERC721_V1(\n        address _user,\n        address _tokenContractAddress,\n        uint256 _tokenId,\n        uint256 _lockedFor\n    ) internal returns (bool _success) {\n        return _addDepotLocked_V1(\n            _user,\n            _tokenContractAddress,\n            _tokenId,\n            1,\n            _lockedFor\n        );\n    }\n\n    /// @notice internal lock of depot ERC1155\n    /// @param _user address\n    /// @param _tokenContractAddress address : ERC1155 smart contract\n    /// @param _tokenId uint256 : tokenId of ERC1155\n    /// @param _amount uint256 : amount to lock\n    /// @param _lockedFor uin256 : id to lock for\n    /// @return _success bool\n    function _addDepotLocked_V1(\n        address _user,\n        address _tokenContractAddress,\n        uint256 _tokenId,\n        uint256 _amount,\n        uint256 _lockedFor\n    ) internal returns (bool _success) {\n        require(_amount > 0, \"Amount must be greater than 0\");\n\n        // if is the first lock , push into list\n        if (!tokens[_tokenContractAddress][_tokenId][_user].lockedData[_lockedFor].isValue) {\n            tokens[_tokenContractAddress][_tokenId][_user].lockedList.push(\n                _lockedFor\n            );\n\n            tokens[_tokenContractAddress][_tokenId][_user].lockedData[_lockedFor].amount = _amount;\n            tokens[_tokenContractAddress][_tokenId][_user].lockedData[_lockedFor].isValue = true;\n\n            return true;\n        }\n\n        tokens[_tokenContractAddress][_tokenId][_user].lockedData[_lockedFor].amount = tokens[_tokenContractAddress][_tokenId][_user].lockedData[_lockedFor].amount.add(\n            _amount\n        );\n\n        return true;\n    }\n\n    /// @notice internal unlock of depot Eth\n    /// @param _user address\n    /// @param _amount uint256 : amount to lock\n    /// @param _lockedFor uin256 : id to lock for\n    /// @return _success bool\n    function _subDepotLockedEth_V1(\n        address _user,\n        uint256 _amount,\n        uint256 _lockedFor\n    ) internal returns (bool _success) {\n        return _subDepotLocked_V1(\n            _user,\n            address(0),\n            uint256(0),\n            _amount,\n            _lockedFor\n        );\n    }\n\n    /// @notice internal unlock of depot ERC20\n    /// @param _user address\n    /// @param _tokenContractAddress address : ERC20 smart contract\n    /// @param _amount uint256 : amount to lock\n    /// @param _lockedFor uin256 : id to lock for\n    /// @return _success bool\n    function _subDepotLockedERC20_V1(\n        address _user,\n        address _tokenContractAddress,\n        uint256 _amount,\n        uint256 _lockedFor\n    ) internal returns (bool _success) {\n        return _subDepotLocked_V1(\n            _user,\n            _tokenContractAddress,\n            uint256(0),\n            _amount,\n            _lockedFor\n        );\n    }\n\n    /// @notice internal unlock of depot ERC721\n    /// @param _user address\n    /// @param _tokenContractAddress address : ERC721 smart contract\n    /// @param _tokenId uint256 : tokenId of ERC721\n    /// @param _lockedFor uin256 : id to lock for\n    /// @return _success bool\n    function _subDepotLockedERC721_V1(\n        address _user,\n        address _tokenContractAddress,\n        uint256 _tokenId,\n        uint256 _lockedFor\n    ) internal returns (bool _success) {\n        return _subDepotLocked_V1(\n            _user,\n            _tokenContractAddress,\n            _tokenId,\n            1,\n            _lockedFor\n        );\n    }\n\n    /// @notice internal unlock of depot ERC1155\n    /// @param _user address\n    /// @param _tokenContractAddress address : ERC1155 smart contract\n    /// @param _tokenId uint256 : tokenId of ERC1155\n    /// @param _amount uint256 : amount to lock\n    /// @param _lockedFor uin256 : id to lock for\n    /// @return _success bool\n    function _subDepotLocked_V1(\n        address _user,\n        address _tokenContractAddress,\n        uint256 _tokenId,\n        uint256 _amount,\n        uint256 _lockedFor\n    ) internal returns (bool _success) {\n        require(\n            tokens[_tokenContractAddress][_tokenId][_user].lockedData[_lockedFor].amount >= _amount,\n            \"Locked amount too low\"\n        );\n\n        tokens[_tokenContractAddress][_tokenId][_user].lockedData[_lockedFor].amount = tokens[_tokenContractAddress][_tokenId][_user].lockedData[_lockedFor].amount.sub(\n            _amount\n        );\n\n        return true;\n    }\n\n    /// @notice get locked balance Eth\n    /// @param _user address\n    /// @param _lockedFor uin256 : id to lock for\n    /// @return _balanceOf uint256\n    function getBalanceLockedEth_V1(address _user, uint256 _lockedFor)\n        public\n        view\n        returns (uint256 _balanceOf)\n    {\n        return _getBalanceLocked_V1(_user, address(0), uint256(0), _lockedFor);\n    }\n\n    /// @notice get locked balance ERC20\n    /// @param _user address\n    /// @param _tokenContractAddress address : ERC20 smart contract\n    /// @param _lockedFor uin256 : id to lock for\n    /// @return _balanceOf uint256\n    function getBalanceLockedERC20_V1(\n        address _user,\n        address _tokenContractAddress,\n        uint256 _lockedFor\n    ) public view returns (uint256 _balanceOf) {\n        return _getBalanceLocked_V1(\n            _user,\n            _tokenContractAddress,\n            uint256(0),\n            _lockedFor\n        );\n    }\n\n    /// @notice get locked balance ERC721\n    /// @param _user address\n    /// @param _tokenContractAddress address : ERC721 smart contract\n    /// @param _tokenId uint256 : tokenId of ERC721\n    /// @param _lockedFor uin256 : id to lock for\n    /// @return _balanceOf uint256\n    function getBalanceLockedERC721_V1(\n        address _user,\n        address _tokenContractAddress,\n        uint256 _tokenId,\n        uint256 _lockedFor\n    ) public view returns (uint256 _balanceOf) {\n        return _getBalanceLocked_V1(\n            _user,\n            _tokenContractAddress,\n            _tokenId,\n            _lockedFor\n        );\n    }\n\n    /// @notice get locked balance ERC1155\n    /// @param _user address\n    /// @param _tokenContractAddress address : ERC1155 smart contract\n    /// @param _tokenId uint256 : tokenId of ERC1155\n    /// @param _lockedFor uin256 : id to lock for\n    /// @return _balanceOf uint256\n    function getBalanceLockedERC1155_V1(\n        address _user,\n        address _tokenContractAddress,\n        uint256 _tokenId,\n        uint256 _lockedFor\n    ) public view returns (uint256 _balanceOf) {\n        return _getBalanceLocked_V1(\n            _user,\n            _tokenContractAddress,\n            _tokenId,\n            _lockedFor\n        );\n    }\n\n    /// @notice internal get locked balance ERC1155\n    /// @param _user address\n    /// @param _tokenContractAddress address : ERC1155 smart contract\n    /// @param _tokenId uint256 : tokenId of ERC1155\n    /// @param _lockedFor uin256 : id to lock for\n    /// @return _balanceOf uint256\n    function _getBalanceLocked_V1(\n        address _user,\n        address _tokenContractAddress,\n        uint256 _tokenId,\n        uint256 _lockedFor\n    ) internal view returns (uint256 _balanceOf) {\n        return tokens[_tokenContractAddress][_tokenId][_user].lockedData[_lockedFor].amount;\n    }\n\n    /// @notice For previous compatiblity : Lock part of deposit to a called smart contract\n    /// @param _amount uint256 amount to lock\n    /// @param _refundUser address : refund previews locked fo same lockId : uint256(msg.sender)\n    /// @dev tx.origin : origin user call parent smart contract\n    /// @dev msg.sender : smart contract of parent smart contract\n    /// @return _success\n    function lockDeposit(uint256 _amount, address _refundUser)\n        public\n        returns (bool _success)\n    {\n\n        if(_getBalance_V1(tx.origin, address(0), uint(0)) <= _amount) {\n            return false;\n        }\n\n\n        // For previous compatibility\n        if(_refundUser != address(0)){\n            emit LogLockDepositRefund(_refundUser, _getBalanceLocked_V1(\n                _refundUser,\n                address(0),\n                uint256(0),\n                uint(msg.sender)\n            ));\n        }\n        emit LogNewDepotLock(tx.origin, _amount);\n\n        return _unlockDeposit_V1(\n            _refundUser,\n            address(0),\n            uint256(0),\n            _getBalanceLocked_V1(\n                _refundUser,\n                address(0),\n                uint256(0),\n                uint(msg.sender)\n            ),\n            uint(msg.sender)\n        ) && _lockDeposit_V1(\n            tx.origin,\n            address(0),\n            uint256(0),\n            _amount,\n            uint(msg.sender)\n        );\n    }\n\n    /// @notice lock of depot Eth\n    /// @param _amount uint256 : amount to lock\n    /// @param _lockedFor uin256 : id to lock for\n    /// @return _success bool\n    function lockDepositEth_V1(\n        uint256 _amount,\n        uint256 _lockedFor\n    ) public returns (bool _success) {\n        return _lockDeposit_V1(\n            tx.origin,\n            address(0),\n            uint256(0),\n            _amount,\n            _lockedFor\n        );\n    }\n\n    /// @notice lock of depot ERC20\n    /// @param _tokenContractAddress address : ERC20 smart contract\n    /// @param _amount uint256 : amount to lock\n    /// @param _lockedFor uin256 : id to lock for\n    /// @return _success bool\n    function lockDepositERC20_V1(\n        address _tokenContractAddress,\n        uint256 _amount,\n        uint256 _lockedFor\n    ) public returns (bool _success) {\n        return _lockDeposit_V1(\n            tx.origin,\n            _tokenContractAddress,\n            uint256(0),\n            _amount,\n            _lockedFor\n        );\n    }\n\n    /// @notice internal lock of depot ERC721\n    /// @param _tokenContractAddress address : ERC721 smart contract\n    /// @param _tokenId uint256 : tokenId of ERC721\n    /// @param _lockedFor uin256 : id to lock for\n    /// @return _success bool\n    function lockDepositERC721_V1(\n        address _tokenContractAddress,\n        uint256 _tokenId,\n        uint256 _lockedFor\n    ) public returns (bool _success) {\n        return _lockDeposit_V1(\n            tx.origin,\n            _tokenContractAddress,\n            _tokenId,\n            1,\n            _lockedFor\n        );\n    }\n\n    /// @notice internal lock of depot ERC1155\n    /// @param _tokenContractAddress address : ERC1155 smart contract\n    /// @param _tokenId uint256 : tokenId of ERC1155\n    /// @param _amount uint256 : amount to lock\n    /// @param _lockedFor uin256 : id to lock for\n    /// @return _success bool\n    function lockDepositERC1155_V1(\n        address _tokenContractAddress,\n        uint256 _tokenId,\n        uint256 _amount,\n        uint256 _lockedFor\n    ) public returns (bool _success) {\n        return _lockDeposit_V1(\n            tx.origin,\n            _tokenContractAddress,\n            _tokenId,\n            _amount,\n            _lockedFor\n        );\n    }\n\n\n    /// @notice internal Lock part of deposit to a called smart contract\n    /// @param _user address\n    /// @param _tokenContractAddress address : ERC1155 smart contract\n    /// @param _tokenId uint256 : tokenId of ERC1155\n    /// @param _amount uint256 amount to lock\n    /// @param _lockedFor uint256 lockedId\n    /// @return _success\n    // TODO vrifer que l'on ne peu pas l'appeler/modifier les donnes depuis le proxy\n    function _lockDeposit_V1(\n        address _user,\n        address _tokenContractAddress,\n        uint256 _tokenId,\n        uint256 _amount,\n        uint256 _lockedFor\n    ) internal returns (bool _success) {\n        require(\n            _getBalance_V1(_user, _tokenContractAddress, _tokenId) >= _amount,\n            \"Not enouth amount to locked\"\n        );\n\n        _addDepotLocked_V1(\n            _user,\n            _tokenContractAddress,\n            _tokenId,\n            _amount,\n            _lockedFor\n        );\n        _subDepot_V1(_user, _tokenContractAddress, _tokenId, _amount);\n\n        emit LogNewDepotLock_V1(\n            _user,\n            _tokenContractAddress,\n            _tokenId,\n            _amount,\n            _lockedFor\n        );\n\n        return true;\n    }\n\n    /// @notice internal Unlock part of deposit to a called smart contract\n    /// @param _user address\n    /// @param _tokenContractAddress address : ERC1155 smart contract\n    /// @param _tokenId uint256 : tokenId of ERC1155\n    /// @param _amount uint256 amount to lock\n    /// @param _lockedFor uint256 lockedId\n    /// @return _success\n    function _unlockDeposit_V1(\n        address _user,\n        address _tokenContractAddress,\n        uint256 _tokenId,\n        uint256 _amount,\n        uint256 _lockedFor\n    ) internal returns (bool _success) {\n        if (_amount == 0) {\n            return true;\n        }\n\n        require(\n            _getBalanceLocked_V1(\n                _user,\n                _tokenContractAddress,\n                _tokenId,\n                _lockedFor\n            ) >= _amount,\n            \"Not enouth amount locked\"\n        );\n\n        _subDepotLocked_V1(\n            _user,\n            _tokenContractAddress,\n            _tokenId,\n            _amount,\n            _lockedFor\n        );\n        _addDepot_V1(_user, _tokenContractAddress, _tokenId, _amount);\n\n        emit LogRefundDepotLock_V1(\n            _user,\n            _tokenContractAddress,\n            _tokenId,\n            _amount,\n            _lockedFor\n        );\n\n        return true;\n\n    }\n    /// @notice for previous compatibility : endorse locked deposit to a called smart contract\n    /// @param _amount uint256 amount to endorse\n    /// @param _user address\n    /// @dev msg.sender : smart contract of parent smart contract\n    /// @return _success\n    function endorse(uint256 _amount, address _user) public returns (bool _success) {\n\n        if( _getBalanceLocked_V1(\n            _user,\n            address(0),\n            uint256(0),\n            uint(msg.sender)\n        ) != _amount) {\n            return false;\n        }\n\n        // For previous compatibility\n        emit LogEndorse(msg.sender, _user, _amount);\n\n        return _endorse_V1(\n            _user,\n            address(0),\n            uint(0),\n            _amount,\n            uint(msg.sender)\n        );\n    }\n\n    /// @notice internal Unlock part of deposit to a called smart contract\n    /// @param _user address\n    /// @param _tokenContractAddress address : ERC1155 smart contract\n    /// @param _tokenId uint256 : tokenId of ERC1155\n    /// @param _amount uint256 amount to lock\n    /// @param _lockedFor uint256 lockedId\n    /// @return _success\n    function _endorse_V1(\n        address _user,\n        address _tokenContractAddress,\n        uint256 _tokenId,\n        uint256 _amount,\n        uint256 _lockedFor\n    ) internal returns (bool _success) {\n        require(\n            _getBalanceLocked_V1(\n                _user,\n                _tokenContractAddress,\n                _tokenId,\n                _lockedFor\n            ) >= _amount,\n            \"Not enouth amount locked\"\n        );\n\n        _subDepotLocked_V1(\n            _user,\n            _tokenContractAddress,\n            _tokenId,\n            _amount,\n            _lockedFor\n        );\n\n        emit LogEndorse_V1(\n            _user,\n            _tokenContractAddress,\n            _tokenId,\n            _amount,\n            _lockedFor\n        );\n\n        return true;\n    }\n\n\n    /// @notice get number of depot eth lock for a user\n    /// @param _user address\n    /// @return _depotEthLockCount uint16\n    function getDepotEthLockedCountForUser_V1(address _user)\n        public\n        view\n        returns (uint16 _depotEthLockCount)\n    {\n        return _getDepotLockedCountForUser_V1(_user, address(0), uint(0));\n    }\n\n    /// @notice internal get number of depot eth lock for a user\n    /// @param _user address\n    /// @param _tokenContractAddress address : ERC1155 smart contract\n    /// @param _tokenId uint256 : tokenId of ERC1155\n    /// @return _depotEthLockCount uint16\n    function _getDepotLockedCountForUser_V1(\n        address _user,\n        address _tokenContractAddress,\n        uint256 _tokenId\n    ) internal view returns (uint16 _depotEthLockCount) {\n        return uint16(\n            tokens[_tokenContractAddress][_tokenId][_user].lockedList.length\n        );\n    }\n\n    /// @notice get lockedFor and amount of depot eth lock for a user and index\n    /// @param _user address\n    /// @param _index uint256\n    /// @return _lockedFor uint256, _amountLocked uint256\n    function getDepotEthLockedDataForUserByIndex_V1(\n        address _user,\n        uint256 _index\n    ) public view returns (uint256 _lockedFor, uint256 _amountLocked) {\n        return _getDepotLockedDataForUserByIndex_V1(\n            _user,\n            address(0),\n            uint(0),\n            _index\n        );\n    }\n\n    /// @notice internal get lockedFor and amount of depot lock for a user and index\n    /// @param _user address\n    /// @param _tokenContractAddress address : ERC1155 smart contract\n    /// @param _tokenId uint256 : tokenId of ERC1155\n    /// @param _index uint256\n    /// @return _lockedFor uint256, _amountLocked uint256\n    function _getDepotLockedDataForUserByIndex_V1(\n        address _user,\n        address _tokenContractAddress,\n        uint256 _tokenId,\n        uint256 _index\n    ) internal view returns (uint256 _lockedFor, uint256 _amountLocked) {\n        _lockedFor = tokens[_tokenContractAddress][_tokenId][_user].lockedList[_index];\n        _amountLocked = _getBalanceLocked_V1(\n            _user,\n            _tokenContractAddress,\n            _tokenId,\n            _lockedFor\n        );\n    }\n\n    /// @notice get total locked amount for a user\n    /// @param _user address\n    /// @return _totalAmountLocked uint256\n    function getDepotEthLockedAmountForUser_V1(address _user)\n        public\n        view\n        returns (uint256 _totalAmountLocked)\n    {\n        return _getDepotLockedAmountForUser_V1(_user, address(0), uint(0));\n    }\n\n    /// @notice internal get total locked amount for a user\n    /// @param _user address\n    /// @param _tokenContractAddress address : ERC1155 smart contract\n    /// @param _tokenId uint256 : tokenId of ERC1155\n    /// @return _totalAmountLocked uint256\n    function _getDepotLockedAmountForUser_V1(\n        address _user,\n        address _tokenContractAddress,\n        uint256 _tokenId\n    ) internal view returns (uint256 _totalAmountLocked) {\n        uint16 _lockedListLength = uint16(\n            tokens[_tokenContractAddress][_tokenId][_user].lockedList.length\n        );\n\n        if (_lockedListLength == 0) {\n            return 0;\n        }\n\n        for (uint16 index = 0; index < _lockedListLength; index++) {\n            uint _amountLocked;\n\n            (, _amountLocked) = _getDepotLockedDataForUserByIndex_V1(\n                _user,\n                _tokenContractAddress,\n                _tokenId,\n                index\n            );\n\n            _totalAmountLocked = _totalAmountLocked.add(_amountLocked);\n        }\n    }\n\n\n    /// @notice withdrawal depot eth\n    /// @param _amount uint256\n    function withdrawalEth_V1(uint256 _amount) public {\n\n        _withdrawal_V1(msg.sender, address(0), uint(0), _amount);\n\n        // For previous compatibility\n        emit LogWithdrawal(msg.sender, _amount);\n\n        emit LogWithdrawal_V1(msg.sender, address(0), uint(0),  _amount);\n    }\n\n\n    /// @notice withdrawal ERC20\n    /// @param _tokenContractAddress address : ERC20 smart contract\n    /// @param _amount uint256\n    function withdrawalERC20_V1(address _tokenContractAddress, uint256 _amount)\n    public\n    {\n        _withdrawal_V1(msg.sender, _tokenContractAddress, uint256(0), _amount);\n\n        emit LogWithdrawal_V1(msg.sender, _tokenContractAddress, uint(0),  _amount);\n    }\n\n    /// @notice withdrawal ERC721\n    /// @param _user address\n    /// @param _tokenContractAddress address : ERC721 smart contract\n    /// @param _tokenId uint256 : tokenId of ERC721\n    function withdrawalERC721_V1(\n        address _user,\n        address _tokenContractAddress,\n        uint256 _tokenId\n    ) public {\n        _withdrawal_V1(msg.sender, _tokenContractAddress, _tokenId, uint256(1));\n\n        emit LogWithdrawal_V1(msg.sender, _tokenContractAddress, _tokenId,  uint256(1));\n    }\n\n    /// @notice withdrawal ERC1155\n    /// @param _user address\n    /// @param _tokenContractAddress address : ERC1155 smart contract\n    /// @param _tokenId uint256 : tokenId of ERC1155\n    /// @param _amount uint256\n    function withdrawalERC1155_V1(\n        address _user,\n        address _tokenContractAddress,\n        uint256 _tokenId,\n        uint256 _amount\n    ) public {\n        _withdrawal_V1(msg.sender, _tokenContractAddress, _tokenId, _amount);\n\n        emit LogWithdrawal_V1(msg.sender, _tokenContractAddress, _tokenId,  _amount);\n    }\n\n    /// @notice internal withdrawal\n    /// @param _user address\n    /// @param _tokenContractAddress address : ERC1155 smart contract\n    /// @param _tokenId uint256 : tokenId of ERC1155\n    /// @param _amount uint256\n    function _withdrawal_V1(\n        address _user,\n        address _tokenContractAddress,\n        uint256 _tokenId,\n        uint256 _amount\n    ) public{\n\n        require(_amount > 0, \"Amount must be greater than 0\");\n        require(_getBalance_V1(_user, _tokenContractAddress, _tokenId) >= _amount, \"Amount too low\");\n\n        _subDepot_V1(_user, _tokenContractAddress, _tokenId, _amount);\n    }\n\n    /// @notice set withdrawalVoucher through oracle\n    /// @param _depositContractAddress address\n    /// @param _oracleRSV bytes\n    /// @param _signedRawTxWithdrawal bytes\n    function setWithdrawalVoucher_V1(\n        address _depositContractAddress,\n        bytes memory _oracleRSV,\n        bytes memory _signedRawTxWithdrawal\n    ) public delegatedSendIsOracle_V1 {\n        address _withdrawalSigner;\n        uint256 _withdrawalAmount;\n        bytes32 _withdrawalVoucherHash = keccak256(_signedRawTxWithdrawal);\n\n        (_withdrawalSigner, _withdrawalAmount) = AuctionityLibraryDecodeRawTx_V1.decodeRawTxGetWithdrawalInfo_V1(\n            _signedRawTxWithdrawal,\n            getAuctionityChainId_V1()\n        );\n\n        require(\n            _withdrawalVoucherOracleSignatureVerification_V1(\n                _depositContractAddress,\n                _withdrawalSigner,\n                _withdrawalAmount,\n                _withdrawalVoucherHash,\n                _oracleRSV\n            ),\n            \"Withdrawal voucher invalid signature of oracle\"\n        );\n\n        uint16 _withdrawalVoucherIndex = uint16(\n            withdrawals[_withdrawalSigner].withdrawalVoucherList.push(\"0x0\") - 1\n        );\n        uint _withdrawalVoucherOffset;\n\n        _setWithdrawalVoucherSize_V1(\n            _withdrawalSigner,\n            _withdrawalVoucherIndex,\n            _signedRawTxWithdrawal.length\n        );\n        setWithdrawalVoucherSelector_V1(\n            _withdrawalSigner,\n            _withdrawalVoucherIndex\n        );\n\n        _withdrawalVoucherOffset = _setWithdrawalVoucherParam1_V1(\n            _withdrawalSigner,\n            _withdrawalVoucherIndex,\n            _oracleRSV\n        );\n        _withdrawalVoucherOffset = _setWithdrawalVoucherParam2_V1(\n            _withdrawalVoucherOffset,\n            _withdrawalSigner,\n            _withdrawalVoucherIndex,\n            _signedRawTxWithdrawal\n        );\n\n        bytes memory _withdrawalVoucher = withdrawals[_withdrawalSigner].withdrawalVoucherList[_withdrawalVoucherIndex];\n\n        require(\n            withdrawals[_withdrawalSigner].withdrawalVoucher[keccak256(\n                _withdrawalVoucher\n            )] == 0,\n            \"Withdrawal voucher already exist\"\n        );\n\n        withdrawals[_withdrawalSigner].withdrawalVoucher[keccak256(\n            _withdrawalVoucher\n        )] = _withdrawalVoucherIndex;\n\n        // For previous compatibility\n        emit LogSetWithdrawalVoucher(\n            _withdrawalSigner,\n            _withdrawalAmount,\n            _withdrawalVoucher\n        );\n\n        emit LogSetWithdrawalVoucher_V1(\n            _withdrawalSigner,\n            _withdrawalAmount,\n            _withdrawalVoucher\n        );\n    }\n    \n    /// @notice initiate withdrawalVoucher bytes\n    /// @param _user address\n    /// @param _withdrawalVoucherIndex uint16 index of voucher\n    /// @param _signedRawTxWithdrawalLength bytes\n    function _setWithdrawalVoucherSize_V1(\n        address _user,\n        uint16 _withdrawalVoucherIndex,\n        uint _signedRawTxWithdrawalLength\n    ) internal {\n        uint _withdrawalVoucherLength = 4 + 2 * 32 + (((65 / 32) + 1) * 32) + 32 + (((_signedRawTxWithdrawalLength / 32) + 1) * 32); // start of rlp // 2 param // data : rsvOracle // length + signedRawTxCreateAuction\n\n        withdrawals[_user].withdrawalVoucherList[_withdrawalVoucherIndex] = new bytes(\n            _withdrawalVoucherLength\n        );\n    }\n\n    /// @notice set selector of withdrawalVoucher\n    /// @param _user address\n    /// @param _withdrawalVoucherIndex uint16 index of voucher\n    function setWithdrawalVoucherSelector_V1(\n        address _user,\n        uint16 _withdrawalVoucherIndex\n    ) internal {\n        // 0x6fc60a5e : bytes4(keccak256('withdrawalVoucher_V1(bytes,bytes)'))\n\n        bytes4 topic = 0x6fc60a5e;\n        for (uint8 i = 0; i < 4; i++) {\n            withdrawals[_user].withdrawalVoucherList[_withdrawalVoucherIndex][i] = bytes1(\n                topic[i]\n            );\n        }\n    }\n    /// @notice set 1st param of withdrawalVoucher : _oracleRSV\n    /// @param _user address\n    /// @param _withdrawalVoucherIndex uint16 index of voucher\n    /// @param _oracleRSV bytes\n    /// @return position of next free data in WV\n    function _setWithdrawalVoucherParam1_V1(\n        address _user,\n        uint16 _withdrawalVoucherIndex,\n        bytes memory _oracleRSV\n    ) internal returns (uint) {\n        uint i;\n        bytes32 _bytes32Position = bytes32(uint(2 * 32));\n\n        for (i = 0; i < 32; i++) {\n            withdrawals[_user].withdrawalVoucherList[_withdrawalVoucherIndex][4 + i] = bytes1(\n                _bytes32Position[i]\n            );\n        }\n\n        bytes32 _bytes32Length = bytes32(uint(65));\n\n        for (i = 0; i < 32; i++) {\n            withdrawals[_user].withdrawalVoucherList[_withdrawalVoucherIndex][4 + uint(\n                _bytes32Position\n            ) + i] = bytes1(_bytes32Length[i]);\n        }\n\n        for (i = 0; i < 65; i++) {\n            withdrawals[_user].withdrawalVoucherList[_withdrawalVoucherIndex][4 + 32 + uint(\n                _bytes32Position\n            ) + i] = bytes1(_oracleRSV[i]);\n        }\n\n        return uint(_bytes32Position) + (((65 / 32) + 1) * 32); // padding 32 bytes\n    }\n\n    /// @notice set 2nd param of withdrawalVoucher : _signedRawTxCreateAuction\n    /// @param _offset uint256 position of current free data in WV\n    /// @param _user address\n    /// @param _withdrawalVoucherIndex uint16 index of voucher\n    /// @param _signedRawTxWithdrawal bytes\n    /// @return position of next free data in WV\n    function _setWithdrawalVoucherParam2_V1(\n        uint _offset,\n        address _user,\n        uint16 _withdrawalVoucherIndex,\n        bytes memory _signedRawTxWithdrawal\n    ) internal returns (uint) {\n        uint i;\n        bytes32 _bytes32Position = bytes32(_offset);\n\n        for (i = 0; i < 32; i++) {\n            withdrawals[_user].withdrawalVoucherList[_withdrawalVoucherIndex][4 + 32 + i] = bytes1(\n                _bytes32Position[i]\n            );\n        }\n\n        bytes32 _bytes32Length = bytes32(_signedRawTxWithdrawal.length);\n\n        for (i = 0; i < 32; i++) {\n            withdrawals[_user].withdrawalVoucherList[_withdrawalVoucherIndex][4 + uint(\n                _bytes32Position\n            ) + i] = bytes1(_bytes32Length[i]);\n        }\n\n        for (i = 0; i < _signedRawTxWithdrawal.length; i++) {\n            withdrawals[_user].withdrawalVoucherList[_withdrawalVoucherIndex][4 + 32 + uint(\n                _bytes32Position\n            ) + i] = bytes1(_signedRawTxWithdrawal[i]);\n        }\n\n        return uint(\n            _bytes32Position\n        ) + 32 + (((_signedRawTxWithdrawal.length / 32) + 1) * 32);\n    }\n\n    /// @notice verification of oracle RSV\n    /// @param _depositContractAddress address\n    /// @param _withdrawalSigner address\n    /// @param _withdrawalAmount uint256\n    /// @param _withdrawalVoucherHash bytes32\n    /// @param _oracleRSV bytes\n    /// @return _success\n    function _withdrawalVoucherOracleSignatureVerification_V1(\n        address _depositContractAddress,\n        address _withdrawalSigner,\n        uint256 _withdrawalAmount,\n        bytes32 _withdrawalVoucherHash,\n        bytes memory _oracleRSV\n    ) internal view returns (bool) {\n        bytes32 _hash = keccak256(\n            abi.encodePacked(\n                _depositContractAddress,\n                _withdrawalSigner,\n                _withdrawalAmount,\n                _withdrawalVoucherHash\n            )\n        );\n\n        // if oracle is the signer of this withdrawal\n        address _oracleEcrecoverSigner = AuctionityLibraryDecodeRawTx_V1.ecrecoverSigner_V1(\n            keccak256(\n                abi.encodePacked(\"\\x19Ethereum Signed Message:\\n32\", _hash)\n            ),\n            _oracleRSV,\n            0\n        );\n\n        return _oracleEcrecoverSigner == oracle;\n    }\n\n    /// @notice Get number of withdrawal voucher list for a user\n    /// @param _user address\n    /// @return _numberOfWithdrawalVoucher\n    function getUserWithdrawalVoucherLength_V1(address _user)\n        public\n        view\n        returns (uint16 _numberOfWithdrawalVoucher)\n    {\n        return uint16(withdrawals[_user].withdrawalVoucherList.length);\n    }\n\n    /// @notice Get Withdrawal voucher for a user at index\n    /// @param _user address\n    /// @param _index uint16\n    /// @return voucher bytes\n    function getWithdrawalVoucherAtIndex_V1(address _user, uint16 _index)\n        public\n        view\n        returns (bytes memory _voucher)\n    {\n        return withdrawals[_user].withdrawalVoucherList[_index];\n    }\n\n    /// @notice Get index fro withdrawalVoucherList from user and voucher hash\n    /// @param _user address\n    /// @param _voucherHash bytes32\n    /// @return _index\n    function getWithdrawalVoucherIndex_V1(address _user, bytes32 _voucherHash)\n        public\n        view\n        returns (uint16)\n    {\n        return withdrawals[_user].withdrawalVoucher[_voucherHash];\n    }\n\n    /// @notice Remove withdrawal voucher by replacing the index of withdrawal voucher by the last index in withdrawal voucher list\n    /// @dev oracle only\n    /// @param _user address\n    /// @param _voucherHash bytes32\n    function removeWithdrawalVoucher_V1(address _user, bytes32 _voucherHash)\n        public\n        delegatedSendIsOracle_V1\n    {\n        uint16 _indexToDelete = withdrawals[_user].withdrawalVoucher[_voucherHash];\n        uint16 _length = uint16(\n            withdrawals[_user].withdrawalVoucherList.length\n        );\n        if (_length > 1) {\n            bytes memory _hashToMove = withdrawals[_user].withdrawalVoucherList[_length - 1];\n            withdrawals[_user].withdrawalVoucherList[_indexToDelete] = _hashToMove;\n            withdrawals[_user].withdrawalVoucher[keccak256(\n                _hashToMove\n            )] = _indexToDelete;\n        }\n\n        withdrawals[_user].withdrawalVoucherList.length--;\n\n        // For previous compatibility\n        emit LogWithdrawalVoucherHaveBeenRemoved(_user, _voucherHash);\n\n        emit LogWithdrawalVoucherHaveBeenRemoved_V1(_user, _voucherHash);\n    }\n\n}\n",
  "sourcePath": "/home/mike/domraider/4x-sas/bc-auction-sc/contracts/auctionityNetwork/AuctionityTreasurer_V1.sol",
  "compiler": {
    "name": "solc",
    "version": "0.5.4+commit.9549d8ff.Emscripten.clang"
  },
  "schemaVersion": "3.0.2",
  "updatedAt": "2019-09-20T07:24:53.384Z",
  "devdoc": {
    "methods": {
      "_withdrawal_V1(address,address,uint256,uint256)": {
        "params": {
          "_amount": "uint256",
          "_tokenContractAddress": "address : ERC1155 smart contract",
          "_tokenId": "uint256 : tokenId of ERC1155",
          "_user": "address"
        }
      },
      "delegatedLockDeposit_V1(address,uint256,uint256,uint256,address)": {
        "params": {
          "_amount": "uint256",
          "_auctionId": "uint256",
          "_refundUser": "address",
          "_tokenContractAddress": "address",
          "_tokenId": "uint256"
        },
        "return": "bool _isPaused"
      },
      "delegatedSendGetOracle_V1()": {
        "return": "address _oracle"
      },
      "delegatedSendGetPaused_V1()": {
        "return": "bool _isPaused"
      },
      "delegatedSendIsContractOwner_V1()": {
        "return": "_isContractOwner"
      },
      "endorse(uint256,address)": {
        "details": "msg.sender : smart contract of parent smart contract",
        "params": {
          "_amount": "uint256 amount to endorse",
          "_user": "address"
        },
        "return": "_success"
      },
      "getAuctionityChainId_V1()": {
        "return": "auctionity network id"
      },
      "getBalanceERC1155_V1(address,address,uint256)": {
        "params": {
          "_tokenContractAddress": "address : ERC1155 smart contract",
          "_tokenId": "uint256 : tokenId of ERC1155",
          "_user": "address"
        },
        "return": "_balanceOf uint256 balance of user"
      },
      "getBalanceERC20_V1(address,address)": {
        "params": {
          "_tokenContractAddress": "address : ERC20 smart contract",
          "_user": "address"
        },
        "return": "_balanceOf uint256 balance of user"
      },
      "getBalanceERC721_V1(address,address,uint256)": {
        "params": {
          "_tokenContractAddress": "address : ERC721 smart contract",
          "_tokenId": "uint256 : tokenId of ERC721",
          "_user": "address"
        },
        "return": "_balanceOf uint256 balance of user (unique ERC721 amount)"
      },
      "getBalanceEth_V1(address)": {
        "params": {
          "_user": "address"
        },
        "return": "_balanceOf uint256 balance of user"
      },
      "getBalanceLockedERC1155_V1(address,address,uint256,uint256)": {
        "params": {
          "_lockedFor": "uin256 : id to lock for",
          "_tokenContractAddress": "address : ERC1155 smart contract",
          "_tokenId": "uint256 : tokenId of ERC1155",
          "_user": "address"
        },
        "return": "_balanceOf uint256"
      },
      "getBalanceLockedERC20_V1(address,address,uint256)": {
        "params": {
          "_lockedFor": "uin256 : id to lock for",
          "_tokenContractAddress": "address : ERC20 smart contract",
          "_user": "address"
        },
        "return": "_balanceOf uint256"
      },
      "getBalanceLockedERC721_V1(address,address,uint256,uint256)": {
        "params": {
          "_lockedFor": "uin256 : id to lock for",
          "_tokenContractAddress": "address : ERC721 smart contract",
          "_tokenId": "uint256 : tokenId of ERC721",
          "_user": "address"
        },
        "return": "_balanceOf uint256"
      },
      "getBalanceLockedEth_V1(address,uint256)": {
        "params": {
          "_lockedFor": "uin256 : id to lock for",
          "_user": "address"
        },
        "return": "_balanceOf uint256"
      },
      "getDelegate_V1(bytes4)": {
        "params": {
          "_selector": "byte4"
        },
        "return": "_contractDelegate address"
      },
      "getDepotEthLockedAmountForUser_V1(address)": {
        "params": {
          "_user": "address"
        },
        "return": "_totalAmountLocked uint256"
      },
      "getDepotEthLockedCountForUser_V1(address)": {
        "params": {
          "_user": "address"
        },
        "return": "_depotEthLockCount uint16"
      },
      "getDepotEthLockedDataForUserByIndex_V1(address,uint256)": {
        "params": {
          "_index": "uint256",
          "_user": "address"
        },
        "return": "_lockedFor uint256, _amountLocked uint256"
      },
      "getEthereumChainId_V1()": {
        "return": "ethereum network id"
      },
      "getUserWithdrawalVoucherLength_V1(address)": {
        "params": {
          "_user": "address"
        },
        "return": "_numberOfWithdrawalVoucher"
      },
      "getWithdrawalVoucherAtIndex_V1(address,uint16)": {
        "params": {
          "_index": "uint16",
          "_user": "address"
        },
        "return": "voucher bytes"
      },
      "getWithdrawalVoucherIndex_V1(address,bytes32)": {
        "params": {
          "_user": "address",
          "_voucherHash": "bytes32"
        },
        "return": "_index"
      },
      "lockDeposit(uint256,address)": {
        "details": "tx.origin : origin user call parent smart contractmsg.sender : smart contract of parent smart contract",
        "params": {
          "_amount": "uint256 amount to lock",
          "_refundUser": "address : refund previews locked fo same lockId : uint256(msg.sender)"
        },
        "return": "_success"
      },
      "lockDepositERC1155_V1(address,uint256,uint256,uint256)": {
        "params": {
          "_amount": "uint256 : amount to lock",
          "_lockedFor": "uin256 : id to lock for",
          "_tokenContractAddress": "address : ERC1155 smart contract",
          "_tokenId": "uint256 : tokenId of ERC1155"
        },
        "return": "_success bool"
      },
      "lockDepositERC20_V1(address,uint256,uint256)": {
        "params": {
          "_amount": "uint256 : amount to lock",
          "_lockedFor": "uin256 : id to lock for",
          "_tokenContractAddress": "address : ERC20 smart contract"
        },
        "return": "_success bool"
      },
      "lockDepositERC721_V1(address,uint256,uint256)": {
        "params": {
          "_lockedFor": "uin256 : id to lock for",
          "_tokenContractAddress": "address : ERC721 smart contract",
          "_tokenId": "uint256 : tokenId of ERC721"
        },
        "return": "_success bool"
      },
      "lockDepositEth_V1(uint256,uint256)": {
        "params": {
          "_amount": "uint256 : amount to lock",
          "_lockedFor": "uin256 : id to lock for"
        },
        "return": "_success bool"
      },
      "receiveDepotERC1155_V1(address,address,uint256,uint256,bytes32)": {
        "details": "Receive deposit of ERC1155 from livenet through oracle",
        "params": {
          "_amount": "uint256",
          "_tokenContractAddress": "address : ERC1155 smart contract",
          "_tokenId": "uint256 : tokenId of ERC1155",
          "_transactionHashDeposit": "bytes32 : hash of transaction from livenet, for anti replay",
          "_user": "address"
        },
        "return": "bool"
      },
      "receiveDepotERC20_V1(address,address,uint256,bytes32)": {
        "details": "Receive deposit of ERC20 from livenet through oracle",
        "params": {
          "_amount": "uint256",
          "_tokenContractAddress": "address : ERC20 smart contract",
          "_transactionHashDeposit": "bytes32 : hash of transaction from livenet, for anti replay",
          "_user": "address"
        },
        "return": "bool"
      },
      "receiveDepotERC721_V1(address,address,uint256,bytes32)": {
        "details": "Receive deposit of ERC721 from livenet through oracle",
        "params": {
          "_tokenContractAddress": "address : ERC721 smart contract",
          "_tokenId": "uint256 : tokenId of ERC721",
          "_transactionHashDeposit": "bytes32 : hash of transaction from livenet, for anti replay",
          "_user": "address"
        },
        "return": "bool"
      },
      "receiveDepotEth_V1(address,uint256,bytes32)": {
        "details": "Receive deposit of eth from livenet through oracle",
        "params": {
          "_amount": "uint256",
          "_transactionHashDeposit": "bytes32 : hash of transaction from livenet, for anti replay",
          "_user": "address"
        },
        "return": "bool"
      },
      "receiveRewardDepotERC1155_V1(address,address,uint256,uint256,bytes32)": {
        "details": "Receive reward deposit of ERC1155 from livenet through oracle",
        "params": {
          "_amount": "uint256",
          "_tokenContractAddress": "address : ERC1155 smart contract",
          "_tokenId": "uint256 : tokenId of ERC1155",
          "_transactionHashDeposit": "bytes32 : hash of transaction from livenet, history only",
          "_user": "address"
        },
        "return": "bool"
      },
      "receiveRewardDepotERC20_V1(address,address,uint256,bytes32)": {
        "details": "Receive reward deposit of ERC20 from livenet through oracle",
        "params": {
          "_amount": "uint256",
          "_tokenContractAddress": "address : ERC20 smart contract",
          "_transactionHashDeposit": "bytes32 : hash of transaction from livenet, history only",
          "_user": "address"
        },
        "return": "bool"
      },
      "receiveRewardDepotEth_V1(address,uint256,bytes32)": {
        "details": "Receive reward deposit of eth from livenet through oracle",
        "params": {
          "_amount": "uint256",
          "_transactionHashDeposit": "bytes32 : hash of transaction from livenet, for history only",
          "_user": "address"
        },
        "return": "bool"
      },
      "removeWithdrawalVoucher_V1(address,bytes32)": {
        "details": "oracle only",
        "params": {
          "_user": "address",
          "_voucherHash": "bytes32"
        }
      },
      "setAuctionityChainId_V1(uint8)": {
        "params": {
          "_auctionityChainId": "uint8 : auctionity network id"
        }
      },
      "setEthereumChainId_V1(uint8)": {
        "params": {
          "_ethereumChainId": "uint8 : ethereum network id"
        }
      },
      "setWithdrawalVoucher_V1(address,bytes,bytes)": {
        "params": {
          "_depositContractAddress": "address",
          "_oracleRSV": "bytes",
          "_signedRawTxWithdrawal": "bytes"
        }
      },
      "withdrawalERC1155_V1(address,address,uint256,uint256)": {
        "params": {
          "_amount": "uint256",
          "_tokenContractAddress": "address : ERC1155 smart contract",
          "_tokenId": "uint256 : tokenId of ERC1155",
          "_user": "address"
        }
      },
      "withdrawalERC20_V1(address,uint256)": {
        "params": {
          "_amount": "uint256",
          "_tokenContractAddress": "address : ERC20 smart contract"
        }
      },
      "withdrawalERC721_V1(address,address,uint256)": {
        "params": {
          "_tokenContractAddress": "address : ERC721 smart contract",
          "_tokenId": "uint256 : tokenId of ERC721",
          "_user": "address"
        }
      },
      "withdrawalEth_V1(uint256)": {
        "params": {
          "_amount": "uint256"
        }
      }
    },
    "title": "Auctionity Treasurer"
  },
  "userdoc": {
    "methods": {
      "_withdrawal_V1(address,address,uint256,uint256)": {
        "notice": "internal withdrawal"
      },
      "delegatedLockDeposit_V1(address,uint256,uint256,uint256,address)": {
        "notice": "delegate lockDeposit_V1"
      },
      "delegatedSendGetOracle_V1()": {
        "notice": "delegate getOracle_V1"
      },
      "delegatedSendGetPaused_V1()": {
        "notice": "delegate getPaused_V1"
      },
      "delegatedSendIsContractOwner_V1()": {
        "notice": "delegate IsContractOwner_V1"
      },
      "endorse(uint256,address)": {
        "notice": "for previous compatibility : endorse locked deposit to a called smart contract"
      },
      "getAuctionityChainId_V1()": {
        "notice": "getter of auctionity network id"
      },
      "getBalanceERC1155_V1(address,address,uint256)": {
        "notice": "internal get balance ERC1155 for a user"
      },
      "getBalanceERC20_V1(address,address)": {
        "notice": "get balance ERC20 for a user"
      },
      "getBalanceERC721_V1(address,address,uint256)": {
        "notice": "get balance ERC721 for a user"
      },
      "getBalanceEth_V1(address)": {
        "notice": "get balance Eth for a user"
      },
      "getBalanceLockedERC1155_V1(address,address,uint256,uint256)": {
        "notice": "get locked balance ERC1155"
      },
      "getBalanceLockedERC20_V1(address,address,uint256)": {
        "notice": "get locked balance ERC20"
      },
      "getBalanceLockedERC721_V1(address,address,uint256,uint256)": {
        "notice": "get locked balance ERC721"
      },
      "getBalanceLockedEth_V1(address,uint256)": {
        "notice": "get locked balance Eth"
      },
      "getDelegate_V1(bytes4)": {
        "notice": "get delegated addrss from a selector"
      },
      "getDepotEthLockedAmountForUser_V1(address)": {
        "notice": "get total locked amount for a user"
      },
      "getDepotEthLockedCountForUser_V1(address)": {
        "notice": "get number of depot eth lock for a user"
      },
      "getDepotEthLockedDataForUserByIndex_V1(address,uint256)": {
        "notice": "get lockedFor and amount of depot eth lock for a user and index"
      },
      "getEthereumChainId_V1()": {
        "notice": "getter of ethereum network id"
      },
      "getUserWithdrawalVoucherLength_V1(address)": {
        "notice": "Get number of withdrawal voucher list for a user"
      },
      "getWithdrawalVoucherAtIndex_V1(address,uint16)": {
        "notice": "Get Withdrawal voucher for a user at index"
      },
      "getWithdrawalVoucherIndex_V1(address,bytes32)": {
        "notice": "Get index fro withdrawalVoucherList from user and voucher hash"
      },
      "lockDeposit(uint256,address)": {
        "notice": "For previous compatiblity : Lock part of deposit to a called smart contract"
      },
      "lockDepositERC1155_V1(address,uint256,uint256,uint256)": {
        "notice": "internal lock of depot ERC1155"
      },
      "lockDepositERC20_V1(address,uint256,uint256)": {
        "notice": "lock of depot ERC20"
      },
      "lockDepositERC721_V1(address,uint256,uint256)": {
        "notice": "internal lock of depot ERC721"
      },
      "lockDepositEth_V1(uint256,uint256)": {
        "notice": "lock of depot Eth"
      },
      "receiveDepotERC1155_V1(address,address,uint256,uint256,bytes32)": {
        "notice": "receive DepotErc1155"
      },
      "receiveDepotERC20_V1(address,address,uint256,bytes32)": {
        "notice": "receive DepotErc20"
      },
      "receiveDepotERC721_V1(address,address,uint256,bytes32)": {
        "notice": "receive DepotErc721"
      },
      "receiveDepotEth_V1(address,uint256,bytes32)": {
        "notice": "receive DepotEth"
      },
      "receiveRewardDepotERC1155_V1(address,address,uint256,uint256,bytes32)": {
        "notice": "receive reward DepotErc1155"
      },
      "receiveRewardDepotERC20_V1(address,address,uint256,bytes32)": {
        "notice": "receive reward DepotErc20"
      },
      "receiveRewardDepotEth_V1(address,uint256,bytes32)": {
        "notice": "receive reward DepotEth"
      },
      "removeWithdrawalVoucher_V1(address,bytes32)": {
        "notice": "Remove withdrawal voucher by replacing the index of withdrawal voucher by the last index in withdrawal voucher list"
      },
      "setAuctionityChainId_V1(uint8)": {
        "notice": "setter of auctionity network id"
      },
      "setEthereumChainId_V1(uint8)": {
        "notice": "setter of ethereum network id"
      },
      "setWithdrawalVoucher_V1(address,bytes,bytes)": {
        "notice": "set withdrawalVoucher through oracle"
      },
      "withdrawalERC1155_V1(address,address,uint256,uint256)": {
        "notice": "withdrawal ERC1155"
      },
      "withdrawalERC20_V1(address,uint256)": {
        "notice": "withdrawal ERC20"
      },
      "withdrawalERC721_V1(address,address,uint256)": {
        "notice": "withdrawal ERC721"
      },
      "withdrawalEth_V1(uint256)": {
        "notice": "withdrawal depot eth"
      }
    }
  }
}