{
  "contractName": "AuctionityChainId_V1",
  "abi": [
    {
      "constant": true,
      "inputs": [],
      "name": "ethereumChainId",
      "outputs": [
        {
          "name": "",
          "type": "uint8"
        }
      ],
      "payable": false,
      "stateMutability": "view",
      "type": "function"
    },
    {
      "constant": false,
      "inputs": [],
      "name": "delegatedSendGetOracle_V1",
      "outputs": [
        {
          "name": "_oracle",
          "type": "address"
        }
      ],
      "payable": false,
      "stateMutability": "nonpayable",
      "type": "function"
    },
    {
      "constant": false,
      "inputs": [
        {
          "name": "_tokenContractAddress",
          "type": "address"
        },
        {
          "name": "_tokenId",
          "type": "uint256"
        },
        {
          "name": "_amount",
          "type": "uint256"
        },
        {
          "name": "_auctionId",
          "type": "uint256"
        },
        {
          "name": "_refundUser",
          "type": "address"
        }
      ],
      "name": "delegatedLockDeposit_V1",
      "outputs": [
        {
          "name": "_success",
          "type": "bool"
        }
      ],
      "payable": false,
      "stateMutability": "nonpayable",
      "type": "function"
    },
    {
      "constant": true,
      "inputs": [],
      "name": "paused",
      "outputs": [
        {
          "name": "",
          "type": "bool"
        }
      ],
      "payable": false,
      "stateMutability": "view",
      "type": "function"
    },
    {
      "constant": true,
      "inputs": [],
      "name": "oracle",
      "outputs": [
        {
          "name": "",
          "type": "address"
        }
      ],
      "payable": false,
      "stateMutability": "view",
      "type": "function"
    },
    {
      "constant": true,
      "inputs": [],
      "name": "auctionityChainId",
      "outputs": [
        {
          "name": "",
          "type": "uint8"
        }
      ],
      "payable": false,
      "stateMutability": "view",
      "type": "function"
    },
    {
      "constant": true,
      "inputs": [],
      "name": "proxyFallbackContract",
      "outputs": [
        {
          "name": "",
          "type": "address"
        }
      ],
      "payable": false,
      "stateMutability": "view",
      "type": "function"
    },
    {
      "constant": true,
      "inputs": [],
      "name": "contractOwner",
      "outputs": [
        {
          "name": "",
          "type": "address"
        }
      ],
      "payable": false,
      "stateMutability": "view",
      "type": "function"
    },
    {
      "constant": true,
      "inputs": [
        {
          "name": "_selector",
          "type": "bytes4"
        }
      ],
      "name": "getDelegate_V1",
      "outputs": [
        {
          "name": "_contractDelegate",
          "type": "address"
        }
      ],
      "payable": false,
      "stateMutability": "view",
      "type": "function"
    },
    {
      "constant": false,
      "inputs": [],
      "name": "delegatedSendGetPaused_V1",
      "outputs": [
        {
          "name": "_isPaused",
          "type": "bool"
        }
      ],
      "payable": false,
      "stateMutability": "nonpayable",
      "type": "function"
    },
    {
      "constant": false,
      "inputs": [],
      "name": "delegatedSendIsContractOwner_V1",
      "outputs": [
        {
          "name": "_isContractOwner",
          "type": "bool"
        }
      ],
      "payable": false,
      "stateMutability": "nonpayable",
      "type": "function"
    },
    {
      "constant": true,
      "inputs": [],
      "name": "getEthereumChainId_V1",
      "outputs": [
        {
          "name": "",
          "type": "uint8"
        }
      ],
      "payable": false,
      "stateMutability": "view",
      "type": "function"
    },
    {
      "constant": true,
      "inputs": [],
      "name": "getAuctionityChainId_V1",
      "outputs": [
        {
          "name": "",
          "type": "uint8"
        }
      ],
      "payable": false,
      "stateMutability": "view",
      "type": "function"
    },
    {
      "constant": false,
      "inputs": [
        {
          "name": "_ethereumChainId",
          "type": "uint8"
        }
      ],
      "name": "setEthereumChainId_V1",
      "outputs": [],
      "payable": false,
      "stateMutability": "nonpayable",
      "type": "function"
    },
    {
      "constant": false,
      "inputs": [
        {
          "name": "_auctionityChainId",
          "type": "uint8"
        }
      ],
      "name": "setAuctionityChainId_V1",
      "outputs": [],
      "payable": false,
      "stateMutability": "nonpayable",
      "type": "function"
    }
  ],
  "bytecode": "0x608060405234801561001057600080fd5b50610822806100206000396000f3fe608060405234801561001057600080fd5b5060043610610112576000357c010000000000000000000000000000000000000000000000000000000090048063a0709812116100b4578063e0237f9111610083578063e0237f9114610221578063ecc799b714610248578063f0791d0614610250578063fde2ab801461025857610112565b8063a070981214610201578063c6afc73614610209578063ce606ee014610211578063ce7825521461021957610112565b80635470fb47116100f05780635470fb471461017757806356eed26e1461019b5780635c975abb146101f15780637dc0d1d0146101f957610112565b806301890df6146101175780632cf19b6e146101355780634323fb1214610157575b600080fd5b61011f610260565b6040805160ff9092168252519081900360200190f35b6101556004803603602081101561014b57600080fd5b503560ff16610282565b005b6101556004803603602081101561016d57600080fd5b503560ff16610327565b61017f6103ca565b60408051600160a060020a039092168252519081900360200190f35b6101dd600480360360a08110156101b157600080fd5b50600160a060020a03813581169160208101359160408201359160608101359160809091013516610443565b604080519115158252519081900360200190f35b6101dd6104de565b61017f6104ff565b61011f61050e565b61017f610531565b61017f610540565b61011f61054f565b61017f6004803603602081101561023757600080fd5b5035600160e060020a031916610571565b61011f610596565b6101dd6105b9565b6101dd610629565b6003547501000000000000000000000000000000000000000000900460ff1681565b61028a610629565b15156102e1576040517f08c379a00000000000000000000000000000000000000000000000000000000081526004018080602001828103825260238152602001806107566023913960400191505060405180910390fd5b6003805460ff9092167601000000000000000000000000000000000000000000000276ff0000000000000000000000000000000000000000000019909216919091179055565b61032f610629565b1515610386576040517f08c379a00000000000000000000000000000000000000000000000000000000081526004018080602001828103825260218152602001806107356021913960400191505060405180910390fd5b6003805460ff90921675010000000000000000000000000000000000000000000275ff00000000000000000000000000000000000000000019909216919091179055565b604080517f64656c656761746564526563656976654765744f7261636c655f5631282900008152815190819003601e0181206004825260248201909252602081018051600160e060020a0316600160e060020a0319909316929092179091526000908190819061043a908261067c565b50519250505090565b60008060006104d060405180806107c06037913960408051918290036037018220600160a060020a03808e166024850152604484018d9052606484018c9052608484018b9052891660a4808501919091528251808503909101815260c4909301909152602082018051600160e060020a0316600160e060020a03199092169190911790529050600061067c565b505198975050505050505050565b60035474010000000000000000000000000000000000000000900460ff1681565b600354600160a060020a031681565b600354760100000000000000000000000000000000000000000000900460ff1681565b600154600160a060020a031681565b600254600160a060020a031681565b6003547501000000000000000000000000000000000000000000900460ff1690565b600160e060020a031916600090815260208190526040902054600160a060020a031690565b600354760100000000000000000000000000000000000000000000900460ff1690565b604080517f64656c656761746564526563656976654765745061757365645f5631282900008152815190819003601e0181206004825260248201909252602081018051600160e060020a0316600160e060020a0319909316929092179091526000908190819061043a908261067c565b600080600061043a604051808061079c6024913960408051918290036024908101832060048452908301909152602082018051600160e060020a0316600160e060020a0319909216919091179052905060005b602082015160009081908161069082610571565b9050600160a060020a03811615156106a55750835b600160a060020a0381161515610706576040517f08c379a00000000000000000000000000000000000000000000000000000000081526004018080602001828103825260238152602001806107796023913960400191505060405180910390fd5b600080875160208901845af43d93506040519450836000863e80151561072a578385fd5b505050925092905056fe736574457468657265756d436861696e496420436f6e7472616374206f776e657273657441756374696f6e697479436861696e496420436f6e7472616374206f776e657241756374696f6e6974792066756e6374696f6e20646f6573206e6f742065786973742e64656c656761746564526563656976654973436f6e74726163744f776e65725f563128296c6f636b4465706f7369745f563128616464726573732c75696e743235362c75696e743235362c75696e743235362c6164647265737329a165627a7a72305820e77e92e4d56c21ee94b0fa70e74062f1201ad1326ee71241770cf0eeadbf1a4f0029",
  "source": "pragma solidity ^0.5.4;\n\nimport \"./AuctionityLibrary_V1.sol\";\n\n/// @title Auctionity chainId library\ncontract AuctionityChainId_V1 is AuctionityLibrary_V1 {\n    /// @notice getter of ethereum network id\n    /// @return ethereum network id\n    function getEthereumChainId_V1() public view returns (uint8) {\n        return ethereumChainId;\n    }\n\n    /// @notice getter of auctionity network id\n    /// @return auctionity network id\n    function getAuctionityChainId_V1() public view returns (uint8) {\n        return auctionityChainId;\n    }\n\n    /// @notice setter of ethereum network id\n    /// @param _ethereumChainId uint8 : ethereum network id\n    function setEthereumChainId_V1(uint8 _ethereumChainId) public {\n        require(\n            delegatedSendIsContractOwner_V1(),\n            \"setEthereumChainId Contract owner\"\n        );\n        ethereumChainId = _ethereumChainId;\n    }\n\n    /// @notice setter of auctionity network id\n    /// @param _auctionityChainId uint8 : auctionity network id\n    function setAuctionityChainId_V1(uint8 _auctionityChainId) public {\n        require(\n            delegatedSendIsContractOwner_V1(),\n            \"setAuctionityChainId Contract owner\"\n        );\n        auctionityChainId = _auctionityChainId;\n    }\n\n}\n",
  "sourcePath": "/home/mike/domraider/4x-sas/bc-auction-sc/contracts/CommonContract/AuctionityChainId_V1.sol",
  "compiler": {
    "name": "solc",
    "version": "0.5.4+commit.9549d8ff.Emscripten.clang"
  },
  "schemaVersion": "3.0.2",
  "updatedAt": "2019-09-20T07:24:53.333Z",
  "devdoc": {
    "methods": {
      "delegatedLockDeposit_V1(address,uint256,uint256,uint256,address)": {
        "params": {
          "_amount": "uint256",
          "_auctionId": "uint256",
          "_refundUser": "address",
          "_tokenContractAddress": "address",
          "_tokenId": "uint256"
        },
        "return": "bool _isPaused"
      },
      "delegatedSendGetOracle_V1()": {
        "return": "address _oracle"
      },
      "delegatedSendGetPaused_V1()": {
        "return": "bool _isPaused"
      },
      "delegatedSendIsContractOwner_V1()": {
        "return": "_isContractOwner"
      },
      "getAuctionityChainId_V1()": {
        "return": "auctionity network id"
      },
      "getDelegate_V1(bytes4)": {
        "params": {
          "_selector": "byte4"
        },
        "return": "_contractDelegate address"
      },
      "getEthereumChainId_V1()": {
        "return": "ethereum network id"
      },
      "setAuctionityChainId_V1(uint8)": {
        "params": {
          "_auctionityChainId": "uint8 : auctionity network id"
        }
      },
      "setEthereumChainId_V1(uint8)": {
        "params": {
          "_ethereumChainId": "uint8 : ethereum network id"
        }
      }
    },
    "title": "Auctionity chainId library"
  },
  "userdoc": {
    "methods": {
      "delegatedLockDeposit_V1(address,uint256,uint256,uint256,address)": {
        "notice": "delegate lockDeposit_V1"
      },
      "delegatedSendGetOracle_V1()": {
        "notice": "delegate getOracle_V1"
      },
      "delegatedSendGetPaused_V1()": {
        "notice": "delegate getPaused_V1"
      },
      "delegatedSendIsContractOwner_V1()": {
        "notice": "delegate IsContractOwner_V1"
      },
      "getAuctionityChainId_V1()": {
        "notice": "getter of auctionity network id"
      },
      "getDelegate_V1(bytes4)": {
        "notice": "get delegated addrss from a selector"
      },
      "getEthereumChainId_V1()": {
        "notice": "getter of ethereum network id"
      },
      "setAuctionityChainId_V1(uint8)": {
        "notice": "setter of auctionity network id"
      },
      "setEthereumChainId_V1(uint8)": {
        "notice": "setter of ethereum network id"
      }
    }
  }
}