{
  "contractName": "AuctionityOwnable_V1",
  "abi": [
    {
      "constant": true,
      "inputs": [],
      "name": "ethereumChainId",
      "outputs": [
        {
          "name": "",
          "type": "uint8"
        }
      ],
      "payable": false,
      "stateMutability": "view",
      "type": "function"
    },
    {
      "constant": true,
      "inputs": [],
      "name": "paused",
      "outputs": [
        {
          "name": "",
          "type": "bool"
        }
      ],
      "payable": false,
      "stateMutability": "view",
      "type": "function"
    },
    {
      "constant": true,
      "inputs": [],
      "name": "oracle",
      "outputs": [
        {
          "name": "",
          "type": "address"
        }
      ],
      "payable": false,
      "stateMutability": "view",
      "type": "function"
    },
    {
      "constant": true,
      "inputs": [],
      "name": "auctionityChainId",
      "outputs": [
        {
          "name": "",
          "type": "uint8"
        }
      ],
      "payable": false,
      "stateMutability": "view",
      "type": "function"
    },
    {
      "constant": true,
      "inputs": [],
      "name": "proxyFallbackContract",
      "outputs": [
        {
          "name": "",
          "type": "address"
        }
      ],
      "payable": false,
      "stateMutability": "view",
      "type": "function"
    },
    {
      "constant": true,
      "inputs": [],
      "name": "contractOwner",
      "outputs": [
        {
          "name": "",
          "type": "address"
        }
      ],
      "payable": false,
      "stateMutability": "view",
      "type": "function"
    },
    {
      "anonymous": false,
      "inputs": [
        {
          "indexed": true,
          "name": "previousOwner",
          "type": "address"
        }
      ],
      "name": "OwnershipRenounced_V1",
      "type": "event"
    },
    {
      "anonymous": false,
      "inputs": [
        {
          "indexed": true,
          "name": "previousOwner",
          "type": "address"
        },
        {
          "indexed": true,
          "name": "newOwner",
          "type": "address"
        }
      ],
      "name": "OwnershipTransferred_V1",
      "type": "event"
    },
    {
      "constant": true,
      "inputs": [],
      "name": "getContractOwner_V1",
      "outputs": [
        {
          "name": "_contractOwner",
          "type": "address"
        }
      ],
      "payable": false,
      "stateMutability": "view",
      "type": "function"
    },
    {
      "constant": false,
      "inputs": [],
      "name": "delegatedReceiveIsContractOwner_V1",
      "outputs": [
        {
          "name": "_isContractOwner",
          "type": "bool"
        }
      ],
      "payable": true,
      "stateMutability": "payable",
      "type": "function"
    },
    {
      "constant": true,
      "inputs": [],
      "name": "isContractOwner_V1",
      "outputs": [
        {
          "name": "_isContractOwner",
          "type": "bool"
        }
      ],
      "payable": false,
      "stateMutability": "view",
      "type": "function"
    },
    {
      "constant": false,
      "inputs": [],
      "name": "renounceOwnership_V1",
      "outputs": [],
      "payable": false,
      "stateMutability": "nonpayable",
      "type": "function"
    },
    {
      "constant": false,
      "inputs": [
        {
          "name": "newOwner",
          "type": "address"
        }
      ],
      "name": "transferOwnership_V1",
      "outputs": [],
      "payable": false,
      "stateMutability": "nonpayable",
      "type": "function"
    }
  ],
  "bytecode": "0x608060405234801561001057600080fd5b506104b7806100206000396000f3fe6080604052600436106100b9576000357c010000000000000000000000000000000000000000000000000000000090048063af7c943011610081578063af7c943014610160578063c6afc73614610175578063c734e3c41461018a578063ce606ee0146101bf578063d2dc7eef146101d4578063f707d819146101e9576100b9565b806301890df6146100be5780635c975abb146100e95780637dc0d1d0146101125780638268081a14610143578063a07098121461014b575b600080fd5b3480156100ca57600080fd5b506100d36101fe565b6040805160ff9092168252519081900360200190f35b3480156100f557600080fd5b506100fe610220565b604080519115158252519081900360200190f35b34801561011e57600080fd5b50610127610241565b60408051600160a060020a039092168252519081900360200190f35b6100fe610250565b34801561015757600080fd5b506100d361025f565b34801561016c57600080fd5b50610127610282565b34801561018157600080fd5b50610127610291565b34801561019657600080fd5b506101bd600480360360208110156101ad57600080fd5b5035600160a060020a03166102a0565b005b3480156101cb57600080fd5b50610127610321565b3480156101e057600080fd5b506100fe610330565b3480156101f557600080fd5b506101bd610341565b6003547501000000000000000000000000000000000000000000900460ff1681565b60035474010000000000000000000000000000000000000000900460ff1681565b600354600160a060020a031681565b600061025a610330565b905090565b600354760100000000000000000000000000000000000000000000900460ff1681565b600254600160a060020a031690565b600154600160a060020a031681565b6102a8610330565b151561031557604080517f08c379a000000000000000000000000000000000000000000000000000000000815260206004820152600d60248201527f4e6f7420746865206f776e657200000000000000000000000000000000000000604482015290519081900360640190fd5b61031e8161040d565b50565b600254600160a060020a031681565b600254600160a060020a0316331490565b610349610330565b15156103b657604080517f08c379a000000000000000000000000000000000000000000000000000000000815260206004820152600d60248201527f4e6f7420746865206f776e657200000000000000000000000000000000000000604482015290519081900360640190fd5b600254604051600160a060020a03909116907f19554fbe3ad9232b978552180a0f34abab230f369043a51aa86b86acb1528f2290600090a26002805473ffffffffffffffffffffffffffffffffffffffff19169055565b600160a060020a038116151561042257600080fd5b600254604051600160a060020a038084169216907fd2080049cc911685598318c6c6d2c00c34b70b30bb11d400c2821bd4cfbff51490600090a36002805473ffffffffffffffffffffffffffffffffffffffff1916600160a060020a039290921691909117905556fea165627a7a72305820d72e10320f92529c2541bc3eb416174cfa15b080e363f143fc7c3edd7faf569b0029",
  "source": "pragma solidity ^0.5.4;\n\nimport \"./AuctionityStorage0.sol\";\n\n/// @title Ownable\n/// @dev The Ownable contract has an owner address, and provides basic authorization control\n/// functions, this simplifies the implementation of \"user permissions\".\n\ncontract AuctionityOwnable_V1 is AuctionityStorage0 {\n    event OwnershipRenounced_V1(address indexed previousOwner);\n    event OwnershipTransferred_V1(\n        address indexed previousOwner,\n        address indexed newOwner\n    );\n\n    /// @notice get contract owner address\n    /// @return _contractOwner address\n    function getContractOwner_V1()\n        public\n        view\n        returns (address _contractOwner)\n    {\n        return contractOwner;\n    }\n\n    /// @notice delegate receive of isContractOwner\n    /// @return  _isContractOwner bool\n    function delegatedReceiveIsContractOwner_V1()\n        public\n        payable\n        returns (bool _isContractOwner)\n    {\n        return isContractOwner_V1();\n    }\n\n    /// @notice verify if msg.sender is contract owner\n    /// @return _isContractOwner bool\n    function isContractOwner_V1() public view returns (bool _isContractOwner) {\n        return msg.sender == contractOwner;\n    }\n\n    /// @notice Renouncing to ownership will leave the contract without an owner.\n    function renounceOwnership_V1() public {\n        require(isContractOwner_V1(), \"Not the owner\");\n        emit OwnershipRenounced_V1(contractOwner);\n        contractOwner = address(0);\n    }\n\n    /// @notice Allows the current owner to transfer control of the contract to a newOwner.\n    /// @param newOwner The address to transfer ownership to.\n    function transferOwnership_V1(address newOwner) public {\n        require(isContractOwner_V1(), \"Not the owner\");\n        _transferOwnership_V1(newOwner);\n    }\n\n    /// @notice Transfers control of the contract to a newOwner.\n    /// @param newOwner The address to transfer ownership to.\n    function _transferOwnership_V1(address newOwner) internal {\n        require(newOwner != address(0));\n        emit OwnershipTransferred_V1(contractOwner, newOwner);\n        contractOwner = newOwner;\n    }\n}\n",
  "sourcePath": "/home/mike/domraider/4x-sas/bc-auction-sc/contracts/CommonContract/AuctionityOwnable_V1.sol",
  "compiler": {
    "name": "solc",
    "version": "0.5.4+commit.9549d8ff.Emscripten.clang"
  },
  "schemaVersion": "3.0.2",
  "updatedAt": "2019-09-20T07:24:53.341Z",
  "devdoc": {
    "details": "The Ownable contract has an owner address, and provides basic authorization control functions, this simplifies the implementation of \"user permissions\".",
    "methods": {
      "delegatedReceiveIsContractOwner_V1()": {
        "return": "_isContractOwner bool"
      },
      "getContractOwner_V1()": {
        "return": "_contractOwner address"
      },
      "isContractOwner_V1()": {
        "return": "_isContractOwner bool"
      },
      "transferOwnership_V1(address)": {
        "params": {
          "newOwner": "The address to transfer ownership to."
        }
      }
    },
    "title": "Ownable"
  },
  "userdoc": {
    "methods": {
      "delegatedReceiveIsContractOwner_V1()": {
        "notice": "delegate receive of isContractOwner"
      },
      "getContractOwner_V1()": {
        "notice": "get contract owner address"
      },
      "isContractOwner_V1()": {
        "notice": "verify if msg.sender is contract owner"
      },
      "renounceOwnership_V1()": {
        "notice": "Renouncing to ownership will leave the contract without an owner."
      },
      "transferOwnership_V1(address)": {
        "notice": "Allows the current owner to transfer control of the contract to a newOwner."
      }
    }
  }
}