{
  "contractName": "AuctionityStorage1",
  "abi": [
    {
      "constant": true,
      "inputs": [],
      "name": "ethereumChainId",
      "outputs": [
        {
          "name": "",
          "type": "uint8"
        }
      ],
      "payable": false,
      "stateMutability": "view",
      "type": "function"
    },
    {
      "constant": true,
      "inputs": [
        {
          "name": "",
          "type": "bytes32"
        }
      ],
      "name": "auctionEndVoucherSubmitted",
      "outputs": [
        {
          "name": "",
          "type": "bool"
        }
      ],
      "payable": false,
      "stateMutability": "view",
      "type": "function"
    },
    {
      "constant": true,
      "inputs": [],
      "name": "paused",
      "outputs": [
        {
          "name": "",
          "type": "bool"
        }
      ],
      "payable": false,
      "stateMutability": "view",
      "type": "function"
    },
    {
      "constant": true,
      "inputs": [
        {
          "name": "",
          "type": "uint256"
        }
      ],
      "name": "auctionEndVoucherList",
      "outputs": [
        {
          "name": "",
          "type": "bytes32"
        }
      ],
      "payable": false,
      "stateMutability": "view",
      "type": "function"
    },
    {
      "constant": true,
      "inputs": [],
      "name": "oracle",
      "outputs": [
        {
          "name": "",
          "type": "address"
        }
      ],
      "payable": false,
      "stateMutability": "view",
      "type": "function"
    },
    {
      "constant": true,
      "inputs": [
        {
          "name": "",
          "type": "bytes32"
        }
      ],
      "name": "withdrawalVoucherSubmitted",
      "outputs": [
        {
          "name": "",
          "type": "bool"
        }
      ],
      "payable": false,
      "stateMutability": "view",
      "type": "function"
    },
    {
      "constant": true,
      "inputs": [],
      "name": "auctionityChainId",
      "outputs": [
        {
          "name": "",
          "type": "uint8"
        }
      ],
      "payable": false,
      "stateMutability": "view",
      "type": "function"
    },
    {
      "constant": true,
      "inputs": [
        {
          "name": "",
          "type": "uint256"
        }
      ],
      "name": "withdrawalVoucherList",
      "outputs": [
        {
          "name": "",
          "type": "bytes32"
        }
      ],
      "payable": false,
      "stateMutability": "view",
      "type": "function"
    },
    {
      "constant": true,
      "inputs": [],
      "name": "proxyFallbackContract",
      "outputs": [
        {
          "name": "",
          "type": "address"
        }
      ],
      "payable": false,
      "stateMutability": "view",
      "type": "function"
    },
    {
      "constant": true,
      "inputs": [],
      "name": "contractOwner",
      "outputs": [
        {
          "name": "",
          "type": "address"
        }
      ],
      "payable": false,
      "stateMutability": "view",
      "type": "function"
    }
  ],
  "bytecode": "0x608060405234801561001057600080fd5b50610306806100206000396000f3fe608060405234801561001057600080fd5b50600436106100bb576000357c010000000000000000000000000000000000000000000000000000000090048063966d714811610083578063966d714814610177578063a070981214610194578063abdecf521461019c578063c6afc736146101b9578063ce606ee0146101c1576100bb565b806301890df6146100c05780630b77a715146100de5780635c975abb1461010f578063745ffb41146101175780637dc0d1d014610146575b600080fd5b6100c86101c9565b6040805160ff9092168252519081900360200190f35b6100fb600480360360208110156100f457600080fd5b50356101eb565b604080519115158252519081900360200190f35b6100fb610200565b6101346004803603602081101561012d57600080fd5b5035610221565b60408051918252519081900360200190f35b61014e610240565b6040805173ffffffffffffffffffffffffffffffffffffffff9092168252519081900360200190f35b6100fb6004803603602081101561018d57600080fd5b503561025c565b6100c8610271565b610134600480360360208110156101b257600080fd5b5035610294565b61014e6102a2565b61014e6102be565b6003547501000000000000000000000000000000000000000000900460ff1681565b60086020526000908152604090205460ff1681565b60035474010000000000000000000000000000000000000000900460ff1681565b600780548290811061022f57fe5b600091825260209091200154905081565b60035473ffffffffffffffffffffffffffffffffffffffff1681565b60066020526000908152604090205460ff1681565b600354760100000000000000000000000000000000000000000000900460ff1681565b600580548290811061022f57fe5b60015473ffffffffffffffffffffffffffffffffffffffff1681565b60025473ffffffffffffffffffffffffffffffffffffffff168156fea165627a7a72305820cf0d4f96e979e86f19944cf7e1836c3520daa3b23d5018fc9553cf53ed82ec860029",
  "source": "pragma solidity ^0.5.4;\n\nimport \"../CommonContract/AuctionityStorage0.sol\";\n\ncontract AuctionityStorage1 is AuctionityStorage0 {\n    // TokenContract => TokenIds => Users => amount\n    mapping(address => mapping(uint256 => mapping(address => uint256))) tokens;\n\n    bytes32[] public withdrawalVoucherList; // List of withdrawal voucher\n    mapping(bytes32 => bool) public withdrawalVoucherSubmitted; // is withdrawal voucher is already submitted\n\n    bytes32[] public auctionEndVoucherList; // List of auction end voucher\n    mapping(bytes32 => bool) public auctionEndVoucherSubmitted; // is auction end voucher is already submitted\n\n}\n",
  "sourcePath": "/home/mike/domraider/4x-sas/bc-auction-sc/contracts/ethereumLivenet/AuctionityStorage1.sol",
  "compiler": {
    "name": "solc",
    "version": "0.5.4+commit.9549d8ff.Emscripten.clang"
  },
  "schemaVersion": "3.0.2",
  "updatedAt": "2019-09-20T07:24:53.384Z",
  "devdoc": {
    "methods": {}
  },
  "userdoc": {
    "methods": {}
  }
}