{
  "contractName": "AuctionityStorage0",
  "abi": [
    {
      "constant": true,
      "inputs": [],
      "name": "ethereumChainId",
      "outputs": [
        {
          "name": "",
          "type": "uint8"
        }
      ],
      "payable": false,
      "stateMutability": "view",
      "type": "function"
    },
    {
      "constant": true,
      "inputs": [],
      "name": "paused",
      "outputs": [
        {
          "name": "",
          "type": "bool"
        }
      ],
      "payable": false,
      "stateMutability": "view",
      "type": "function"
    },
    {
      "constant": true,
      "inputs": [],
      "name": "oracle",
      "outputs": [
        {
          "name": "",
          "type": "address"
        }
      ],
      "payable": false,
      "stateMutability": "view",
      "type": "function"
    },
    {
      "constant": true,
      "inputs": [],
      "name": "auctionityChainId",
      "outputs": [
        {
          "name": "",
          "type": "uint8"
        }
      ],
      "payable": false,
      "stateMutability": "view",
      "type": "function"
    },
    {
      "constant": true,
      "inputs": [],
      "name": "proxyFallbackContract",
      "outputs": [
        {
          "name": "",
          "type": "address"
        }
      ],
      "payable": false,
      "stateMutability": "view",
      "type": "function"
    },
    {
      "constant": true,
      "inputs": [],
      "name": "contractOwner",
      "outputs": [
        {
          "name": "",
          "type": "address"
        }
      ],
      "payable": false,
      "stateMutability": "view",
      "type": "function"
    }
  ],
  "bytecode": "0x608060405234801561001057600080fd5b506101ec806100206000396000f3fe608060405234801561001057600080fd5b506004361061007e577c0100000000000000000000000000000000000000000000000000000000600035046301890df681146100835780635c975abb146100a15780637dc0d1d0146100bd578063a0709812146100ee578063c6afc736146100f6578063ce606ee0146100fe575b600080fd5b61008b610106565b6040805160ff9092168252519081900360200190f35b6100a9610128565b604080519115158252519081900360200190f35b6100c5610149565b6040805173ffffffffffffffffffffffffffffffffffffffff9092168252519081900360200190f35b61008b610165565b6100c5610188565b6100c56101a4565b6003547501000000000000000000000000000000000000000000900460ff1681565b60035474010000000000000000000000000000000000000000900460ff1681565b60035473ffffffffffffffffffffffffffffffffffffffff1681565b600354760100000000000000000000000000000000000000000000900460ff1681565b60015473ffffffffffffffffffffffffffffffffffffffff1681565b60025473ffffffffffffffffffffffffffffffffffffffff168156fea165627a7a7230582006868afd3837aad117c700056bde344e0c857e83bc8d72b2dac4401c23c7c71d0029",
  "source": "pragma solidity ^0.5.4;\n\ncontract AuctionityStorage0 {\n    // selector => delegate contract\n    mapping(bytes4 => address) internal delegates;\n\n    // If selector not found, fallback contract address\n    address public proxyFallbackContract;\n\n    address public contractOwner;\n    address public oracle;\n\n    bool public paused;\n\n    uint8 public ethereumChainId;\n    uint8 public auctionityChainId;\n}\n",
  "sourcePath": "/home/mike/domraider/4x-sas/bc-auction-sc/contracts/CommonContract/AuctionityStorage0.sol",
  "compiler": {
    "name": "solc",
    "version": "0.5.4+commit.9549d8ff.Emscripten.clang"
  },
  "schemaVersion": "3.0.2",
  "updatedAt": "2019-09-20T07:24:53.344Z",
  "devdoc": {
    "methods": {}
  },
  "userdoc": {
    "methods": {}
  }
}