{
  "contractName": "AuctionityPausable_V1",
  "abi": [
    {
      "constant": true,
      "inputs": [],
      "name": "ethereumChainId",
      "outputs": [
        {
          "name": "",
          "type": "uint8"
        }
      ],
      "payable": false,
      "stateMutability": "view",
      "type": "function"
    },
    {
      "constant": false,
      "inputs": [],
      "name": "delegatedSendGetOracle_V1",
      "outputs": [
        {
          "name": "_oracle",
          "type": "address"
        }
      ],
      "payable": false,
      "stateMutability": "nonpayable",
      "type": "function"
    },
    {
      "constant": false,
      "inputs": [
        {
          "name": "_tokenContractAddress",
          "type": "address"
        },
        {
          "name": "_tokenId",
          "type": "uint256"
        },
        {
          "name": "_amount",
          "type": "uint256"
        },
        {
          "name": "_auctionId",
          "type": "uint256"
        },
        {
          "name": "_refundUser",
          "type": "address"
        }
      ],
      "name": "delegatedLockDeposit_V1",
      "outputs": [
        {
          "name": "_success",
          "type": "bool"
        }
      ],
      "payable": false,
      "stateMutability": "nonpayable",
      "type": "function"
    },
    {
      "constant": true,
      "inputs": [],
      "name": "paused",
      "outputs": [
        {
          "name": "",
          "type": "bool"
        }
      ],
      "payable": false,
      "stateMutability": "view",
      "type": "function"
    },
    {
      "constant": true,
      "inputs": [],
      "name": "oracle",
      "outputs": [
        {
          "name": "",
          "type": "address"
        }
      ],
      "payable": false,
      "stateMutability": "view",
      "type": "function"
    },
    {
      "constant": true,
      "inputs": [],
      "name": "auctionityChainId",
      "outputs": [
        {
          "name": "",
          "type": "uint8"
        }
      ],
      "payable": false,
      "stateMutability": "view",
      "type": "function"
    },
    {
      "constant": true,
      "inputs": [],
      "name": "proxyFallbackContract",
      "outputs": [
        {
          "name": "",
          "type": "address"
        }
      ],
      "payable": false,
      "stateMutability": "view",
      "type": "function"
    },
    {
      "constant": true,
      "inputs": [],
      "name": "contractOwner",
      "outputs": [
        {
          "name": "",
          "type": "address"
        }
      ],
      "payable": false,
      "stateMutability": "view",
      "type": "function"
    },
    {
      "constant": true,
      "inputs": [
        {
          "name": "_selector",
          "type": "bytes4"
        }
      ],
      "name": "getDelegate_V1",
      "outputs": [
        {
          "name": "_contractDelegate",
          "type": "address"
        }
      ],
      "payable": false,
      "stateMutability": "view",
      "type": "function"
    },
    {
      "constant": false,
      "inputs": [],
      "name": "delegatedSendGetPaused_V1",
      "outputs": [
        {
          "name": "_isPaused",
          "type": "bool"
        }
      ],
      "payable": false,
      "stateMutability": "nonpayable",
      "type": "function"
    },
    {
      "constant": false,
      "inputs": [],
      "name": "delegatedSendIsContractOwner_V1",
      "outputs": [
        {
          "name": "_isContractOwner",
          "type": "bool"
        }
      ],
      "payable": false,
      "stateMutability": "nonpayable",
      "type": "function"
    },
    {
      "inputs": [],
      "payable": false,
      "stateMutability": "nonpayable",
      "type": "constructor"
    },
    {
      "anonymous": false,
      "inputs": [
        {
          "indexed": false,
          "name": "paused",
          "type": "bool"
        }
      ],
      "name": "LogPaused_V1",
      "type": "event"
    },
    {
      "constant": false,
      "inputs": [],
      "name": "delegatedReceiveGetPaused_V1",
      "outputs": [
        {
          "name": "_isPaused",
          "type": "bool"
        }
      ],
      "payable": true,
      "stateMutability": "payable",
      "type": "function"
    },
    {
      "constant": false,
      "inputs": [],
      "name": "getPaused_V1",
      "outputs": [
        {
          "name": "_isPaused",
          "type": "bool"
        }
      ],
      "payable": false,
      "stateMutability": "nonpayable",
      "type": "function"
    },
    {
      "constant": false,
      "inputs": [
        {
          "name": "_paused",
          "type": "bool"
        }
      ],
      "name": "setPaused_V1",
      "outputs": [],
      "payable": false,
      "stateMutability": "nonpayable",
      "type": "function"
    }
  ],
  "bytecode": "0x608060405234801561001057600080fd5b506003805460a060020a60ff02191690556107f9806100306000396000f3fe6080604052600436106100fa576000357c010000000000000000000000000000000000000000000000000000000090048063a07098121161009c578063ce606ee011610076578063ce606ee01461025d578063e0237f9114610272578063f0791d06146102a6578063fde2ab80146102bb576100fa565b8063a07098121461021e578063c11d86af14610233578063c6afc73614610248576100fa565b80635470fb47116100d85780635470fb471461017457806356eed26e146101a55780635c975abb146101f45780637dc0d1d014610209576100fa565b806301890df6146100ff5780630325d7491461012a5780633d8f4da814610158575b600080fd5b34801561010b57600080fd5b506101146102d0565b6040805160ff9092168252519081900360200190f35b34801561013657600080fd5b506101566004803603602081101561014d57600080fd5b503515156102f2565b005b6101606103dc565b604080519115158252519081900360200190f35b34801561018057600080fd5b506101896103ec565b60408051600160a060020a039092168252519081900360200190f35b3480156101b157600080fd5b50610160600480360360a08110156101c857600080fd5b50600160a060020a03813581169160208101359160408201359160608101359160809091013516610465565b34801561020057600080fd5b50610160610500565b34801561021557600080fd5b50610189610521565b34801561022a57600080fd5b50610114610530565b34801561023f57600080fd5b50610160610553565b34801561025457600080fd5b50610189610591565b34801561026957600080fd5b506101896105a0565b34801561027e57600080fd5b506101896004803603602081101561029557600080fd5b5035600160e060020a0319166105af565b3480156102b257600080fd5b506101606105d4565b3480156102c757600080fd5b50610160610644565b6003547501000000000000000000000000000000000000000000900460ff1681565b6102fa610644565b151561036757604080517f08c379a000000000000000000000000000000000000000000000000000000000815260206004820152601260248201527f4e6f7420436f6e7472616374206f776e65720000000000000000000000000000604482015290519081900360640190fd5b6003805482151574010000000000000000000000000000000000000000810274ff0000000000000000000000000000000000000000199092169190911790915560408051918252517f4b4b990ed9c22a95d62b9b44105b5353f7743a9dd48e237ae7a442215293a7599181900360200190a150565b60006103e6610553565b90505b90565b604080517f64656c656761746564526563656976654765744f7261636c655f5631282900008152815190819003601e0181206004825260248201909252602081018051600160e060020a0316600160e060020a0319909316929092179091526000908190819061045c9082610697565b50519250505090565b60008060006104f260405180806107976037913960408051918290036037018220600160a060020a03808e166024850152604484018d9052606484018c9052608484018b9052891660a4808501919091528251808503909101815260c4909301909152602082018051600160e060020a0316600160e060020a031990921691909117905290506000610697565b505198975050505050505050565b60035474010000000000000000000000000000000000000000900460ff1681565b600354600160a060020a031681565b600354760100000000000000000000000000000000000000000000900460ff1681565b600061055d610644565b15156001141561056f575060006103e9565b5060035474010000000000000000000000000000000000000000900460ff1690565b600154600160a060020a031681565b600254600160a060020a031681565b600160e060020a031916600090815260208190526040902054600160a060020a031690565b604080517f64656c656761746564526563656976654765745061757365645f5631282900008152815190819003601e0181206004825260248201909252602081018051600160e060020a0316600160e060020a0319909316929092179091526000908190819061045c9082610697565b600080600061045c60405180806107736024913960408051918290036024908101832060048452908301909152602082018051600160e060020a0316600160e060020a0319909216919091179052905060005b60208201516000908190816106ab826105af565b9050600160a060020a03811615156106c05750835b600160a060020a0381161515610721576040517f08c379a00000000000000000000000000000000000000000000000000000000081526004018080602001828103825260238152602001806107506023913960400191505060405180910390fd5b600080875160208901845af43d93506040519450836000863e801515610745578385fd5b505050925092905056fe41756374696f6e6974792066756e6374696f6e20646f6573206e6f742065786973742e64656c656761746564526563656976654973436f6e74726163744f776e65725f563128296c6f636b4465706f7369745f563128616464726573732c75696e743235362c75696e743235362c75696e743235362c6164647265737329a165627a7a723058205c5525b82065bdc2b7873243b4d8f57b5a0f6dffeffa3a0104f7303ae6e0cc730029",
  "source": "pragma solidity ^0.5.4;\n\nimport \"./AuctionityLibrary_V1.sol\";\n\n/// @title Pausable\n/// @dev Base contract which allows children to implement an emergency stop mechanism.\n\ncontract AuctionityPausable_V1 is AuctionityLibrary_V1 {\n    event LogPaused_V1(bool paused);\n\n    /// @notice constructor, default is false, no incidence if called by proxy\n    constructor() public {\n        paused = false;\n    }\n\n    /// @notice delegate receive of get Paused\n    /// @return _isPaused bool\n    function delegatedReceiveGetPaused_V1()\n        public\n        payable\n        returns (bool _isPaused)\n    {\n        return getPaused_V1();\n    }\n\n    /// @notice verify if is paused\n    /// @return _isPaused bool\n    function getPaused_V1() public returns (bool _isPaused) {\n        if (delegatedSendIsContractOwner_V1() == true) {\n            return false;\n        }\n        return paused;\n    }\n\n    /// @dev Modifier to make a function callable only when the contract is not paused.\n    modifier whenNotPaused_V1() {\n        require(!delegatedSendGetPaused_V1(), \"Contrat is paused\");\n        _;\n    }\n\n    /// @dev Modifier to make a function callable only when the contract is paused.\n    modifier whenPaused_V1() {\n        require(delegatedSendGetPaused_V1(), \"Contrat is not paused\");\n        _;\n    }\n\n    /// @notice called by the owner to pause, triggers stopped state\n    /// @param _paused bool\n    function setPaused_V1(bool _paused) public {\n        require(delegatedSendIsContractOwner_V1(), \"Not Contract owner\");\n        paused = _paused;\n        emit LogPaused_V1(_paused);\n    }\n}\n",
  "sourcePath": "/home/mike/domraider/4x-sas/bc-auction-sc/contracts/CommonContract/AuctionityPausable_V1.sol",
  "compiler": {
    "name": "solc",
    "version": "0.5.4+commit.9549d8ff.Emscripten.clang"
  },
  "schemaVersion": "3.0.2",
  "updatedAt": "2019-09-20T07:24:53.342Z",
  "devdoc": {
    "details": "Base contract which allows children to implement an emergency stop mechanism.",
    "methods": {
      "delegatedLockDeposit_V1(address,uint256,uint256,uint256,address)": {
        "params": {
          "_amount": "uint256",
          "_auctionId": "uint256",
          "_refundUser": "address",
          "_tokenContractAddress": "address",
          "_tokenId": "uint256"
        },
        "return": "bool _isPaused"
      },
      "delegatedReceiveGetPaused_V1()": {
        "return": "_isPaused bool"
      },
      "delegatedSendGetOracle_V1()": {
        "return": "address _oracle"
      },
      "delegatedSendGetPaused_V1()": {
        "return": "bool _isPaused"
      },
      "delegatedSendIsContractOwner_V1()": {
        "return": "_isContractOwner"
      },
      "getDelegate_V1(bytes4)": {
        "params": {
          "_selector": "byte4"
        },
        "return": "_contractDelegate address"
      },
      "getPaused_V1()": {
        "return": "_isPaused bool"
      },
      "setPaused_V1(bool)": {
        "params": {
          "_paused": "bool"
        }
      }
    },
    "title": "Pausable"
  },
  "userdoc": {
    "methods": {
      "constructor": "constructor, default is false, no incidence if called by proxy",
      "delegatedLockDeposit_V1(address,uint256,uint256,uint256,address)": {
        "notice": "delegate lockDeposit_V1"
      },
      "delegatedReceiveGetPaused_V1()": {
        "notice": "delegate receive of get Paused"
      },
      "delegatedSendGetOracle_V1()": {
        "notice": "delegate getOracle_V1"
      },
      "delegatedSendGetPaused_V1()": {
        "notice": "delegate getPaused_V1"
      },
      "delegatedSendIsContractOwner_V1()": {
        "notice": "delegate IsContractOwner_V1"
      },
      "getDelegate_V1(bytes4)": {
        "notice": "get delegated addrss from a selector"
      },
      "getPaused_V1()": {
        "notice": "verify if is paused"
      },
      "setPaused_V1(bool)": {
        "notice": "called by the owner to pause, triggers stopped state"
      }
    }
  }
}