{
  "contractName": "AuctionityTreasurer_V2",
  "abi": [
    {
      "constant": true,
      "inputs": [
        {
          "name": "_user",
          "type": "address"
        },
        {
          "name": "_tokenContractAddress",
          "type": "address"
        },
        {
          "name": "_tokenId",
          "type": "uint256"
        }
      ],
      "name": "getBalanceERC1155_V1",
      "outputs": [
        {
          "name": "_balanceOf",
          "type": "uint256"
        }
      ],
      "payable": false,
      "stateMutability": "view",
      "type": "function"
    },
    {
      "constant": true,
      "inputs": [],
      "name": "ethereumChainId",
      "outputs": [
        {
          "name": "",
          "type": "uint8"
        }
      ],
      "payable": false,
      "stateMutability": "view",
      "type": "function"
    },
    {
      "constant": true,
      "inputs": [
        {
          "name": "_user",
          "type": "address"
        },
        {
          "name": "_tokenContractAddress",
          "type": "address"
        },
        {
          "name": "_tokenId",
          "type": "uint256"
        },
        {
          "name": "_lockedFor",
          "type": "uint256"
        }
      ],
      "name": "getBalanceLockedERC1155_V1",
      "outputs": [
        {
          "name": "_balanceOf",
          "type": "uint256"
        }
      ],
      "payable": false,
      "stateMutability": "view",
      "type": "function"
    },
    {
      "constant": false,
      "inputs": [
        {
          "name": "_tokenContractAddress",
          "type": "address"
        },
        {
          "name": "_amount",
          "type": "uint256"
        }
      ],
      "name": "withdrawalERC20_V1",
      "outputs": [],
      "payable": false,
      "stateMutability": "nonpayable",
      "type": "function"
    },
    {
      "constant": true,
      "inputs": [
        {
          "name": "_user",
          "type": "address"
        }
      ],
      "name": "getDepotEthLockedAmountForUser_V1",
      "outputs": [
        {
          "name": "_totalAmountLocked",
          "type": "uint256"
        }
      ],
      "payable": false,
      "stateMutability": "view",
      "type": "function"
    },
    {
      "constant": true,
      "inputs": [
        {
          "name": "_user",
          "type": "address"
        },
        {
          "name": "_lockedFor",
          "type": "uint256"
        }
      ],
      "name": "getBalanceLockedEth_V1",
      "outputs": [
        {
          "name": "_balanceOf",
          "type": "uint256"
        }
      ],
      "payable": false,
      "stateMutability": "view",
      "type": "function"
    },
    {
      "constant": false,
      "inputs": [
        {
          "name": "_user",
          "type": "address"
        },
        {
          "name": "_tokenContractAddress",
          "type": "address"
        },
        {
          "name": "_tokenId",
          "type": "uint256"
        },
        {
          "name": "_amount",
          "type": "uint256"
        },
        {
          "name": "_transactionHashDeposit",
          "type": "bytes32"
        }
      ],
      "name": "receiveDepotERC1155_V1",
      "outputs": [
        {
          "name": "",
          "type": "bool"
        }
      ],
      "payable": false,
      "stateMutability": "nonpayable",
      "type": "function"
    },
    {
      "constant": true,
      "inputs": [
        {
          "name": "_user",
          "type": "address"
        }
      ],
      "name": "getBalanceEth_V1",
      "outputs": [
        {
          "name": "_balanceOf",
          "type": "uint256"
        }
      ],
      "payable": false,
      "stateMutability": "view",
      "type": "function"
    },
    {
      "constant": false,
      "inputs": [
        {
          "name": "_user",
          "type": "address"
        },
        {
          "name": "_tokenContractAddress",
          "type": "address"
        },
        {
          "name": "_tokenId",
          "type": "uint256"
        },
        {
          "name": "_amount",
          "type": "uint256"
        }
      ],
      "name": "withdrawalERC1155_V1",
      "outputs": [],
      "payable": false,
      "stateMutability": "nonpayable",
      "type": "function"
    },
    {
      "constant": true,
      "inputs": [
        {
          "name": "_user",
          "type": "address"
        },
        {
          "name": "_tokenContractAddress",
          "type": "address"
        },
        {
          "name": "_tokenId",
          "type": "uint256"
        },
        {
          "name": "_lockedFor",
          "type": "uint256"
        }
      ],
      "name": "getBalanceLockedERC721_V1",
      "outputs": [
        {
          "name": "_balanceOf",
          "type": "uint256"
        }
      ],
      "payable": false,
      "stateMutability": "view",
      "type": "function"
    },
    {
      "constant": false,
      "inputs": [
        {
          "name": "_auctionityChainId",
          "type": "uint8"
        }
      ],
      "name": "setAuctionityChainId_V1",
      "outputs": [],
      "payable": false,
      "stateMutability": "nonpayable",
      "type": "function"
    },
    {
      "constant": false,
      "inputs": [
        {
          "name": "_depositContractAddress",
          "type": "address"
        },
        {
          "name": "_oracleRSV",
          "type": "bytes"
        },
        {
          "name": "_signedRawTxWithdrawal",
          "type": "bytes"
        }
      ],
      "name": "setWithdrawalVoucher_V1",
      "outputs": [],
      "payable": false,
      "stateMutability": "nonpayable",
      "type": "function"
    },
    {
      "constant": false,
      "inputs": [
        {
          "name": "_ethereumChainId",
          "type": "uint8"
        }
      ],
      "name": "setEthereumChainId_V1",
      "outputs": [],
      "payable": false,
      "stateMutability": "nonpayable",
      "type": "function"
    },
    {
      "constant": false,
      "inputs": [
        {
          "name": "_amount",
          "type": "uint256"
        }
      ],
      "name": "withdrawalEth_V1",
      "outputs": [],
      "payable": false,
      "stateMutability": "nonpayable",
      "type": "function"
    },
    {
      "constant": true,
      "inputs": [
        {
          "name": "_user",
          "type": "address"
        },
        {
          "name": "_tokenContractAddress",
          "type": "address"
        },
        {
          "name": "_tokenId",
          "type": "uint256"
        }
      ],
      "name": "getBalanceERC721_V1",
      "outputs": [
        {
          "name": "_balanceOf",
          "type": "uint256"
        }
      ],
      "payable": false,
      "stateMutability": "view",
      "type": "function"
    },
    {
      "constant": false,
      "inputs": [],
      "name": "delegatedSendGetOracle_V1",
      "outputs": [
        {
          "name": "_oracle",
          "type": "address"
        }
      ],
      "payable": false,
      "stateMutability": "nonpayable",
      "type": "function"
    },
    {
      "constant": false,
      "inputs": [
        {
          "name": "_tokenContractAddress",
          "type": "address"
        },
        {
          "name": "_tokenId",
          "type": "uint256"
        },
        {
          "name": "_amount",
          "type": "uint256"
        },
        {
          "name": "_lockedFor",
          "type": "uint256"
        }
      ],
      "name": "lockDepositERC1155_V1",
      "outputs": [
        {
          "name": "_success",
          "type": "bool"
        }
      ],
      "payable": false,
      "stateMutability": "nonpayable",
      "type": "function"
    },
    {
      "constant": false,
      "inputs": [
        {
          "name": "_user",
          "type": "address"
        },
        {
          "name": "_tokenContractAddress",
          "type": "address"
        },
        {
          "name": "_tokenId",
          "type": "uint256"
        },
        {
          "name": "_amount",
          "type": "uint256"
        }
      ],
      "name": "_withdrawal_V1",
      "outputs": [],
      "payable": false,
      "stateMutability": "nonpayable",
      "type": "function"
    },
    {
      "constant": false,
      "inputs": [
        {
          "name": "_tokenContractAddress",
          "type": "address"
        },
        {
          "name": "_tokenId",
          "type": "uint256"
        },
        {
          "name": "_amount",
          "type": "uint256"
        },
        {
          "name": "_auctionId",
          "type": "uint256"
        },
        {
          "name": "_refundUser",
          "type": "address"
        }
      ],
      "name": "delegatedLockDeposit_V1",
      "outputs": [
        {
          "name": "_success",
          "type": "bool"
        }
      ],
      "payable": false,
      "stateMutability": "nonpayable",
      "type": "function"
    },
    {
      "constant": true,
      "inputs": [
        {
          "name": "_user",
          "type": "address"
        }
      ],
      "name": "getDepotEthLockedCountForUser_V1",
      "outputs": [
        {
          "name": "_depotEthLockCount",
          "type": "uint16"
        }
      ],
      "payable": false,
      "stateMutability": "view",
      "type": "function"
    },
    {
      "constant": true,
      "inputs": [],
      "name": "paused",
      "outputs": [
        {
          "name": "",
          "type": "bool"
        }
      ],
      "payable": false,
      "stateMutability": "view",
      "type": "function"
    },
    {
      "constant": true,
      "inputs": [
        {
          "name": "_user",
          "type": "address"
        },
        {
          "name": "_tokenContractAddress",
          "type": "address"
        }
      ],
      "name": "getBalanceERC20_V1",
      "outputs": [
        {
          "name": "_balanceOf",
          "type": "uint256"
        }
      ],
      "payable": false,
      "stateMutability": "view",
      "type": "function"
    },
    {
      "constant": false,
      "inputs": [
        {
          "name": "_user",
          "type": "address"
        },
        {
          "name": "_tokenContractAddress",
          "type": "address"
        },
        {
          "name": "_tokenId",
          "type": "uint256"
        }
      ],
      "name": "withdrawalERC721_V1",
      "outputs": [],
      "payable": false,
      "stateMutability": "nonpayable",
      "type": "function"
    },
    {
      "constant": true,
      "inputs": [],
      "name": "oracle",
      "outputs": [
        {
          "name": "",
          "type": "address"
        }
      ],
      "payable": false,
      "stateMutability": "view",
      "type": "function"
    },
    {
      "constant": false,
      "inputs": [
        {
          "name": "_user",
          "type": "address"
        },
        {
          "name": "_tokenContractAddress",
          "type": "address"
        },
        {
          "name": "_tokenId",
          "type": "uint256"
        },
        {
          "name": "_amount",
          "type": "uint256"
        },
        {
          "name": "_transactionHashDeposit",
          "type": "bytes32"
        }
      ],
      "name": "receiveRewardDepotERC1155_V1",
      "outputs": [
        {
          "name": "",
          "type": "bool"
        }
      ],
      "payable": false,
      "stateMutability": "nonpayable",
      "type": "function"
    },
    {
      "constant": true,
      "inputs": [
        {
          "name": "_user",
          "type": "address"
        },
        {
          "name": "_tokenContractAddress",
          "type": "address"
        },
        {
          "name": "_lockedFor",
          "type": "uint256"
        }
      ],
      "name": "getBalanceLockedERC20_V1",
      "outputs": [
        {
          "name": "_balanceOf",
          "type": "uint256"
        }
      ],
      "payable": false,
      "stateMutability": "view",
      "type": "function"
    },
    {
      "constant": true,
      "inputs": [
        {
          "name": "_user",
          "type": "address"
        },
        {
          "name": "_index",
          "type": "uint16"
        }
      ],
      "name": "getWithdrawalVoucherAtIndex_V1",
      "outputs": [
        {
          "name": "_voucher",
          "type": "bytes"
        }
      ],
      "payable": false,
      "stateMutability": "view",
      "type": "function"
    },
    {
      "constant": false,
      "inputs": [
        {
          "name": "_user",
          "type": "address"
        },
        {
          "name": "_voucherHash",
          "type": "bytes32"
        }
      ],
      "name": "removeWithdrawalVoucher_V1",
      "outputs": [],
      "payable": false,
      "stateMutability": "nonpayable",
      "type": "function"
    },
    {
      "constant": true,
      "inputs": [
        {
          "name": "_user",
          "type": "address"
        },
        {
          "name": "_voucherHash",
          "type": "bytes32"
        }
      ],
      "name": "getWithdrawalVoucherIndex_V1",
      "outputs": [
        {
          "name": "",
          "type": "uint16"
        }
      ],
      "payable": false,
      "stateMutability": "view",
      "type": "function"
    },
    {
      "constant": true,
      "inputs": [
        {
          "name": "_user",
          "type": "address"
        },
        {
          "name": "_index",
          "type": "uint256"
        }
      ],
      "name": "getDepotEthLockedDataForUserByIndex_V1",
      "outputs": [
        {
          "name": "_lockedFor",
          "type": "uint256"
        },
        {
          "name": "_amountLocked",
          "type": "uint256"
        }
      ],
      "payable": false,
      "stateMutability": "view",
      "type": "function"
    },
    {
      "constant": false,
      "inputs": [
        {
          "name": "_tokenContractAddress",
          "type": "address"
        },
        {
          "name": "_tokenId",
          "type": "uint256"
        },
        {
          "name": "_lockedFor",
          "type": "uint256"
        }
      ],
      "name": "lockDepositERC721_V1",
      "outputs": [
        {
          "name": "_success",
          "type": "bool"
        }
      ],
      "payable": false,
      "stateMutability": "nonpayable",
      "type": "function"
    },
    {
      "constant": true,
      "inputs": [],
      "name": "auctionityChainId",
      "outputs": [
        {
          "name": "",
          "type": "uint8"
        }
      ],
      "payable": false,
      "stateMutability": "view",
      "type": "function"
    },
    {
      "constant": false,
      "inputs": [
        {
          "name": "_tokenContractAddress",
          "type": "address"
        },
        {
          "name": "_amount",
          "type": "uint256"
        },
        {
          "name": "_lockedFor",
          "type": "uint256"
        }
      ],
      "name": "lockDepositERC20_V1",
      "outputs": [
        {
          "name": "_success",
          "type": "bool"
        }
      ],
      "payable": false,
      "stateMutability": "nonpayable",
      "type": "function"
    },
    {
      "constant": false,
      "inputs": [
        {
          "name": "_user",
          "type": "address"
        },
        {
          "name": "_tokenContractAddress",
          "type": "address"
        },
        {
          "name": "_amount",
          "type": "uint256"
        },
        {
          "name": "_transactionHashDeposit",
          "type": "bytes32"
        }
      ],
      "name": "receiveDepotERC20_V1",
      "outputs": [
        {
          "name": "",
          "type": "bool"
        }
      ],
      "payable": false,
      "stateMutability": "nonpayable",
      "type": "function"
    },
    {
      "constant": false,
      "inputs": [
        {
          "name": "_user",
          "type": "address"
        },
        {
          "name": "_amount",
          "type": "uint256"
        },
        {
          "name": "_transactionHashDeposit",
          "type": "bytes32"
        }
      ],
      "name": "receiveDepotEth_V1",
      "outputs": [
        {
          "name": "",
          "type": "bool"
        }
      ],
      "payable": false,
      "stateMutability": "nonpayable",
      "type": "function"
    },
    {
      "constant": true,
      "inputs": [
        {
          "name": "_user",
          "type": "address"
        }
      ],
      "name": "getUserWithdrawalVoucherLength_V1",
      "outputs": [
        {
          "name": "_numberOfWithdrawalVoucher",
          "type": "uint16"
        }
      ],
      "payable": false,
      "stateMutability": "view",
      "type": "function"
    },
    {
      "constant": false,
      "inputs": [
        {
          "name": "_user",
          "type": "address"
        },
        {
          "name": "_tokenContractAddress",
          "type": "address"
        },
        {
          "name": "_tokenId",
          "type": "uint256"
        },
        {
          "name": "_transactionHashDeposit",
          "type": "bytes32"
        }
      ],
      "name": "receiveDepotERC721_V1",
      "outputs": [
        {
          "name": "",
          "type": "bool"
        }
      ],
      "payable": false,
      "stateMutability": "nonpayable",
      "type": "function"
    },
    {
      "constant": true,
      "inputs": [],
      "name": "proxyFallbackContract",
      "outputs": [
        {
          "name": "",
          "type": "address"
        }
      ],
      "payable": false,
      "stateMutability": "view",
      "type": "function"
    },
    {
      "constant": true,
      "inputs": [],
      "name": "contractOwner",
      "outputs": [
        {
          "name": "",
          "type": "address"
        }
      ],
      "payable": false,
      "stateMutability": "view",
      "type": "function"
    },
    {
      "constant": true,
      "inputs": [],
      "name": "getEthereumChainId_V1",
      "outputs": [
        {
          "name": "",
          "type": "uint8"
        }
      ],
      "payable": false,
      "stateMutability": "view",
      "type": "function"
    },
    {
      "constant": false,
      "inputs": [
        {
          "name": "_amount",
          "type": "uint256"
        },
        {
          "name": "_refundUser",
          "type": "address"
        }
      ],
      "name": "lockDeposit",
      "outputs": [
        {
          "name": "_success",
          "type": "bool"
        }
      ],
      "payable": false,
      "stateMutability": "nonpayable",
      "type": "function"
    },
    {
      "constant": false,
      "inputs": [
        {
          "name": "_amount",
          "type": "uint256"
        },
        {
          "name": "_lockedFor",
          "type": "uint256"
        }
      ],
      "name": "lockDepositEth_V1",
      "outputs": [
        {
          "name": "_success",
          "type": "bool"
        }
      ],
      "payable": false,
      "stateMutability": "nonpayable",
      "type": "function"
    },
    {
      "constant": false,
      "inputs": [
        {
          "name": "_amount",
          "type": "uint256"
        },
        {
          "name": "_user",
          "type": "address"
        }
      ],
      "name": "endorse",
      "outputs": [
        {
          "name": "_success",
          "type": "bool"
        }
      ],
      "payable": false,
      "stateMutability": "nonpayable",
      "type": "function"
    },
    {
      "constant": true,
      "inputs": [
        {
          "name": "_selector",
          "type": "bytes4"
        }
      ],
      "name": "getDelegate_V1",
      "outputs": [
        {
          "name": "_contractDelegate",
          "type": "address"
        }
      ],
      "payable": false,
      "stateMutability": "view",
      "type": "function"
    },
    {
      "constant": false,
      "inputs": [
        {
          "name": "_user",
          "type": "address"
        },
        {
          "name": "_amount",
          "type": "uint256"
        },
        {
          "name": "_transactionHashDeposit",
          "type": "bytes32"
        }
      ],
      "name": "receiveRewardDepotEth_V1",
      "outputs": [
        {
          "name": "",
          "type": "bool"
        }
      ],
      "payable": false,
      "stateMutability": "nonpayable",
      "type": "function"
    },
    {
      "constant": true,
      "inputs": [],
      "name": "getAuctionityChainId_V1",
      "outputs": [
        {
          "name": "",
          "type": "uint8"
        }
      ],
      "payable": false,
      "stateMutability": "view",
      "type": "function"
    },
    {
      "constant": false,
      "inputs": [],
      "name": "delegatedSendGetPaused_V1",
      "outputs": [
        {
          "name": "_isPaused",
          "type": "bool"
        }
      ],
      "payable": false,
      "stateMutability": "nonpayable",
      "type": "function"
    },
    {
      "constant": false,
      "inputs": [
        {
          "name": "_user",
          "type": "address"
        },
        {
          "name": "_tokenContractAddress",
          "type": "address"
        },
        {
          "name": "_amount",
          "type": "uint256"
        },
        {
          "name": "_transactionHashDeposit",
          "type": "bytes32"
        }
      ],
      "name": "receiveRewardDepotERC20_V1",
      "outputs": [
        {
          "name": "",
          "type": "bool"
        }
      ],
      "payable": false,
      "stateMutability": "nonpayable",
      "type": "function"
    },
    {
      "constant": false,
      "inputs": [],
      "name": "delegatedSendIsContractOwner_V1",
      "outputs": [
        {
          "name": "_isContractOwner",
          "type": "bool"
        }
      ],
      "payable": false,
      "stateMutability": "nonpayable",
      "type": "function"
    },
    {
      "anonymous": false,
      "inputs": [
        {
          "indexed": false,
          "name": "user",
          "type": "address"
        },
        {
          "indexed": false,
          "name": "tokenContractAddress",
          "type": "address"
        },
        {
          "indexed": false,
          "name": "tokenId",
          "type": "uint256"
        },
        {
          "indexed": false,
          "name": "amount",
          "type": "uint256"
        },
        {
          "indexed": false,
          "name": "lockedFor",
          "type": "uint256"
        }
      ],
      "name": "LogLockDepot_V2",
      "type": "event"
    },
    {
      "anonymous": false,
      "inputs": [
        {
          "indexed": false,
          "name": "user",
          "type": "address"
        },
        {
          "indexed": false,
          "name": "tokenContractAddress",
          "type": "address"
        },
        {
          "indexed": false,
          "name": "tokenId",
          "type": "uint256"
        },
        {
          "indexed": false,
          "name": "amount",
          "type": "uint256"
        },
        {
          "indexed": false,
          "name": "lockedFor",
          "type": "uint256"
        }
      ],
      "name": "LogUnlockDepot_V2",
      "type": "event"
    },
    {
      "anonymous": false,
      "inputs": [
        {
          "indexed": false,
          "name": "from",
          "type": "address"
        },
        {
          "indexed": false,
          "name": "to",
          "type": "address"
        },
        {
          "indexed": false,
          "name": "tokenContractAddress",
          "type": "address"
        },
        {
          "indexed": false,
          "name": "tokenId",
          "type": "uint256"
        },
        {
          "indexed": false,
          "name": "amount",
          "type": "uint256"
        },
        {
          "indexed": false,
          "name": "data",
          "type": "bytes"
        }
      ],
      "name": "LogTransferDepot_V2",
      "type": "event"
    },
    {
      "anonymous": false,
      "inputs": [
        {
          "indexed": false,
          "name": "lockedFor",
          "type": "uint256"
        },
        {
          "indexed": false,
          "name": "from",
          "type": "address"
        },
        {
          "indexed": false,
          "name": "to",
          "type": "address"
        },
        {
          "indexed": false,
          "name": "tokenContractAddress",
          "type": "address"
        },
        {
          "indexed": false,
          "name": "tokenId",
          "type": "uint256"
        },
        {
          "indexed": false,
          "name": "amount",
          "type": "uint256"
        },
        {
          "indexed": false,
          "name": "keepLock",
          "type": "bool"
        },
        {
          "indexed": false,
          "name": "data",
          "type": "bytes"
        }
      ],
      "name": "LogTransferDepotLocked_V2",
      "type": "event"
    },
    {
      "anonymous": false,
      "inputs": [
        {
          "indexed": false,
          "name": "withdrawalUser",
          "type": "address"
        },
        {
          "indexed": false,
          "name": "voucher",
          "type": "bytes"
        }
      ],
      "name": "LogSetWithdrawalVoucher_V2",
      "type": "event"
    },
    {
      "anonymous": false,
      "inputs": [
        {
          "indexed": false,
          "name": "user",
          "type": "address"
        },
        {
          "indexed": false,
          "name": "amount",
          "type": "uint256"
        },
        {
          "indexed": false,
          "name": "totalAmount",
          "type": "uint256"
        },
        {
          "indexed": false,
          "name": "hashTransactionDeposit",
          "type": "bytes32"
        }
      ],
      "name": "LogAddDepotEth",
      "type": "event"
    },
    {
      "anonymous": false,
      "inputs": [
        {
          "indexed": false,
          "name": "user",
          "type": "address"
        },
        {
          "indexed": false,
          "name": "amount",
          "type": "uint256"
        },
        {
          "indexed": false,
          "name": "totalAmount",
          "type": "uint256"
        },
        {
          "indexed": false,
          "name": "hashTransactionDeposit",
          "type": "bytes32"
        }
      ],
      "name": "LogAddRewardDepotEth",
      "type": "event"
    },
    {
      "anonymous": false,
      "inputs": [
        {
          "indexed": false,
          "name": "user",
          "type": "address"
        },
        {
          "indexed": false,
          "name": "amount",
          "type": "uint256"
        }
      ],
      "name": "LogWithdrawal",
      "type": "event"
    },
    {
      "anonymous": false,
      "inputs": [
        {
          "indexed": false,
          "name": "user",
          "type": "address"
        },
        {
          "indexed": false,
          "name": "amount",
          "type": "uint256"
        },
        {
          "indexed": false,
          "name": "voucher",
          "type": "bytes"
        }
      ],
      "name": "LogSetWithdrawalVoucher",
      "type": "event"
    },
    {
      "anonymous": false,
      "inputs": [
        {
          "indexed": false,
          "name": "user",
          "type": "address"
        },
        {
          "indexed": false,
          "name": "voucherHash",
          "type": "bytes32"
        }
      ],
      "name": "LogWithdrawalVoucherHaveBeenRemoved",
      "type": "event"
    },
    {
      "anonymous": false,
      "inputs": [
        {
          "indexed": false,
          "name": "user",
          "type": "address"
        },
        {
          "indexed": false,
          "name": "amount",
          "type": "uint256"
        }
      ],
      "name": "LogNewDepotLock",
      "type": "event"
    },
    {
      "anonymous": false,
      "inputs": [
        {
          "indexed": false,
          "name": "user",
          "type": "address"
        },
        {
          "indexed": false,
          "name": "amount",
          "type": "uint256"
        }
      ],
      "name": "LogLockDepositRefund",
      "type": "event"
    },
    {
      "anonymous": false,
      "inputs": [
        {
          "indexed": false,
          "name": "auctionAddress",
          "type": "address"
        },
        {
          "indexed": false,
          "name": "user",
          "type": "address"
        },
        {
          "indexed": false,
          "name": "amount",
          "type": "uint256"
        }
      ],
      "name": "LogEndorse",
      "type": "event"
    },
    {
      "anonymous": false,
      "inputs": [
        {
          "indexed": false,
          "name": "user",
          "type": "address"
        },
        {
          "indexed": false,
          "name": "tokenContractAddress",
          "type": "address"
        },
        {
          "indexed": false,
          "name": "tokenId",
          "type": "uint256"
        },
        {
          "indexed": false,
          "name": "amount",
          "type": "uint256"
        },
        {
          "indexed": false,
          "name": "totalAmount",
          "type": "uint256"
        },
        {
          "indexed": false,
          "name": "transactionHashDeposit",
          "type": "bytes32"
        }
      ],
      "name": "LogAddDepot_V1",
      "type": "event"
    },
    {
      "anonymous": false,
      "inputs": [
        {
          "indexed": false,
          "name": "user",
          "type": "address"
        },
        {
          "indexed": false,
          "name": "tokenContractAddress",
          "type": "address"
        },
        {
          "indexed": false,
          "name": "tokenId",
          "type": "uint256"
        },
        {
          "indexed": false,
          "name": "amount",
          "type": "uint256"
        },
        {
          "indexed": false,
          "name": "totalAmount",
          "type": "uint256"
        },
        {
          "indexed": false,
          "name": "hashTransactionDeposit",
          "type": "bytes32"
        }
      ],
      "name": "LogAddRewardDepot_V1",
      "type": "event"
    },
    {
      "anonymous": false,
      "inputs": [
        {
          "indexed": false,
          "name": "user",
          "type": "address"
        },
        {
          "indexed": false,
          "name": "tokenContractAddress",
          "type": "address"
        },
        {
          "indexed": false,
          "name": "tokenId",
          "type": "uint256"
        },
        {
          "indexed": false,
          "name": "amount",
          "type": "uint256"
        }
      ],
      "name": "LogWithdrawal_V1",
      "type": "event"
    },
    {
      "anonymous": false,
      "inputs": [
        {
          "indexed": false,
          "name": "user",
          "type": "address"
        },
        {
          "indexed": false,
          "name": "amount",
          "type": "uint256"
        },
        {
          "indexed": false,
          "name": "voucher",
          "type": "bytes"
        }
      ],
      "name": "LogSetWithdrawalVoucher_V1",
      "type": "event"
    },
    {
      "anonymous": false,
      "inputs": [
        {
          "indexed": false,
          "name": "user",
          "type": "address"
        },
        {
          "indexed": false,
          "name": "voucherHash",
          "type": "bytes32"
        }
      ],
      "name": "LogWithdrawalVoucherHaveBeenRemoved_V1",
      "type": "event"
    },
    {
      "anonymous": false,
      "inputs": [
        {
          "indexed": false,
          "name": "user",
          "type": "address"
        },
        {
          "indexed": false,
          "name": "tokenContractAddress",
          "type": "address"
        },
        {
          "indexed": false,
          "name": "tokenId",
          "type": "uint256"
        },
        {
          "indexed": false,
          "name": "amount",
          "type": "uint256"
        },
        {
          "indexed": false,
          "name": "auctionId",
          "type": "uint256"
        }
      ],
      "name": "LogNewDepotLock_V1",
      "type": "event"
    },
    {
      "anonymous": false,
      "inputs": [
        {
          "indexed": false,
          "name": "user",
          "type": "address"
        },
        {
          "indexed": false,
          "name": "tokenContractAddress",
          "type": "address"
        },
        {
          "indexed": false,
          "name": "tokenId",
          "type": "uint256"
        },
        {
          "indexed": false,
          "name": "amount",
          "type": "uint256"
        },
        {
          "indexed": false,
          "name": "auctionId",
          "type": "uint256"
        }
      ],
      "name": "LogRefundDepotLock_V1",
      "type": "event"
    },
    {
      "anonymous": false,
      "inputs": [
        {
          "indexed": false,
          "name": "user",
          "type": "address"
        },
        {
          "indexed": false,
          "name": "tokenContractAddress",
          "type": "address"
        },
        {
          "indexed": false,
          "name": "tokenId",
          "type": "uint256"
        },
        {
          "indexed": false,
          "name": "amount",
          "type": "uint256"
        },
        {
          "indexed": false,
          "name": "auctionId",
          "type": "uint256"
        }
      ],
      "name": "LogEndorse_V1",
      "type": "event"
    },
    {
      "constant": false,
      "inputs": [
        {
          "name": "_to",
          "type": "address"
        },
        {
          "name": "_tokenContractAddress",
          "type": "address"
        },
        {
          "name": "_tokenId",
          "type": "uint256"
        },
        {
          "name": "_amount",
          "type": "uint256"
        }
      ],
      "name": "transferERC1155_V2",
      "outputs": [],
      "payable": false,
      "stateMutability": "nonpayable",
      "type": "function"
    },
    {
      "constant": false,
      "inputs": [
        {
          "name": "_tokenContractAddress",
          "type": "address"
        },
        {
          "name": "_tokenId",
          "type": "uint256"
        },
        {
          "name": "_amount",
          "type": "uint256"
        }
      ],
      "name": "withdrawalERC1155_V2",
      "outputs": [],
      "payable": false,
      "stateMutability": "nonpayable",
      "type": "function"
    },
    {
      "constant": false,
      "inputs": [
        {
          "name": "_withdrawalUser",
          "type": "address"
        },
        {
          "name": "_withdrawalVoucher",
          "type": "bytes"
        }
      ],
      "name": "setWithdrawalVoucher_V2",
      "outputs": [],
      "payable": false,
      "stateMutability": "nonpayable",
      "type": "function"
    },
    {
      "constant": false,
      "inputs": [
        {
          "name": "user",
          "type": "address"
        },
        {
          "name": "tokenContractAddress",
          "type": "address"
        },
        {
          "name": "tokenId",
          "type": "uint256"
        },
        {
          "name": "amount",
          "type": "uint256"
        },
        {
          "name": "lockedFor",
          "type": "uint256"
        }
      ],
      "name": "internalLockDeposit_V2",
      "outputs": [],
      "payable": false,
      "stateMutability": "nonpayable",
      "type": "function"
    },
    {
      "constant": false,
      "inputs": [
        {
          "name": "user",
          "type": "address"
        },
        {
          "name": "tokenContractAddress",
          "type": "address"
        },
        {
          "name": "tokenId",
          "type": "uint256"
        },
        {
          "name": "amount",
          "type": "uint256"
        },
        {
          "name": "lockedFor",
          "type": "uint256"
        }
      ],
      "name": "internalUnLockDeposit_V2",
      "outputs": [],
      "payable": false,
      "stateMutability": "nonpayable",
      "type": "function"
    },
    {
      "constant": false,
      "inputs": [
        {
          "name": "lockedFor",
          "type": "uint256"
        },
        {
          "name": "from",
          "type": "address"
        },
        {
          "name": "to",
          "type": "address"
        },
        {
          "name": "tokenContractAddress",
          "type": "address"
        },
        {
          "name": "tokenId",
          "type": "uint256"
        },
        {
          "name": "amount",
          "type": "uint256"
        },
        {
          "name": "keepLock",
          "type": "bool"
        },
        {
          "name": "data",
          "type": "bytes"
        }
      ],
      "name": "internalTransferDepotLocked_V2",
      "outputs": [],
      "payable": false,
      "stateMutability": "nonpayable",
      "type": "function"
    },
    {
      "constant": false,
      "inputs": [
        {
          "name": "from",
          "type": "address"
        },
        {
          "name": "to",
          "type": "address"
        },
        {
          "name": "tokenContractAddress",
          "type": "address"
        },
        {
          "name": "tokenId",
          "type": "uint256"
        },
        {
          "name": "amount",
          "type": "uint256"
        },
        {
          "name": "data",
          "type": "bytes"
        }
      ],
      "name": "internalTransferDepot_V2",
      "outputs": [],
      "payable": false,
      "stateMutability": "nonpayable",
      "type": "function"
    }
  ],
  "bytecode": "0x608060405234801561001057600080fd5b5061592680620000216000396000f3fe608060405234801561001057600080fd5b5060043610610395576000357c010000000000000000000000000000000000000000000000000000000090048063827b9146116101f0578063c5e71fa311610121578063dd4e5362116100bf578063ecc799b711610099578063ecc799b714610fd9578063f0791d0614610fe1578063fc31e8f014610fe9578063fde2ab801461102557610395565b8063dd4e536214610f54578063e0237f9114610f80578063ea7aad0214610fa757610395565b8063ce606ee0116100fb578063ce606ee014610ef5578063ce78255214610efd578063d65b14cf14610f05578063d6cb30b214610f3157610395565b8063c5e71fa314610e8b578063c67d475b14610eb1578063c6afc73614610eed57610395565b8063a033c8771161018e578063a1ae093511610168578063a1ae093514610d35578063a2cea41614610d71578063c13de94c14610da3578063c555961314610e5957610395565b8063a033c87714610c28578063a070981214610cfb578063a0bc0f7014610d0357610395565b80639304e1d9116101ca5780639304e1d914610b49578063947cf8df14610b8557806394e9ce8e14610bb15780639ed78ec314610bf657610395565b8063827b914614610a425780638912244014610a78578063920b1f7914610b1d57610395565b806347960938116102ca5780635c975abb116102685780636fb996c3116102425780636fb996c31461098057806377e56ed7146109b65780637dc0d1d0146109f85780637f001f5514610a0057610395565b80635c975abb1461090857806364eda8c4146109105780636f67acce1461095257610395565b806354fab93a116102a457806354fab93a14610815578063553fe6fd1461084d57806356eed26e146108895780635badf4c9146108cb57610395565b806347960938146107d45780634e56e9d91461039a5780635470fb47146107f157610395565b806328a8081c116103375780632cf19b6e116103115780632cf19b6e1461057457806334cab36a146105945780633f7c725a146106775780634323fb12146107b457610395565b806328a8081c1461051257806329b5886e146105385780632aaca14a1461040057610395565b8063061fb71d11610373578063061fb71d1461043c57806307b30b011461046a5780630c8ad6aa1461049057806314c88da6146104bc57610395565b8063013992781461039a57806301890df6146103e2578063042f4bbe14610400575b600080fd5b6103d0600480360360608110156103b057600080fd5b50600160a060020a0381358116916020810135909116906040013561102d565b60408051918252519081900360200190f35b6103ea611044565b6040805160ff9092168252519081900360200190f35b6103d06004803603608081101561041657600080fd5b50600160a060020a03813581169160208101359091169060408101359060600135611066565b6104686004803603604081101561045257600080fd5b50600160a060020a03813516906020013561107d565b005b6103d06004803603602081101561048057600080fd5b5035600160a060020a03166110cb565b6103d0600480360360408110156104a657600080fd5b50600160a060020a0381351690602001356110e1565b6104fe600480360360a08110156104d257600080fd5b50600160a060020a038135811691602081013590911690604081013590606081013590608001356110f9565b604080519115158252519081900360200190f35b6103d06004803603602081101561052857600080fd5b5035600160a060020a0316611231565b6104686004803603608081101561054e57600080fd5b50600160a060020a0381358116916020810135909116906040810135906060013561123f565b6104686004803603602081101561058a57600080fd5b503560ff1661128e565b61046860048036036101008110156105ab57600080fd5b813591600160a060020a036020820135811692604083013582169260608101359092169160808101359160a08201359160c0810135151591810190610100810160e082013564010000000081111561060257600080fd5b82018360208201111561061457600080fd5b8035906020019184600183028401116401000000008311171561063657600080fd5b91908080601f01602080910402602001604051908101604052809392919081815260200183838082843760009201919091525092955061131c945050505050565b6104686004803603606081101561068d57600080fd5b600160a060020a0382351691908101906040810160208201356401000000008111156106b857600080fd5b8201836020820111156106ca57600080fd5b803590602001918460018302840111640100000000831117156106ec57600080fd5b91908080601f016020809104026020016040519081016040528093929190818152602001838380828437600092019190915250929594936020810193503591505064010000000081111561073f57600080fd5b82018360208201111561075157600080fd5b8035906020019184600183028401116401000000008311171561077357600080fd5b91908080601f016020809104026020016040519081016040528093929190818152602001838380828437600092019190915250929550611441945050505050565b610468600480360360208110156107ca57600080fd5b503560ff1661189f565b610468600480360360208110156107ea57600080fd5b503561192b565b6107f96119ab565b60408051600160a060020a039092168252519081900360200190f35b6104fe6004803603608081101561082b57600080fd5b50600160a060020a038135169060208101359060408101359060600135611a25565b6104686004803603608081101561086357600080fd5b50600160a060020a03813581169160208101359091169060408101359060600135611a34565b6104fe600480360360a081101561089f57600080fd5b50600160a060020a03813581169160208101359160408201359160608101359160809091013516611aef565b6108f1600480360360208110156108e157600080fd5b5035600160a060020a0316611b8a565b6040805161ffff9092168252519081900360200190f35b6104fe611b98565b610468600480360360a081101561092657600080fd5b50600160a060020a03813581169160208101359091169060408101359060608101359060800135611bb9565b6103d06004803603604081101561096857600080fd5b50600160a060020a0381358116916020013516611bc6565b6104686004803603606081101561099657600080fd5b50600160a060020a03813581169160208101359091169060400135611bd4565b610468600480360360a08110156109cc57600080fd5b50600160a060020a03813581169160208101359091169060408101359060608101359060800135611c23565b6107f9611c30565b6104fe600480360360a0811015610a1657600080fd5b50600160a060020a03813581169160208101359091169060408101359060608101359060800135611c3f565b6103d060048036036060811015610a5857600080fd5b50600160a060020a03813581169160208101359091169060400135611d1c565b610aa860048036036040811015610a8e57600080fd5b508035600160a060020a0316906020013561ffff16611d2b565b6040805160208082528351818301528351919283929083019185019080838360005b83811015610ae2578181015183820152602001610aca565b50505050905090810190601f168015610b0f5780820380516001836020036101000a031916815260200191505b509250505060405180910390f35b61046860048036036040811015610b3357600080fd5b50600160a060020a038135169060200135611df5565b61046860048036036080811015610b5f57600080fd5b50600160a060020a03813581169160208101359091169060408101359060600135612097565b6108f160048036036040811015610b9b57600080fd5b50600160a060020a038135169060200135612122565b610bdd60048036036040811015610bc757600080fd5b50600160a060020a03813516906020013561214e565b6040805192835260208301919091528051918290030190f35b6104fe60048036036060811015610c0c57600080fd5b50600160a060020a038135169060208101359060400135612169565b610468600480360360c0811015610c3e57600080fd5b600160a060020a038235811692602081013582169260408201359092169160608201359160808101359181019060c0810160a0820135640100000000811115610c8657600080fd5b820183602082011115610c9857600080fd5b80359060200191846001830284011164010000000083111715610cba57600080fd5b91908080601f016020809104026020016040519081016040528093929190818152602001838380828437600092019190915250929550612179945050505050565b6103ea612286565b6104fe60048036036060811015610d1957600080fd5b50600160a060020a0381351690602081013590604001356122a9565b6104fe60048036036080811015610d4b57600080fd5b50600160a060020a038135811691602081013590911690604081013590606001356122b9565b61046860048036036060811015610d8757600080fd5b50600160a060020a0381351690602081013590604001356123ef565b61046860048036036040811015610db957600080fd5b600160a060020a038235169190810190604081016020820135640100000000811115610de457600080fd5b820183602082011115610df657600080fd5b80359060200191846001830284011164010000000083111715610e1857600080fd5b91908080601f01602080910402602001604051908101604052809392919081815260200183838082843760009201919091525092955061243d945050505050565b6104fe60048036036060811015610e6f57600080fd5b50600160a060020a0381351690602081013590604001356126b8565b6108f160048036036020811015610ea157600080fd5b5035600160a060020a0316612845565b6104fe60048036036080811015610ec757600080fd5b50600160a060020a03813581169160208101359091169060408101359060600135612863565b6107f9612951565b6107f9612960565b6103ea61296f565b6104fe60048036036040811015610f1b57600080fd5b5080359060200135600160a060020a0316612991565b6104fe60048036036040811015610f4757600080fd5b5080359060200135612a77565b6104fe60048036036040811015610f6a57600080fd5b5080359060200135600160a060020a0316612a87565b6107f960048036036020811015610f9657600080fd5b5035600160e060020a031916612af9565b6104fe60048036036060811015610fbd57600080fd5b50600160a060020a038135169060208101359060400135612b1e565b6103ea612c50565b6104fe612c73565b6104fe60048036036080811015610fff57600080fd5b50600160a060020a03813581169160208101359091169060408101359060600135612ce3565b6104fe612dbe565b600061103a848484612e15565b90505b9392505050565b6003547501000000000000000000000000000000000000000000900460ff1681565b600061107485858585612e4a565b95945050505050565b61108a3383600084611a34565b60408051338152600160a060020a03841660208201526000818301526060810183905290516000805160206156208339815191529181900360800190a15050565b60006110d982600080612e8a565b90505b919050565b60006110f08360008085612e4a565b90505b92915050565b60006111036119ab565b600160a060020a03163314611150576040805160e560020a62461bcd0281526020600482015260156024820152600080516020615868833981519152604482015290519081900360640190fd5b600082815260066020526040902054829060ff16156111a35760405160e560020a62461bcd0281526004018080602001828103825260218152602001806155366021913960400191505060405180910390fd5b6000818152600660205260409020805460ff191660011790556111c887878787612f1f565b506000805160206155bd833981519152878787876111e78c8c8c61102d565b60408051600160a060020a039687168152949095166020850152838501929092526060830152608082015260a0810186905290519081900360c00190a15060019695505050505050565b60006110d982600080612e15565b61124b33848484611a34565b60408051338152600160a060020a03851660208201528082018490526060810183905290516000805160206156208339815191529181900360800190a150505050565b611296612dbe565b15156112d65760405160e560020a62461bcd0281526004018080602001828103825260238152602001806155776023913960400191505060405180910390fd5b6003805460ff9092167601000000000000000000000000000000000000000000000276ff0000000000000000000000000000000000000000000019909216919091179055565b61132c8888888888888888612fef565b7fa8ab1c144f8c609dc6ffc90542615bfa82d14024ea511f30d93c3ed610fb13a688888888888888886040518089815260200188600160a060020a0316600160a060020a0316815260200187600160a060020a0316600160a060020a0316815260200186600160a060020a0316600160a060020a031681526020018581526020018481526020018315151515815260200180602001828103825283818151815260200191508051906020019080838360005b838110156113f65781810151838201526020016113de565b50505050905090810190601f1680156114235780820380516001836020036101000a031916815260200191505b50995050505050505050505060405180910390a15050505050505050565b6114496119ab565b600160a060020a03163314611496576040805160e560020a62461bcd0281526020600482015260156024820152600080516020615868833981519152604482015290519081900360640190fd5b8051602082012060009081906114b3846114ae612c50565b613314565b90935091506114c586848484896133a9565b15156115055760405160e560020a62461bcd02815260040180806020018281038252602e8152602001806158cd602e913960400191505060405180910390fd5b600160a060020a038316600090815260056020908152604080832060019081018054808301808355918652848620845180860190955260038086527f307830000000000000000000000000000000000000000000000000000000000095909601948552929491936115799390910191615385565b50039050600061158b85838851613473565b61159585836134f8565b6115a08583896135f0565b90506115ae8186848961387d565b600160a060020a0386166000908152600560205260409020600101805491925060609161ffff85169081106115df57fe5b600091825260209182902001805460408051601f600260001961010060018716150201909416939093049283018590048502810185019091528181529283018282801561166d5780601f106116425761010080835404028352916020019161166d565b820191906000526020600020905b81548152906001019060200180831161165057829003601f168201915b505050600160a060020a03891660009081526005602090815260408083208651838801208452909152902054929350505061ffff16156116f7576040805160e560020a62461bcd02815260206004820181905260248201527f5769746864726177616c20766f756368657220616c7265616479206578697374604482015290519081900360640190fd5b600160a060020a038616600081815260056020908152604080832085518684019081208552908352818420805461ffff191661ffff8a161790558151948552918401899052606090840181815285519185019190915284517f5916f06e7edceeabfc287fe4337682d90bc4aeb2084ebe6753489cbf05e8f83f948b948b948894929360808501928190849084905b8381101561179d578181015183820152602001611785565b50505050905090810190601f1680156117ca5780820380516001836020036101000a031916815260200191505b5094505050505060405180910390a17fd568c8bd1faf364a0cd74b82ee3bbe571b68f7df17ee5291e1ec0e6312c4be378686836040518084600160a060020a0316600160a060020a0316815260200183815260200180602001828103825283818151815260200191508051906020019080838360005b83811015611858578181015183820152602001611840565b50505050905090810190601f1680156118855780820380516001836020036101000a031916815260200191505b5094505050505060405180910390a1505050505050505050565b6118a7612dbe565b15156118e75760405160e560020a62461bcd0281526004018080602001828103825260218152602001806155156021913960400191505060405180910390fd5b6003805460ff90921675010000000000000000000000000000000000000000000275ff00000000000000000000000000000000000000000019909216919091179055565b6119383360008084611a34565b604080513381526020810183905281517fb4214c8c54fc7442f36d3682f59aebaf09358a4431835b30efb29d52cf9e1e91929181900390910190a160408051338152600060208201819052818301526060810183905290516000805160206156208339815191529181900360800190a150565b604080517f64656c656761746564526563656976654765744f7261636c655f5631282900008152815190819003601e0181206004825260248201909252602081018051600160e060020a0316600160e060020a03199093169290921790915260009081908190611a1b9082613b19565b5051925050505b90565b60006110743286868686613bb0565b60008111611a8c576040805160e560020a62461bcd02815260206004820152601d60248201527f416d6f756e74206d7573742062652067726561746572207468616e2030000000604482015290519081900360640190fd5b80611a98858585612e15565b1015611adc576040805160e560020a62461bcd02815260206004820152600e60248201526000805160206157fd833981519152604482015290519081900360640190fd5b611ae884848484613c93565b5050505050565b6000806000611b7c60405180806157c66037913960408051918290036037018220600160a060020a03808e166024850152604484018d9052606484018c9052608484018b9052891660a4808501919091528251808503909101815260c4909301909152602082018051600160e060020a0316600160e060020a031990921691909117905290506000613b19565b505198975050505050505050565b60006110d982600080613d46565b60035474010000000000000000000000000000000000000000900460ff1681565b611ae88585858585613d7e565b60006110f083836000612e15565b611be13383836001611a34565b60408051338152600160a060020a03841660208201528082018390526001606082015290516000805160206156208339815191529181900360800190a1505050565b611ae88585858585613f8f565b600354600160a060020a031681565b6000611c496119ab565b600160a060020a03163314611c96576040805160e560020a62461bcd0281526020600482015260156024820152600080516020615868833981519152604482015290519081900360640190fd5b611ca286868686612f1f565b507fe0cb0735aa7f3ca57da7ad356122e80712802c5e46cf5a03df36e5a69b3962ab86868686611cd38b8b8b61102d565b60408051600160a060020a039687168152949095166020850152838501929092526060830152608082015260a0810185905290519081900360c00190a150600195945050505050565b600061103a8484600085612e4a565b600160a060020a038216600090815260056020526040902060010180546060919061ffff8416908110611d5a57fe5b600091825260209182902001805460408051601f6002600019610100600187161502019094169390930492830185900485028101850190915281815292830182828015611de85780601f10611dbd57610100808354040283529160200191611de8565b820191906000526020600020905b815481529060010190602001808311611dcb57829003601f168201915b5050505050905092915050565b611dfd6119ab565b600160a060020a03163314611e4a576040805160e560020a62461bcd0281526020600482015260156024820152600080516020615868833981519152604482015290519081900360640190fd5b600160a060020a038216600081815260056020818152604080842086855280835290842054949093525260019081015461ffff9283169290919082161115611fdc57600160a060020a038416600090815260056020526040902060010180546060919061ffff600019850116908110611ebf57fe5b600091825260209182902001805460408051601f6002600019610100600187161502019094169390930492830185900485028101850190915281815292830182828015611f4d5780601f10611f2257610100808354040283529160200191611f4d565b820191906000526020600020905b815481529060010190602001808311611f3057829003601f168201915b505050600160a060020a03881660009081526005602052604090206001018054939450849390925061ffff871691508110611f8457fe5b906000526020600020019080519060200190611fa1929190615385565b50600160a060020a0385166000908152600560209081526040808320845194830194909420835292905220805461ffff191661ffff84161790555b600160a060020a0384166000908152600560205260409020600101805490612008906000198301615403565b5060408051600160a060020a03861681526020810185905281517fbb2229c120f07c1d5e21d7480f8954df427ae577672f72ee613ec83119fc6cc7929181900390910190a160408051600160a060020a03861681526020810185905281517f84d7c9d12a5c86bc164cddefea17c7ef80f84ede161bc3298240f5c3673463c2929181900390910190a150505050565b6120b5338585858560206040519081016040528060008152506141a1565b60408051338152600160a060020a038087166020830152851681830152606081018490526080810183905260c060a0820181905260009082015290517f5758e018e40cc2ec5c91c63cdbbabd0957ae05a547a4b91aed826bbdd75a0831918190036101000190a150505050565b600160a060020a03919091166000908152600560209081526040808320938352929052205461ffff1690565b60008061215e8460008086614487565b915091509250929050565b600061103a328585600186613bb0565b6121878686868686866141a1565b7f5758e018e40cc2ec5c91c63cdbbabd0957ae05a547a4b91aed826bbdd75a08318686868686866040518087600160a060020a0316600160a060020a0316815260200186600160a060020a0316600160a060020a0316815260200185600160a060020a0316600160a060020a0316815260200184815260200183815260200180602001828103825283818151815260200191508051906020019080838360005b8381101561223f578181015183820152602001612227565b50505050905090810190601f16801561226c5780820380516001836020036101000a031916815260200191505b5097505050505050505060405180910390a1505050505050565b600354760100000000000000000000000000000000000000000000900460ff1681565b600061103a328560008686613bb0565b60006122c36119ab565b600160a060020a03163314612310576040805160e560020a62461bcd0281526020600482015260156024820152600080516020615868833981519152604482015290519081900360640190fd5b600082815260066020526040902054829060ff16156123635760405160e560020a62461bcd0281526004018080602001828103825260218152602001806155366021913960400191505060405180910390fd5b6000818152600660205260409020805460ff191660011790556123878686866144ec565b506000805160206155bd83398151915286866000876123a68b8b611bc6565b60408051600160a060020a039687168152949095166020850152838501929092526060830152608082015260a0810186905290519081900360c00190a150600195945050505050565b6123fb33848484611a34565b60408051338152600160a060020a03851660208201528082018490526060810183905290516000805160206156208339815191529181900360800190a1505050565b6124456119ab565b600160a060020a03163314612492576040805160e560020a62461bcd0281526020600482015260156024820152600080516020615868833981519152604482015290519081900360640190fd5b600160a060020a0382166000908152600560209081526040808320845185840120845290915290205461ffff1615612514576040805160e560020a62461bcd02815260206004820181905260248201527f5769746864726177616c20766f756368657220616c7265616479206578697374604482015290519081900360640190fd5b600160a060020a038216600090815260056020908152604080832060019081018054808301808355918652848620845180860190955260038086527f307830000000000000000000000000000000000000000000000000000000000095909601948552929491936125889390910191615385565b50600160a060020a03851660009081526005602052604090206001018054929091039250839161ffff84169081106125bc57fe5b9060005260206000200190805190602001906125d9929190615385565b50600160a060020a038316600081815260056020908152604080832086518784019081208552908352818420805461ffff191661ffff8816179055815194855291840181815286519185019190915285517ff829aea9243bb0b528b0a2bad5b6e2a3a62195513377931b6a1e261907085a7e94889488949193926060850192918190849084905b83811015612678578181015183820152602001612660565b50505050905090810190601f1680156126a55780820380516001836020036101000a031916815260200191505b50935050505060405180910390a1505050565b60006126c26119ab565b600160a060020a0316331461270f576040805160e560020a62461bcd0281526020600482015260156024820152600080516020615868833981519152604482015290519081900360640190fd5b600082815260066020526040902054829060ff16156127625760405160e560020a62461bcd0281526004018080602001828103825260218152602001806155366021913960400191505060405180910390fd5b6000818152600660205260409020805460ff1916600117905561278585856144fb565b507f32a495751ee98bf8f770c4b2aa158a3237182da65239e6dd21f438eeb5697e6b85856127b288611231565b60408051600160a060020a03909416845260208401929092528282015260608201869052519081900360800190a16000805160206155bd83398151915285600080876127fd8a611231565b60408051600160a060020a039687168152949095166020850152838501929092526060830152608082015260a0810186905290519081900360c00190a1506001949350505050565b600160a060020a031660009081526005602052604090206001015490565b600061286d6119ab565b600160a060020a031633146128ba576040805160e560020a62461bcd0281526020600482015260156024820152600080516020615868833981519152604482015290519081900360640190fd5b600082815260066020526040902054829060ff161561290d5760405160e560020a62461bcd0281526004018080602001828103825260218152602001806155366021913960400191505060405180910390fd5b6000818152600660205260409020805460ff1916600117905561293186868661450a565b506000805160206155bd83398151915286868660016123a68b8b8b61102d565b600154600160a060020a031681565b600254600160a060020a031681565b6003547501000000000000000000000000000000000000000000900460ff1690565b6000826129a032600080612e15565b116129ad575060006110f3565b600160a060020a03821615612a0e577fce3ea6573e50aa99519e173830624d1737b22bad74aed84d32094f307a448ef6826129eb8160008033612e4a565b60408051600160a060020a03909316835260208301919091528051918290030190a15b604080513281526020810185905281517fe61d5789b825d8ba2927cdaa3a0896a30f5728c19e1d074be112f023cc9571f8929181900390910190a1612a6282600080612a5c83828033612e4a565b33614579565b80156110f057506110f0326000808633613bb0565b60006110f0326000808686613bb0565b600082612a9683838033612e4a565b14612aa3575060006110f3565b60408051338152600160a060020a038416602082015280820185905290517ff13deb3fec4383bd42e0b7de6c178b82a2cb900f3d5c06dc1596620242860b579181900360600190a16110f082600080863361466c565b600160e060020a031916600090815260208190526040902054600160a060020a031690565b6000612b286119ab565b600160a060020a03163314612b75576040805160e560020a62461bcd0281526020600482015260156024820152600080516020615868833981519152604482015290519081900360640190fd5b612b7f84846144fb565b507f9f5e04e6bc757548934c37072b23e635e253c8470bc522423ebad3137e1edb748484612bac87611231565b60408051600160a060020a03909416845260208401929092528282015260608201859052519081900360800190a17fe0cb0735aa7f3ca57da7ad356122e80712802c5e46cf5a03df36e5a69b3962ab8460008086612c0989611231565b60408051600160a060020a039687168152949095166020850152838501929092526060830152608082015260a0810185905290519081900360c00190a15060019392505050565b600354760100000000000000000000000000000000000000000000900460ff1690565b604080517f64656c656761746564526563656976654765745061757365645f5631282900008152815190819003601e0181206004825260248201909252602081018051600160e060020a0316600160e060020a03199093169290921790915260009081908190611a1b9082613b19565b6000612ced6119ab565b600160a060020a03163314612d3a576040805160e560020a62461bcd0281526020600482015260156024820152600080516020615868833981519152604482015290519081900360640190fd5b612d458585856144ec565b507fe0cb0735aa7f3ca57da7ad356122e80712802c5e46cf5a03df36e5a69b3962ab8585600086612d768a8a611bc6565b60408051600160a060020a039687168152949095166020850152838501929092526060830152608082015260a0810185905290519081900360c00190a1506001949350505050565b6000806000611a1b60405180806157046024913960408051918290036024908101832060048452908301909152602082018051600160e060020a0316600160e060020a031990921691909117905290506000613b19565b600160a060020a0380831660009081526004602090815260408083208584528252808320938716835292905220549392505050565b600160a060020a03928316600090815260046020908152604080832094835293815283822095909416815293835281842090845260010190915290205490565b600160a060020a038083166000908152600460209081526040808320858452825280832093871683529290529081206002015461ffff81161515612ed257600091505061103d565b60005b8161ffff168161ffff161015612f16576000612ef78787878561ffff16614487565b9150612f0b9050848263ffffffff61474316565b935050600101612ed5565b50509392505050565b6000808211612f78576040805160e560020a62461bcd02815260206004820152601d60248201527f416d6f756e74206d7573742062652067726561746572207468616e2030000000604482015290519081900360640190fd5b600160a060020a038085166000908152600460209081526040808320878452825280832093891683529290522054612fb6908363ffffffff61474316565b600160a060020a0380861660009081526004602090815260408083208884528252808320938a1683529290522055506001949350505050565b6000831161315957606060405180806156a6605e9139605e0190506040518091039020898989898989898960405160240180806020018a815260200189600160a060020a0316600160a060020a0316815260200188600160a060020a0316600160a060020a0316815260200187600160a060020a0316600160a060020a03168152602001868152602001858152602001841515151581526020018060200183810383526020815260200180600080516020615557833981519152815250602001838103825284818151815260200191508051906020019080838360005b838110156130e45781810151838201526020016130cc565b50505050905090810190601f1680156131115780820380516001836020036101000a031916815260200191505b5060408051601f19818403018152919052602081018051600160e060020a0316600160e060020a0319909e169d909d178d528051909d509b8c9b509950505050505050505050fd5b60006131678887878c612e4a565b9050838110156132db576060604051808061564060669139606601905060405180910390208a8a8a8a8a8a888b8b60405160240180806020018b81526020018a600160a060020a0316600160a060020a0316815260200189600160a060020a0316600160a060020a0316815260200188600160a060020a0316600160a060020a0316815260200187815260200186815260200185815260200184151515158152602001806020018381038352600e8152602001806000805160206157fd833981519152815250602001838103825284818151815260200191508051906020019080838360005b8381101561326557818101518382015260200161324d565b50505050905090810190601f1680156132925780820380516001836020036101000a031916815260200191505b5060408051601f19818403018152919052602081018051600160e060020a0316600160e060020a0319909f169e909e178e528051909e509c8d9c509a5050505050505050505050fd5b6132e8888787878d614750565b506132f587878787612f1f565b50821561330957613309878787878d613d7e565b505050505050505050565b600080600060608061332d61332888614875565b6148bc565b905061335081600581518110151561334157fe5b9060200190602002015161498c565b91506020820151925061336381876149f9565b94507f4796093800000000000000000000000000000000000000000000000000000000600160e060020a03198416141561339f57602482015193505b5050509250929050565b60408051600160a060020a038781166c01000000000000000000000000908102602080850191909152918816026034830152604882018690526068808301869052835180840390910181526088830184528051908201207f19457468657265756d205369676e6564204d6573736167653a0a33320000000060a884015260c48084018290528451808503909101815260e49093019093528151910120600091908290613456908583614a1c565b600354600160a060020a0390811691161498975050505050505050565b60006020820460010160200260c5019050806040519080825280601f01601f1916602001820160405280156134af576020820181803883390190505b50600160a060020a0385166000908152600560205260409020600101805461ffff86169081106134db57fe5b906000526020600020019080519060200190611ae8929190615385565b7f6fc60a5e0000000000000000000000000000000000000000000000000000000060005b60048160ff1610156135ea578160ff82166004811061353757fe5b1a60f860020a026005600086600160a060020a0316600160a060020a031681526020019081526020016000206001018461ffff1681548110151561357757fe5b906000526020600020018260ff1681546001816001161561010002031660029004811015156135a257fe5b8154600116156135c15790600052602060002090602091828204019190065b601f036101000a81548160ff0219169060f860020a84040217905550808060010191505061351c565b50505050565b60008060405b60208210156136be5780826020811061360b57fe5b1a60f860020a026005600088600160a060020a0316600160a060020a031681526020019081526020016000206001018661ffff1681548110151561364b57fe5b9060005260206000200183600401815460018160011615610100020316600290048110151561367657fe5b8154600116156136955790600052602060002090602091828204019190065b601f036101000a81548160ff0219169060f860020a8404021790555081806001019250506135f6565b6000915060415b6020831015613791578083602081106136da57fe5b1a60f860020a026005600089600160a060020a0316600160a060020a031681526020019081526020016000206001018761ffff1681548110151561371a57fe5b600091825260209091200180548486016004019060026000196101006001841615020190911604811061374957fe5b8154600116156137685790600052602060002090602091828204019190065b601f036101000a81548160ff0219169060f860020a8404021790555082806001019350506136c5565b600092505b60418310156138705784838151811015156137ad57fe5b90602001015160f860020a900460f860020a026005600089600160a060020a0316600160a060020a031681526020019081526020016000206001018761ffff168154811015156137f957fe5b600091825260209091200180548486016024019060026000196101006001841615020190911604811061382857fe5b8154600116156138475790600052602060002090602091828204019190065b601f036101000a81548160ff0219169060f860020a840402179055508280600101935050613796565b5060610195945050505050565b600080855b602082101561394a5780826020811061389757fe5b1a60f860020a026005600088600160a060020a0316600160a060020a031681526020019081526020016000206001018661ffff168154811015156138d757fe5b9060005260206000200183602401815460018160011615610100020316600290048110151561390257fe5b8154600116156139215790600052602060002090602091828204019190065b601f036101000a81548160ff0219169060f860020a840402179055508180600101925050613882565b8351600092505b6020831015613a1d5780836020811061396657fe5b1a60f860020a026005600089600160a060020a0316600160a060020a031681526020019081526020016000206001018761ffff168154811015156139a657fe5b60009182526020909120018054848601600401906002600019610100600184161502019091160481106139d557fe5b8154600116156139f45790600052602060002090602091828204019190065b601f036101000a81548160ff0219169060f860020a840402179055508280600101935050613951565b600092505b8451831015613afc578483815181101515613a3957fe5b90602001015160f860020a900460f860020a026005600089600160a060020a0316600160a060020a031681526020019081526020016000206001018761ffff16815481101515613a8557fe5b6000918252602090912001805484860160240190600260001961010060018416150201909116048110613ab457fe5b815460011615613ad35790600052602060002090602091828204019190065b601f036101000a81548160ff0219169060f860020a840402179055508280600101935050613a22565b509251602090819004600101810290930190920195945050505050565b6020820151600090819081613b2d82612af9565b9050600160a060020a0381161515613b425750835b600160a060020a0381161515613b8c5760405160e560020a62461bcd02815260040180806020018281038252602381526020018061559a6023913960400191505060405180910390fd5b600080875160208901845af43d93506040519450836000863e80151561339f578385fd5b600082613bbe878787612e15565b1015613c14576040805160e560020a62461bcd02815260206004820152601b60248201527f4e6f7420656e6f75746820616d6f756e7420746f206c6f636b65640000000000604482015290519081900360640190fd5b613c218686868686614aa7565b50613c2e86868686613c93565b5060408051600160a060020a03808916825287166020820152808201869052606081018590526080810184905290517ffd5fe280bcce5c67ec4267bf10198999d1bd9706ef8f3b616a90ae166daa19af9181900360a00190a150600195945050505050565b600160a060020a0380841660009081526004602090815260408083208684528252808320938816835292905290812054821115613d08576040805160e560020a62461bcd02815260206004820152600e60248201526000805160206157fd833981519152604482015290519081900360640190fd5b600160a060020a038085166000908152600460209081526040808320878452825280832093891683529290522054612fb6908363ffffffff614bf816565b600160a060020a0380831660009081526004602090815260408083208584528252808320938716835292905220600201549392505050565b60008211613e3557606060405180806155dd6043913960408051918290036043018220600160a060020a03808b166044850152891660648401526084830188905260a4830187905260c4830186905260c06024840152602060e4840181905260008051602061555783398151915261010480860191909152835180860390910181526101249094019092529082018051600160e060020a0316600160e060020a031990921691909117815281519193509091508190fd5b6000613e42868686612e15565b905082811015613f14576060604051808061581d604b91396040805191829003604b018220600160a060020a03808c1660448501528a1660648401526084830189905260a4830188905260c4830186905260e4830187905260e06024840152601b6101048401527f4e6f7420656e6f75676820616d6f756e7420746f206c6f636b656400000000006101248085019190915282518085039091018152610144909301909152602082018051600160e060020a0316600160e060020a031990921691909117815281519193509091508190fd5b613f218686868686614aa7565b50613f2e86868686613c93565b5060408051600160a060020a03808916825287166020820152808201869052606081018590526080810184905290517f451513853e56dd8e26cbbf25bbd5e294ffea84e814e4dbebe56965e1e3dff7f29181900360a00190a1505050505050565b6000821161404657606060405180806158886045913960408051918290036045018220600160a060020a03808b166044850152891660648401526084830188905260a4830187905260c4830186905260c06024840152602060e4840181905260008051602061555783398151915261010480860191909152835180860390910181526101249094019092529082018051600160e060020a0316600160e060020a031990921691909117815281519193509091508190fd5b600061405486868685612e4a565b90508281101561412657606060405180806154c8604d91396040805191829003604d018220600160a060020a03808c1660448501528a1660648401526084830189905260a4830188905260c4830186905260e4830187905260e0602484015260186101048401527f4e6f7420656e6f75746820616d6f756e74206c6f636b656400000000000000006101248085019190915282518085039091018152610144909301909152602082018051600160e060020a0316600160e060020a031990921691909117815281519193509091508190fd5b6141338686868686614750565b5061414086868686612f1f565b5060408051600160a060020a03808916825287166020820152808201869052606081018590526080810184905290517fc7ec3a332c4b6171dc15dcdcc63fbf7dff6b3b9dc448ab724ee51f3549247e4b9181900360a00190a1505050505050565b600082116142f75760606040518080615728604b9139604b0190506040518091039020878787878787604051602401808060200188600160a060020a0316600160a060020a0316815260200187600160a060020a0316600160a060020a0316815260200186600160a060020a0316600160a060020a031681526020018581526020018481526020018060200183810383526020815260200180600080516020615557833981519152815250602001838103825284818151815260200191508051906020019080838360005b8381101561428457818101518382015260200161426c565b50505050905090810190601f1680156142b15780820380516001836020036101000a031916815260200191505b5060408051601f19818403018152919052602081018051600160e060020a0316600160e060020a0319909c169b909b178b528051909b50998a9950975050505050505050fd5b6000614304878686612e15565b9050828110156144645760606040518080615773605391396053019050604051809103902088888888888789604051602401808060200189600160a060020a0316600160a060020a0316815260200188600160a060020a0316600160a060020a0316815260200187600160a060020a0316600160a060020a03168152602001868152602001858152602001848152602001806020018381038352600e8152602001806000805160206157fd833981519152815250602001838103825284818151815260200191508051906020019080838360005b838110156143f05781810151838201526020016143d8565b50505050905090810190601f16801561441d5780820380516001836020036101000a031916815260200191505b5060408051601f19818403018152919052602081018051600160e060020a0316600160e060020a0319909d169c909c178c528051909c509a8b9a5098505050505050505050fd5b61447087868686613c93565b5061447d86868686612f1f565b5050505050505050565b600160a060020a038084166000908152600460209081526040808320868452825280832093881683529290529081206002018054829190849081106144c857fe5b906000526020600020015491506144e186868685612e4a565b905094509492505050565b600061103a8484600085612f1f565b60006110f08360008085612f1f565b600061451784848461102d565b1561456c576040805160e560020a62461bcd02815260206004820152601560248201527f45524337323120697320616c7265616479206f776e0000000000000000000000604482015290519081900360640190fd5b61103a8484846001612f1f565b600082151561458a57506001611074565b8261459787878786612e4a565b10156145ed576040805160e560020a62461bcd02815260206004820152601860248201527f4e6f7420656e6f75746820616d6f756e74206c6f636b65640000000000000000604482015290519081900360640190fd5b6145fa8686868686614750565b5061460786868686612f1f565b5060408051600160a060020a03808916825287166020820152808201869052606081018590526080810184905290517f0b0454883e02998fa2020c1e8f466c571e022722418136587baa7fff890108eb9181900360a00190a150600195945050505050565b60008261467b87878786612e4a565b10156146d1576040805160e560020a62461bcd02815260206004820152601860248201527f4e6f7420656e6f75746820616d6f756e74206c6f636b65640000000000000000604482015290519081900360640190fd5b6146de8686868686614750565b5060408051600160a060020a03808916825287166020820152808201869052606081018590526080810184905290517f26a9e14ec37a5bacb1cecf3a2104fe9fb592f7381d156872d37139f1bed333b79181900360a00190a150600195945050505050565b818101828110156110f357fe5b600160a060020a038085166000908152600460209081526040808320878452825280832093891683529281528282208483526001019052908120548311156147e2576040805160e560020a62461bcd02815260206004820152601560248201527f4c6f636b656420616d6f756e7420746f6f206c6f770000000000000000000000604482015290519081900360640190fd5b600160a060020a0380861660009081526004602090815260408083208884528252808320938a1683529281528282208583526001019052205461482b908463ffffffff614bf816565b600160a060020a0395861660009081526004602090815260408083209783529681528682209890971681529686528487209287526001928301909552509190932091909155919050565b61487d61542c565b8151151561489f575060408051808201909152600080825260208201526110dc565b506040805180820190915281518152602082810190820152919050565b60606148c782614c0a565b15156148d257600080fd5b60006148dd83614c39565b90508060405190808252806020026020018201604052801561491957816020015b61490661542c565b8152602001906001900390816148fe5790505b509150600061492b8460200151614c86565b60208501510190506000805b838110156149835761494883614cef565b9150604080519081016040528083815260200184815250858281518110151561496d57fe5b6020908102909101015291810191600101614937565b50505050919050565b6060600061499d8360200151614c86565b83516040805191839003808352601f19601f82011683016020019091529192506060908280156149d4576020820181803883390190505b50905060008160200190506149f0848760200151018285614d7f565b50949350505050565b6000606080614a088585614dc0565b815160208301209193509150611074908260005b818101602081810151604080840151606094850151825160008082528187018086528b905260ff60f860020a8404168286015296810185905260808101839052925193949193909260019260a0808301939192601f198301929081900390910190855afa158015614a91573d6000803e3d6000fd5b5050604051601f19015198975050505050505050565b6000808311614b00576040805160e560020a62461bcd02815260206004820152601d60248201527f416d6f756e74206d7573742062652067726561746572207468616e2030000000604482015290519081900360640190fd5b600160a060020a0380861660009081526004602090815260408083208884528252808320938a1683529281528282208583526001908101909152919020015460ff161515614baf5750600160a060020a0384811660009081526004602090815260408083208784528252808320938916835292815282822060028101805460018082018355918552838520018690558584529081019091529190208381558101805460ff191682179055611074565b600160a060020a0380861660009081526004602090815260408083208884528252808320938a1683529281528282208583526001019052205461482b908463ffffffff61474316565b600082821115614c0457fe5b50900390565b6020810151805160009190821a9060c060ff83161015614c2f576000925050506110dc565b5060019392505050565b600080600090506000614c4f8460200151614c86565b602085015185519181019250015b80821015614c7d57614c6e82614cef565b60019093019290910190614c5d565b50909392505050565b8051600090811a6080811015614ca05760009150506110dc565b60b8811080614cbb575060c08110801590614cbb575060f881105b15614cca5760019150506110dc565b60c0811015614cde5760b5190190506110dc565b60f5190190506110dc565b50919050565b8051600090811a6080811015614d095760019150506110dc565b60b8811015614d1d57607e190190506110dc565b60c0811015614d4a5760b78103600184019350806020036101000a84510460018201810193505050614ce9565b60f8811015614d5e5760be190190506110dc565b60019290920151602083900360f7016101000a900490910160f51901919050565b5b60208110614d9f578251825260209283019290910190601f1901614d80565b915181516020939093036101000a6000190180199091169216919091179052565b604080516009808252610140820190925260609182918291816020015b6060815260200190600190039081614ddd579050509050614e0e614e0986600081518110151561334157fe5b6150fc565b816000815181101515614e1d57fe5b90602001906020020181905250614e3f614e0986600181518110151561334157fe5b816001815181101515614e4e57fe5b90602001906020020181905250614e70614e0986600281518110151561334157fe5b816002815181101515614e7f57fe5b90602001906020020181905250614ea1614e0986600381518110151561334157fe5b816003815181101515614eb057fe5b90602001906020020181905250614ed2614e0986600481518110151561334157fe5b816004815181101515614ee157fe5b90602001906020020181905250614f03614e0986600581518110151561334157fe5b816005815181101515614f1257fe5b60209081029091010152614f2860ff85166151f9565b816006815181101515614f3757fe5b60209081029091010152614f4b60006151f9565b816007815181101515614f5a57fe5b60209081029091010152614f6e60006151f9565b816008815181101515614f7d57fe5b60209081029091010152614f9081615258565b60408051604180825260808201909252919450600091906020820181803883390190505092506000614fd9876007815181101515614fca57fe5b9060200190602002015161533f565b6000925090505b60208260ff161015615036578060ff831660208110614ffb57fe5b1a60f860020a02848360ff1681518110151561501357fe5b906020010190600160f860020a031916908160001a905350600190910190614fe0565b615048876008815181101515614fca57fe5b6000925090505b60208260ff1610156150a8578060ff83166020811061506a57fe5b1a60f860020a02848360200160ff1681518110151561508557fe5b906020010190600160f860020a031916908160001a90535060019091019061504f565b60088660020260ff166150c3896006815181101515614fca57fe5b030360f860020a028460408151811015156150da57fe5b906020010190600160f860020a031916908160001a9053505050509250929050565b80516040519060208084019190830190600181148015615168575084517f7f00000000000000000000000000000000000000000000000000000000000000908690600090811061514857fe5b90602001015160f860020a900460f860020a02600160f860020a03191611155b156151805750600180845291518152016040526110dc565b603781116151b4578060010184528060800182538060018301016040526151ab838360010183614d7f565b506110dc915050565b60006151bf8261536d565b905081816001010185528060b7018353806020036101000a8202600184015281816001850101016040526149838482856001010184614d7f565b606060006152068361536d565b90506060816040519080825280601f01601f191660200182016040528015615235576020820181803883390190505b509050816020036101000a84026020820152615250816150fc565b949350505050565b606060008060005b845181101561528f57848181518110151561527757fe5b60209081029091010151519190910190600101615260565b6040519350602084019250603782116152b3578160c00183536001830192506152df565b60006152be8361536d565b90508060f7018453600184019350806020036101000a830284528084019350505b5060005b845181101561532b57606085828151811015156152fc57fe5b906020019060200201519050600060208201905061531c81868451614d7f565b505192909201916001016152e3565b826040526020848403038452505050919050565b60008061534f8360200151614c86565b83516020948501518201519190039093036101000a90920492915050565b60005b81156110dc5761010082049150600101615370565b828054600181600116156101000203166002900490600052602060002090601f016020900481019282601f106153c657805160ff19168380011785556153f3565b828001600101855582156153f3579182015b828111156153f35782518255916020019190600101906153d8565b506153ff929150615443565b5090565b8154818355818111156154275760008381526020902061542791810190830161545d565b505050565b604080518082019091526000808252602082015290565b611a2291905b808211156153ff5760008155600101615449565b611a2291905b808211156153ff5760006154778282615480565b50600101615463565b50805460018160011615610100020316600290046000825580601f106154a657506154c4565b601f0160209004906000526020600020908101906154c49190615443565b5056fe4572726f72556e4c6f636b4465706f7369745f563228737472696e672c616464726573732c616464726573732c75696e743235362c75696e743235362c75696e743235362c75696e7432353629736574457468657265756d436861696e496420436f6e7472616374206f776e65725472616e73616374696f6e204861736820697320616c7265616479206578697374416d6f756e74206d7573742062652067726561746572207468616e207a65726f73657441756374696f6e697479436861696e496420436f6e7472616374206f776e657241756374696f6e6974792066756e6374696f6e20646f6573206e6f742065786973742e4f872b7a038479418c3dc9590698dd8f15886a054f10479c78db7b82573be0ee4572726f724c6f636b4465706f7369745f563228737472696e672c616464726573732c616464726573732c75696e743235362c75696e743235362c75696e7432353629811070cecc998823d0e93c893120f19b7f639220a4cad58fde3386ce247258a94572726f725472616e736665724465706f744c6f636b65645f563228737472696e672c75696e743235362c616464726573732c616464726573732c616464726573732c75696e743235362c75696e743235362c75696e743235362c626f6f6c2c6279746573294572726f725472616e736665724465706f744c6f636b65645f563228737472696e672c75696e743235362c616464726573732c616464726573732c616464726573732c75696e743235362c75696e743235362c626f6f6c2c62797465732964656c656761746564526563656976654973436f6e74726163744f776e65725f563128294572726f725472616e736665724465706f745f563228737472696e672c616464726573732c616464726573732c616464726573732c75696e743235362c75696e743235362c6279746573294572726f725472616e736665724465706f745f563228737472696e672c616464726573732c616464726573732c616464726573732c75696e743235362c75696e743235362c75696e743235362c6279746573296c6f636b4465706f7369745f563128616464726573732c75696e743235362c75696e743235362c75696e743235362c6164647265737329416d6f756e7420746f6f206c6f770000000000000000000000000000000000004572726f724c6f636b4465706f7369745f563228737472696e672c616464726573732c616464726573732c75696e743235362c75696e743235362c75696e743235362c75696e743235362953656e646572206d757374206265206f7261636c6500000000000000000000004572726f72556e4c6f636b4465706f7369745f563228737472696e672c616464726573732c616464726573732c75696e743235362c75696e743235362c75696e74323536295769746864726177616c20766f756368657220696e76616c6964207369676e6174757265206f66206f7261636c65a165627a7a72305820db571e5f1ffd9ba38fc4f9badc106ac60e8e91a6402c6cbc6e853564d03aeb660029",
  "source": "pragma solidity ^0.5.4;\n\nimport \"./AuctionityTreasurer_V1.sol\";\nimport \"../CommonContract/AuctionityLibrary_V1.sol\";\nimport \"../CommonContract/AuctionityChainId_V1.sol\";\nimport \"../CommonContract/SafeMath.sol\";\n\ncontract AuctionityTreasurer_V2 is AuctionityTreasurer_V1 {\n\n    event LogLockDepot_V2(\n        address user,\n        address tokenContractAddress,\n        uint256 tokenId,\n        uint256 amount,\n        uint256 lockedFor\n    );\n    event LogUnlockDepot_V2(\n        address user,\n        address tokenContractAddress,\n        uint256 tokenId,\n        uint256 amount,\n        uint256 lockedFor\n    );\n\n    event LogTransferDepot_V2(\n        address from,\n        address to,\n        address tokenContractAddress,\n        uint256 tokenId,\n        uint256 amount,\n        bytes data\n    );\n\n    event LogTransferDepotLocked_V2(\n        uint256 lockedFor,\n        address from,\n        address to,\n        address tokenContractAddress,\n        uint256 tokenId,\n        uint256 amount,\n        bool keepLock,\n        bytes data\n    );\n\n    event LogSetWithdrawalVoucher_V2(\n        address withdrawalUser,\n        bytes voucher\n    );\n\n\n    /// @notice transfer ERC1155\n    /// @param _to address of receiver\n    /// @param _tokenContractAddress address : ERC1155 smart contract\n    /// @param _tokenId uint256 : tokenId of ERC1155\n    /// @param _amount uint256\n    function transferERC1155_V2(\n        address _to,\n        address _tokenContractAddress,\n        uint256 _tokenId,\n        uint256 _amount\n    ) public {\n\n        _transferDepot_V2(\n            msg.sender,\n            _to,\n            _tokenContractAddress,\n            _tokenId,\n            _amount,\n            \"\"\n        );\n\n        emit LogTransferDepot_V2(\n            msg.sender,\n            _to,\n            _tokenContractAddress,\n            _tokenId,\n            _amount,\n            \"\"\n        );\n    }\n\n    /// @notice withdrawal ERC1155\n    /// @param _tokenContractAddress address : ERC1155 smart contract\n    /// @param _tokenId uint256 : tokenId of ERC1155\n    /// @param _amount uint256\n    function withdrawalERC1155_V2(\n        address _tokenContractAddress,\n        uint256 _tokenId,\n        uint256 _amount\n    ) public {\n        _withdrawal_V1(msg.sender, _tokenContractAddress, _tokenId, _amount);\n\n        emit LogWithdrawal_V1(msg.sender, _tokenContractAddress, _tokenId,  _amount);\n    }\n\n    function setWithdrawalVoucher_V2(\n        address _withdrawalUser,\n        bytes memory _withdrawalVoucher\n    ) public delegatedSendIsOracle_V1 {\n\n        require(\n            withdrawals[_withdrawalUser].withdrawalVoucher[keccak256(\n                _withdrawalVoucher\n            )] == 0,\n            \"Withdrawal voucher already exist\"\n        );\n\n\n        uint16 _withdrawalVoucherIndex = uint16(\n            withdrawals[_withdrawalUser].withdrawalVoucherList.push(\"0x0\") - 1\n        );\n\n        withdrawals[_withdrawalUser].withdrawalVoucherList[_withdrawalVoucherIndex] = _withdrawalVoucher;\n\n        withdrawals[_withdrawalUser].withdrawalVoucher[keccak256(\n            _withdrawalVoucher\n        )] = _withdrawalVoucherIndex;\n\n        emit LogSetWithdrawalVoucher_V2(\n            _withdrawalUser,\n            _withdrawalVoucher\n        );\n    }\n\n\n    /// @notice internal Lock part of deposit to a called smart contract\n    /// @param user address\n    /// @param tokenContractAddress address : ERC1155 smart contract\n    /// @param tokenId uint256 : tokenId of ERC1155\n    /// @param amount uint256 amount to lock\n    /// @param lockedFor uint256 lockedId\n    function _lockDeposit_V2(\n        address user,\n        address tokenContractAddress,\n        uint256 tokenId,\n        uint256 amount,\n        uint256 lockedFor\n    ) internal {\n\n        if(amount <= 0){\n\n            bytes memory _revertData = abi.encodeWithSelector(\n                bytes4(keccak256(\"ErrorLockDeposit_V2(string,address,address,uint256,uint256,uint256)\")),\n                \"Amount must be greater than zero\",\n                user,\n                tokenContractAddress,\n                tokenId,\n                amount,\n                lockedFor\n            );\n\n            assembly {\n                let size := mload(_revertData)\n                revert(add(_revertData,0x20), size)\n            }\n        }\n\n        uint256 balanceOfUser = _getBalance_V1(\n            user,\n            tokenContractAddress,\n            tokenId\n        );\n\n        if(balanceOfUser < amount){\n\n            bytes memory _revertData = abi.encodeWithSelector(\n                bytes4(keccak256(\"ErrorLockDeposit_V2(string,address,address,uint256,uint256,uint256,uint256)\")),\n                \"Not enough amount to locked\",\n                user,\n                tokenContractAddress,\n                tokenId,\n                amount,\n                balanceOfUser,\n                lockedFor\n            );\n\n            assembly {\n                let size := mload(_revertData)\n                revert(add(_revertData,0x20), size)\n            }\n        }\n        _addDepotLocked_V1(\n            user,\n            tokenContractAddress,\n            tokenId,\n            amount,\n            lockedFor\n        );\n        _subDepot_V1(user, tokenContractAddress, tokenId, amount);\n\n        emit LogLockDepot_V2(\n            user,\n            tokenContractAddress,\n            tokenId,\n            amount,\n            lockedFor\n        );\n    }\n\n    /// @notice internal Unlock part of deposit to a called smart contract\n    /// @param user address\n    /// @param tokenContractAddress address : ERC1155 smart contract\n    /// @param tokenId uint256 : tokenId of ERC1155\n    /// @param amount uint256 amount to lock\n    /// @param lockedFor uint256 lockedId\n    function _unlockDeposit_V2(\n        address user,\n        address tokenContractAddress,\n        uint256 tokenId,\n        uint256 amount,\n        uint256 lockedFor\n    ) internal{\n        if(amount <= 0){\n\n            // Generate custom revert data\n            bytes memory _revertData = abi.encodeWithSelector(\n                bytes4(keccak256(\"ErrorUnLockDeposit_V2(string,address,address,uint256,uint256,uint256)\")),\n                \"Amount must be greater than zero\",\n                user,\n                tokenContractAddress,\n                tokenId,\n                amount,\n                lockedFor\n            );\n\n            assembly {\n                let size := mload(_revertData)\n                revert(add(_revertData,0x20), size)\n            }\n        }\n\n        uint256 balanceOfUser = _getBalanceLocked_V1(\n            user,\n            tokenContractAddress,\n            tokenId,\n            lockedFor\n        );\n\n        if(balanceOfUser < amount){\n\n            // Generate custom revert data\n            bytes memory _revertData = abi.encodeWithSelector(\n                bytes4(keccak256(\"ErrorUnLockDeposit_V2(string,address,address,uint256,uint256,uint256,uint256)\")),\n                \"Not enouth amount locked\",\n                user,\n                tokenContractAddress,\n                tokenId,\n                amount,\n                balanceOfUser,\n                lockedFor\n            );\n\n            assembly {\n                let size := mload(_revertData)\n                revert(add(_revertData,0x20), size)\n            }\n        }\n\n        // remove from locked storage and add to available storage\n        _subDepotLocked_V1(\n            user,\n            tokenContractAddress,\n            tokenId,\n            amount,\n            lockedFor\n        );\n        _addDepot_V1(user, tokenContractAddress, tokenId, amount);\n\n        emit LogUnlockDepot_V2(\n            user,\n            tokenContractAddress,\n            tokenId,\n            amount,\n            lockedFor\n        );\n    }\n\n    /// @notice internal transfer depot locked\n    /// @param lockedFor uin256 identity of locked requested\n    /// @param from address of owner\n    /// @param to address of receiver\n    /// @param tokenContractAddress address of token contract\n    /// @param tokenId uint256 id of token\n    /// @param amount uint256 number of token\n    /// @param keepLock bool , true if the transfer want to keep tocken locked\n    /// @param data bytes additional data for transfer\n    function _transferDepotLocked_V2(\n        uint256 lockedFor,\n        address from,\n        address to,\n        address tokenContractAddress,\n        uint256 tokenId,\n        uint256 amount,\n        bool keepLock,\n        bytes memory data\n    ) internal {\n        if(amount <= 0){\n\n            // Generate custom revert data\n            bytes memory _revertData = abi.encodeWithSelector(\n                bytes4(keccak256(\"ErrorTransferDepotLocked_V2(string,uint256,address,address,address,uint256,uint256,bool,bytes)\")),\n                \"Amount must be greater than zero\",\n                lockedFor,\n                from,\n                to,\n                tokenContractAddress,\n                tokenId,\n                amount,\n                keepLock,\n                data\n            );\n\n            assembly {\n                let size := mload(_revertData)\n                revert(add(_revertData,0x20), size)\n            }\n        }\n\n        uint256 balanceOfUser = _getBalanceLocked_V1(\n            from,\n            tokenContractAddress,\n            tokenId,\n            lockedFor\n        );\n\n        if(balanceOfUser < amount) {\n\n            // Generate custom revert data\n            bytes memory _revertData = abi.encodeWithSelector(\n                bytes4(keccak256(\"ErrorTransferDepotLocked_V2(string,uint256,address,address,address,uint256,uint256,uint256,bool,bytes)\")),\n                \"Amount too low\",\n                lockedFor,\n                from,\n                to,\n                tokenContractAddress,\n                tokenId,\n                amount,\n                balanceOfUser,\n                keepLock,\n                data\n            );\n\n            assembly {\n                let size := mload(_revertData)\n                revert(add(_revertData,0x20), size)\n            }\n        }\n\n        // remove from locked storage and add to available storage\n        _subDepotLocked_V1(\n            from,\n            tokenContractAddress,\n            tokenId,\n            amount,\n            lockedFor\n        );\n        _addDepot_V1(to, tokenContractAddress, tokenId, amount);\n\n        if(keepLock)\n        {\n            _lockDeposit_V2(to, tokenContractAddress, tokenId, amount, lockedFor);\n        }\n    }\n\n    /// @notice internal transfer depot\n    /// @param from address of owner\n    /// @param to address of receiver\n    /// @param tokenContractAddress address of token contract\n    /// @param tokenId uint256 id of token\n    /// @param amount uint256 number of token\n    /// @param data bytes additional data for transfer\n    function _transferDepot_V2(\n        address from,\n        address to,\n        address tokenContractAddress,\n        uint256 tokenId,\n        uint256 amount,\n        bytes memory data\n    ) internal {\n\n        if(amount <= 0){\n\n            // Generate custom revert data\n            bytes memory _revertData = abi.encodeWithSelector(\n                bytes4(keccak256(\"ErrorTransferDepot_V2(string,address,address,address,uint256,uint256,bytes)\")),\n                \"Amount must be greater than zero\",\n                from,\n                to,\n                tokenContractAddress,\n                tokenId,\n                amount,\n                data\n            );\n\n            assembly {\n                let size := mload(_revertData)\n                revert(add(_revertData,0x20), size)\n            }\n        }\n\n        uint256 balanceOfUser = _getBalance_V1(\n            from,\n            tokenContractAddress,\n            tokenId\n        );\n\n        if(\n            balanceOfUser < amount\n        ) {\n\n            // Generate custom revert data\n            bytes memory _revertData = abi.encodeWithSelector(\n                bytes4(keccak256(\"ErrorTransferDepot_V2(string,address,address,address,uint256,uint256,uint256,bytes)\")),\n                \"Amount too low\",\n                from,\n                to,\n                tokenContractAddress,\n                tokenId,\n                amount,\n                balanceOfUser,\n                data\n            );\n\n            assembly {\n                let size := mload(_revertData)\n                revert(add(_revertData,0x20), size)\n            }\n        }\n\n        // remove from locked storage and add to available storage\n        _subDepot_V1(\n            from,\n            tokenContractAddress,\n            tokenId,\n            amount\n        );\n        _addDepot_V1(to, tokenContractAddress, tokenId, amount);\n    }\n\n    /// @notice public Lock part of deposit to a called smart contract, for internal use in same proxy\n    /// @param user address\n    /// @param tokenContractAddress address : ERC1155 smart contract\n    /// @param tokenId uint256 : tokenId of ERC1155\n    /// @param amount uint256 amount to lock\n    /// @param lockedFor uint256 lockedId\n    function internalLockDeposit_V2(\n        address user,\n        address tokenContractAddress,\n        uint256 tokenId,\n        uint256 amount,\n        uint256 lockedFor\n    ) public {\n        _lockDeposit_V2(user, tokenContractAddress, tokenId, amount, lockedFor);\n    }\n\n    /// @notice public Unlock part of deposit to a called smart contract, for internal use in same proxy\n    /// @param user address\n    /// @param tokenContractAddress address : ERC1155 smart contract\n    /// @param tokenId uint256 : tokenId of ERC1155\n    /// @param amount uint256 amount to lock\n    /// @param lockedFor uint256 lockedId\n    function internalUnLockDeposit_V2(\n        address user,\n        address tokenContractAddress,\n        uint256 tokenId,\n        uint256 amount,\n        uint256 lockedFor\n    ) public {\n        _unlockDeposit_V2(user, tokenContractAddress, tokenId, amount, lockedFor);\n    }\n\n    /// @notice public transfer depot locked, for internal use in same proxy\n    /// @param lockedFor uin256 identity of locked requested\n    /// @param from address of owner\n    /// @param to address of receiver\n    /// @param tokenContractAddress address of token contract\n    /// @param tokenId uint256 id of token\n    /// @param amount uint256 number of token\n    /// @param keepLock bool , true if the transfer want to keep tocken locked\n    /// @param data bytes additional data for transfer\n    function internalTransferDepotLocked_V2(\n        uint256 lockedFor,\n        address from,\n        address to,\n        address tokenContractAddress,\n        uint256 tokenId,\n        uint256 amount,\n        bool keepLock,\n        bytes memory data\n    ) public {\n        _transferDepotLocked_V2(\n            lockedFor,\n            from,\n            to,\n            tokenContractAddress,\n            tokenId,\n            amount,\n            keepLock,\n            data\n        );\n\n        emit LogTransferDepotLocked_V2(\n            lockedFor,\n            from,\n            to,\n            tokenContractAddress,\n            tokenId,\n            amount,\n            keepLock,\n            data\n        );\n    }\n\n    /// @notice public transfer depot, for internal use in same proxy\n    /// @param from address of owner\n    /// @param to address of receiver\n    /// @param tokenContractAddress address of token contract\n    /// @param tokenId uint256 id of token\n    /// @param amount uint256 number of token\n    /// @param data bytes additional data for transfer\n    function internalTransferDepot_V2(\n        address from,\n        address to,\n        address tokenContractAddress,\n        uint256 tokenId,\n        uint256 amount,\n        bytes memory data\n    ) public {\n        _transferDepot_V2(\n            from,\n            to,\n            tokenContractAddress,\n            tokenId,\n            amount,\n            data\n        );\n\n\n        emit LogTransferDepot_V2(\n            from,\n            to,\n            tokenContractAddress,\n            tokenId,\n            amount,\n            data\n        );\n    }\n}",
  "sourcePath": "/home/mike/domraider/4x-sas/bc-auction-sc/contracts/auctionityNetwork/AuctionityTreasurer_V2.sol",
  "compiler": {
    "name": "solc",
    "version": "0.5.4+commit.9549d8ff.Emscripten.clang"
  },
  "schemaVersion": "3.0.2",
  "updatedAt": "2019-09-20T07:24:53.402Z",
  "devdoc": {
    "methods": {
      "_withdrawal_V1(address,address,uint256,uint256)": {
        "params": {
          "_amount": "uint256",
          "_tokenContractAddress": "address : ERC1155 smart contract",
          "_tokenId": "uint256 : tokenId of ERC1155",
          "_user": "address"
        }
      },
      "delegatedLockDeposit_V1(address,uint256,uint256,uint256,address)": {
        "params": {
          "_amount": "uint256",
          "_auctionId": "uint256",
          "_refundUser": "address",
          "_tokenContractAddress": "address",
          "_tokenId": "uint256"
        },
        "return": "bool _isPaused"
      },
      "delegatedSendGetOracle_V1()": {
        "return": "address _oracle"
      },
      "delegatedSendGetPaused_V1()": {
        "return": "bool _isPaused"
      },
      "delegatedSendIsContractOwner_V1()": {
        "return": "_isContractOwner"
      },
      "endorse(uint256,address)": {
        "details": "msg.sender : smart contract of parent smart contract",
        "params": {
          "_amount": "uint256 amount to endorse",
          "_user": "address"
        },
        "return": "_success"
      },
      "getAuctionityChainId_V1()": {
        "return": "auctionity network id"
      },
      "getBalanceERC1155_V1(address,address,uint256)": {
        "params": {
          "_tokenContractAddress": "address : ERC1155 smart contract",
          "_tokenId": "uint256 : tokenId of ERC1155",
          "_user": "address"
        },
        "return": "_balanceOf uint256 balance of user"
      },
      "getBalanceERC20_V1(address,address)": {
        "params": {
          "_tokenContractAddress": "address : ERC20 smart contract",
          "_user": "address"
        },
        "return": "_balanceOf uint256 balance of user"
      },
      "getBalanceERC721_V1(address,address,uint256)": {
        "params": {
          "_tokenContractAddress": "address : ERC721 smart contract",
          "_tokenId": "uint256 : tokenId of ERC721",
          "_user": "address"
        },
        "return": "_balanceOf uint256 balance of user (unique ERC721 amount)"
      },
      "getBalanceEth_V1(address)": {
        "params": {
          "_user": "address"
        },
        "return": "_balanceOf uint256 balance of user"
      },
      "getBalanceLockedERC1155_V1(address,address,uint256,uint256)": {
        "params": {
          "_lockedFor": "uin256 : id to lock for",
          "_tokenContractAddress": "address : ERC1155 smart contract",
          "_tokenId": "uint256 : tokenId of ERC1155",
          "_user": "address"
        },
        "return": "_balanceOf uint256"
      },
      "getBalanceLockedERC20_V1(address,address,uint256)": {
        "params": {
          "_lockedFor": "uin256 : id to lock for",
          "_tokenContractAddress": "address : ERC20 smart contract",
          "_user": "address"
        },
        "return": "_balanceOf uint256"
      },
      "getBalanceLockedERC721_V1(address,address,uint256,uint256)": {
        "params": {
          "_lockedFor": "uin256 : id to lock for",
          "_tokenContractAddress": "address : ERC721 smart contract",
          "_tokenId": "uint256 : tokenId of ERC721",
          "_user": "address"
        },
        "return": "_balanceOf uint256"
      },
      "getBalanceLockedEth_V1(address,uint256)": {
        "params": {
          "_lockedFor": "uin256 : id to lock for",
          "_user": "address"
        },
        "return": "_balanceOf uint256"
      },
      "getDelegate_V1(bytes4)": {
        "params": {
          "_selector": "byte4"
        },
        "return": "_contractDelegate address"
      },
      "getDepotEthLockedAmountForUser_V1(address)": {
        "params": {
          "_user": "address"
        },
        "return": "_totalAmountLocked uint256"
      },
      "getDepotEthLockedCountForUser_V1(address)": {
        "params": {
          "_user": "address"
        },
        "return": "_depotEthLockCount uint16"
      },
      "getDepotEthLockedDataForUserByIndex_V1(address,uint256)": {
        "params": {
          "_index": "uint256",
          "_user": "address"
        },
        "return": "_lockedFor uint256, _amountLocked uint256"
      },
      "getEthereumChainId_V1()": {
        "return": "ethereum network id"
      },
      "getUserWithdrawalVoucherLength_V1(address)": {
        "params": {
          "_user": "address"
        },
        "return": "_numberOfWithdrawalVoucher"
      },
      "getWithdrawalVoucherAtIndex_V1(address,uint16)": {
        "params": {
          "_index": "uint16",
          "_user": "address"
        },
        "return": "voucher bytes"
      },
      "getWithdrawalVoucherIndex_V1(address,bytes32)": {
        "params": {
          "_user": "address",
          "_voucherHash": "bytes32"
        },
        "return": "_index"
      },
      "internalLockDeposit_V2(address,address,uint256,uint256,uint256)": {
        "params": {
          "amount": "uint256 amount to lock",
          "lockedFor": "uint256 lockedId",
          "tokenContractAddress": "address : ERC1155 smart contract",
          "tokenId": "uint256 : tokenId of ERC1155",
          "user": "address"
        }
      },
      "internalTransferDepotLocked_V2(uint256,address,address,address,uint256,uint256,bool,bytes)": {
        "params": {
          "amount": "uint256 number of token",
          "data": "bytes additional data for transfer",
          "from": "address of owner",
          "keepLock": "bool , true if the transfer want to keep tocken locked",
          "lockedFor": "uin256 identity of locked requested",
          "to": "address of receiver",
          "tokenContractAddress": "address of token contract",
          "tokenId": "uint256 id of token"
        }
      },
      "internalTransferDepot_V2(address,address,address,uint256,uint256,bytes)": {
        "params": {
          "amount": "uint256 number of token",
          "data": "bytes additional data for transfer",
          "from": "address of owner",
          "to": "address of receiver",
          "tokenContractAddress": "address of token contract",
          "tokenId": "uint256 id of token"
        }
      },
      "internalUnLockDeposit_V2(address,address,uint256,uint256,uint256)": {
        "params": {
          "amount": "uint256 amount to lock",
          "lockedFor": "uint256 lockedId",
          "tokenContractAddress": "address : ERC1155 smart contract",
          "tokenId": "uint256 : tokenId of ERC1155",
          "user": "address"
        }
      },
      "lockDeposit(uint256,address)": {
        "details": "tx.origin : origin user call parent smart contractmsg.sender : smart contract of parent smart contract",
        "params": {
          "_amount": "uint256 amount to lock",
          "_refundUser": "address : refund previews locked fo same lockId : uint256(msg.sender)"
        },
        "return": "_success"
      },
      "lockDepositERC1155_V1(address,uint256,uint256,uint256)": {
        "params": {
          "_amount": "uint256 : amount to lock",
          "_lockedFor": "uin256 : id to lock for",
          "_tokenContractAddress": "address : ERC1155 smart contract",
          "_tokenId": "uint256 : tokenId of ERC1155"
        },
        "return": "_success bool"
      },
      "lockDepositERC20_V1(address,uint256,uint256)": {
        "params": {
          "_amount": "uint256 : amount to lock",
          "_lockedFor": "uin256 : id to lock for",
          "_tokenContractAddress": "address : ERC20 smart contract"
        },
        "return": "_success bool"
      },
      "lockDepositERC721_V1(address,uint256,uint256)": {
        "params": {
          "_lockedFor": "uin256 : id to lock for",
          "_tokenContractAddress": "address : ERC721 smart contract",
          "_tokenId": "uint256 : tokenId of ERC721"
        },
        "return": "_success bool"
      },
      "lockDepositEth_V1(uint256,uint256)": {
        "params": {
          "_amount": "uint256 : amount to lock",
          "_lockedFor": "uin256 : id to lock for"
        },
        "return": "_success bool"
      },
      "receiveDepotERC1155_V1(address,address,uint256,uint256,bytes32)": {
        "details": "Receive deposit of ERC1155 from livenet through oracle",
        "params": {
          "_amount": "uint256",
          "_tokenContractAddress": "address : ERC1155 smart contract",
          "_tokenId": "uint256 : tokenId of ERC1155",
          "_transactionHashDeposit": "bytes32 : hash of transaction from livenet, for anti replay",
          "_user": "address"
        },
        "return": "bool"
      },
      "receiveDepotERC20_V1(address,address,uint256,bytes32)": {
        "details": "Receive deposit of ERC20 from livenet through oracle",
        "params": {
          "_amount": "uint256",
          "_tokenContractAddress": "address : ERC20 smart contract",
          "_transactionHashDeposit": "bytes32 : hash of transaction from livenet, for anti replay",
          "_user": "address"
        },
        "return": "bool"
      },
      "receiveDepotERC721_V1(address,address,uint256,bytes32)": {
        "details": "Receive deposit of ERC721 from livenet through oracle",
        "params": {
          "_tokenContractAddress": "address : ERC721 smart contract",
          "_tokenId": "uint256 : tokenId of ERC721",
          "_transactionHashDeposit": "bytes32 : hash of transaction from livenet, for anti replay",
          "_user": "address"
        },
        "return": "bool"
      },
      "receiveDepotEth_V1(address,uint256,bytes32)": {
        "details": "Receive deposit of eth from livenet through oracle",
        "params": {
          "_amount": "uint256",
          "_transactionHashDeposit": "bytes32 : hash of transaction from livenet, for anti replay",
          "_user": "address"
        },
        "return": "bool"
      },
      "receiveRewardDepotERC1155_V1(address,address,uint256,uint256,bytes32)": {
        "details": "Receive reward deposit of ERC1155 from livenet through oracle",
        "params": {
          "_amount": "uint256",
          "_tokenContractAddress": "address : ERC1155 smart contract",
          "_tokenId": "uint256 : tokenId of ERC1155",
          "_transactionHashDeposit": "bytes32 : hash of transaction from livenet, history only",
          "_user": "address"
        },
        "return": "bool"
      },
      "receiveRewardDepotERC20_V1(address,address,uint256,bytes32)": {
        "details": "Receive reward deposit of ERC20 from livenet through oracle",
        "params": {
          "_amount": "uint256",
          "_tokenContractAddress": "address : ERC20 smart contract",
          "_transactionHashDeposit": "bytes32 : hash of transaction from livenet, history only",
          "_user": "address"
        },
        "return": "bool"
      },
      "receiveRewardDepotEth_V1(address,uint256,bytes32)": {
        "details": "Receive reward deposit of eth from livenet through oracle",
        "params": {
          "_amount": "uint256",
          "_transactionHashDeposit": "bytes32 : hash of transaction from livenet, for history only",
          "_user": "address"
        },
        "return": "bool"
      },
      "removeWithdrawalVoucher_V1(address,bytes32)": {
        "details": "oracle only",
        "params": {
          "_user": "address",
          "_voucherHash": "bytes32"
        }
      },
      "setAuctionityChainId_V1(uint8)": {
        "params": {
          "_auctionityChainId": "uint8 : auctionity network id"
        }
      },
      "setEthereumChainId_V1(uint8)": {
        "params": {
          "_ethereumChainId": "uint8 : ethereum network id"
        }
      },
      "setWithdrawalVoucher_V1(address,bytes,bytes)": {
        "params": {
          "_depositContractAddress": "address",
          "_oracleRSV": "bytes",
          "_signedRawTxWithdrawal": "bytes"
        }
      },
      "transferERC1155_V2(address,address,uint256,uint256)": {
        "params": {
          "_amount": "uint256",
          "_to": "address of receiver",
          "_tokenContractAddress": "address : ERC1155 smart contract",
          "_tokenId": "uint256 : tokenId of ERC1155"
        }
      },
      "withdrawalERC1155_V1(address,address,uint256,uint256)": {
        "params": {
          "_amount": "uint256",
          "_tokenContractAddress": "address : ERC1155 smart contract",
          "_tokenId": "uint256 : tokenId of ERC1155",
          "_user": "address"
        }
      },
      "withdrawalERC1155_V2(address,uint256,uint256)": {
        "params": {
          "_amount": "uint256",
          "_tokenContractAddress": "address : ERC1155 smart contract",
          "_tokenId": "uint256 : tokenId of ERC1155"
        }
      },
      "withdrawalERC20_V1(address,uint256)": {
        "params": {
          "_amount": "uint256",
          "_tokenContractAddress": "address : ERC20 smart contract"
        }
      },
      "withdrawalERC721_V1(address,address,uint256)": {
        "params": {
          "_tokenContractAddress": "address : ERC721 smart contract",
          "_tokenId": "uint256 : tokenId of ERC721",
          "_user": "address"
        }
      },
      "withdrawalEth_V1(uint256)": {
        "params": {
          "_amount": "uint256"
        }
      }
    }
  },
  "userdoc": {
    "methods": {
      "_withdrawal_V1(address,address,uint256,uint256)": {
        "notice": "internal withdrawal"
      },
      "delegatedLockDeposit_V1(address,uint256,uint256,uint256,address)": {
        "notice": "delegate lockDeposit_V1"
      },
      "delegatedSendGetOracle_V1()": {
        "notice": "delegate getOracle_V1"
      },
      "delegatedSendGetPaused_V1()": {
        "notice": "delegate getPaused_V1"
      },
      "delegatedSendIsContractOwner_V1()": {
        "notice": "delegate IsContractOwner_V1"
      },
      "endorse(uint256,address)": {
        "notice": "for previous compatibility : endorse locked deposit to a called smart contract"
      },
      "getAuctionityChainId_V1()": {
        "notice": "getter of auctionity network id"
      },
      "getBalanceERC1155_V1(address,address,uint256)": {
        "notice": "internal get balance ERC1155 for a user"
      },
      "getBalanceERC20_V1(address,address)": {
        "notice": "get balance ERC20 for a user"
      },
      "getBalanceERC721_V1(address,address,uint256)": {
        "notice": "get balance ERC721 for a user"
      },
      "getBalanceEth_V1(address)": {
        "notice": "get balance Eth for a user"
      },
      "getBalanceLockedERC1155_V1(address,address,uint256,uint256)": {
        "notice": "get locked balance ERC1155"
      },
      "getBalanceLockedERC20_V1(address,address,uint256)": {
        "notice": "get locked balance ERC20"
      },
      "getBalanceLockedERC721_V1(address,address,uint256,uint256)": {
        "notice": "get locked balance ERC721"
      },
      "getBalanceLockedEth_V1(address,uint256)": {
        "notice": "get locked balance Eth"
      },
      "getDelegate_V1(bytes4)": {
        "notice": "get delegated addrss from a selector"
      },
      "getDepotEthLockedAmountForUser_V1(address)": {
        "notice": "get total locked amount for a user"
      },
      "getDepotEthLockedCountForUser_V1(address)": {
        "notice": "get number of depot eth lock for a user"
      },
      "getDepotEthLockedDataForUserByIndex_V1(address,uint256)": {
        "notice": "get lockedFor and amount of depot eth lock for a user and index"
      },
      "getEthereumChainId_V1()": {
        "notice": "getter of ethereum network id"
      },
      "getUserWithdrawalVoucherLength_V1(address)": {
        "notice": "Get number of withdrawal voucher list for a user"
      },
      "getWithdrawalVoucherAtIndex_V1(address,uint16)": {
        "notice": "Get Withdrawal voucher for a user at index"
      },
      "getWithdrawalVoucherIndex_V1(address,bytes32)": {
        "notice": "Get index fro withdrawalVoucherList from user and voucher hash"
      },
      "internalLockDeposit_V2(address,address,uint256,uint256,uint256)": {
        "notice": "public Lock part of deposit to a called smart contract, for internal use in same proxy"
      },
      "internalTransferDepotLocked_V2(uint256,address,address,address,uint256,uint256,bool,bytes)": {
        "notice": "public transfer depot locked, for internal use in same proxy"
      },
      "internalTransferDepot_V2(address,address,address,uint256,uint256,bytes)": {
        "notice": "public transfer depot, for internal use in same proxy"
      },
      "internalUnLockDeposit_V2(address,address,uint256,uint256,uint256)": {
        "notice": "public Unlock part of deposit to a called smart contract, for internal use in same proxy"
      },
      "lockDeposit(uint256,address)": {
        "notice": "For previous compatiblity : Lock part of deposit to a called smart contract"
      },
      "lockDepositERC1155_V1(address,uint256,uint256,uint256)": {
        "notice": "internal lock of depot ERC1155"
      },
      "lockDepositERC20_V1(address,uint256,uint256)": {
        "notice": "lock of depot ERC20"
      },
      "lockDepositERC721_V1(address,uint256,uint256)": {
        "notice": "internal lock of depot ERC721"
      },
      "lockDepositEth_V1(uint256,uint256)": {
        "notice": "lock of depot Eth"
      },
      "receiveDepotERC1155_V1(address,address,uint256,uint256,bytes32)": {
        "notice": "receive DepotErc1155"
      },
      "receiveDepotERC20_V1(address,address,uint256,bytes32)": {
        "notice": "receive DepotErc20"
      },
      "receiveDepotERC721_V1(address,address,uint256,bytes32)": {
        "notice": "receive DepotErc721"
      },
      "receiveDepotEth_V1(address,uint256,bytes32)": {
        "notice": "receive DepotEth"
      },
      "receiveRewardDepotERC1155_V1(address,address,uint256,uint256,bytes32)": {
        "notice": "receive reward DepotErc1155"
      },
      "receiveRewardDepotERC20_V1(address,address,uint256,bytes32)": {
        "notice": "receive reward DepotErc20"
      },
      "receiveRewardDepotEth_V1(address,uint256,bytes32)": {
        "notice": "receive reward DepotEth"
      },
      "removeWithdrawalVoucher_V1(address,bytes32)": {
        "notice": "Remove withdrawal voucher by replacing the index of withdrawal voucher by the last index in withdrawal voucher list"
      },
      "setAuctionityChainId_V1(uint8)": {
        "notice": "setter of auctionity network id"
      },
      "setEthereumChainId_V1(uint8)": {
        "notice": "setter of ethereum network id"
      },
      "setWithdrawalVoucher_V1(address,bytes,bytes)": {
        "notice": "set withdrawalVoucher through oracle"
      },
      "transferERC1155_V2(address,address,uint256,uint256)": {
        "notice": "transfer ERC1155"
      },
      "withdrawalERC1155_V1(address,address,uint256,uint256)": {
        "notice": "withdrawal ERC1155"
      },
      "withdrawalERC1155_V2(address,uint256,uint256)": {
        "notice": "withdrawal ERC1155"
      },
      "withdrawalERC20_V1(address,uint256)": {
        "notice": "withdrawal ERC20"
      },
      "withdrawalERC721_V1(address,address,uint256)": {
        "notice": "withdrawal ERC721"
      },
      "withdrawalEth_V1(uint256)": {
        "notice": "withdrawal depot eth"
      }
    }
  }
}