{
  "contractName": "AuctionityInternalDelegates_V1",
  "abi": [
    {
      "constant": true,
      "inputs": [],
      "name": "ethereumChainId",
      "outputs": [
        {
          "name": "",
          "type": "uint8"
        }
      ],
      "payable": false,
      "stateMutability": "view",
      "type": "function"
    },
    {
      "constant": false,
      "inputs": [],
      "name": "delegatedSendGetOracle_V1",
      "outputs": [
        {
          "name": "_oracle",
          "type": "address"
        }
      ],
      "payable": false,
      "stateMutability": "nonpayable",
      "type": "function"
    },
    {
      "constant": false,
      "inputs": [
        {
          "name": "_tokenContractAddress",
          "type": "address"
        },
        {
          "name": "_tokenId",
          "type": "uint256"
        },
        {
          "name": "_amount",
          "type": "uint256"
        },
        {
          "name": "_auctionId",
          "type": "uint256"
        },
        {
          "name": "_refundUser",
          "type": "address"
        }
      ],
      "name": "delegatedLockDeposit_V1",
      "outputs": [
        {
          "name": "_success",
          "type": "bool"
        }
      ],
      "payable": false,
      "stateMutability": "nonpayable",
      "type": "function"
    },
    {
      "constant": true,
      "inputs": [],
      "name": "paused",
      "outputs": [
        {
          "name": "",
          "type": "bool"
        }
      ],
      "payable": false,
      "stateMutability": "view",
      "type": "function"
    },
    {
      "constant": true,
      "inputs": [],
      "name": "oracle",
      "outputs": [
        {
          "name": "",
          "type": "address"
        }
      ],
      "payable": false,
      "stateMutability": "view",
      "type": "function"
    },
    {
      "constant": true,
      "inputs": [],
      "name": "auctionityChainId",
      "outputs": [
        {
          "name": "",
          "type": "uint8"
        }
      ],
      "payable": false,
      "stateMutability": "view",
      "type": "function"
    },
    {
      "constant": true,
      "inputs": [],
      "name": "proxyFallbackContract",
      "outputs": [
        {
          "name": "",
          "type": "address"
        }
      ],
      "payable": false,
      "stateMutability": "view",
      "type": "function"
    },
    {
      "constant": true,
      "inputs": [],
      "name": "contractOwner",
      "outputs": [
        {
          "name": "",
          "type": "address"
        }
      ],
      "payable": false,
      "stateMutability": "view",
      "type": "function"
    },
    {
      "constant": true,
      "inputs": [
        {
          "name": "_selector",
          "type": "bytes4"
        }
      ],
      "name": "getDelegate_V1",
      "outputs": [
        {
          "name": "_contractDelegate",
          "type": "address"
        }
      ],
      "payable": false,
      "stateMutability": "view",
      "type": "function"
    },
    {
      "constant": false,
      "inputs": [],
      "name": "delegatedSendGetPaused_V1",
      "outputs": [
        {
          "name": "_isPaused",
          "type": "bool"
        }
      ],
      "payable": false,
      "stateMutability": "nonpayable",
      "type": "function"
    },
    {
      "constant": false,
      "inputs": [],
      "name": "delegatedSendIsContractOwner_V1",
      "outputs": [
        {
          "name": "_isContractOwner",
          "type": "bool"
        }
      ],
      "payable": false,
      "stateMutability": "nonpayable",
      "type": "function"
    },
    {
      "anonymous": false,
      "inputs": [
        {
          "indexed": false,
          "name": "selector",
          "type": "bytes4"
        },
        {
          "indexed": false,
          "name": "delegate",
          "type": "address"
        }
      ],
      "name": "LogInternalSelectorAdded_V1",
      "type": "event"
    },
    {
      "anonymous": false,
      "inputs": [
        {
          "indexed": false,
          "name": "selector",
          "type": "bytes4"
        },
        {
          "indexed": false,
          "name": "delegate",
          "type": "address"
        },
        {
          "indexed": false,
          "name": "previousDelegate",
          "type": "address"
        }
      ],
      "name": "LogInternalSelectorUpdated_V1",
      "type": "event"
    },
    {
      "anonymous": false,
      "inputs": [
        {
          "indexed": false,
          "name": "selector",
          "type": "bytes4"
        },
        {
          "indexed": false,
          "name": "delegate",
          "type": "address"
        }
      ],
      "name": "LogInternalSelectorRemoved_V1",
      "type": "event"
    },
    {
      "constant": false,
      "inputs": [
        {
          "name": "_selector",
          "type": "bytes4"
        }
      ],
      "name": "getInternalDelegate_V1",
      "outputs": [
        {
          "name": "_contractDelegate",
          "type": "address"
        }
      ],
      "payable": false,
      "stateMutability": "nonpayable",
      "type": "function"
    },
    {
      "constant": false,
      "inputs": [
        {
          "name": "_delegate",
          "type": "address"
        },
        {
          "name": "_selectors",
          "type": "bytes4[]"
        }
      ],
      "name": "addInternalSelectors_V1",
      "outputs": [],
      "payable": false,
      "stateMutability": "nonpayable",
      "type": "function"
    },
    {
      "constant": false,
      "inputs": [
        {
          "name": "_delegate",
          "type": "address"
        },
        {
          "name": "_selectors",
          "type": "bytes4[]"
        }
      ],
      "name": "updateInternalSelectors_V1",
      "outputs": [],
      "payable": false,
      "stateMutability": "nonpayable",
      "type": "function"
    },
    {
      "constant": false,
      "inputs": [
        {
          "name": "_selectors",
          "type": "bytes4[]"
        }
      ],
      "name": "removeInternalSelectors_V1",
      "outputs": [],
      "payable": false,
      "stateMutability": "nonpayable",
      "type": "function"
    }
  ],
  "bytecode": "0x608060405234801561001057600080fd5b50610e00806100206000396000f3fe608060405234801561001057600080fd5b5060043610610112576000357c0100000000000000000000000000000000000000000000000000000000900480637dc0d1d0116100b4578063ce606ee011610083578063ce606ee014610401578063e0237f9114610409578063f0791d0614610430578063fde2ab801461043857610112565b80637dc0d1d0146103365780638c4cbf9a1461033e578063a0709812146103f1578063c6afc736146103f957610112565b806356eed26e116100f057806356eed26e146101805780635b5c49e3146101d65780635c975abb1461028b5780637704527f1461029357610112565b806301890df614610117578063444d0e8c146101355780635470fb4714610178575b600080fd5b61011f610440565b6040805160ff9092168252519081900360200190f35b61015c6004803603602081101561014b57600080fd5b5035600160e060020a031916610462565b60408051600160a060020a039092168252519081900360200190f35b61015c610499565b6101c2600480360360a081101561019657600080fd5b50600160a060020a03813581169160208101359160408201359160608101359160809091013516610512565b604080519115158252519081900360200190f35b610289600480360360408110156101ec57600080fd5b600160a060020a03823516919081019060408101602082013564010000000081111561021757600080fd5b82018360208201111561022957600080fd5b8035906020019184602083028401116401000000008311171561024b57600080fd5b9190808060200260200160405190810160405280939291908181526020018383602002808284376000920191909152509295506105ad945050505050565b005b6101c2610780565b610289600480360360208110156102a957600080fd5b8101906020810181356401000000008111156102c457600080fd5b8201836020820111156102d657600080fd5b803590602001918460208302840111640100000000831117156102f857600080fd5b9190808060200260200160405190810160405280939291908181526020018383602002808284376000920191909152509295506107a1945050505050565b61015c610905565b6102896004803603604081101561035457600080fd5b600160a060020a03823516919081019060408101602082013564010000000081111561037f57600080fd5b82018360208201111561039157600080fd5b803590602001918460208302840111640100000000831117156103b357600080fd5b919080806020026020016040519081016040528093929190818152602001838360200280828437600092019190915250929550610914945050505050565b61011f610adb565b61015c610afe565b61015c610b0d565b61015c6004803603602081101561041f57600080fd5b5035600160e060020a031916610b1c565b6101c2610b41565b6101c2610bb1565b6003547501000000000000000000000000000000000000000000900460ff1681565b604080517f70726f78792e696e7465726e616c2e64656c6567617465732e763100000000008152905190819003601b019020015490565b604080517f64656c656761746564526563656976654765744f7261636c655f5631282900008152815190819003601e0181206004825260248201909252602081018051600160e060020a0316600160e060020a031990931692909217909152600090819081906105099082610c04565b50519250505090565b600080600061059f6040518080610d756037913960408051918290036037018220600160a060020a03808e166024850152604484018d9052606484018c9052608484018b9052891660a4808501919091528251808503909101815260c4909301909152602082018051600160e060020a0316600160e060020a031990921691909117905290506000610c04565b505198975050505050505050565b6105b5610bb1565b15156105f55760405160e560020a62461bcd028152600401808060200182810382526026815260200180610d086026913960400191505060405180910390fd5b600160a060020a0382161515610655576040805160e560020a62461bcd02815260206004820152601f60248201527f64656c65676174652063616e2774206265207a65726f20616464726573732e00604482015290519081900360640190fd5b60005b815181101561077b576000600160a060020a031661068c838381518110151561067d57fe5b90602001906020020151610462565b600160a060020a0316146106ea576040805160e560020a62461bcd02815260206004820152600d60248201527f46756e63496420636c6173682e00000000000000000000000000000000000000604482015290519081900360640190fd5b61070b82828151811015156106fb57fe5b9060200190602002015184610ca5565b7f148657b501159178a4f696d983095841dc6894f58c8ec36655c9ebc479d17fb7828281518110151561073a57fe5b602090810290910181015160408051600160e060020a03199092168252600160a060020a0387169282019290925281519081900390910190a1600101610658565b505050565b60035474010000000000000000000000000000000000000000900460ff1681565b6107a9610bb1565b15156107e95760405160e560020a62461bcd028152600401808060200182810382526029815260200180610cdf6029913960400191505060405180910390fd5b60005b8151811015610901576000610808838381518110151561067d57fe5b9050600160a060020a038116151561086a576040805160e560020a62461bcd02815260206004820152601860248201527f53656c6563746f7220646f6573206e6f742065786973742e0000000000000000604482015290519081900360640190fd5b8251819061088f9085908590811061087e57fe5b906020019060200201516000610ca5565b7f833c10519a116e200c108bcfa4ec1a26557f5f0ddd0ef39a18523aec8db747aa84848151811015156108be57fe5b602090810290910181015160408051600160e060020a03199092168252600160a060020a0385169282019290925281519081900390910190a150506001016107ec565b5050565b600354600160a060020a031681565b61091c610bb1565b151561095c5760405160e560020a62461bcd028152600401808060200182810382526029815260200180610dac6029913960400191505060405180910390fd5b600160a060020a03821615156109bc576040805160e560020a62461bcd02815260206004820152601f60248201527f64656c65676174652063616e2774206265207a65726f20616464726573732e00604482015290519081900360640190fd5b60005b815181101561077b5760006109db838381518110151561067d57fe5b9050600160a060020a0381161515610a3d576040805160e560020a62461bcd02815260206004820152601860248201527f53656c6563746f7220646f6573206e6f742065786973742e0000000000000000604482015290519081900360640190fd5b82518190610a6190859085908110610a5157fe5b9060200190602002015186610ca5565b7f1969873003bf126e68f6bf5de31c557c4e7c1c935c5eaf03b61ab12ad420d2358484815181101515610a9057fe5b602090810290910181015160408051600160e060020a03199092168252600160a060020a03808a16938301939093529184168183015290519081900360600190a150506001016109bf565b600354760100000000000000000000000000000000000000000000900460ff1681565b600154600160a060020a031681565b600254600160a060020a031681565b600160e060020a031916600090815260208190526040902054600160a060020a031690565b604080517f64656c656761746564526563656976654765745061757365645f5631282900008152815190819003601e0181206004825260248201909252602081018051600160e060020a0316600160e060020a031990931692909217909152600090819081906105099082610c04565b60008060006105096040518080610d516024913960408051918290036024908101832060048452908301909152602082018051600160e060020a0316600160e060020a0319909216919091179052905060005b6020820151600090819081610c1882610b1c565b9050600160a060020a0381161515610c2d5750835b600160a060020a0381161515610c775760405160e560020a62461bcd028152600401808060200182810382526023815260200180610d2e6023913960400191505060405180910390fd5b600080875160208901845af43d93506040519450836000863e801515610c9b578385fd5b5050509250929050565b604080517f70726f78792e696e7465726e616c2e64656c6567617465732e763100000000008152905190819003601b019020919091015556fe72656d6f7665496e7465726e616c53656c6563746f72735f563120436f6e7472616374206f776e6572616464496e7465726e616c53656c6563746f72735f563120436f6e7472616374206f776e657241756374696f6e6974792066756e6374696f6e20646f6573206e6f742065786973742e64656c656761746564526563656976654973436f6e74726163744f776e65725f563128296c6f636b4465706f7369745f563128616464726573732c75696e743235362c75696e743235362c75696e743235362c6164647265737329757064617465496e7465726e616c53656c6563746f72735f563120436f6e7472616374206f776e6572a165627a7a7230582023fbef8d38b379b3591b090591daa7573363e6ff1462e939319b1e7aa2f3cf3f0029",
  "source": "pragma solidity ^0.5.4;\n\nimport \"./AuctionityLibrary_V1.sol\";\n\ncontract AuctionityInternalDelegates_V1 is AuctionityLibrary_V1 {\n    /// bytes4 => address\n    bytes32 private constant INTERNAL_DELEGATES_V1_SLOT = keccak256(\"proxy.internal.delegates.v1\");\n\n    event LogInternalSelectorAdded_V1(bytes4 selector, address delegate);\n    event LogInternalSelectorUpdated_V1(\n        bytes4 selector,\n        address delegate,\n        address previousDelegate\n    );\n    event LogInternalSelectorRemoved_V1(bytes4 selector, address delegate);\n\n    function getInternalDelegate_V1(bytes4 _selector) public returns (address _contractDelegate) {\n\n        bytes32 _internalDelegate = INTERNAL_DELEGATES_V1_SLOT;\n        bytes32 slot;\n        assembly {\n            slot := add(_internalDelegate, _selector)\n            _contractDelegate := sload(slot)\n        }\n    }\n\n    function _setInternalDelegate_V1(bytes4 _selector, address _contractDelegate) internal {\n        bytes32 _internalDelegate = INTERNAL_DELEGATES_V1_SLOT;\n\n        assembly {\n            let slot := add(_internalDelegate, _selector)\n            sstore(slot, _contractDelegate)\n        }\n    }\n\n    function _callInternalDelegated_V1(\n        bytes memory _calldata,\n        address _fallback\n    ) internal returns (\n        uint returnPtr,\n        uint returnSize\n    ) {\n\n        // Extract selector from provided data.\n        uint32 _selector;\n\n        assembly {\n            _selector := mload(add(_calldata, 4))\n        }\n\n        // Get internal delegate address.\n        address _delegate = getInternalDelegate_V1(bytes4(_selector));\n\n        // Use fallback if not delegate.\n        if (_delegate == address(0)) {\n            _delegate = _fallback;\n        }\n\n\n        require(_delegate != address(0), \"Internal function doesn't exist\");\n\n        // Delegate call, propagate result or revert.\n        assembly {\n            let result := delegatecall(\n                gas,\n                _delegate,\n                add(_calldata, 0x20),\n                mload(_calldata),\n                0,\n                0\n            )\n\n            returnSize := returndatasize\n            returnPtr := mload(0x40)\n            returndatacopy(returnPtr, 0, returnSize)\n\n            if eq(result, 0) {\n                revert(returnPtr, returnSize)\n            }\n        }\n\n        return (returnPtr, returnSize);\n    }\n\n    function addInternalSelectors_V1(address _delegate, bytes4[] memory _selectors)\n        public\n    {\n        require(\n            delegatedSendIsContractOwner_V1(),\n            \"addInternalSelectors_V1 Contract owner\"\n        );\n\n        require(_delegate != address(0), \"delegate can't be zero address.\");\n\n        for (uint selectorIndex; selectorIndex < _selectors.length; selectorIndex++) {\n            require(\n                //delegates[_selectors[selectorIndex]] == address(0),\n                getInternalDelegate_V1(_selectors[selectorIndex]) == address(0),\n                \"FuncId clash.\"\n            );\n            //delegates[_selectors[selectorIndex]] = _delegate;\n            _setInternalDelegate_V1(_selectors[selectorIndex], _delegate);\n            emit LogInternalSelectorAdded_V1(_selectors[selectorIndex], _delegate);\n        }\n    }\n\n    function updateInternalSelectors_V1(address _delegate, bytes4[] memory _selectors)\n        public\n    {\n        require(\n            delegatedSendIsContractOwner_V1(),\n            \"updateInternalSelectors_V1 Contract owner\"\n        );\n\n        require(_delegate != address(0), \"delegate can't be zero address.\");\n\n        for (uint selectorIndex; selectorIndex < _selectors.length; selectorIndex++) {\n            address delegate = getInternalDelegate_V1(_selectors[selectorIndex]);\n            require(\n                //delegates[_selectors[selectorIndex]] != address(0),\n                delegate != address(0),\n                \"Selector does not exist.\"\n            );\n            //address previousDelegate = delegates[_selectors[selectorIndex]];\n            address previousDelegate = delegate;\n            //delegates[_selectors[selectorIndex]] = _delegate;\n            _setInternalDelegate_V1(_selectors[selectorIndex], _delegate);\n            emit LogInternalSelectorUpdated_V1(\n                _selectors[selectorIndex],\n                _delegate,\n                previousDelegate\n            );\n        }\n    }\n\n    function removeInternalSelectors_V1(bytes4[] memory _selectors) public {\n        require(\n            delegatedSendIsContractOwner_V1(),\n            \"removeInternalSelectors_V1 Contract owner\"\n        );\n\n        for (uint selectorIndex; selectorIndex < _selectors.length; selectorIndex++) {\n            address delegate = getInternalDelegate_V1(_selectors[selectorIndex]);\n            require(\n                //delegates[_selectors[selectorIndex]] != address(0),\n                delegate != address(0),\n                \"Selector does not exist.\"\n            );\n            //address previousDelegate = delegates[_selectors[selectorIndex]];\n            address previousDelegate = delegate;\n            //delete delegates[_selectors[selectorIndex]];\n            _setInternalDelegate_V1(_selectors[selectorIndex], address(0));\n            emit LogInternalSelectorRemoved_V1(\n                _selectors[selectorIndex],\n                previousDelegate\n            );\n\n        }\n    }\n}",
  "sourcePath": "/home/mike/domraider/4x-sas/bc-auction-sc/contracts/CommonContract/AuctionityInternalDelegates_V1.sol",
  "compiler": {
    "name": "solc",
    "version": "0.5.4+commit.9549d8ff.Emscripten.clang"
  },
  "schemaVersion": "3.0.2",
  "updatedAt": "2019-09-20T07:24:53.333Z",
  "devdoc": {
    "methods": {
      "delegatedLockDeposit_V1(address,uint256,uint256,uint256,address)": {
        "params": {
          "_amount": "uint256",
          "_auctionId": "uint256",
          "_refundUser": "address",
          "_tokenContractAddress": "address",
          "_tokenId": "uint256"
        },
        "return": "bool _isPaused"
      },
      "delegatedSendGetOracle_V1()": {
        "return": "address _oracle"
      },
      "delegatedSendGetPaused_V1()": {
        "return": "bool _isPaused"
      },
      "delegatedSendIsContractOwner_V1()": {
        "return": "_isContractOwner"
      },
      "getDelegate_V1(bytes4)": {
        "params": {
          "_selector": "byte4"
        },
        "return": "_contractDelegate address"
      }
    }
  },
  "userdoc": {
    "methods": {
      "delegatedLockDeposit_V1(address,uint256,uint256,uint256,address)": {
        "notice": "delegate lockDeposit_V1"
      },
      "delegatedSendGetOracle_V1()": {
        "notice": "delegate getOracle_V1"
      },
      "delegatedSendGetPaused_V1()": {
        "notice": "delegate getPaused_V1"
      },
      "delegatedSendIsContractOwner_V1()": {
        "notice": "delegate IsContractOwner_V1"
      },
      "getDelegate_V1(bytes4)": {
        "notice": "get delegated addrss from a selector"
      }
    }
  }
}