{
  "contractName": "AuctionityProxy_V1",
  "abi": [
    {
      "constant": true,
      "inputs": [],
      "name": "ethereumChainId",
      "outputs": [
        {
          "name": "",
          "type": "uint8"
        }
      ],
      "payable": false,
      "stateMutability": "view",
      "type": "function"
    },
    {
      "constant": false,
      "inputs": [],
      "name": "delegatedSendGetOracle_V1",
      "outputs": [
        {
          "name": "_oracle",
          "type": "address"
        }
      ],
      "payable": false,
      "stateMutability": "nonpayable",
      "type": "function"
    },
    {
      "constant": false,
      "inputs": [
        {
          "name": "_tokenContractAddress",
          "type": "address"
        },
        {
          "name": "_tokenId",
          "type": "uint256"
        },
        {
          "name": "_amount",
          "type": "uint256"
        },
        {
          "name": "_auctionId",
          "type": "uint256"
        },
        {
          "name": "_refundUser",
          "type": "address"
        }
      ],
      "name": "delegatedLockDeposit_V1",
      "outputs": [
        {
          "name": "_success",
          "type": "bool"
        }
      ],
      "payable": false,
      "stateMutability": "nonpayable",
      "type": "function"
    },
    {
      "constant": true,
      "inputs": [],
      "name": "paused",
      "outputs": [
        {
          "name": "",
          "type": "bool"
        }
      ],
      "payable": false,
      "stateMutability": "view",
      "type": "function"
    },
    {
      "constant": true,
      "inputs": [],
      "name": "oracle",
      "outputs": [
        {
          "name": "",
          "type": "address"
        }
      ],
      "payable": false,
      "stateMutability": "view",
      "type": "function"
    },
    {
      "constant": true,
      "inputs": [],
      "name": "auctionityChainId",
      "outputs": [
        {
          "name": "",
          "type": "uint8"
        }
      ],
      "payable": false,
      "stateMutability": "view",
      "type": "function"
    },
    {
      "constant": true,
      "inputs": [],
      "name": "proxyFallbackContract",
      "outputs": [
        {
          "name": "",
          "type": "address"
        }
      ],
      "payable": false,
      "stateMutability": "view",
      "type": "function"
    },
    {
      "constant": true,
      "inputs": [],
      "name": "contractOwner",
      "outputs": [
        {
          "name": "",
          "type": "address"
        }
      ],
      "payable": false,
      "stateMutability": "view",
      "type": "function"
    },
    {
      "constant": true,
      "inputs": [
        {
          "name": "_selector",
          "type": "bytes4"
        }
      ],
      "name": "getDelegate_V1",
      "outputs": [
        {
          "name": "_contractDelegate",
          "type": "address"
        }
      ],
      "payable": false,
      "stateMutability": "view",
      "type": "function"
    },
    {
      "constant": false,
      "inputs": [],
      "name": "delegatedSendGetPaused_V1",
      "outputs": [
        {
          "name": "_isPaused",
          "type": "bool"
        }
      ],
      "payable": false,
      "stateMutability": "nonpayable",
      "type": "function"
    },
    {
      "constant": false,
      "inputs": [],
      "name": "delegatedSendIsContractOwner_V1",
      "outputs": [
        {
          "name": "_isContractOwner",
          "type": "bool"
        }
      ],
      "payable": false,
      "stateMutability": "nonpayable",
      "type": "function"
    },
    {
      "inputs": [
        {
          "name": "_auctionityProxyUpdate",
          "type": "address"
        },
        {
          "name": "_ownable",
          "type": "address"
        }
      ],
      "payable": false,
      "stateMutability": "nonpayable",
      "type": "constructor"
    },
    {
      "payable": true,
      "stateMutability": "payable",
      "type": "fallback"
    }
  ],
  "bytecode": "0x608060405234801561001057600080fd5b506040516040806107a08339810180604052604081101561003057600080fd5b50805160209091015160405160609080602561077b823960408051918290036025018220600160a060020a0380881660248501528616604480850191909152825180850390910181526064909301909152602082018051600160e060020a03167fffffffff00000000000000000000000000000000000000000000000000000000909216919091178152815191935060009250829190865af43d806000843e8115156100da578083fd5b505050505061068d806100ee6000396000f3fe6080604052600436106100b9576000357c010000000000000000000000000000000000000000000000000000000090048063a070981211610081578063a0709812146101fb578063c6afc73614610210578063ce606ee014610225578063e0237f911461023a578063f0791d061461026e578063fde2ab8014610283576100b9565b806301890df6146101125780635470fb471461013d57806356eed26e1461016e5780635c975abb146101d15780637dc0d1d0146101e6575b6000806101096000368080601f01602080910402602001604051908101604052809392919081815260200183838082843760009201919091525050600154600160a060020a031691506102989050565b90925090508082f35b34801561011e57600080fd5b50610127610350565b6040805160ff9092168252519081900360200190f35b34801561014957600080fd5b50610152610372565b60408051600160a060020a039092168252519081900360200190f35b34801561017a57600080fd5b506101bd600480360360a081101561019157600080fd5b50600160a060020a038135811691602081013591604082013591606081013591608090910135166103eb565b604080519115158252519081900360200190f35b3480156101dd57600080fd5b506101bd610486565b3480156101f257600080fd5b506101526104a7565b34801561020757600080fd5b506101276104b6565b34801561021c57600080fd5b506101526104d9565b34801561023157600080fd5b506101526104e8565b34801561024657600080fd5b506101526004803603602081101561025d57600080fd5b5035600160e060020a0319166104f7565b34801561027a57600080fd5b506101bd61051c565b34801561028f57600080fd5b506101bd61058c565b60208201516000908190816102ac826104f7565b9050600160a060020a03811615156102c15750835b600160a060020a0381161515610322576040517f08c379a00000000000000000000000000000000000000000000000000000000081526004018080602001828103825260238152602001806105e46023913960400191505060405180910390fd5b600080875160208901845af43d93506040519450836000863e801515610346578385fd5b5050509250929050565b6003547501000000000000000000000000000000000000000000900460ff1681565b604080517f64656c656761746564526563656976654765744f7261636c655f5631282900008152815190819003601e0181206004825260248201909252602081018051600160e060020a0316600160e060020a031990931692909217909152600090819081906103e29082610298565b50519250505090565b6000806000610478604051808061062b6037913960408051918290036037018220600160a060020a03808e166024850152604484018d9052606484018c9052608484018b9052891660a4808501919091528251808503909101815260c4909301909152602082018051600160e060020a0316600160e060020a031990921691909117905290506000610298565b505198975050505050505050565b60035474010000000000000000000000000000000000000000900460ff1681565b600354600160a060020a031681565b600354760100000000000000000000000000000000000000000000900460ff1681565b600154600160a060020a031681565b600254600160a060020a031681565b600160e060020a031916600090815260208190526040902054600160a060020a031690565b604080517f64656c656761746564526563656976654765745061757365645f5631282900008152815190819003601e0181206004825260248201909252602081018051600160e060020a0316600160e060020a031990931692909217909152600090819081906103e29082610298565b60008060006103e260405180806106076024913960408051918290036024908101832060048452908301909152602082018051600160e060020a0316600160e060020a03199092169190911790529050600061029856fe41756374696f6e6974792066756e6374696f6e20646f6573206e6f742065786973742e64656c656761746564526563656976654973436f6e74726163744f776e65725f563128296c6f636b4465706f7369745f563128616464726573732c75696e743235362c75696e743235362c75696e743235362c6164647265737329a165627a7a723058202fdae7c96292989e58c319adf0dc192dee6d700a2858dcd8fb304e60be50afc10029696e697450726f7879436f6e74726163745f563128616464726573732c6164647265737329",
  "source": "pragma solidity ^0.5.4;\n\nimport \"./AuctionityLibrary_V1.sol\";\n\n/**\n * @title Proxy\n * @dev Gives the possibility to delegate any call to a foreign implementation.\n */\ncontract AuctionityProxy_V1 is AuctionityLibrary_V1 {\n    /// @notice init contract by calling `_auctionityProxyUpdate.initProxyContract_V1(auctionityProxyUpdate,_ownable)`,\n    /// adding the first delegate functions and set _ownable as the contract responsible for\n    /// contract ownership.\n    /// @param _auctionityProxyUpdate address : contract proxyUpdate\n    /// @param _ownable address : contract ownable\n    constructor(address _auctionityProxyUpdate, address _ownable) public {\n        /// @dev encode initProxyContract_V1 selector with parametters\n        bytes memory _calldata = abi.encodeWithSelector(\n            bytes4(keccak256(\"initProxyContract_V1(address,address)\")),\n            _auctionityProxyUpdate,\n            _ownable\n        );\n\n        /// @dev deletatecall initProxyContract_V1 to _auctionityProxyUpdate\n        /// @return return the delegtecall return, or the eventual revert\n        assembly {\n            let result := delegatecall(\n                gas,\n                _auctionityProxyUpdate,\n                add(_calldata, 0x20),\n                mload(_calldata),\n                0,\n                0\n            )\n            let size := returndatasize\n            returndatacopy(_calldata, 0, size)\n            if eq(result, 0) {\n                revert(_calldata, size)\n            }\n        }\n    }\n\n    // @notice Fallback payable proxy function\n    /// @return return the _callDelegated_V1 return, or the eventual revert\n    function() external payable {\n        uint returnPtr;\n        uint returnSize;\n\n        (returnPtr, returnSize) = _callDelegated_V1(\n            msg.data,\n            proxyFallbackContract\n        );\n\n        assembly {\n            return(returnPtr, returnSize)\n        }\n\n    }\n}\n",
  "sourcePath": "/home/mike/domraider/4x-sas/bc-auction-sc/contracts/CommonContract/AuctionityProxy_V1.sol",
  "compiler": {
    "name": "solc",
    "version": "0.5.4+commit.9549d8ff.Emscripten.clang"
  },
  "schemaVersion": "3.0.2",
  "updatedAt": "2019-09-20T07:24:53.344Z",
  "devdoc": {
    "details": "Gives the possibility to delegate any call to a foreign implementation.",
    "methods": {
      "constructor": {
        "params": {
          "_auctionityProxyUpdate": "address : contract proxyUpdate",
          "_ownable": "address : contract ownable"
        }
      },
      "delegatedLockDeposit_V1(address,uint256,uint256,uint256,address)": {
        "params": {
          "_amount": "uint256",
          "_auctionId": "uint256",
          "_refundUser": "address",
          "_tokenContractAddress": "address",
          "_tokenId": "uint256"
        },
        "return": "bool _isPaused"
      },
      "delegatedSendGetOracle_V1()": {
        "return": "address _oracle"
      },
      "delegatedSendGetPaused_V1()": {
        "return": "bool _isPaused"
      },
      "delegatedSendIsContractOwner_V1()": {
        "return": "_isContractOwner"
      },
      "getDelegate_V1(bytes4)": {
        "params": {
          "_selector": "byte4"
        },
        "return": "_contractDelegate address"
      }
    },
    "title": "Proxy"
  },
  "userdoc": {
    "methods": {
      "constructor": "init contract by calling `_auctionityProxyUpdate.initProxyContract_V1(auctionityProxyUpdate,_ownable)`, adding the first delegate functions and set _ownable as the contract responsible for contract ownership.",
      "delegatedLockDeposit_V1(address,uint256,uint256,uint256,address)": {
        "notice": "delegate lockDeposit_V1"
      },
      "delegatedSendGetOracle_V1()": {
        "notice": "delegate getOracle_V1"
      },
      "delegatedSendGetPaused_V1()": {
        "notice": "delegate getPaused_V1"
      },
      "delegatedSendIsContractOwner_V1()": {
        "notice": "delegate IsContractOwner_V1"
      },
      "getDelegate_V1(bytes4)": {
        "notice": "get delegated addrss from a selector"
      }
    }
  }
}