{
  "contractName": "AuctionityDeposit_V2",
  "abi": [
    {
      "constant": true,
      "inputs": [],
      "name": "ethereumChainId",
      "outputs": [
        {
          "name": "",
          "type": "uint8"
        }
      ],
      "payable": false,
      "stateMutability": "view",
      "type": "function"
    },
    {
      "constant": true,
      "inputs": [
        {
          "name": "",
          "type": "bytes32"
        }
      ],
      "name": "auctionEndVoucherSubmitted",
      "outputs": [
        {
          "name": "",
          "type": "bool"
        }
      ],
      "payable": false,
      "stateMutability": "view",
      "type": "function"
    },
    {
      "constant": false,
      "inputs": [
        {
          "name": "_auctionityChainId",
          "type": "uint8"
        }
      ],
      "name": "setAuctionityChainId_V1",
      "outputs": [],
      "payable": false,
      "stateMutability": "nonpayable",
      "type": "function"
    },
    {
      "constant": false,
      "inputs": [
        {
          "name": "_ethereumChainId",
          "type": "uint8"
        }
      ],
      "name": "setEthereumChainId_V1",
      "outputs": [],
      "payable": false,
      "stateMutability": "nonpayable",
      "type": "function"
    },
    {
      "constant": false,
      "inputs": [],
      "name": "delegatedSendGetOracle_V1",
      "outputs": [
        {
          "name": "_oracle",
          "type": "address"
        }
      ],
      "payable": false,
      "stateMutability": "nonpayable",
      "type": "function"
    },
    {
      "constant": false,
      "inputs": [
        {
          "name": "_tokenContractAddress",
          "type": "address"
        },
        {
          "name": "_tokenId",
          "type": "uint256"
        },
        {
          "name": "_amount",
          "type": "uint256"
        },
        {
          "name": "_auctionId",
          "type": "uint256"
        },
        {
          "name": "_refundUser",
          "type": "address"
        }
      ],
      "name": "delegatedLockDeposit_V1",
      "outputs": [
        {
          "name": "_success",
          "type": "bool"
        }
      ],
      "payable": false,
      "stateMutability": "nonpayable",
      "type": "function"
    },
    {
      "constant": true,
      "inputs": [],
      "name": "paused",
      "outputs": [
        {
          "name": "",
          "type": "bool"
        }
      ],
      "payable": false,
      "stateMutability": "view",
      "type": "function"
    },
    {
      "constant": true,
      "inputs": [
        {
          "name": "",
          "type": "uint256"
        }
      ],
      "name": "auctionEndVoucherList",
      "outputs": [
        {
          "name": "",
          "type": "bytes32"
        }
      ],
      "payable": false,
      "stateMutability": "view",
      "type": "function"
    },
    {
      "constant": true,
      "inputs": [],
      "name": "oracle",
      "outputs": [
        {
          "name": "",
          "type": "address"
        }
      ],
      "payable": false,
      "stateMutability": "view",
      "type": "function"
    },
    {
      "constant": true,
      "inputs": [
        {
          "name": "",
          "type": "bytes32"
        }
      ],
      "name": "withdrawalVoucherSubmitted",
      "outputs": [
        {
          "name": "",
          "type": "bool"
        }
      ],
      "payable": false,
      "stateMutability": "view",
      "type": "function"
    },
    {
      "constant": true,
      "inputs": [],
      "name": "auctionityChainId",
      "outputs": [
        {
          "name": "",
          "type": "uint8"
        }
      ],
      "payable": false,
      "stateMutability": "view",
      "type": "function"
    },
    {
      "constant": true,
      "inputs": [
        {
          "name": "",
          "type": "uint256"
        }
      ],
      "name": "withdrawalVoucherList",
      "outputs": [
        {
          "name": "",
          "type": "bytes32"
        }
      ],
      "payable": false,
      "stateMutability": "view",
      "type": "function"
    },
    {
      "constant": true,
      "inputs": [],
      "name": "proxyFallbackContract",
      "outputs": [
        {
          "name": "",
          "type": "address"
        }
      ],
      "payable": false,
      "stateMutability": "view",
      "type": "function"
    },
    {
      "constant": true,
      "inputs": [],
      "name": "contractOwner",
      "outputs": [
        {
          "name": "",
          "type": "address"
        }
      ],
      "payable": false,
      "stateMutability": "view",
      "type": "function"
    },
    {
      "constant": true,
      "inputs": [],
      "name": "getEthereumChainId_V1",
      "outputs": [
        {
          "name": "",
          "type": "uint8"
        }
      ],
      "payable": false,
      "stateMutability": "view",
      "type": "function"
    },
    {
      "constant": true,
      "inputs": [
        {
          "name": "_selector",
          "type": "bytes4"
        }
      ],
      "name": "getDelegate_V1",
      "outputs": [
        {
          "name": "_contractDelegate",
          "type": "address"
        }
      ],
      "payable": false,
      "stateMutability": "view",
      "type": "function"
    },
    {
      "constant": true,
      "inputs": [],
      "name": "getAuctionityChainId_V1",
      "outputs": [
        {
          "name": "",
          "type": "uint8"
        }
      ],
      "payable": false,
      "stateMutability": "view",
      "type": "function"
    },
    {
      "constant": false,
      "inputs": [],
      "name": "delegatedSendGetPaused_V1",
      "outputs": [
        {
          "name": "_isPaused",
          "type": "bool"
        }
      ],
      "payable": false,
      "stateMutability": "nonpayable",
      "type": "function"
    },
    {
      "constant": false,
      "inputs": [],
      "name": "delegatedSendIsContractOwner_V1",
      "outputs": [
        {
          "name": "_isContractOwner",
          "type": "bool"
        }
      ],
      "payable": false,
      "stateMutability": "nonpayable",
      "type": "function"
    },
    {
      "payable": true,
      "stateMutability": "payable",
      "type": "fallback"
    },
    {
      "anonymous": false,
      "inputs": [
        {
          "indexed": false,
          "name": "user",
          "type": "address"
        },
        {
          "indexed": false,
          "name": "tokenContractAddress",
          "type": "address"
        },
        {
          "indexed": false,
          "name": "tokenId",
          "type": "uint256"
        },
        {
          "indexed": false,
          "name": "amount",
          "type": "uint256"
        }
      ],
      "name": "LogAddDepot_V2",
      "type": "event"
    },
    {
      "anonymous": false,
      "inputs": [
        {
          "indexed": false,
          "name": "user",
          "type": "address"
        },
        {
          "indexed": false,
          "name": "tokenContractAddress",
          "type": "address"
        },
        {
          "indexed": false,
          "name": "tokenId",
          "type": "uint256[]"
        },
        {
          "indexed": false,
          "name": "amount",
          "type": "uint256[]"
        }
      ],
      "name": "LogAddBatchDepot_V2",
      "type": "event"
    },
    {
      "anonymous": false,
      "inputs": [
        {
          "indexed": false,
          "name": "withdrawalVoucherHash",
          "type": "bytes32"
        }
      ],
      "name": "LogWithdrawalVoucherSubmitted_V2",
      "type": "event"
    },
    {
      "constant": false,
      "inputs": [
        {
          "name": "_user",
          "type": "address"
        },
        {
          "name": "_previousOwner",
          "type": "address"
        },
        {
          "name": "_tokenId",
          "type": "uint256"
        },
        {
          "name": "_data",
          "type": "bytes"
        }
      ],
      "name": "onERC721Received",
      "outputs": [
        {
          "name": "",
          "type": "bytes4"
        }
      ],
      "payable": false,
      "stateMutability": "nonpayable",
      "type": "function"
    },
    {
      "constant": false,
      "inputs": [
        {
          "name": "_operator",
          "type": "address"
        },
        {
          "name": "_from",
          "type": "address"
        },
        {
          "name": "_id",
          "type": "uint256"
        },
        {
          "name": "_value",
          "type": "uint256"
        },
        {
          "name": "_data",
          "type": "bytes"
        }
      ],
      "name": "onERC1155Received",
      "outputs": [
        {
          "name": "",
          "type": "bytes4"
        }
      ],
      "payable": false,
      "stateMutability": "nonpayable",
      "type": "function"
    },
    {
      "constant": false,
      "inputs": [
        {
          "name": "_operator",
          "type": "address"
        },
        {
          "name": "_from",
          "type": "address"
        },
        {
          "name": "_ids",
          "type": "uint256[]"
        },
        {
          "name": "_values",
          "type": "uint256[]"
        },
        {
          "name": "_data",
          "type": "bytes"
        }
      ],
      "name": "onERC1155BatchReceived",
      "outputs": [
        {
          "name": "",
          "type": "bytes4"
        }
      ],
      "payable": false,
      "stateMutability": "nonpayable",
      "type": "function"
    },
    {
      "constant": false,
      "inputs": [
        {
          "name": "_tokenContractAddress",
          "type": "address"
        },
        {
          "name": "_withdrawalVoucherHash",
          "type": "bytes32"
        },
        {
          "name": "_transferCalldata",
          "type": "bytes"
        },
        {
          "name": "_oracleSignature",
          "type": "bytes"
        }
      ],
      "name": "withdrawalVoucherERC1155_V2",
      "outputs": [],
      "payable": false,
      "stateMutability": "nonpayable",
      "type": "function"
    }
  ],
  "bytecode": "0x608060405234801561001057600080fd5b5061156c806100206000396000f3fe60806040526004361061015d576000357c010000000000000000000000000000000000000000000000000000000090048063966d7148116100d3578063ce7825521161008c578063ce78255214610811578063e0237f9114610826578063ecc799b71461085a578063f0791d061461086f578063f23a6e6114610884578063fde2ab80146109265761015d565b8063966d714814610644578063a07098121461066e578063abdecf5214610683578063bc197c81146106ad578063c6afc736146107e7578063ce606ee0146107fc5761015d565b80634323fb12116101255780634323fb12146105315780635470fb471461055e57806356eed26e1461058f5780635c975abb146105de578063745ffb41146105f35780637dc0d1d01461062f5761015d565b806301890df61461025a5780630b77a7151461028557806312bc14bf146102c3578063150b7a02146104145780632cf19b6e14610504575b61016561093b565b156101ba576040805160e560020a62461bcd02815260206004820152601560248201527f436f6e747261637420697320696e207061757365640000000000000000000000604482015290519081900360640190fd5b60003411610212576040805160e560020a62461bcd02815260206004820152601c60248201527f56616c7565206d7573742062652067726561746572207468616e203000000000604482015290519081900360640190fd5b604080513381526000602082018190528183015234606082015290517fa99c90b368a7874c901fe86e09c9e53a2d8151e7815c8a402b1ead76ed3613d99181900360800190a1005b34801561026657600080fd5b5061026f6109b4565b6040805160ff9092168252519081900360200190f35b34801561029157600080fd5b506102af600480360360208110156102a857600080fd5b50356109d6565b604080519115158252519081900360200190f35b3480156102cf57600080fd5b50610412600480360360808110156102e657600080fd5b600160a060020a038235169160208101359181019060608101604082013564010000000081111561031657600080fd5b82018360208201111561032857600080fd5b8035906020019184600183028401116401000000008311171561034a57600080fd5b91908080601f016020809104026020016040519081016040528093929190818152602001838380828437600092019190915250929594936020810193503591505064010000000081111561039d57600080fd5b8201836020820111156103af57600080fd5b803590602001918460018302840111640100000000831117156103d157600080fd5b91908080601f0160208091040260200160405190810160405280939291908181526020018383808284376000920191909152509295506109eb945050505050565b005b34801561042057600080fd5b506104e76004803603608081101561043757600080fd5b600160a060020a0382358116926020810135909116916040820135919081019060808101606082013564010000000081111561047257600080fd5b82018360208201111561048457600080fd5b803590602001918460018302840111640100000000831117156104a657600080fd5b91908080601f016020809104026020016040519081016040528093929190818152602001838380828437600092019190915250929550610c1f945050505050565b60408051600160e060020a03199092168252519081900360200190f35b34801561051057600080fd5b506104126004803603602081101561052757600080fd5b503560ff16610c9c565b34801561053d57600080fd5b506104126004803603602081101561055457600080fd5b503560ff16610d2a565b34801561056a57600080fd5b50610573610db6565b60408051600160a060020a039092168252519081900360200190f35b34801561059b57600080fd5b506102af600480360360a08110156105b257600080fd5b50600160a060020a03813581169160208101359160408201359160608101359160809091013516610e26565b3480156105ea57600080fd5b506102af610ec1565b3480156105ff57600080fd5b5061061d6004803603602081101561061657600080fd5b5035610ee2565b60408051918252519081900360200190f35b34801561063b57600080fd5b50610573610f01565b34801561065057600080fd5b506102af6004803603602081101561066757600080fd5b5035610f10565b34801561067a57600080fd5b5061026f610f25565b34801561068f57600080fd5b5061061d600480360360208110156106a657600080fd5b5035610f48565b3480156106b957600080fd5b506104e7600480360360a08110156106d057600080fd5b600160a060020a03823581169260208101359091169181019060608101604082013564010000000081111561070457600080fd5b82018360208201111561071657600080fd5b8035906020019184602083028401116401000000008311171561073857600080fd5b91939092909160208101903564010000000081111561075657600080fd5b82018360208201111561076857600080fd5b8035906020019184602083028401116401000000008311171561078a57600080fd5b9193909290916020810190356401000000008111156107a857600080fd5b8201836020820111156107ba57600080fd5b803590602001918460018302840111640100000000831117156107dc57600080fd5b509092509050610f56565b3480156107f357600080fd5b5061057361104d565b34801561080857600080fd5b5061057361105c565b34801561081d57600080fd5b5061026f61106b565b34801561083257600080fd5b506105736004803603602081101561084957600080fd5b5035600160e060020a03191661108d565b34801561086657600080fd5b5061026f6110b2565b34801561087b57600080fd5b506102af61093b565b34801561089057600080fd5b506104e7600480360360a08110156108a757600080fd5b600160a060020a03823581169260208101359091169160408201359160608101359181019060a0810160808201356401000000008111156108e757600080fd5b8201836020820111156108f957600080fd5b8035906020019184600183028401116401000000008311171561091b57600080fd5b5090925090506110d5565b34801561093257600080fd5b506102af611154565b604080517f64656c656761746564526563656976654765745061757365645f5631282900008152815190819003601e0181206004825260248201909252602081018051600160e060020a0316600160e060020a031990931692909217909152600090819081906109ab90826111a7565b50519250505090565b6003547501000000000000000000000000000000000000000000900460ff1681565b60086020526000908152604090205460ff1681565b6109f361093b565b15610a48576040805160e560020a62461bcd02815260206004820152601560248201527f436f6e747261637420697320696e207061757365640000000000000000000000604482015290519081900360640190fd5b60008381526006602052604090205460ff16151560011415610a9e5760405160e560020a62461bcd0281526004018080602001828103825260268152602001806114ed6026913960400191505060405180910390fd5b6005805460018181019092557f036b6384b5eca791c62761152d0c79bb0604c104a5fb6f4eb0703f3154bb3db0018490556000848152600660209081526040909120805460ff1916909217909155825190830120610b00908590859084611248565b1515610b405760405160e560020a62461bcd02815260040180806020018281038252602e815260200180611513602e913960400191505060405180910390fd5b600160a060020a03841615610b5e57610b598483611315565b610be6565b60148201516034830151604051600160a060020a0383169082156108fc029083906000818181858888f193505050501515610be3576040805160e560020a62461bcd02815260206004820152601160248201527f43616e27742073656e6420657468657273000000000000000000000000000000604482015290519081900360640190fd5b50505b6040805184815290517fa9901f1c527863f563f527e8921928a7a2524bdd592a18c45b58a553b1a1c4e49181900360200190a150505050565b60408051600160a060020a03861681523360208201528082018490526001606082015290516000917fa99c90b368a7874c901fe86e09c9e53a2d8151e7815c8a402b1ead76ed3613d9919081900360800190a1507f150b7a0200000000000000000000000000000000000000000000000000000000949350505050565b610ca4611154565b1515610ce45760405160e560020a62461bcd02815260040180806020018281038252602381526020018061144c6023913960400191505060405180910390fd5b6003805460ff9092167601000000000000000000000000000000000000000000000276ff0000000000000000000000000000000000000000000019909216919091179055565b610d32611154565b1515610d725760405160e560020a62461bcd02815260040180806020018281038252602181526020018061142b6021913960400191505060405180910390fd5b6003805460ff90921675010000000000000000000000000000000000000000000275ff00000000000000000000000000000000000000000019909216919091179055565b604080517f64656c656761746564526563656976654765744f7261636c655f5631282900008152815190819003601e0181206004825260248201909252602081018051600160e060020a0316600160e060020a031990931692909217909152600090819081906109ab90826111a7565b6000806000610eb360405180806114b66037913960408051918290036037018220600160a060020a03808e166024850152604484018d9052606484018c9052608484018b9052891660a4808501919091528251808503909101815260c4909301909152602082018051600160e060020a0316600160e060020a0319909216919091179052905060006111a7565b505198975050505050505050565b60035474010000000000000000000000000000000000000000900460ff1681565b6007805482908110610ef057fe5b600091825260209091200154905081565b600354600160a060020a031681565b60066020526000908152604090205460ff1681565b600354760100000000000000000000000000000000000000000000900460ff1681565b6005805482908110610ef057fe5b60007fc724381de7153abe8b3fa1bba720329c73c76315f828e9860ce61b1cae0a924f8833898989896040518087600160a060020a0316600160a060020a0316815260200186600160a060020a0316600160a060020a0316815260200180602001806020018381038352878782818152602001925060200280828437600083820152601f01601f19169091018481038352858152602090810191508690860280828437600083820152604051601f909101601f19169092018290039a509098505050505050505050a1507fbc197c810000000000000000000000000000000000000000000000000000000098975050505050505050565b600154600160a060020a031681565b600254600160a060020a031681565b6003547501000000000000000000000000000000000000000000900460ff1690565b600160e060020a031916600090815260208190526040902054600160a060020a031690565b600354760100000000000000000000000000000000000000000000900460ff1690565b60408051600160a060020a03871681523360208201528082018690526060810185905290516000917fa99c90b368a7874c901fe86e09c9e53a2d8151e7815c8a402b1ead76ed3613d9919081900360800190a1507ff23a6e61000000000000000000000000000000000000000000000000000000009695505050505050565b60008060006109ab60405180806114926024913960408051918290036024908101832060048452908301909152602082018051600160e060020a0316600160e060020a0319909216919091179052905060005b60208201516000908190816111bb8261108d565b9050600160a060020a03811615156111d05750835b600160a060020a038116151561121a5760405160e560020a62461bcd02815260040180806020018281038252602381526020018061146f6023913960400191505060405180910390fd5b600080875160208901845af43d93506040519450836000863e80151561123e578385fd5b5050509250929050565b604080516c01000000000000000000000000308102602080840191909152600160a060020a0388169091026034830152604882018690526068808301869052835180840390910181526088830184528051908201207f19457468657265756d205369676e6564204d6573736167653a0a33320000000060a884015260c4808401919091528351808403909101815260e490920190925280519101206000906112f1908383611383565b600160a060020a0316611302610db6565b600160a060020a03161495945050505050565b60008060408351602085016000875af1905080151561137e576040805160e560020a62461bcd02815260206004820152601060248201527f43616e27742073656e6420746f6b656e00000000000000000000000000000000604482015290519081900360640190fd5b505050565b818101602081810151604080840151606094850151825160008082528187018086528b905260ff7f01000000000000000000000000000000000000000000000000000000000000008404168286015296810185905260808101839052925193949193909260019260a0808301939192601f198301929081900390910190855afa158015611414573d6000803e3d6000fd5b5050604051601f1901519897505050505050505056fe736574457468657265756d436861696e496420436f6e7472616374206f776e657273657441756374696f6e697479436861696e496420436f6e7472616374206f776e657241756374696f6e6974792066756e6374696f6e20646f6573206e6f742065786973742e64656c656761746564526563656976654973436f6e74726163744f776e65725f563128296c6f636b4465706f7369745f563128616464726573732c75696e743235362c75696e743235362c75696e743235362c61646472657373295769746864726177616c20766f756368657220697320616c7265616479207375626d697465645769746864726177616c20766f756368657220696e76616c6964207369676e6174757265206f66206f7261636c65a165627a7a723058200d87a79df33401fc3171939ee850f6a1a8a91d23fae538a7b3307f493ae986890029",
  "source": "pragma solidity ^0.5.4;\n\nimport \"./AuctionityStorage1.sol\";\n\nimport \"../CommonContract/SafeMath.sol\";\nimport \"../CommonContract/AuctionityLibrary_V1.sol\";\nimport \"../CommonContract/AuctionityLibraryDecodeRawTx_V1.sol\";\n\nimport \"../CommonContract/AuctionityChainId_V1.sol\";\nimport \"../CommonContract/AuctionityOracable_V1.sol\";\nimport \"../CommonContract/AuctionityPausable_V1.sol\";\n\ncontract AuctionityDeposit_V2 is AuctionityStorage1, AuctionityLibrary_V1, AuctionityChainId_V1 {\n    using SafeMath for uint256;\n\n    // events\n    event LogAddDepot_V2(\n        address user,\n        address tokenContractAddress,\n        uint256 tokenId,\n        uint256 amount\n    );\n\n    event LogAddBatchDepot_V2(\n        address user,\n        address tokenContractAddress,\n        uint256[] tokenId,\n        uint256[] amount\n    );\n\n    event LogWithdrawalVoucherSubmitted_V2(\n        bytes32 withdrawalVoucherHash\n    );\n\n    /// @notice fallback payable function , with revert if is deactivated\n    function() external payable {\n        require(!delegatedSendGetPaused_V1(), \"Contract is in paused\");\n        require(msg.value > 0, \"Value must be greater than 0\");\n\n        emit LogAddDepot_V2(\n            msg.sender,\n            address(0),\n            0,\n            msg.value\n        );\n    }\n\n    /**\n     * @notice Handle the receipt of an NFT\n     * @dev The ERC721 smart contract calls this function on the recipient\n     * after a `safeTransfer`. This function MUST return the function selector,\n     * otherwise the caller will revert the transaction. The selector to be\n     * returned can be obtained as `this.onERC721Received.selector`. This\n     * function MAY throw to revert and reject the transfer.\n     * Note: the ERC721 contract address is always the message sender.\n     * @param _user The address which called `safeTransferFrom` function\n     * @param _previousOwner The address which previously owned the token\n     * @param _tokenId The NFT identifier which is being transferred\n     * @param _data Additional data with no specified format\n     * @return bytes4 `bytes4(keccak256(\"onERC721Received(address,address,uint256,bytes)\"))`\n     */\n    function onERC721Received(address _user, address _previousOwner, uint256 _tokenId, bytes memory _data)\n        public returns (bytes4) {\n        \n        emit LogAddDepot_V2(\n            _user,\n            msg.sender,\n            _tokenId,\n            1\n        );\n\n        return 0x150b7a02;\n\n    }\n\n\n    /**\n    @notice Handle the receipt of a single ERC1155 token type.\n    @dev An ERC1155-compliant smart contract MUST call this function on the token recipient contract, at the end of a `safeTransferFrom` after the balance has been updated.\n    This function MUST return `bytes4(keccak256(\"onERC1155Received(address,address,uint256,uint256,bytes)\"))` (i.e. 0xf23a6e61) if it accepts the transfer.\n    This function MUST revert if it rejects the transfer.\n    Return of any other value than the prescribed keccak256 generated value MUST result in the transaction being reverted by the caller.\n    @param _operator  The address which initiated the transfer (i.e. msg.sender)\n    @param _from      The address which previously owned the token\n    @param _id        The ID of the token being transferred\n    @param _value     The amount of tokens being transferred\n    @param _data      Additional data with no specified format\n    @return           `bytes4(keccak256(\"onERC1155Received(address,address,uint256,uint256,bytes)\"))`\n*/\n    function onERC1155Received(address _operator, address _from, uint256 _id, uint256 _value, bytes calldata _data) external returns(bytes4)\n    {\n\n        emit LogAddDepot_V2(\n            _from,\n            msg.sender,\n            _id,\n            _value\n        );\n\n        return 0xf23a6e61;\n    }\n\n    /**\n       @notice Handle the receipt of multiple ERC1155 token types.\n       @dev An ERC1155-compliant smart contract MUST call this function on the token recipient contract, at the end of a `safeBatchTransferFrom` after the balances have been updated.\n       This function MUST return `bytes4(keccak256(\"onERC1155BatchReceived(address,address,uint256[],uint256[],bytes)\"))` (i.e. 0xbc197c81) if it accepts the transfer(s).\n       This function MUST revert if it rejects the transfer(s).\n       Return of any other value than the prescribed keccak256 generated value MUST result in the transaction being reverted by the caller.\n       @param _operator  The address which initiated the batch transfer (i.e. msg.sender)\n       @param _from      The address which previously owned the token\n       @param _ids       An array containing ids of each token being transferred (order and length must match _values array)\n       @param _values    An array containing amounts of each token being transferred (order and length must match _ids array)\n       @param _data      Additional data with no specified format\n       @return           `bytes4(keccak256(\"onERC1155BatchReceived(address,address,uint256[],uint256[],bytes)\"))`\n   */\n    function onERC1155BatchReceived(address _operator, address _from, uint256[] calldata _ids, uint256[] calldata _values, bytes calldata _data) external returns(bytes4){\n\n        emit LogAddBatchDepot_V2(\n            _from,\n            msg.sender,\n            _ids,\n            _values\n        );\n\n        return 0xbc197c81;\n\n    }\n\n\n\n    /*\n     * @notice withdrawal voucher\n     * @param _tokenContractAddress address of token contract, address(0) if eth currency\n     * @param _withdrawalVoucherHash bytes32 : hash of withdrawal ask from AcNet\n     * @param _transferCalldata bytes : data for transfer\n     * @param _oracleSignature bytes : RSV from oracle's verification data\n     */\n    function withdrawalVoucherERC1155_V2(\n        address _tokenContractAddress,\n        bytes32 _withdrawalVoucherHash,\n        bytes memory _transferCalldata,\n        bytes memory _oracleSignature\n    ) public {\n        require(!delegatedSendGetPaused_V1(), \"Contract is in paused\");\n\n        require(\n            withdrawalVoucherSubmitted[_withdrawalVoucherHash] != true,\n            \"Withdrawal voucher is already submited\"\n        );\n\n        withdrawalVoucherList.push(_withdrawalVoucherHash);\n        withdrawalVoucherSubmitted[_withdrawalVoucherHash] = true;\n\n        require(\n            _withdrawalVoucherOracleSignatureVerification_V2(\n                _tokenContractAddress,\n                _withdrawalVoucherHash,\n                keccak256(_transferCalldata),\n                _oracleSignature\n            ),\n            \"Withdrawal voucher invalid signature of oracle\"\n        );\n\n        if (_tokenContractAddress != address(0)) {\n            // Transfer of a token managed by a contract\n            _sendCallData_V2(_tokenContractAddress,_transferCalldata);\n        } else {\n            // Transfer of ether (not managed by a contract)\n            address payable user;\n            uint256 amount;\n\n            assembly {\n                user := mload(add(_transferCalldata, 20)) // 32 - (32 - 20)\n                amount := mload(add(_transferCalldata, 52))\n            }\n\n            require(user.send(amount), \"Can't send ethers\");\n        }\n\n        emit LogWithdrawalVoucherSubmitted_V2(\n            _withdrawalVoucherHash\n        );\n    }\n\n    /* @notice internal function : send call data to a smart contract\n     * @param _tokenContractAddress address of token contract, address(0) if eth currency\n     * @param _callData bytes : data for transfer\n     */\n    function _sendCallData_V2(\n        address _tokenContractAddress,\n        bytes memory _callData\n    ) internal {\n        bool _success;\n        assembly {\n\n            // call external smart contract, return _success\n            _success := call(\n                gas,\n                _tokenContractAddress, //To addr\n                0, //No value\n                add(_callData,0x20), //Inputs are stored at location _ptr\n                mload(_callData), //Inputs _size\n                0x40, //Store output over input (saves space)\n                0\n            ) //Outputs are 32 bytes long\n\n        }\n        require(_success, \"Can't send token\");\n    }\n\n\n    /* @notice internal withdrawal voucher oracle signature verification\n     * @param _tokenContractAddress address of token contract, address(0) if eth currency\n     * @param _withdrawalVoucherHash bytes32 : hash of withdrawal ask from AcNet\n     * @param _transferCalldata bytes : data for transfer\n     * @param _oracleSignature bytes : RSV from oracle's verification data\n     * @return _success\n     */\n    function _withdrawalVoucherOracleSignatureVerification_V2(\n        address _tokenContractAddress,\n        bytes32 _withdrawalVoucherHash,\n        bytes32 _transferCalldataHash,\n        bytes memory _oracleSignature\n    ) internal returns (bool) {\n        /// @dev if oracle is the signer of this withdrawal voucher\n        return delegatedSendGetOracle_V1(\n\n        ) == AuctionityLibraryDecodeRawTx_V1.ecrecoverSigner_V1(\n            keccak256(\n                abi.encodePacked(\n                    \"\\x19Ethereum Signed Message:\\n32\",\n                    keccak256(\n                        abi.encodePacked(\n                            address(this),\n                            _tokenContractAddress,\n                            _withdrawalVoucherHash,\n                            _transferCalldataHash\n                        )\n                    )\n                )\n            ),\n            _oracleSignature,\n            0\n        );\n    }\n}\n",
  "sourcePath": "/home/mike/domraider/4x-sas/bc-auction-sc/contracts/ethereumLivenet/AuctionityDeposit_V2.sol",
  "compiler": {
    "name": "solc",
    "version": "0.5.4+commit.9549d8ff.Emscripten.clang"
  },
  "schemaVersion": "3.0.2",
  "updatedAt": "2019-09-20T07:24:53.421Z",
  "devdoc": {
    "methods": {
      "delegatedLockDeposit_V1(address,uint256,uint256,uint256,address)": {
        "params": {
          "_amount": "uint256",
          "_auctionId": "uint256",
          "_refundUser": "address",
          "_tokenContractAddress": "address",
          "_tokenId": "uint256"
        },
        "return": "bool _isPaused"
      },
      "delegatedSendGetOracle_V1()": {
        "return": "address _oracle"
      },
      "delegatedSendGetPaused_V1()": {
        "return": "bool _isPaused"
      },
      "delegatedSendIsContractOwner_V1()": {
        "return": "_isContractOwner"
      },
      "getAuctionityChainId_V1()": {
        "return": "auctionity network id"
      },
      "getDelegate_V1(bytes4)": {
        "params": {
          "_selector": "byte4"
        },
        "return": "_contractDelegate address"
      },
      "getEthereumChainId_V1()": {
        "return": "ethereum network id"
      },
      "onERC1155BatchReceived(address,address,uint256[],uint256[],bytes)": {
        "details": "An ERC1155-compliant smart contract MUST call this function on the token recipient contract, at the end of a `safeBatchTransferFrom` after the balances have been updated. This function MUST return `bytes4(keccak256(\"onERC1155BatchReceived(address,address,uint256[],uint256[],bytes)\"))` (i.e. 0xbc197c81) if it accepts the transfer(s). This function MUST revert if it rejects the transfer(s). Return of any other value than the prescribed keccak256 generated value MUST result in the transaction being reverted by the caller.",
        "params": {
          "_data": "Additional data with no specified format",
          "_from": "The address which previously owned the token",
          "_ids": "An array containing ids of each token being transferred (order and length must match _values array)",
          "_operator": "The address which initiated the batch transfer (i.e. msg.sender)",
          "_values": "An array containing amounts of each token being transferred (order and length must match _ids array)"
        },
        "return": "`bytes4(keccak256(\"onERC1155BatchReceived(address,address,uint256[],uint256[],bytes)\"))`"
      },
      "onERC1155Received(address,address,uint256,uint256,bytes)": {
        "details": "An ERC1155-compliant smart contract MUST call this function on the token recipient contract, at the end of a `safeTransferFrom` after the balance has been updated. This function MUST return `bytes4(keccak256(\"onERC1155Received(address,address,uint256,uint256,bytes)\"))` (i.e. 0xf23a6e61) if it accepts the transfer. This function MUST revert if it rejects the transfer. Return of any other value than the prescribed keccak256 generated value MUST result in the transaction being reverted by the caller.",
        "params": {
          "_data": "Additional data with no specified format",
          "_from": "The address which previously owned the token",
          "_id": "The ID of the token being transferred",
          "_operator": "The address which initiated the transfer (i.e. msg.sender)",
          "_value": "The amount of tokens being transferred"
        },
        "return": "`bytes4(keccak256(\"onERC1155Received(address,address,uint256,uint256,bytes)\"))`"
      },
      "onERC721Received(address,address,uint256,bytes)": {
        "details": "The ERC721 smart contract calls this function on the recipient after a `safeTransfer`. This function MUST return the function selector, otherwise the caller will revert the transaction. The selector to be returned can be obtained as `this.onERC721Received.selector`. This function MAY throw to revert and reject the transfer. Note: the ERC721 contract address is always the message sender.",
        "params": {
          "_data": "Additional data with no specified format",
          "_previousOwner": "The address which previously owned the token",
          "_tokenId": "The NFT identifier which is being transferred",
          "_user": "The address which called `safeTransferFrom` function"
        },
        "return": "bytes4 `bytes4(keccak256(\"onERC721Received(address,address,uint256,bytes)\"))`"
      },
      "setAuctionityChainId_V1(uint8)": {
        "params": {
          "_auctionityChainId": "uint8 : auctionity network id"
        }
      },
      "setEthereumChainId_V1(uint8)": {
        "params": {
          "_ethereumChainId": "uint8 : ethereum network id"
        }
      }
    }
  },
  "userdoc": {
    "methods": {
      "delegatedLockDeposit_V1(address,uint256,uint256,uint256,address)": {
        "notice": "delegate lockDeposit_V1"
      },
      "delegatedSendGetOracle_V1()": {
        "notice": "delegate getOracle_V1"
      },
      "delegatedSendGetPaused_V1()": {
        "notice": "delegate getPaused_V1"
      },
      "delegatedSendIsContractOwner_V1()": {
        "notice": "delegate IsContractOwner_V1"
      },
      "getAuctionityChainId_V1()": {
        "notice": "getter of auctionity network id"
      },
      "getDelegate_V1(bytes4)": {
        "notice": "get delegated addrss from a selector"
      },
      "getEthereumChainId_V1()": {
        "notice": "getter of ethereum network id"
      },
      "onERC1155BatchReceived(address,address,uint256[],uint256[],bytes)": {
        "notice": "Handle the receipt of multiple ERC1155 token types."
      },
      "onERC1155Received(address,address,uint256,uint256,bytes)": {
        "notice": "Handle the receipt of a single ERC1155 token type."
      },
      "onERC721Received(address,address,uint256,bytes)": {
        "notice": "Handle the receipt of an NFT"
      },
      "setAuctionityChainId_V1(uint8)": {
        "notice": "setter of auctionity network id"
      },
      "setEthereumChainId_V1(uint8)": {
        "notice": "setter of ethereum network id"
      }
    }
  }
}