{
  "contractName": "AuctionityOracable_V1",
  "abi": [
    {
      "constant": true,
      "inputs": [],
      "name": "ethereumChainId",
      "outputs": [
        {
          "name": "",
          "type": "uint8"
        }
      ],
      "payable": false,
      "stateMutability": "view",
      "type": "function"
    },
    {
      "constant": false,
      "inputs": [],
      "name": "delegatedSendGetOracle_V1",
      "outputs": [
        {
          "name": "_oracle",
          "type": "address"
        }
      ],
      "payable": false,
      "stateMutability": "nonpayable",
      "type": "function"
    },
    {
      "constant": false,
      "inputs": [
        {
          "name": "_tokenContractAddress",
          "type": "address"
        },
        {
          "name": "_tokenId",
          "type": "uint256"
        },
        {
          "name": "_amount",
          "type": "uint256"
        },
        {
          "name": "_auctionId",
          "type": "uint256"
        },
        {
          "name": "_refundUser",
          "type": "address"
        }
      ],
      "name": "delegatedLockDeposit_V1",
      "outputs": [
        {
          "name": "_success",
          "type": "bool"
        }
      ],
      "payable": false,
      "stateMutability": "nonpayable",
      "type": "function"
    },
    {
      "constant": true,
      "inputs": [],
      "name": "paused",
      "outputs": [
        {
          "name": "",
          "type": "bool"
        }
      ],
      "payable": false,
      "stateMutability": "view",
      "type": "function"
    },
    {
      "constant": true,
      "inputs": [],
      "name": "oracle",
      "outputs": [
        {
          "name": "",
          "type": "address"
        }
      ],
      "payable": false,
      "stateMutability": "view",
      "type": "function"
    },
    {
      "constant": true,
      "inputs": [],
      "name": "auctionityChainId",
      "outputs": [
        {
          "name": "",
          "type": "uint8"
        }
      ],
      "payable": false,
      "stateMutability": "view",
      "type": "function"
    },
    {
      "constant": true,
      "inputs": [],
      "name": "proxyFallbackContract",
      "outputs": [
        {
          "name": "",
          "type": "address"
        }
      ],
      "payable": false,
      "stateMutability": "view",
      "type": "function"
    },
    {
      "constant": true,
      "inputs": [],
      "name": "contractOwner",
      "outputs": [
        {
          "name": "",
          "type": "address"
        }
      ],
      "payable": false,
      "stateMutability": "view",
      "type": "function"
    },
    {
      "constant": true,
      "inputs": [
        {
          "name": "_selector",
          "type": "bytes4"
        }
      ],
      "name": "getDelegate_V1",
      "outputs": [
        {
          "name": "_contractDelegate",
          "type": "address"
        }
      ],
      "payable": false,
      "stateMutability": "view",
      "type": "function"
    },
    {
      "constant": false,
      "inputs": [],
      "name": "delegatedSendGetPaused_V1",
      "outputs": [
        {
          "name": "_isPaused",
          "type": "bool"
        }
      ],
      "payable": false,
      "stateMutability": "nonpayable",
      "type": "function"
    },
    {
      "constant": false,
      "inputs": [],
      "name": "delegatedSendIsContractOwner_V1",
      "outputs": [
        {
          "name": "_isContractOwner",
          "type": "bool"
        }
      ],
      "payable": false,
      "stateMutability": "nonpayable",
      "type": "function"
    },
    {
      "anonymous": false,
      "inputs": [
        {
          "indexed": true,
          "name": "previousOracle",
          "type": "address"
        },
        {
          "indexed": true,
          "name": "newOracle",
          "type": "address"
        }
      ],
      "name": "LogOracleTransfered_V1",
      "type": "event"
    },
    {
      "constant": false,
      "inputs": [],
      "name": "delegatedReceiveGetOracle_V1",
      "outputs": [
        {
          "name": "_oracle",
          "type": "address"
        }
      ],
      "payable": true,
      "stateMutability": "payable",
      "type": "function"
    },
    {
      "constant": true,
      "inputs": [],
      "name": "getOracle_V1",
      "outputs": [
        {
          "name": "_oracle",
          "type": "address"
        }
      ],
      "payable": false,
      "stateMutability": "view",
      "type": "function"
    },
    {
      "constant": true,
      "inputs": [],
      "name": "isOracle_V1",
      "outputs": [
        {
          "name": "_isOracle",
          "type": "bool"
        }
      ],
      "payable": false,
      "stateMutability": "view",
      "type": "function"
    },
    {
      "constant": true,
      "inputs": [
        {
          "name": "_oracle",
          "type": "address"
        }
      ],
      "name": "verifyOracle_V1",
      "outputs": [
        {
          "name": "_isOracle",
          "type": "bool"
        }
      ],
      "payable": false,
      "stateMutability": "view",
      "type": "function"
    },
    {
      "constant": false,
      "inputs": [
        {
          "name": "_newOracle",
          "type": "address"
        }
      ],
      "name": "transferOracle_V1",
      "outputs": [],
      "payable": false,
      "stateMutability": "nonpayable",
      "type": "function"
    }
  ],
  "bytecode": "0x608060405234801561001057600080fd5b506108dc806100206000396000f3fe608060405260043610610110576000357c0100000000000000000000000000000000000000000000000000000000900480637dc0d1d0116100a7578063ce606ee011610076578063ce606ee0146102c2578063e0237f91146102d7578063f0791d061461030b578063fde2ab801461032057610110565b80637dc0d1d01461027b578063a070981214610290578063b2941039146102a5578063c6afc736146102ad57610110565b80635470fb47116100e35780635470fb47146101cf57806356eed26e146101e45780635c975abb14610233578063740ea7541461024857610110565b806301890df6146101155780630b7338531461014057806311656ca11461016957806337ae1dbc1461019a575b600080fd5b34801561012157600080fd5b5061012a610335565b6040805160ff9092168252519081900360200190f35b34801561014c57600080fd5b50610155610357565b604080519115158252519081900360200190f35b34801561017557600080fd5b5061017e610368565b60408051600160a060020a039092168252519081900360200190f35b3480156101a657600080fd5b506101cd600480360360208110156101bd57600080fd5b5035600160a060020a0316610377565b005b3480156101db57600080fd5b5061017e610406565b3480156101f057600080fd5b50610155600480360360a081101561020757600080fd5b50600160a060020a0381358116916020810135916040820135916060810135916080909101351661047f565b34801561023f57600080fd5b5061015561051a565b34801561025457600080fd5b506101556004803603602081101561026b57600080fd5b5035600160a060020a031661053b565b34801561028757600080fd5b5061017e61054f565b34801561029c57600080fd5b5061012a61055e565b61017e610581565b3480156102b957600080fd5b5061017e610590565b3480156102ce57600080fd5b5061017e61059f565b3480156102e357600080fd5b5061017e600480360360208110156102fa57600080fd5b5035600160e060020a0319166105ae565b34801561031757600080fd5b506101556105d3565b34801561032c57600080fd5b50610155610643565b6003547501000000000000000000000000000000000000000000900460ff1681565b600354600160a060020a0316331490565b600354600160a060020a031690565b61037f610357565b8061038d575061038d610643565b15156103fa57604080517f08c379a000000000000000000000000000000000000000000000000000000000815260206004820152601660248201527f4973206e6f74204f7261636c65206f72204f776e657200000000000000000000604482015290519081900360640190fd5b6104038161069a565b50565b604080517f64656c656761746564526563656976654765744f7261636c655f5631282900008152815190819003601e0181206004825260248201909252602081018051600160e060020a0316600160e060020a03199093169290921790915260009081908190610476908261077a565b50519250505090565b600080600061050c604051808061087a6037913960408051918290036037018220600160a060020a03808e166024850152604484018d9052606484018c9052608484018b9052891660a4808501919091528251808503909101815260c4909301909152602082018051600160e060020a0316600160e060020a03199092169190911790529050600061077a565b505198975050505050505050565b60035474010000000000000000000000000000000000000000900460ff1681565b600354600160a060020a0390811691161490565b600354600160a060020a031681565b600354760100000000000000000000000000000000000000000000900460ff1681565b600061058b610368565b905090565b600154600160a060020a031681565b600254600160a060020a031681565b600160e060020a031916600090815260208190526040902054600160a060020a031690565b604080517f64656c656761746564526563656976654765745061757365645f5631282900008152815190819003601e0181206004825260248201909252602081018051600160e060020a0316600160e060020a03199093169290921790915260009081908190610476908261077a565b600080600061047660405180806108566024913960408051918290036024908101832060048452908301909152602082018051600160e060020a0316600160e060020a03199092169190911790529050600061077a565b600160a060020a038116151561071157604080517f08c379a000000000000000000000000000000000000000000000000000000000815260206004820152601360248201527f4f7261636c652063616e27742062652030783000000000000000000000000000604482015290519081900360640190fd5b600354604051600160a060020a038084169216907f27bc51d62e0b08acc684594edac5a4344d69d9fe336ec5875d0c8992a681718290600090a36003805473ffffffffffffffffffffffffffffffffffffffff1916600160a060020a0392909216919091179055565b602082015160009081908161078e826105ae565b9050600160a060020a03811615156107a35750835b600160a060020a0381161515610804576040517f08c379a00000000000000000000000000000000000000000000000000000000081526004018080602001828103825260238152602001806108336023913960400191505060405180910390fd5b600080875160208901845af43d93506040519450836000863e801515610828578385fd5b505050925092905056fe41756374696f6e6974792066756e6374696f6e20646f6573206e6f742065786973742e64656c656761746564526563656976654973436f6e74726163744f776e65725f563128296c6f636b4465706f7369745f563128616464726573732c75696e743235362c75696e743235362c75696e743235362c6164647265737329a165627a7a72305820706578294194aa226af9055d68de4c300f713f0e377ea7ea26233f68b0e54c100029",
  "source": "pragma solidity ^0.5.4;\n\nimport \"./AuctionityLibrary_V1.sol\";\n\n/// @title AuctionityOracable_V1\ncontract AuctionityOracable_V1 is AuctionityLibrary_V1 {\n    /// @notice event LogOracleTransfered_V1\n    event LogOracleTransfered_V1(\n        address indexed previousOracle,\n        address indexed newOracle\n    );\n\n    /// @notice delegate receive of getOracle\n    /// @return  _oracle address\n    function delegatedReceiveGetOracle_V1()\n        public\n        payable\n        returns (address _oracle)\n    {\n        return getOracle_V1();\n    }\n\n    /// @notice getter oracle address\n    /// @return  _oracle address\n    function getOracle_V1() public view returns (address _oracle) {\n        return oracle;\n    }\n\n    /// @notice verify if msg.sender is oracle\n    /// @return _isOracle bool\n    function isOracle_V1() public view returns (bool _isOracle) {\n        return msg.sender == oracle;\n    }\n\n    /**\n     * @return true if `_oracle` is the oracle of the contract.\n     */\n\n    /// @notice verify oracle address\n    /// @param _oracle address : address to compare\n    /// @return _isOracle bool\n    function verifyOracle_V1(address _oracle)\n        public\n        view\n        returns (bool _isOracle)\n    {\n        return _oracle == oracle;\n    }\n\n    /// @notice Allows the current oracle or owner to set a new oracle.\n    /// @param _newOracle The address to transfer oracleship to.\n    function transferOracle_V1(address _newOracle) public {\n        require(\n            isOracle_V1() || delegatedSendIsContractOwner_V1(),\n            \"Is not Oracle or Owner\"\n        );\n        _transferOracle_V1(_newOracle);\n    }\n\n    /// @notice Transfers control of the contract to a newOracle.\n    /// @param _newOracle The address to transfer oracleship to.\n    function _transferOracle_V1(address _newOracle) internal {\n        require(_newOracle != address(0), \"Oracle can't be 0x0\");\n        emit LogOracleTransfered_V1(oracle, _newOracle);\n        oracle = _newOracle;\n    }\n}\n",
  "sourcePath": "/home/mike/domraider/4x-sas/bc-auction-sc/contracts/CommonContract/AuctionityOracable_V1.sol",
  "compiler": {
    "name": "solc",
    "version": "0.5.4+commit.9549d8ff.Emscripten.clang"
  },
  "schemaVersion": "3.0.2",
  "updatedAt": "2019-09-20T07:24:53.341Z",
  "devdoc": {
    "methods": {
      "delegatedLockDeposit_V1(address,uint256,uint256,uint256,address)": {
        "params": {
          "_amount": "uint256",
          "_auctionId": "uint256",
          "_refundUser": "address",
          "_tokenContractAddress": "address",
          "_tokenId": "uint256"
        },
        "return": "bool _isPaused"
      },
      "delegatedReceiveGetOracle_V1()": {
        "return": "_oracle address"
      },
      "delegatedSendGetOracle_V1()": {
        "return": "address _oracle"
      },
      "delegatedSendGetPaused_V1()": {
        "return": "bool _isPaused"
      },
      "delegatedSendIsContractOwner_V1()": {
        "return": "_isContractOwner"
      },
      "getDelegate_V1(bytes4)": {
        "params": {
          "_selector": "byte4"
        },
        "return": "_contractDelegate address"
      },
      "getOracle_V1()": {
        "return": "_oracle address"
      },
      "isOracle_V1()": {
        "return": "_isOracle bool"
      },
      "transferOracle_V1(address)": {
        "params": {
          "_newOracle": "The address to transfer oracleship to."
        }
      },
      "verifyOracle_V1(address)": {
        "params": {
          "_oracle": "address : address to compare"
        },
        "return": "_isOracle bool"
      }
    },
    "title": "AuctionityOracable_V1"
  },
  "userdoc": {
    "methods": {
      "delegatedLockDeposit_V1(address,uint256,uint256,uint256,address)": {
        "notice": "delegate lockDeposit_V1"
      },
      "delegatedReceiveGetOracle_V1()": {
        "notice": "delegate receive of getOracle"
      },
      "delegatedSendGetOracle_V1()": {
        "notice": "delegate getOracle_V1"
      },
      "delegatedSendGetPaused_V1()": {
        "notice": "delegate getPaused_V1"
      },
      "delegatedSendIsContractOwner_V1()": {
        "notice": "delegate IsContractOwner_V1"
      },
      "getDelegate_V1(bytes4)": {
        "notice": "get delegated addrss from a selector"
      },
      "getOracle_V1()": {
        "notice": "getter oracle address"
      },
      "isOracle_V1()": {
        "notice": "verify if msg.sender is oracle"
      },
      "transferOracle_V1(address)": {
        "notice": "Allows the current oracle or owner to set a new oracle."
      },
      "verifyOracle_V1(address)": {
        "notice": "verify oracle address"
      }
    }
  }
}