{
  "contractName": "AuctionityDeposit_V1",
  "abi": [
    {
      "constant": true,
      "inputs": [],
      "name": "ethereumChainId",
      "outputs": [
        {
          "name": "",
          "type": "uint8"
        }
      ],
      "payable": false,
      "stateMutability": "view",
      "type": "function"
    },
    {
      "constant": true,
      "inputs": [
        {
          "name": "",
          "type": "bytes32"
        }
      ],
      "name": "auctionEndVoucherSubmitted",
      "outputs": [
        {
          "name": "",
          "type": "bool"
        }
      ],
      "payable": false,
      "stateMutability": "view",
      "type": "function"
    },
    {
      "constant": false,
      "inputs": [
        {
          "name": "_auctionityChainId",
          "type": "uint8"
        }
      ],
      "name": "setAuctionityChainId_V1",
      "outputs": [],
      "payable": false,
      "stateMutability": "nonpayable",
      "type": "function"
    },
    {
      "constant": false,
      "inputs": [
        {
          "name": "_ethereumChainId",
          "type": "uint8"
        }
      ],
      "name": "setEthereumChainId_V1",
      "outputs": [],
      "payable": false,
      "stateMutability": "nonpayable",
      "type": "function"
    },
    {
      "constant": false,
      "inputs": [],
      "name": "delegatedSendGetOracle_V1",
      "outputs": [
        {
          "name": "_oracle",
          "type": "address"
        }
      ],
      "payable": false,
      "stateMutability": "nonpayable",
      "type": "function"
    },
    {
      "constant": false,
      "inputs": [
        {
          "name": "_tokenContractAddress",
          "type": "address"
        },
        {
          "name": "_tokenId",
          "type": "uint256"
        },
        {
          "name": "_amount",
          "type": "uint256"
        },
        {
          "name": "_auctionId",
          "type": "uint256"
        },
        {
          "name": "_refundUser",
          "type": "address"
        }
      ],
      "name": "delegatedLockDeposit_V1",
      "outputs": [
        {
          "name": "_success",
          "type": "bool"
        }
      ],
      "payable": false,
      "stateMutability": "nonpayable",
      "type": "function"
    },
    {
      "constant": true,
      "inputs": [],
      "name": "paused",
      "outputs": [
        {
          "name": "",
          "type": "bool"
        }
      ],
      "payable": false,
      "stateMutability": "view",
      "type": "function"
    },
    {
      "constant": true,
      "inputs": [
        {
          "name": "",
          "type": "uint256"
        }
      ],
      "name": "auctionEndVoucherList",
      "outputs": [
        {
          "name": "",
          "type": "bytes32"
        }
      ],
      "payable": false,
      "stateMutability": "view",
      "type": "function"
    },
    {
      "constant": true,
      "inputs": [],
      "name": "oracle",
      "outputs": [
        {
          "name": "",
          "type": "address"
        }
      ],
      "payable": false,
      "stateMutability": "view",
      "type": "function"
    },
    {
      "constant": true,
      "inputs": [
        {
          "name": "",
          "type": "bytes32"
        }
      ],
      "name": "withdrawalVoucherSubmitted",
      "outputs": [
        {
          "name": "",
          "type": "bool"
        }
      ],
      "payable": false,
      "stateMutability": "view",
      "type": "function"
    },
    {
      "constant": true,
      "inputs": [],
      "name": "auctionityChainId",
      "outputs": [
        {
          "name": "",
          "type": "uint8"
        }
      ],
      "payable": false,
      "stateMutability": "view",
      "type": "function"
    },
    {
      "constant": true,
      "inputs": [
        {
          "name": "",
          "type": "uint256"
        }
      ],
      "name": "withdrawalVoucherList",
      "outputs": [
        {
          "name": "",
          "type": "bytes32"
        }
      ],
      "payable": false,
      "stateMutability": "view",
      "type": "function"
    },
    {
      "constant": true,
      "inputs": [],
      "name": "proxyFallbackContract",
      "outputs": [
        {
          "name": "",
          "type": "address"
        }
      ],
      "payable": false,
      "stateMutability": "view",
      "type": "function"
    },
    {
      "constant": true,
      "inputs": [],
      "name": "contractOwner",
      "outputs": [
        {
          "name": "",
          "type": "address"
        }
      ],
      "payable": false,
      "stateMutability": "view",
      "type": "function"
    },
    {
      "constant": true,
      "inputs": [],
      "name": "getEthereumChainId_V1",
      "outputs": [
        {
          "name": "",
          "type": "uint8"
        }
      ],
      "payable": false,
      "stateMutability": "view",
      "type": "function"
    },
    {
      "constant": true,
      "inputs": [
        {
          "name": "_selector",
          "type": "bytes4"
        }
      ],
      "name": "getDelegate_V1",
      "outputs": [
        {
          "name": "_contractDelegate",
          "type": "address"
        }
      ],
      "payable": false,
      "stateMutability": "view",
      "type": "function"
    },
    {
      "constant": true,
      "inputs": [],
      "name": "getAuctionityChainId_V1",
      "outputs": [
        {
          "name": "",
          "type": "uint8"
        }
      ],
      "payable": false,
      "stateMutability": "view",
      "type": "function"
    },
    {
      "constant": false,
      "inputs": [],
      "name": "delegatedSendGetPaused_V1",
      "outputs": [
        {
          "name": "_isPaused",
          "type": "bool"
        }
      ],
      "payable": false,
      "stateMutability": "nonpayable",
      "type": "function"
    },
    {
      "constant": false,
      "inputs": [],
      "name": "delegatedSendIsContractOwner_V1",
      "outputs": [
        {
          "name": "_isContractOwner",
          "type": "bool"
        }
      ],
      "payable": false,
      "stateMutability": "nonpayable",
      "type": "function"
    },
    {
      "payable": true,
      "stateMutability": "payable",
      "type": "fallback"
    },
    {
      "anonymous": false,
      "inputs": [
        {
          "indexed": false,
          "name": "auction",
          "type": "address"
        },
        {
          "indexed": false,
          "name": "user",
          "type": "address"
        },
        {
          "indexed": false,
          "name": "amount",
          "type": "uint256"
        }
      ],
      "name": "LogSentEthToWinner",
      "type": "event"
    },
    {
      "anonymous": false,
      "inputs": [
        {
          "indexed": false,
          "name": "user",
          "type": "address[]"
        },
        {
          "indexed": false,
          "name": "amount",
          "type": "uint256[]"
        }
      ],
      "name": "LogSentRewardsDepotEth",
      "type": "event"
    },
    {
      "anonymous": false,
      "inputs": [
        {
          "indexed": false,
          "name": "user",
          "type": "address"
        },
        {
          "indexed": false,
          "name": "amount",
          "type": "uint256"
        }
      ],
      "name": "LogDeposed",
      "type": "event"
    },
    {
      "anonymous": false,
      "inputs": [
        {
          "indexed": false,
          "name": "user",
          "type": "address"
        },
        {
          "indexed": false,
          "name": "amount",
          "type": "uint256"
        },
        {
          "indexed": false,
          "name": "withdrawalVoucherHash",
          "type": "bytes32"
        }
      ],
      "name": "LogWithdrawalVoucherSubmitted",
      "type": "event"
    },
    {
      "anonymous": false,
      "inputs": [
        {
          "indexed": false,
          "name": "tokenHash",
          "type": "bytes32"
        },
        {
          "indexed": false,
          "name": "tokenContractAddress",
          "type": "address"
        },
        {
          "indexed": false,
          "name": "tokenId",
          "type": "uint256"
        },
        {
          "indexed": true,
          "name": "seller",
          "type": "address"
        },
        {
          "indexed": true,
          "name": "winner",
          "type": "address"
        },
        {
          "indexed": false,
          "name": "amount",
          "type": "uint256"
        },
        {
          "indexed": false,
          "name": "auctionEndVoucherHash",
          "type": "bytes32"
        }
      ],
      "name": "LogAuctionEndVoucherSubmitted",
      "type": "event"
    },
    {
      "anonymous": false,
      "inputs": [
        {
          "indexed": false,
          "name": "user",
          "type": "address"
        },
        {
          "indexed": false,
          "name": "amount",
          "type": "uint256"
        },
        {
          "indexed": false,
          "name": "withdrawalVoucherHash",
          "type": "bytes32"
        }
      ],
      "name": "LogWithdrawalVoucherSubmitted_V1",
      "type": "event"
    },
    {
      "anonymous": false,
      "inputs": [
        {
          "indexed": false,
          "name": "user",
          "type": "address"
        },
        {
          "indexed": false,
          "name": "tokenContractAddress",
          "type": "address"
        },
        {
          "indexed": false,
          "name": "tokenId",
          "type": "uint256"
        },
        {
          "indexed": false,
          "name": "amount",
          "type": "uint256"
        },
        {
          "indexed": false,
          "name": "totalAmount",
          "type": "uint256"
        }
      ],
      "name": "LogAddDepot_V1",
      "type": "event"
    },
    {
      "anonymous": false,
      "inputs": [
        {
          "indexed": false,
          "name": "tokenHash",
          "type": "bytes32"
        },
        {
          "indexed": false,
          "name": "tokenContractAddress",
          "type": "address"
        },
        {
          "indexed": false,
          "name": "tokenId",
          "type": "uint256"
        },
        {
          "indexed": true,
          "name": "seller",
          "type": "address"
        },
        {
          "indexed": true,
          "name": "winner",
          "type": "address"
        },
        {
          "indexed": false,
          "name": "amount",
          "type": "uint256"
        },
        {
          "indexed": false,
          "name": "auctionEndVoucher_V1Hash",
          "type": "bytes32"
        }
      ],
      "name": "LogAuctionEndVoucherSubmitted_V1",
      "type": "event"
    },
    {
      "anonymous": false,
      "inputs": [
        {
          "indexed": false,
          "name": "auction",
          "type": "address"
        },
        {
          "indexed": false,
          "name": "user",
          "type": "address"
        },
        {
          "indexed": false,
          "name": "amount",
          "type": "uint256"
        }
      ],
      "name": "LogSentEthToSeller_V1",
      "type": "event"
    },
    {
      "anonymous": false,
      "inputs": [
        {
          "indexed": false,
          "name": "user",
          "type": "address[]"
        },
        {
          "indexed": false,
          "name": "amount",
          "type": "uint256[]"
        }
      ],
      "name": "LogSentRewardsDepotEth_V1",
      "type": "event"
    },
    {
      "constant": true,
      "inputs": [
        {
          "name": "_user",
          "type": "address"
        }
      ],
      "name": "getDepotEth",
      "outputs": [
        {
          "name": "_amount",
          "type": "uint256"
        }
      ],
      "payable": false,
      "stateMutability": "view",
      "type": "function"
    },
    {
      "constant": false,
      "inputs": [],
      "name": "depositEth",
      "outputs": [],
      "payable": true,
      "stateMutability": "payable",
      "type": "function"
    },
    {
      "constant": false,
      "inputs": [],
      "name": "receiveDepotEth_V1",
      "outputs": [],
      "payable": true,
      "stateMutability": "payable",
      "type": "function"
    },
    {
      "constant": true,
      "inputs": [
        {
          "name": "_user",
          "type": "address"
        }
      ],
      "name": "getBalanceEth_V1",
      "outputs": [
        {
          "name": "_balanceOf",
          "type": "uint256"
        }
      ],
      "payable": false,
      "stateMutability": "view",
      "type": "function"
    },
    {
      "constant": false,
      "inputs": [
        {
          "name": "_withdrawalVoucherData",
          "type": "bytes"
        },
        {
          "name": "_signedRawTxWithdrawal",
          "type": "bytes"
        }
      ],
      "name": "withdrawalVoucher_V1",
      "outputs": [],
      "payable": false,
      "stateMutability": "nonpayable",
      "type": "function"
    },
    {
      "constant": false,
      "inputs": [
        {
          "name": "_auctionEndVoucherData",
          "type": "bytes"
        },
        {
          "name": "_signedRawTxCreateAuction",
          "type": "bytes"
        },
        {
          "name": "_signedRawTxBidding",
          "type": "bytes"
        },
        {
          "name": "_send",
          "type": "bytes"
        }
      ],
      "name": "auctionEndVoucher_V1",
      "outputs": [],
      "payable": false,
      "stateMutability": "nonpayable",
      "type": "function"
    }
  ],
  "bytecode": "0x608060405234801561001057600080fd5b506135dd806100206000396000f3fe608060405260043610610183576000357c010000000000000000000000000000000000000000000000000000000090048063745ffb41116100ee578063c6afc736116100a7578063e0237f9111610081578063e0237f91146107ce578063ecc799b714610802578063f0791d0614610817578063fde2ab801461082c57610183565b8063c6afc7361461078f578063ce606ee0146107a4578063ce782552146107b957610183565b8063745ffb41146106e75780637dc0d1d014610711578063966d71481461072657806398885e1314610183578063a070981214610750578063abdecf521461076557610183565b8063439370b111610140578063439370b1146102c85780635470fb47146102d057806356eed26e146103015780635c975abb1461035057806367f370d0146103655780636fc60a5e146105ad57610183565b806301890df61461018d5780630b77a715146101b85780630dc16a56146101f657806328a8081c1461023b5780632cf19b6e1461026e5780634323fb121461029b575b61018b610841565b005b34801561019957600080fd5b506101a2610958565b6040805160ff9092168252519081900360200190f35b3480156101c457600080fd5b506101e2600480360360208110156101db57600080fd5b503561097a565b604080519115158252519081900360200190f35b34801561020257600080fd5b506102296004803603602081101561021957600080fd5b5035600160a060020a031661098f565b60408051918252519081900360200190f35b34801561024757600080fd5b506102296004803603602081101561025e57600080fd5b5035600160a060020a03166109a2565b34801561027a57600080fd5b5061018b6004803603602081101561029157600080fd5b503560ff166109b0565b3480156102a757600080fd5b5061018b600480360360208110156102be57600080fd5b503560ff16610a3e565b61018b610aca565b3480156102dc57600080fd5b506102e5610ad4565b60408051600160a060020a039092168252519081900360200190f35b34801561030d57600080fd5b506101e2600480360360a081101561032457600080fd5b50600160a060020a03813581169160208101359160408201359160608101359160809091013516610b4d565b34801561035c57600080fd5b506101e2610be8565b34801561037157600080fd5b5061018b6004803603608081101561038857600080fd5b8101906020810181356401000000008111156103a357600080fd5b8201836020820111156103b557600080fd5b803590602001918460018302840111640100000000831117156103d757600080fd5b91908080601f016020809104026020016040519081016040528093929190818152602001838380828437600092019190915250929594936020810193503591505064010000000081111561042a57600080fd5b82018360208201111561043c57600080fd5b8035906020019184600183028401116401000000008311171561045e57600080fd5b91908080601f01602080910402602001604051908101604052809392919081815260200183838082843760009201919091525092959493602081019350359150506401000000008111156104b157600080fd5b8201836020820111156104c357600080fd5b803590602001918460018302840111640100000000831117156104e557600080fd5b91908080601f016020809104026020016040519081016040528093929190818152602001838380828437600092019190915250929594936020810193503591505064010000000081111561053857600080fd5b82018360208201111561054a57600080fd5b8035906020019184600183028401116401000000008311171561056c57600080fd5b91908080601f016020809104026020016040519081016040528093929190818152602001838380828437600092019190915250929550610c09945050505050565b3480156105b957600080fd5b5061018b600480360360408110156105d057600080fd5b8101906020810181356401000000008111156105eb57600080fd5b8201836020820111156105fd57600080fd5b8035906020019184600183028401116401000000008311171561061f57600080fd5b91908080601f016020809104026020016040519081016040528093929190818152602001838380828437600092019190915250929594936020810193503591505064010000000081111561067257600080fd5b82018360208201111561068457600080fd5b803590602001918460018302840111640100000000831117156106a657600080fd5b91908080601f016020809104026020016040519081016040528093929190818152602001838380828437600092019190915250929550610f2c945050505050565b3480156106f357600080fd5b506102296004803603602081101561070a57600080fd5b5035611279565b34801561071d57600080fd5b506102e5611298565b34801561073257600080fd5b506101e26004803603602081101561074957600080fd5b50356112a7565b34801561075c57600080fd5b506101a26112bc565b34801561077157600080fd5b506102296004803603602081101561078857600080fd5b50356112df565b34801561079b57600080fd5b506102e56112ed565b3480156107b057600080fd5b506102e56112fc565b3480156107c557600080fd5b506101a261130b565b3480156107da57600080fd5b506102e5600480360360208110156107f157600080fd5b5035600160e060020a03191661132d565b34801561080e57600080fd5b506101a2611352565b34801561082357600080fd5b506101e2611375565b34801561083857600080fd5b506101e26113e5565b610849611375565b1561089e576040805160e560020a62461bcd02815260206004820152600f60248201527f434f4e54524143545f5041555345440000000000000000000000000000000000604482015290519081900360640190fd5b33346108aa828261143c565b5060408051600160a060020a03841681526020810183905281517f69d8ef4af6b253bc5befb88d3f648efada0f0e5d4550764eaa18b633342b1cba929181900390910190a17f7f31cc7871fca18738588a4899916592cb665eafa444be020a5777a3dd68b32b826000808461091e876109a2565b60408051600160a060020a039687168152949095166020850152838501929092526060830152608082015290519081900360a00190a15050565b6003547501000000000000000000000000000000000000000000900460ff1681565b60086020526000908152604090205460ff1681565b600061099a826109a2565b90505b919050565b600061099a82600080611452565b6109b86113e5565b15156109f85760405160e560020a62461bcd0281526004018080602001828103825260238152602001806133806023913960400191505060405180910390fd5b6003805460ff9092167601000000000000000000000000000000000000000000000276ff0000000000000000000000000000000000000000000019909216919091179055565b610a466113e5565b1515610a865760405160e560020a62461bcd0281526004018080602001828103825260218152602001806132796021913960400191505060405180910390fd5b6003805460ff90921675010000000000000000000000000000000000000000000275ff00000000000000000000000000000000000000000019909216919091179055565b610ad2610841565b565b604080517f64656c656761746564526563656976654765744f7261636c655f5631282900008152815190819003601e0181206004825260248201909252602081018051600160e060020a0316600160e060020a03199093169290921790915260009081908190610b449082611487565b50519250505090565b6000806000610bda60405180806134446037913960408051918290036037018220600160a060020a03808e166024850152604484018d9052606484018c9052608484018b9052891660a4808501919091528251808503909101815260c4909301909152602082018051600160e060020a0316600160e060020a031990921691909117905290506000611487565b505198975050505050505050565b60035474010000000000000000000000000000000000000000900460ff1681565b610c11611375565b15610c66576040805160e560020a62461bcd02815260206004820152600f60248201527f434f4e54524143545f5041555345440000000000000000000000000000000000604482015290519081900360640190fd5b82516020808501919091206000818152600890925260409091205460ff16151560011415610cc85760405160e560020a62461bcd0281526004018080602001828103825260248152602001806135606024913960400191505060405180910390fd5b610cd06131f0565b610cd985611528565b90506000806000610ce861321e565b600188511115610d1c57610d0088866000015161156c565b9050610d0b81611631565b1515610d1c57505050505050610f26565b610d2f8a8880519060200120878461168d565b1515610d6f5760405160e560020a62461bcd02815260040180806020018281038252602f8152602001806133c6602f913960400191505060405180910390fd5b610d7f85602001518b60616117c9565b1515610dbf5760405160e560020a62461bcd0281526004018080602001828103825260238152602001806132566023913960400191505060405180910390fd5b600188511115610de557610dd4878683611856565b1515610de557505050505050610f26565b6007805460018181019092557fa66cc928b5edb82af9bd49922954155ab7b0942694bea4ce44661d9a8736c68801879055600087815260086020908152604091829020805460ff191690931790925582820151878201518851898501516080808c0151888701518751948552600160a060020a03938416988501989098528387015260608301969096529481018b905292519184169316917f4a019ca24b28fbd88f049010e51779834bb31fc994106e98f10c315789f0e768919081900360a00190a36020808201516040808801518851898501516080808c0151858901518651948552600160a060020a03938416988501989098528386015260608301969096529481018b905291519284169316917fa0d0f6a65795da653fabdb2b14cd2ea0ee70fa75de5aaec9fc4dd1c46e9e4df09181900360a00190a35050505050505b50505050565b610f34611375565b15610f89576040805160e560020a62461bcd02815260206004820152600f60248201527f434f4e54524143545f5041555345440000000000000000000000000000000000604482015290519081900360640190fd5b80516020808301919091206000818152600690925260409091205460ff16151560011415610feb5760405160e560020a62461bcd02815260040180806020018281038252602681526020018061347b6026913960400191505060405180910390fd5b600080610fff84610ffa611352565b611da5565b90925090508015156110455760405160e560020a62461bcd0281526004018080602001828103825260338152602001806132cc6033913960400191505060405180910390fd5b600160a060020a038216151561108f5760405160e560020a62461bcd02815260040180806020018281038252602e815260200180613584602e913960400191505060405180910390fd5b80611099836109a2565b10156110d95760405160e560020a62461bcd02815260040180806020018281038252602a8152602001806134cb602a913960400191505060405180910390fd5b6110e585838386611e39565b15156111255760405160e560020a62461bcd02815260040180806020018281038252602e815260200180613584602e913960400191505060405180910390fd5b604051600160a060020a0383169082156108fc029083906000818181858888f19350505050151561118a5760405160e560020a62461bcd0281526004018080602001828103825260228152602001806133296022913960400191505060405180910390fd5b6111948282611f06565b506005805460018181019092557f036b6384b5eca791c62761152d0c79bb0604c104a5fb6f4eb0703f3154bb3db001849055600084815260066020908152604091829020805460ff19169093179092558051600160a060020a0385168152918201839052818101859052517f526d1df19f1af5c7650ac415ee16f9f80a969540293cbbf325276bd1c71cbe729181900360600190a160408051600160a060020a03841681526020810183905280820185905290517f996ca359027cae754ef0fe2f3e5856bcedc1f1e60f40470d73f233d082c705289181900360600190a15050505050565b600780548290811061128757fe5b600091825260209091200154905081565b600354600160a060020a031681565b60066020526000908152604090205460ff1681565b600354760100000000000000000000000000000000000000000000900460ff1681565b600580548290811061128757fe5b600154600160a060020a031681565b600254600160a060020a031681565b6003547501000000000000000000000000000000000000000000900460ff1690565b600160e060020a031916600090815260208190526040902054600160a060020a031690565b600354760100000000000000000000000000000000000000000000900460ff1690565b604080517f64656c656761746564526563656976654765745061757365645f5631282900008152815190819003601e0181206004825260248201909252602081018051600160e060020a0316600160e060020a03199093169290921790915260009081908190610b449082611487565b6000806000610b4460405180806134206024913960408051918290036024908101832060048452908301909152602082018051600160e060020a0316600160e060020a031990921691909117905290506000611487565b600061144b8360008085611f15565b9392505050565b600160a060020a0380831660009081526004602090815260408083208584528252808320938716835292905220549392505050565b602082015160009081908161149b8261132d565b9050600160a060020a03811615156114b05750835b600160a060020a03811615156114fa5760405160e560020a62461bcd0281526004018080602001828103825260238152602001806133a36023913960400191505060405180910390fd5b600080875160208901845af43d93506040519450836000863e80151561151e578385fd5b5050509250929050565b6115306131f0565b6115418261153c611352565b611fe5565b60ff1660608701526080860152600160a060020a039081166020860152166040840152508152919050565b61157461321e565b600061158784611582611352565b61206c565b600160a060020a039081166020870152604086019190915216835290508281146115e55760405160e560020a62461bcd02815260040180806020018281038252603581526020018061334b6035913960400191505060405180910390fd5b6040820151151561162a5760405160e560020a62461bcd02815260040180806020018281038252603c8152602001806134f5603c913960400191505060405180910390fd5b5092915050565b6000816040015161164583602001516109a2565b10156116855760405160e560020a62461bcd02815260040180806020018281038252602b8152602001806133f5602b913960400191505060405180910390fd5b506001919050565b60208401516000908161169f8761214b565b60208681015160808801516040808a0151898501518a83015160608d01518451306c01000000000000000000000000908102828b0152600160a060020a039889168102603483015260488201979097529387168602606885015295909116909302607c820152609081019290925260b0820187905260ff90921660f860020a0260d082015260d1810184905260f18082018b905282518083039091018152610111820183528051908401207f19457468657265756d205369676e6564204d6573736167653a0a33320000000061013183015261014d808301919091528251808303909101815261016d9091019091528051908201209192506117a3919089906121f1565b600160a060020a03166117b4610ad4565b600160a060020a031614979650505050505050565b60006117d48461227c565b15156117e25750600061144b565b600083838151811015156117f257fe5b01602001516001939093019260f860020a9081900481020490506000805b8260ff168160ff16101561184957611829878787612284565b9095509150811515611841576000935050505061144b565b600101611810565b5060019695505050505050565b600061186a82602001518360400151611f06565b15156118aa5760405160e560020a62461bcd02815260040180806020018281038252602a8152602001806132ff602a913960400191505060405180910390fd5b601484015160348501516040850151600092919083908190600160a060020a0380861691161461190e5760405160e560020a62461bcd02815260040180806020018281038252602f815260200180613531602f913960400191505060405180910390fd5b6040516034959095019490830190600160a060020a0385169084156108fc029085906000818181858888f193505050501515611994576040805160e560020a62461bcd02815260206004820152601460248201527f4661696c656420746f2073656e642066756e6473000000000000000000000000604482015290519081900360640190fd5b865160408051600160a060020a0392831681529186166020830152818101859052517f4d2d8d41fb501add0a2a27393c3b7c3e4cb75ec17b8b7c573ab8d45ad4691ace9181900360600190a1865160408051600160a060020a0392831681529186166020830152818101859052517fa8f497a5a738109f2def50a17c52ceb18c8fcb9f27397798aff070f093aee6af9181900360600190a16000886060015160ff161115611d51576000602086018a0151905060028601955060608160f060020a900461ffff16604051908082528060200260200182016040528015611a84578160200160208202803883390190505b50905060608260f060020a900461ffff16604051908082528060200260200182016040528015611abe578160200160208202803883390190505b50905060005b8360f060020a900461ffff168161ffff161015611bd6578c890160148101516034909101516020909a01999098506bffffffffffffffffffffffff633b9aca0074010000000000000000000000000000000000000000830402169750955093860193611b30888861143c565b1515611b86576040805160e560020a62461bcd02815260206004820152601160248201527f43616e277420616464206465706f736974000000000000000000000000000000604482015290519081900360640190fd5b87838261ffff16815181101515611b9957fe5b600160a060020a0390921660209283029091019091015281518790839061ffff8416908110611bc457fe5b60209081029091010152600101611ac4565b507f7de9940f74e0c14fb9a311c4ed7443a04627b31f270a83a8b46bfe9e3d99d6308282604051808060200180602001838103835285818151815260200191508051906020019060200280838360005b83811015611c3e578181015183820152602001611c26565b50505050905001838103825284818151815260200191508051906020019060200280838360005b83811015611c7d578181015183820152602001611c65565b5050505090500194505050505060405180910390a17ff6ca5c144cc27b6952652d2169ea51ceab8c3afbf0f74bdcd5846e5c4c0acdfd8282604051808060200180602001838103835285818151815260200191508051906020019060200280838360005b83811015611cf9578181015183820152602001611ce1565b50505050905001838103825284818151815260200191508051906020019060200280838360005b83811015611d38578181015183820152602001611d20565b5050505090500194505050505060405180910390a15050505b60408701518114611d965760405160e560020a62461bcd02815260040180806020018281038252602a8152602001806134a1602a913960400191505060405180910390fd5b50600198975050505050505050565b6000806000606080611dbe611db9886124e0565b612527565b9050611de1816005815181101515611dd257fe5b906020019060200201516125f7565b915060208201519250611df48187612664565b94507f4796093800000000000000000000000000000000000000000000000000000000600160e060020a03198416141561151e57602482015193505050509250929050565b604080516c01000000000000000000000000308102602080840191909152600160a060020a0387169091026034830152604882018590526068808301859052835180840390910181526088830184528051908201207f19457468657265756d205369676e6564204d6573736167653a0a33320000000060a884015260c4808401919091528351808403909101815260e49092019092528051910120600090611ee29086836121f1565b600160a060020a0316611ef3610ad4565b600160a060020a03161495945050505050565b600061144b8360008085612694565b6000808211611f6e576040805160e560020a62461bcd02815260206004820152601d60248201527f416d6f756e74206d7573742062652067726561746572207468616e2030000000604482015290519081900360640190fd5b600160a060020a038085166000908152600460209081526040808320878452825280832093891683529290522054611fac908363ffffffff61275916565b600160a060020a0380861660009081526004602090815260408083208884528252808320938a1683529290522055506001949350505050565b600080600080600080606080611ffd611db98b6124e0565b905061202081600381518110151561201157fe5b9060200190602002015161276c565b9650612034816005815181101515611dd257fe5b9150612040818a612664565b9550606061204d836127ce565b83516020909401939093209e9a9d50989b509950969795505050505050565b600080600080606080612081611db9896124e0565b905061209581600381518110151561201157fe5b94506120a9816005815181101515611dd257fe5b60208101519092506120bb8289612664565b93507f1d03ae6800000000000000000000000000000000000000000000000000000000600160e060020a0319821614156120fe5760248301516064840151975094505b7f8470df0600000000000000000000000000000000000000000000000000000000600160e060020a03198216141561213f5760248301516084840151975094505b50505092959194509250565b6000606060618351036040519080825280601f01601f19166020018201604052801561217e576020820181803883390190505b50905060005b60618451038110156121e25783816061018151811015156121a157fe5b90602001015160f860020a900460f860020a0282828151811015156121c257fe5b906020010190600160f860020a031916908160001a905350600101612184565b50805160209091012092915050565b818101602081810151604080840151606094850151825160008082528187018086528b905260ff60f860020a8404168286015296810185905260808101839052925193949193909260019260a0808301939192601f198301929081900390910190855afa158015612266573d6000803e3d6000fd5b5050604051601f19015198975050505050505050565b6000903b1190565b6000806060806000868681518110151561229a57fe5b90602001015160f860020a900460f860020a02600160f860020a03191660b860f860020a021415612336576040805160018082528183019092529060208201818038833901905050925086866001018151811015156122f557fe5b90602001015160f860020a900460f860020a0283600081518110151561231757fe5b906020010190600160f860020a031916908160001a9053506002860195505b868681518110151561234457fe5b90602001015160f860020a900460f860020a02600160f860020a03191660b960f860020a02141561242b5760408051600280825281830190925290602082018180388339019050509250868660010181518110151561239f57fe5b90602001015160f860020a900460f860020a028360008151811015156123c157fe5b906020010190600160f860020a031916908160001a90535086866002018151811015156123ea57fe5b90602001015160f860020a900460f860020a0283600181518110151561240c57fe5b906020010190600160f860020a031916908160001a9053506003860195505b612434836129ce565b9050806040519080825280601f01601f191660200182016040528015612461576020820181803883390190505b50915060005b818110156124c0578787820181518110151561247f57fe5b90602001015160f860020a900460f860020a0283828151811015156124a057fe5b906020010190600160f860020a031916908160001a905350600101612467565b5094850194856124d1898385612a1a565b94509450505050935093915050565b6124e861323e565b8151151561250a5750604080518082019091526000808252602082015261099d565b506040805180820190915281518152602082810190820152919050565b606061253282612a63565b151561253d57600080fd5b600061254883612a92565b90508060405190808252806020026020018201604052801561258457816020015b61257161323e565b8152602001906001900390816125695790505b50915060006125968460200151612adf565b60208501510190506000805b838110156125ee576125b383612b48565b915060408051908101604052808381526020018481525085828151811015156125d857fe5b60209081029091010152918101916001016125a2565b50505050919050565b606060006126088360200151612adf565b83516040805191839003808352601f19601f820116830160200190915291925060609082801561263f576020820181803883390190505b509050600081602001905061265b848760200151018285612bd8565b50949350505050565b60006060806126738585612c19565b81516020830120919350915061268b908260006121f1565b95945050505050565b600160a060020a038084166000908152600460209081526040808320868452825280832093881683529290529081205482111561271b576040805160e560020a62461bcd02815260206004820152600e60248201527f416d6f756e7420746f6f206c6f77000000000000000000000000000000000000604482015290519081900360640190fd5b600160a060020a038085166000908152600460209081526040808320878452825280832093891683529290522054611fac908363ffffffff612f5516565b8181018281101561276657fe5b92915050565b80516000906015146127b25760405160e560020a62461bcd02815260040180806020018281038252603281526020018061329a6032913960400191505060405180910390fd5b5060200151600101516c01000000000000000000000000900490565b6020810151606090600090819081908180807fffd6d82800000000000000000000000000000000000000000000000000000000600160e060020a0319851614156128ca57602489810151808b019091015160448b015160648c015160c48d015160408051858152601f19601f8701168101602001909152929b5090995097509194509250828015612866576020820181803883390190505b509750600090505b818110156128ca578851899060248386010190811061288957fe5b90602001015160f860020a900460f860020a0288828151811015156128aa57fe5b906020010190600160f860020a031916908160001a90535060010161286e565b7ffe7ccebd00000000000000000000000000000000000000000000000000000000600160e060020a0319851614156129c357602489810151808b01909101516044808c015160648d015160c48e0151808f019093015160408051868152601f19601f8801168101602001909152929c50909a5098509295509093509083801561295a576020820181803883390190505b509850600091505b828210156129c15789518a9060248487010190811061297d57fe5b90602001015160f860020a900460f860020a02898381518110151561299e57fe5b906020010190600160f860020a031916908160001a905350600190910190612962565b505b505050509193509193565b600080805b835181101561162a578060010184510360080260020a84828151811015156129f757fe5b60209101015160f860020a9081900481020460ff160291909101906001016129d3565b60008060006040516020850151915081815260045b86811015612a495760208187018101518383015201612a2f565b50602081878360008b6127105a03f1979650505050505050565b6020810151805160009190821a9060c060ff83161015612a885760009250505061099d565b5060019392505050565b600080600090506000612aa88460200151612adf565b602085015185519181019250015b80821015612ad657612ac782612b48565b60019093019290910190612ab6565b50909392505050565b8051600090811a6080811015612af957600091505061099d565b60b8811080612b14575060c08110801590612b14575060f881105b15612b2357600191505061099d565b60c0811015612b375760b51901905061099d565b60f51901905061099d565b50919050565b8051600090811a6080811015612b6257600191505061099d565b60b8811015612b7657607e1901905061099d565b60c0811015612ba35760b78103600184019350806020036101000a84510460018201810193505050612b42565b60f8811015612bb75760be1901905061099d565b60019290920151602083900360f7016101000a900490910160f51901919050565b5b60208110612bf8578251825260209283019290910190601f1901612bd9565b915181516020939093036101000a6000190180199091169216919091179052565b604080516009808252610140820190925260609182918291816020015b6060815260200190600190039081612c36579050509050612c67612c62866000815181101515611dd257fe5b612f67565b816000815181101515612c7657fe5b90602001906020020181905250612c98612c62866001815181101515611dd257fe5b816001815181101515612ca757fe5b90602001906020020181905250612cc9612c62866002815181101515611dd257fe5b816002815181101515612cd857fe5b90602001906020020181905250612cfa612c62866003815181101515611dd257fe5b816003815181101515612d0957fe5b90602001906020020181905250612d2b612c62866004815181101515611dd257fe5b816004815181101515612d3a57fe5b90602001906020020181905250612d5c612c62866005815181101515611dd257fe5b816005815181101515612d6b57fe5b60209081029091010152612d8160ff8516613064565b816006815181101515612d9057fe5b60209081029091010152612da46000613064565b816007815181101515612db357fe5b60209081029091010152612dc76000613064565b816008815181101515612dd657fe5b60209081029091010152612de9816130c3565b60408051604180825260808201909252919450600091906020820181803883390190505092506000612e32876007815181101515612e2357fe5b906020019060200201516131aa565b6000925090505b60208260ff161015612e8f578060ff831660208110612e5457fe5b1a60f860020a02848360ff16815181101515612e6c57fe5b906020010190600160f860020a031916908160001a905350600190910190612e39565b612ea1876008815181101515612e2357fe5b6000925090505b60208260ff161015612f01578060ff831660208110612ec357fe5b1a60f860020a02848360200160ff16815181101515612ede57fe5b906020010190600160f860020a031916908160001a905350600190910190612ea8565b60088660020260ff16612f1c896006815181101515612e2357fe5b030360f860020a02846040815181101515612f3357fe5b906020010190600160f860020a031916908160001a9053505050509250929050565b600082821115612f6157fe5b50900390565b80516040519060208084019190830190600181148015612fd3575084517f7f000000000000000000000000000000000000000000000000000000000000009086906000908110612fb357fe5b90602001015160f860020a900460f860020a02600160f860020a03191611155b15612feb57506001808452915181520160405261099d565b6037811161301f57806001018452806080018253806001830101604052613016838360010183612bd8565b5061099d915050565b600061302a826131d8565b905081816001010185528060b7018353806020036101000a8202600184015281816001850101016040526125ee8482856001010184612bd8565b60606000613071836131d8565b90506060816040519080825280601f01601f1916602001820160405280156130a0576020820181803883390190505b509050816020036101000a840260208201526130bb81612f67565b949350505050565b606060008060005b84518110156130fa5784818151811015156130e257fe5b602090810290910101515191909101906001016130cb565b60405193506020840192506037821161311e578160c001835360018301925061314a565b6000613129836131d8565b90508060f7018453600184019350806020036101000a830284528084019350505b5060005b8451811015613196576060858281518110151561316757fe5b906020019060200201519050600060208201905061318781868451612bd8565b5051929092019160010161314e565b826040526020848403038452505050919050565b6000806131ba8360200151612adf565b83516020948501518201519190039093036101000a90920492915050565b60005b811561099d57610100820491506001016131db565b6040805160a08101825260008082526020820181905291810182905260608101829052608081019190915290565b604080516060810182526000808252602082018190529181019190915290565b60408051808201909152600080825260208201529056fe41756374696f6e20656e6420766f7563686572207472616e73666572206661696c6564736574457468657265756d436861696e496420436f6e7472616374206f776e6572496e76616c696420524c504974656d2e204164647265737365732061726520656e636f64656420696e2032302062797465735769746864726177616c20766f756368657220616d6f756e74206d7573742062652067726561746572207468616e207a65726f41756374696f6e20656e6420766f7563686572206465706f7420616d6f757420697320746f6f206c6f775769746864726177616c20766f7563686572207472616e73666572206661696c656441756374696f6e20656e6420766f756368657220686173685261775478546f6b656e5472616e7366657220697320696e76616c696473657441756374696f6e697479436861696e496420436f6e7472616374206f776e657241756374696f6e6974792066756e6374696f6e20646f6573206e6f742065786973742e41756374696f6e20656e6420766f756368657220696e76616c6964207369676e6174757265206f66206f7261636c6541756374696f6e20656e6420766f7563686572206465706f7420616d6f756e7420697320746f6f206c6f7764656c656761746564526563656976654973436f6e74726163744f776e65725f563128296c6f636b4465706f7369745f563128616464726573732c75696e743235362c75696e743235362c75696e743235362c61646472657373295769746864726177616c20766f756368657220697320616c7265616479207375626d6974656442696464696e6720616d6f756e74206973206e6f7420657175616c20746f2073656e7420616d6f756e745769746864726177616c20766f7563686572206465706f7420616d6f756e7420697320746f6f206c6f7741756374696f6e20656e6420766f75636865722062696464696e6720616d6f756e74206d7573742062652067726561746572207468616e207a65726f41756374696f6e20656e6420766f75636865722073656e646572206164647265737320697320696e76616c6964657241756374696f6e20656e6420766f756368657220616c7265616479207375626d697465645769746864726177616c20766f756368657220696e76616c6964207369676e6174757265206f66206f7261636c65a165627a7a72305820cd88bd99c9c88667c71ce8d468ea56e2e19d3113fb1b895e0a6273f20ce473fe0029",
  "source": "pragma solidity ^0.5.4;\n\nimport \"./AuctionityStorage1.sol\";\n\nimport \"../CommonContract/SafeMath.sol\";\nimport \"../CommonContract/AuctionityLibrary_V1.sol\";\nimport \"../CommonContract/AuctionityLibraryDecodeRawTx_V1.sol\";\n\nimport \"../CommonContract/AuctionityChainId_V1.sol\";\nimport \"../CommonContract/AuctionityOracable_V1.sol\";\nimport \"../CommonContract/AuctionityPausable_V1.sol\";\n\ncontract AuctionityDeposit_V1 is AuctionityStorage1, AuctionityLibrary_V1, AuctionityChainId_V1 {\n    using SafeMath for uint256;\n\n    struct InfoFromCreateAuction {\n        bytes32 tokenHash;\n        address tokenContractAddress;\n        address auctionSeller;\n        uint8 rewardPercent;\n        uint256 tokenId;\n    }\n\n    struct InfoFromBidding {\n        address auctionContractAddress;\n        address signer;\n        uint256 amount;\n    }\n\n    // For previous compatibility\n    event LogSentEthToWinner(address auction, address user, uint256 amount);\n    event LogSentRewardsDepotEth(address[] user, uint256[] amount);\n    event LogDeposed(address user, uint256 amount);\n    event LogWithdrawalVoucherSubmitted(address user, uint256 amount, bytes32 withdrawalVoucherHash);\n    event LogAuctionEndVoucherSubmitted(\n        bytes32 tokenHash,\n        address tokenContractAddress,\n        uint256 tokenId,\n        address indexed seller,\n        address indexed winner,\n        uint256 amount,\n        bytes32 auctionEndVoucherHash\n    );\n\n    // events\n    event LogWithdrawalVoucherSubmitted_V1(\n        address user,\n        uint256 amount,\n        bytes32 withdrawalVoucherHash\n    );\n\n    event LogAddDepot_V1(\n        address user,\n        address tokenContractAddress,\n        uint256 tokenId,\n        uint256 amount,\n        uint256 totalAmount\n    );\n\n    event LogAuctionEndVoucherSubmitted_V1(\n        bytes32 tokenHash,\n        address tokenContractAddress,\n        uint256 tokenId,\n        address indexed seller,\n        address indexed winner,\n        uint256 amount,\n        bytes32 auctionEndVoucher_V1Hash\n    );\n    event LogSentEthToSeller_V1(address auction, address user, uint256 amount);\n    event LogSentRewardsDepotEth_V1(address[] user, uint256[] amount);\n\n    /// @notice get amount of user's deposit\n    /// @dev Comptability with previous 'AuctionityDeposit_V1'\n    /// @param _user address\n    /// @return _amount uint256\n    function getDepotEth(address _user) public view returns (uint256 _amount) {\n        return getBalanceEth_V1(_user);\n    }\n\n    /// @notice fallback payable function , with revert if is deactivated\n    function() external payable {\n        return receiveDepotEth_V1();\n    }\n\n    /// @notice deposit Eth\n    /// @dev Comptability with previous 'AuctionityDeposit'\n    function depositEth() public payable {\n        receiveDepotEth_V1();\n    }\n\n    /// @notice receive depot Eth\n    function receiveDepotEth_V1()  public payable {\n        require(!delegatedSendGetPaused_V1(), \"CONTRACT_PAUSED\");\n\n        address _user = msg.sender;\n        uint256 _amount = uint256(msg.value);\n\n        _addDepotEth_V1(_user, _amount);\n\n        // For previous compatibility\n        emit LogDeposed(_user, _amount);\n\n        emit LogAddDepot_V1(\n            _user,\n            address(0),\n            uint256(0),\n            _amount,\n            getBalanceEth_V1(_user)\n        );\n\n    }\n\n    /// @notice internal add depot Eth\n    /// @param _user address from depot\n    /// @param _amount uint256\n    /// @return _success\n    function _addDepotEth_V1(address _user, uint256 _amount)\n        internal\n        returns (bool)\n    {\n        return _addDepot_V1(_user, address(0), uint256(0), _amount);\n    }\n\n    /// @notice internal add depot (compatibility ERC1155)\n    /// @param _user address from depot\n    /// @param _tokenContractAddress address of NFT smart contract\n    /// @param _tokenId uint256 of ERC1155\n    /// @param _amount uint256 of ERC1155\n    /// @return _success\n    function _addDepot_V1(\n        address _user,\n        address _tokenContractAddress,\n        uint256 _tokenId,\n        uint256 _amount\n    ) internal returns (bool) {\n        require(_amount > 0, \"Amount must be greater than 0\");\n\n        tokens[_tokenContractAddress][_tokenId][_user] = tokens[_tokenContractAddress][_tokenId][_user].add(\n            _amount\n        );\n\n        return true;\n    }\n\n    /// @notice internal subtraction depot eth\n    /// @param _user address\n    /// @param _amount uint256\n    /// @return _success\n    function _subDepotEth_V1(address _user, uint256 _amount)\n        internal\n        returns (bool)\n    {\n        return _subDepot_V1(_user, address(0), uint256(0), _amount);\n    }\n\n    /// @notice internal substration depot (compatibility ERC1155)\n    /// @param _user address from depot\n    /// @param _tokenContractAddress address of NFT smart contract\n    /// @param _tokenId uint256 of ERC1155\n    /// @param _amount uint256 of ERC1155\n    /// @return _success\n    function _subDepot_V1(\n        address _user,\n        address _tokenContractAddress,\n        uint256 _tokenId,\n        uint256 _amount\n    ) internal returns (bool) {\n        require(\n            tokens[_tokenContractAddress][_tokenId][_user] >= _amount,\n            \"Amount too low\"\n        );\n\n        tokens[_tokenContractAddress][_tokenId][_user] = tokens[_tokenContractAddress][_tokenId][_user].sub(\n            _amount\n        );\n\n        return true;\n    }\n\n    /// @notice get balance Eth for a user\n    /// @param _user address\n    /// @return _balanceOf uint256\n    function getBalanceEth_V1(address _user) public view returns (uint256 _balanceOf) {\n        return _getBalance_V1(_user, address(0), uint256(0));\n    }\n\n    /// @notice get balance for a user (compatibility ERC1155)\n    /// @param _user address from depot\n    /// @param _tokenContractAddress address of NFT smart contract\n    /// @param _tokenId uint256 of ERC1155\n    /// @return _balanceOf uint256\n    function _getBalance_V1(\n        address _user,\n        address _tokenContractAddress,\n        uint256 _tokenId\n    ) internal view returns (uint256 _balanceOf) {\n        return tokens[_tokenContractAddress][_tokenId][_user];\n    }\n\n    /// @notice withdrawal voucher\n    /// @param _withdrawalVoucherData bytes , RSV FROM Oracle, user , amount and key (anti replay)\n    /// @param _signedRawTxWithdrawal bytes\n    function withdrawalVoucher_V1(\n        bytes memory _withdrawalVoucherData,\n        bytes memory _signedRawTxWithdrawal\n    ) public {\n        require(!delegatedSendGetPaused_V1(), \"CONTRACT_PAUSED\");\n\n        bytes32 _withdrawalVoucherHash = keccak256(_signedRawTxWithdrawal);\n\n        require(\n            withdrawalVoucherSubmitted[_withdrawalVoucherHash] != true,\n            \"Withdrawal voucher is already submited\"\n        );\n\n        address _withdrawalSigner;\n        uint _withdrawalAmount;\n\n        (_withdrawalSigner, _withdrawalAmount) = AuctionityLibraryDecodeRawTx_V1.decodeRawTxGetWithdrawalInfo_V1(\n            _signedRawTxWithdrawal,\n            getAuctionityChainId_V1()\n        );\n\n        require(\n            _withdrawalAmount != uint256(0),\n            \"Withdrawal voucher amount must be greater than zero\"\n        );\n        require(\n            _withdrawalSigner != address(0),\n            \"Withdrawal voucher invalid signature of oracle\"\n        );\n\n        // if depot is smaller than amount\n        require(\n            getBalanceEth_V1(_withdrawalSigner) >= _withdrawalAmount,\n            \"Withdrawal voucher depot amount is too low\"\n        );\n\n        require(\n            withdrawalVoucherOracleSignatureVerification_V1(\n                _withdrawalVoucherData,\n                _withdrawalSigner,\n                _withdrawalAmount,\n                _withdrawalVoucherHash\n            ),\n            \"Withdrawal voucher invalid signature of oracle\"\n        );\n\n        // send amount\n        require(\n            address(uint160(_withdrawalSigner)).send(_withdrawalAmount),\n            \"Withdrawal voucher transfer failed\"\n        );\n\n        _subDepotEth_V1(_withdrawalSigner, _withdrawalAmount);\n\n        withdrawalVoucherList.push(_withdrawalVoucherHash);\n        withdrawalVoucherSubmitted[_withdrawalVoucherHash] = true;\n\n        // For previous compatibility\n        emit LogWithdrawalVoucherSubmitted(\n            _withdrawalSigner,\n            _withdrawalAmount,\n            _withdrawalVoucherHash\n        );\n\n        emit LogWithdrawalVoucherSubmitted_V1(\n            _withdrawalSigner,\n            _withdrawalAmount,\n            _withdrawalVoucherHash\n        );\n    }\n\n    /// @notice internal withdrawal voucher oracle signature verification\n    /// @param _withdrawalVoucherData bytes\n    /// @param _withdrawalSigner address\n    /// @param _withdrawalAmount uint256\n    /// @param _withdrawalVoucherHash bytes32 : hash of _signedRawTxWithdrawal\n    /// @return _success\n    function withdrawalVoucherOracleSignatureVerification_V1(\n        bytes memory _withdrawalVoucherData,\n        address _withdrawalSigner,\n        uint256 _withdrawalAmount,\n        bytes32 _withdrawalVoucherHash\n    ) internal returns (bool) {\n        /// @dev if oracle is the signer of this withdrawal voucher\n        return delegatedSendGetOracle_V1(\n\n        ) == AuctionityLibraryDecodeRawTx_V1.ecrecoverSigner_V1(\n            keccak256(\n                abi.encodePacked(\n                    \"\\x19Ethereum Signed Message:\\n32\",\n                    keccak256(\n                        abi.encodePacked(\n                            address(this),\n                            _withdrawalSigner,\n                            _withdrawalAmount,\n                            _withdrawalVoucherHash\n                        )\n                    )\n                )\n            ),\n                _withdrawalVoucherData,\n            0\n        );\n    }\n\n    /// @notice auctionEndVoucher_V1\n    /// @param _auctionEndVoucherData is a  concatenate of : biddingHashProof, rsv ECDSA signature of oracle validation AEV and transfer token\n    /// @param _signedRawTxCreateAuction bytes of signed transaction of create transaction on auction smart contract\n    /// @param _signedRawTxBidding bytes of signed transaction of bidding transaction on auction smart contract\n    /// @param _send bytes of send external and internal (rewards) amount\n    function auctionEndVoucher_V1(\n        bytes memory _auctionEndVoucherData,\n        bytes memory _signedRawTxCreateAuction,\n        bytes memory _signedRawTxBidding,\n        bytes memory _send\n    ) public {\n        require(!delegatedSendGetPaused_V1(), \"CONTRACT_PAUSED\");\n\n        bytes32 _auctionEndVoucherHash = keccak256(_signedRawTxCreateAuction);\n        require(\n            auctionEndVoucherSubmitted[_auctionEndVoucherHash] != true,\n            \"Auction end voucher already submited\"\n        );\n\n        InfoFromCreateAuction memory _infoFromCreateAuction = getInfoFromCreateAuction_V1(\n            _signedRawTxCreateAuction\n        );\n\n        address _auctionContractAddress;\n        address _winnerSigner;\n        uint256 _winnerAmount;\n\n        InfoFromBidding memory _infoFromBidding;\n\n        if (_signedRawTxBidding.length > 1) {\n            _infoFromBidding = getInfoFromBidding_V1(\n                _signedRawTxBidding,\n                _infoFromCreateAuction.tokenHash\n            );\n\n            if (!verifyWinnerDepot_V1(_infoFromBidding)) {\n                return;\n            }\n        }\n\n        require(\n            auctionEndVoucherOracleSignatureVerification_V1(\n                _auctionEndVoucherData,\n                keccak256(_send),\n                _infoFromCreateAuction,\n                _infoFromBidding\n            ),\n            \"Auction end voucher invalid signature of oracle\"\n        );\n\n        require(\n            sendTransfer_V1(\n                _infoFromCreateAuction.tokenContractAddress,\n                _auctionEndVoucherData,\n                97\n            ),\n            \"Auction end voucher transfer failed\"\n        );\n\n        if (_signedRawTxBidding.length > 1) {\n            if (!sendExchange_V1(\n                _send,\n                _infoFromCreateAuction,\n                _infoFromBidding\n            )) {\n                return;\n            }\n        }\n\n        auctionEndVoucherList.push(_auctionEndVoucherHash);\n        auctionEndVoucherSubmitted[_auctionEndVoucherHash] = true;\n\n        // For previous compatibility\n        emit LogAuctionEndVoucherSubmitted(\n            _infoFromCreateAuction.tokenHash,\n            _infoFromCreateAuction.tokenContractAddress,\n            _infoFromCreateAuction.tokenId,\n            _infoFromCreateAuction.auctionSeller,\n            _infoFromBidding.signer,\n            _infoFromBidding.amount,\n            _auctionEndVoucherHash\n        );\n\n        emit LogAuctionEndVoucherSubmitted_V1(\n            _infoFromCreateAuction.tokenHash,\n            _infoFromCreateAuction.tokenContractAddress,\n            _infoFromCreateAuction.tokenId,\n            _infoFromCreateAuction.auctionSeller,\n            _infoFromBidding.signer,\n            _infoFromBidding.amount,\n            _auctionEndVoucherHash\n        );\n    }\n\n    /// @notice internal get information from create auction signed transaction\n    /// @param _signedRawTxCreateAuction bytes\n    /// @return InfoFromCreateAuction structure\n    function getInfoFromCreateAuction_V1(bytes memory _signedRawTxCreateAuction)\n        internal\n        view\n        returns (InfoFromCreateAuction memory _infoFromCreateAuction)\n    {\n        (_infoFromCreateAuction.tokenHash, , _infoFromCreateAuction.auctionSeller, _infoFromCreateAuction.tokenContractAddress, _infoFromCreateAuction.tokenId, _infoFromCreateAuction.rewardPercent) = AuctionityLibraryDecodeRawTx_V1.decodeRawTxGetCreateAuctionInfo_V1(\n            _signedRawTxCreateAuction,\n            getAuctionityChainId_V1()\n        );\n    }\n\n    /// @notice internal get information from bidding signed transaction\n    /// @param _signedRawTxBidding bytes\n    /// @param _hashSignedRawTxTokenTransfer bytes32 tokenhash :  hash of _signedRawTxTokenTransfer (include into create auction transaction)\n    /// @return InfoFromBidding structure\n    function getInfoFromBidding_V1(\n        bytes memory _signedRawTxBidding,\n        bytes32 _hashSignedRawTxTokenTransfer\n    ) internal returns (InfoFromBidding memory _infoFromBidding) {\n        bytes32 _hashRawTxTokenTransferFromBid;\n\n        (_hashRawTxTokenTransferFromBid, _infoFromBidding.auctionContractAddress, _infoFromBidding.amount, _infoFromBidding.signer) = AuctionityLibraryDecodeRawTx_V1.decodeRawTxGetBiddingInfo_V1(\n            _signedRawTxBidding,\n            getAuctionityChainId_V1()\n        );\n\n        require(\n            _hashRawTxTokenTransferFromBid == _hashSignedRawTxTokenTransfer,\n            \"Auction end voucher hashRawTxTokenTransfer is invalid\"\n        );\n\n        require(\n            _infoFromBidding.amount != uint256(0),\n            \"Auction end voucher bidding amount must be greater than zero\"\n        );\n\n        return _infoFromBidding;\n\n    }\n\n    /// @notice intenral verify winner have enouth depot with bidding information\n    /// @param _infoFromBidding InfoFromBidding structure\n    /// @return _success\n    function verifyWinnerDepot_V1(InfoFromBidding memory _infoFromBidding)\n        internal\n        returns (bool)\n    {\n        // depot is greatuer or eqal than amount\n        require(\n            getBalanceEth_V1(\n                _infoFromBidding.signer\n            ) >= _infoFromBidding.amount,\n            \"Auction end voucher depot amount is too low\"\n        );\n\n        return true;\n    }\n\n    /// @notice internal send external and internal deposit amount\n    /// @param _send bytes of send external and internal (rewards) amount\n    /// @param _infoFromCreateAuction InfoFromCreateAuction structure\n    /// @param _infoFromBidding InfoFromBidding structure\n    /// @return _success\n    function sendExchange_V1(\n        bytes memory _send,\n        InfoFromCreateAuction memory _infoFromCreateAuction,\n        InfoFromBidding memory _infoFromBidding\n    ) internal returns (bool) {\n        require(\n            _subDepotEth_V1(_infoFromBidding.signer, _infoFromBidding.amount),\n            \"Auction end voucher depot amout is too low\"\n        );\n\n        uint offset;\n        address payable _sendAddress;\n        uint256 _sendAmount;\n        bytes12 _sendAmountGwei;\n        uint256 _sentAmount;\n\n        assembly {\n            _sendAddress := mload(add(_send, add(offset, 0x14)))\n            _sendAmount := mload(add(_send, add(add(offset, 20), 0x20)))\n        }\n\n        require(\n            _sendAddress == _infoFromCreateAuction.auctionSeller,\n            \"Auction end voucher sender address is invalider\"\n        );\n\n        _sentAmount += _sendAmount;\n        offset += 52;\n\n        // send amount to seller\n        if (!_sendAddress.send(_sendAmount)) {\n            revert(\"Failed to send funds\");\n        }\n\n        // emit old event for previous compatibility\n        emit LogSentEthToWinner(_infoFromBidding.auctionContractAddress,\n            _sendAddress,\n            _sendAmount);\n\n        emit LogSentEthToSeller_V1(\n            _infoFromBidding.auctionContractAddress,\n            _sendAddress,\n            _sendAmount\n        );\n\n        // if community rewards is informed\n        if (_infoFromCreateAuction.rewardPercent > 0) {\n\n            // get number of rewards\n            bytes2 _numberOfSendDepositBytes2;\n            assembly {\n                _numberOfSendDepositBytes2 := mload(\n                    add(_send, add(offset, 0x20))\n                )\n            }\n\n            offset += 2;\n\n\n            // initiate _rewardsAddress and _rewardsAmount\n            address[] memory _rewardsAddress = new address[](\n                uint16(_numberOfSendDepositBytes2)\n            );\n            uint256[] memory _rewardsAmount = new uint256[](\n                uint16(_numberOfSendDepositBytes2)\n            );\n\n\n            for (uint16 i = 0; i < uint16(_numberOfSendDepositBytes2); i++) {\n\n                // get address and amount in gwei for reward\n                assembly {\n                    _sendAddress := mload(add(_send, add(offset, 0x14)))\n                    _sendAmountGwei := mload(\n                        add(_send, add(add(offset, 20), 0x20))\n                    )\n                }\n\n                // multiply amount in gwei to wei\n                _sendAmount = uint96(_sendAmountGwei) * 1000000000;\n                // sum of all reward amount for verification below\n                _sentAmount += _sendAmount;\n                offset += 32;\n\n                // add internal deposit reward amount for reward address\n                if (!_addDepotEth_V1(_sendAddress, _sendAmount)) {\n                    revert(\"Can't add deposit\");\n                }\n\n                _rewardsAddress[i] = _sendAddress;\n                _rewardsAmount[i] = uint256(_sendAmount);\n            }\n\n            // For previous compatibility\n            emit LogSentRewardsDepotEth(_rewardsAddress, _rewardsAmount);\n\n            emit LogSentRewardsDepotEth_V1(_rewardsAddress, _rewardsAmount);\n        }\n\n        // verification if sum of sended amount is equal than bidding amount\n        if (uint256(_infoFromBidding.amount) != _sentAmount) {\n            revert(\"Bidding amount is not equal to sent amount\");\n        }\n\n        return true;\n    }\n\n    /// @notice internal get transfert data hash from AEV data (part of transfert token to winner)\n    /// @param _auctionEndVoucherData bytes\n    /// @return _transferDataHash bytes32\n    function getTransferDataHash_V1(bytes memory _auctionEndVoucherData)\n        internal\n        pure\n        returns (bytes32 _transferDataHash)\n    {\n        bytes memory _transferData = new bytes(_auctionEndVoucherData.length - 97);\n\n        for (uint i = 0; i < (_auctionEndVoucherData.length - 97); i++) {\n            _transferData[i] = _auctionEndVoucherData[i + 97];\n        }\n        return keccak256(_transferData);\n\n    }\n\n    /// @notice internal auctionEndVoucher oracle signature verification\n    /// @param _auctionEndVoucherData bytes\n    /// @param _sendDataHash bytes32\n    /// @param _infoFromCreateAuction InfoFromCreateAuction structure\n    /// @param _infoFromBidding InfoFromBidding structure\n    /// @return _success\n    function auctionEndVoucherOracleSignatureVerification_V1(\n        bytes memory _auctionEndVoucherData,\n        bytes32 _sendDataHash,\n        InfoFromCreateAuction memory _infoFromCreateAuction,\n        InfoFromBidding memory _infoFromBidding\n    ) internal returns (bool) {\n        bytes32 _biddingHashProof;\n        assembly {\n            _biddingHashProof := mload(add(_auctionEndVoucherData, add(0, 0x20)))\n        }\n\n        // get hash of transfert data\n        bytes32 _transferDataHash = getTransferDataHash_V1(_auctionEndVoucherData);\n\n        // if oracle is the signer of this auction end voucher\n        return delegatedSendGetOracle_V1() == AuctionityLibraryDecodeRawTx_V1.ecrecoverSigner_V1(\n            keccak256(\n                abi.encodePacked(\n                    \"\\x19Ethereum Signed Message:\\n32\",\n                    keccak256(\n                        abi.encodePacked(\n                            address(this),\n                            _infoFromCreateAuction.tokenContractAddress,\n                            _infoFromCreateAuction.tokenId,\n                            _infoFromCreateAuction.auctionSeller,\n                            _infoFromBidding.signer,\n                            _infoFromBidding.amount,\n                            _biddingHashProof,\n                            _infoFromCreateAuction.rewardPercent,\n                            _transferDataHash,\n                            _sendDataHash\n                        )\n                    )\n                )\n            ),\n            _auctionEndVoucherData,\n            32\n        );\n\n    }\n\n    /// @notice send token(s) to winner\n    /// @param _tokenContractAddress address\n    /// @param _auctionEndVoucherData bytes\n    /// @param _offset of begin transfert data\n    function sendTransfer_V1(\n        address _tokenContractAddress,\n        bytes memory _auctionEndVoucherData,\n        uint _offset\n    ) internal returns (bool) {\n        if (!isContract_V1(_tokenContractAddress)) {\n            return false;\n        }\n\n        uint8 _numberOfTransfer = uint8(_auctionEndVoucherData[_offset]);\n\n        _offset += 1;\n\n        bool _success;\n        for (uint8 i = 0; i < _numberOfTransfer; i++) {\n            (_offset, _success) = decodeTransferCall_V1(\n                _tokenContractAddress,\n                _auctionEndVoucherData,\n                _offset\n            );\n\n            if (!_success) {\n                return false;\n            }\n        }\n\n        return true;\n\n    }\n\n    /// @notice decode transfert and call token smart contract\n    /// @param _tokenContractAddress address\n    /// @param _auctionEndVoucherData bytes\n    /// @param _offset of begin transfert data\n    /// @return new offset, and _success\n    function decodeTransferCall_V1(\n        address _tokenContractAddress,\n        bytes memory _auctionEndVoucherData,\n        uint _offset\n    ) internal returns (uint, bool) {\n        bytes memory _sizeOfCallBytes;\n        bytes memory _callData;\n\n        uint _sizeOfCallData;\n\n        if (_auctionEndVoucherData[_offset] == 0xb8) {\n            _sizeOfCallBytes = new bytes(1);\n            _sizeOfCallBytes[0] = bytes1(_auctionEndVoucherData[_offset + 1]);\n\n            _offset += 2;\n        }\n        if (_auctionEndVoucherData[_offset] == 0xb9) {\n            _sizeOfCallBytes = new bytes(2);\n            _sizeOfCallBytes[0] = bytes1(_auctionEndVoucherData[_offset + 1]);\n            _sizeOfCallBytes[1] = bytes1(_auctionEndVoucherData[_offset + 2]);\n            _offset += 3;\n        }\n        \n        _sizeOfCallData = bytesToUint_V1(_sizeOfCallBytes);\n\n        _callData = new bytes(_sizeOfCallData);\n        for (uint j = 0; j < _sizeOfCallData; j++) {\n            _callData[j] = _auctionEndVoucherData[(j + _offset)];\n        }\n\n        _offset += _sizeOfCallData;\n\n        return (_offset, sendCallData_V1(\n            _tokenContractAddress,\n            _sizeOfCallData,\n            _callData\n        ));\n\n    }\n\n    /// @notice call token smart contract with call data\n    /// @param _tokenContractAddress address\n    /// @param _sizeOfCallData uint256 , size of call data\n    /// @param _callData bytes\n    /// @return _success\n    function sendCallData_V1(\n        address _tokenContractAddress,\n        uint256 _sizeOfCallData,\n        bytes memory _callData\n    ) internal returns (bool) {\n        bool _success;\n        bytes4 sig;\n\n        assembly {\n            let _ptr := mload(0x40)\n            sig := mload(add(_callData, 0x20))\n\n            mstore(_ptr, sig) //Place signature at begining of empty storage\n            for {\n                let i := 0x04\n            } lt(i, _sizeOfCallData) {\n                i := add(i, 0x20)\n            } {\n                mstore(add(_ptr, i), mload(add(_callData, add(0x20, i)))) //Add each param\n            }\n\n            // call external smart contract with 10K de gas, return _success\n            _success := call(\n                //This is the critical change (Pop the top stack value)\n                sub(gas, 10000), // gas\n                _tokenContractAddress, //To addr\n                0, //No value\n                _ptr, //Inputs are stored at location _ptr\n                _sizeOfCallData, //Inputs _size\n                _ptr, //Store output over input (saves space)\n                0x20\n            ) //Outputs are 32 bytes long\n\n        }\n\n        return _success;\n    }\n\n}\n",
  "sourcePath": "/home/mike/domraider/4x-sas/bc-auction-sc/contracts/ethereumLivenet/AuctionityDeposit_V1.sol",
  "compiler": {
    "name": "solc",
    "version": "0.5.4+commit.9549d8ff.Emscripten.clang"
  },
  "schemaVersion": "3.0.2",
  "updatedAt": "2019-09-20T07:24:53.415Z",
  "devdoc": {
    "methods": {
      "auctionEndVoucher_V1(bytes,bytes,bytes,bytes)": {
        "params": {
          "_auctionEndVoucherData": "is a  concatenate of : biddingHashProof, rsv ECDSA signature of oracle validation AEV and transfer token",
          "_send": "bytes of send external and internal (rewards) amount",
          "_signedRawTxBidding": "bytes of signed transaction of bidding transaction on auction smart contract",
          "_signedRawTxCreateAuction": "bytes of signed transaction of create transaction on auction smart contract"
        }
      },
      "delegatedLockDeposit_V1(address,uint256,uint256,uint256,address)": {
        "params": {
          "_amount": "uint256",
          "_auctionId": "uint256",
          "_refundUser": "address",
          "_tokenContractAddress": "address",
          "_tokenId": "uint256"
        },
        "return": "bool _isPaused"
      },
      "delegatedSendGetOracle_V1()": {
        "return": "address _oracle"
      },
      "delegatedSendGetPaused_V1()": {
        "return": "bool _isPaused"
      },
      "delegatedSendIsContractOwner_V1()": {
        "return": "_isContractOwner"
      },
      "depositEth()": {
        "details": "Comptability with previous 'AuctionityDeposit'"
      },
      "getAuctionityChainId_V1()": {
        "return": "auctionity network id"
      },
      "getBalanceEth_V1(address)": {
        "params": {
          "_user": "address"
        },
        "return": "_balanceOf uint256"
      },
      "getDelegate_V1(bytes4)": {
        "params": {
          "_selector": "byte4"
        },
        "return": "_contractDelegate address"
      },
      "getDepotEth(address)": {
        "details": "Comptability with previous 'AuctionityDeposit_V1'",
        "params": {
          "_user": "address"
        },
        "return": "_amount uint256"
      },
      "getEthereumChainId_V1()": {
        "return": "ethereum network id"
      },
      "setAuctionityChainId_V1(uint8)": {
        "params": {
          "_auctionityChainId": "uint8 : auctionity network id"
        }
      },
      "setEthereumChainId_V1(uint8)": {
        "params": {
          "_ethereumChainId": "uint8 : ethereum network id"
        }
      },
      "withdrawalVoucher_V1(bytes,bytes)": {
        "params": {
          "_signedRawTxWithdrawal": "bytes",
          "_withdrawalVoucherData": "bytes , RSV FROM Oracle, user , amount and key (anti replay)"
        }
      }
    }
  },
  "userdoc": {
    "methods": {
      "auctionEndVoucher_V1(bytes,bytes,bytes,bytes)": {
        "notice": "auctionEndVoucher_V1"
      },
      "delegatedLockDeposit_V1(address,uint256,uint256,uint256,address)": {
        "notice": "delegate lockDeposit_V1"
      },
      "delegatedSendGetOracle_V1()": {
        "notice": "delegate getOracle_V1"
      },
      "delegatedSendGetPaused_V1()": {
        "notice": "delegate getPaused_V1"
      },
      "delegatedSendIsContractOwner_V1()": {
        "notice": "delegate IsContractOwner_V1"
      },
      "depositEth()": {
        "notice": "deposit Eth"
      },
      "getAuctionityChainId_V1()": {
        "notice": "getter of auctionity network id"
      },
      "getBalanceEth_V1(address)": {
        "notice": "get balance Eth for a user"
      },
      "getDelegate_V1(bytes4)": {
        "notice": "get delegated addrss from a selector"
      },
      "getDepotEth(address)": {
        "notice": "get amount of user's deposit"
      },
      "getEthereumChainId_V1()": {
        "notice": "getter of ethereum network id"
      },
      "receiveDepotEth_V1()": {
        "notice": "receive depot Eth"
      },
      "setAuctionityChainId_V1(uint8)": {
        "notice": "setter of auctionity network id"
      },
      "setEthereumChainId_V1(uint8)": {
        "notice": "setter of ethereum network id"
      },
      "withdrawalVoucher_V1(bytes,bytes)": {
        "notice": "withdrawal voucher"
      }
    }
  }
}